{
  "contractName": "LEDState",
  "abi": [
    {
      "constant": true,
      "inputs": [],
      "name": "currentState",
      "outputs": [
        {
          "name": "",
          "type": "bool"
        }
      ],
      "payable": false,
      "stateMutability": "view",
      "type": "function"
    },
    {
      "constant": false,
      "inputs": [],
      "name": "renounceOwnership",
      "outputs": [],
      "payable": false,
      "stateMutability": "nonpayable",
      "type": "function"
    },
    {
      "constant": true,
      "inputs": [],
      "name": "owner",
      "outputs": [
        {
          "name": "",
          "type": "address"
        }
      ],
      "payable": false,
      "stateMutability": "view",
      "type": "function"
    },
    {
      "constant": true,
      "inputs": [],
      "name": "isOwner",
      "outputs": [
        {
          "name": "",
          "type": "bool"
        }
      ],
      "payable": false,
      "stateMutability": "view",
      "type": "function"
    },
    {
      "constant": true,
      "inputs": [],
      "name": "roomContract",
      "outputs": [
        {
          "name": "",
          "type": "address"
        }
      ],
      "payable": false,
      "stateMutability": "view",
      "type": "function"
    },
    {
      "constant": true,
      "inputs": [],
      "name": "LEDDim",
      "outputs": [
        {
          "name": "",
          "type": "uint256"
        }
      ],
      "payable": false,
      "stateMutability": "view",
      "type": "function"
    },
    {
      "constant": true,
      "inputs": [],
      "name": "daliShortAddress",
      "outputs": [
        {
          "name": "",
          "type": "uint256"
        }
      ],
      "payable": false,
      "stateMutability": "view",
      "type": "function"
    },
    {
      "constant": false,
      "inputs": [
        {
          "name": "newOwner",
          "type": "address"
        }
      ],
      "name": "transferOwnership",
      "outputs": [],
      "payable": false,
      "stateMutability": "nonpayable",
      "type": "function"
    },
    {
      "inputs": [
        {
          "name": "defaultState",
          "type": "bool"
        },
        {
          "name": "_roomContract",
          "type": "address"
        },
        {
          "name": "_roomOwner",
          "type": "address"
        },
        {
          "name": "_daliShortAddress",
          "type": "uint256"
        },
        {
          "name": "_LEDDim",
          "type": "uint256"
        }
      ],
      "payable": false,
      "stateMutability": "nonpayable",
      "type": "constructor"
    },
    {
      "anonymous": false,
      "inputs": [
        {
          "indexed": false,
          "name": "daliShortAddress",
          "type": "uint256"
        }
      ],
      "name": "daliShortAddressUpdated",
      "type": "event"
    },
    {
      "anonymous": false,
      "inputs": [
        {
          "indexed": false,
          "name": "updatedState",
          "type": "bool"
        }
      ],
      "name": "stateUpdated",
      "type": "event"
    },
    {
      "anonymous": false,
      "inputs": [
        {
          "indexed": false,
          "name": "roomContract",
          "type": "address"
        }
      ],
      "name": "roomChanged",
      "type": "event"
    },
    {
      "anonymous": false,
      "inputs": [
        {
          "indexed": false,
          "name": "LEDDim",
          "type": "uint256"
        }
      ],
      "name": "dimUpdated",
      "type": "event"
    },
    {
      "anonymous": false,
      "inputs": [
        {
          "indexed": true,
          "name": "previousOwner",
          "type": "address"
        },
        {
          "indexed": true,
          "name": "newOwner",
          "type": "address"
        }
      ],
      "name": "OwnershipTransferred",
      "type": "event"
    },
    {
      "constant": false,
      "inputs": [
        {
          "name": "newState",
          "type": "bool"
        },
        {
          "name": "_LEDDim",
          "type": "uint256"
        }
      ],
      "name": "onDim",
      "outputs": [],
      "payable": false,
      "stateMutability": "nonpayable",
      "type": "function"
    },
    {
      "constant": false,
      "inputs": [
        {
          "name": "newState",
          "type": "bool"
        }
      ],
      "name": "updateState",
      "outputs": [],
      "payable": false,
      "stateMutability": "nonpayable",
      "type": "function"
    },
    {
      "constant": false,
      "inputs": [
        {
          "name": "_LEDDim",
          "type": "uint256"
        }
      ],
      "name": "updateDim",
      "outputs": [],
      "payable": false,
      "stateMutability": "nonpayable",
      "type": "function"
    },
    {
      "constant": false,
      "inputs": [
        {
          "name": "newdaliShortAddr",
          "type": "uint256"
        }
      ],
      "name": "updatedaliShortAddr",
      "outputs": [],
      "payable": false,
      "stateMutability": "nonpayable",
      "type": "function"
    },
    {
      "constant": false,
      "inputs": [
        {
          "name": "newRoomAddr",
          "type": "address"
        }
      ],
      "name": "updateRoomContract",
      "outputs": [],
      "payable": false,
      "stateMutability": "nonpayable",
      "type": "function"
    }
  ],
  "bytecode": "0x6080604052600060025534801561001557600080fd5b5060405160a08061091a833981018060405260a081101561003557600080fd5b5080516020820151604080840151606085015160809095015160008054600160a060020a03191633178082559351959694959294939192600160a060020a0392909216916000805160206108fa833981519152908290a360038054600160a060020a031916600160a060020a03861617905560018290556040805183815290517fcb79942d30d1c678805ad277e46eca6fc95003ded1feefc23d51da9022f9ed85916020908290030190a16000805486151574010000000000000000000000000000000000000000810260a060020a60ff021990921691909117909155600282905560408051918252517f9e3d55ed4e38566cb92d2caa898e85e8c917efcdce6ae9dfc2ac5188675d81829181900360200190a160025460408051918252517ffeb31388affc5046bfbc73aff5acfd6e7e35294625cb1fb9e143a4f3370038799181900360200190a16101908364010000000061019a810204565b505050505061023a565b6101ab6401000000006101cb810204565b15156101b657600080fd5b6101c8816401000000006101dc810204565b50565b600054600160a060020a0316331490565b600160a060020a03811615156101f157600080fd5b60008054604051600160a060020a03808516939216916000805160206108fa83398151915291a360008054600160a060020a031916600160a060020a0392909216919091179055565b6106b1806102496000396000f3fe6080604052600436106100c45763ffffffff7c01000000000000000000000000000000000000000000000000000000006000350416630c3f6acf81146100c95780633b8c8eb0146100f2578063715018a61461011e57806380db3598146101335780638da5cb5b1461015d5780638f32d59b1461019b57806391ce8a0d146101b05780639cda6dc2146101f0578063b93f4e3414610205578063c70bdeae14610231578063d3ebb17014610263578063e013c7961461028a578063f2fde38b1461029f575b600080fd5b3480156100d557600080fd5b506100de6102df565b604080519115158252519081900360200190f35b3480156100fe57600080fd5b5061011c6004803603602081101561011557600080fd5b5035610300565b005b34801561012a57600080fd5b5061011c61034e565b34801561013f57600080fd5b5061011c6004803603602081101561015657600080fd5b50356103c5565b34801561016957600080fd5b50610172610413565b6040805173ffffffffffffffffffffffffffffffffffffffff9092168252519081900360200190f35b3480156101a757600080fd5b506100de61042f565b3480156101bc57600080fd5b5061011c600480360360208110156101d357600080fd5b503573ffffffffffffffffffffffffffffffffffffffff1661044d565b3480156101fc57600080fd5b506101726104d4565b34801561021157600080fd5b5061011c6004803603602081101561022857600080fd5b503515156104f0565b34801561023d57600080fd5b5061011c6004803603604081101561025457600080fd5b5080351515906020013561058d565b34801561026f57600080fd5b506102786105b6565b60408051918252519081900360200190f35b34801561029657600080fd5b506102786105bc565b3480156102ab57600080fd5b5061011c600480360360208110156102c257600080fd5b503573ffffffffffffffffffffffffffffffffffffffff166105c2565b60005474010000000000000000000000000000000000000000900460ff1681565b61030861042f565b151561031357600080fd5b60018190556040805182815290517fcb79942d30d1c678805ad277e46eca6fc95003ded1feefc23d51da9022f9ed859181900360200190a150565b61035661042f565b151561036157600080fd5b6000805460405173ffffffffffffffffffffffffffffffffffffffff909116907f8be0079c531659141344cd1fd0a4f28419497f9722a3daafe3b4186f6b6457e0908390a36000805473ffffffffffffffffffffffffffffffffffffffff19169055565b6103cd61042f565b15156103d857600080fd5b60028190556040805182815290517ffeb31388affc5046bfbc73aff5acfd6e7e35294625cb1fb9e143a4f3370038799181900360200190a150565b60005473ffffffffffffffffffffffffffffffffffffffff1690565b60005473ffffffffffffffffffffffffffffffffffffffff16331490565b61045561042f565b151561046057600080fd5b6003805473ffffffffffffffffffffffffffffffffffffffff191673ffffffffffffffffffffffffffffffffffffffff838116919091179182905560408051929091168252517f154c816c73f52003b03ea9ecb0ca882ec73beca16c20a6ee92420ddbd1599ca3916020908290030190a150565b60035473ffffffffffffffffffffffffffffffffffffffff1681565b6104f861042f565b151561050357600080fd5b60008054821515740100000000000000000000000000000000000000009081027fffffffffffffffffffffff00ffffffffffffffffffffffffffffffffffffffff9092169190911791829055604080519190920460ff161515815290517f9e3d55ed4e38566cb92d2caa898e85e8c917efcdce6ae9dfc2ac5188675d81829181900360200190a150565b61059561042f565b15156105a057600080fd5b6105a9826104f0565b6105b2816103c5565b5050565b60025481565b60015481565b6105ca61042f565b15156105d557600080fd5b6105de816105e1565b50565b73ffffffffffffffffffffffffffffffffffffffff8116151561060357600080fd5b6000805460405173ffffffffffffffffffffffffffffffffffffffff808516939216917f8be0079c531659141344cd1fd0a4f28419497f9722a3daafe3b4186f6b6457e091a36000805473ffffffffffffffffffffffffffffffffffffffff191673ffffffffffffffffffffffffffffffffffffffff9290921691909117905556fea165627a7a72305820dae78e79148a4deec07a3e470b50ff4b69b62174707ee580218ed6df4e7223b200298be0079c531659141344cd1fd0a4f28419497f9722a3daafe3b4186f6b6457e0",
  "source": "pragma solidity ^0.5.0;\n\n/**\n * \n  _      ______ _____   _____ _        _       \n | |    |  ____|  __ \\ / ____| |      | |      \n | |    | |__  | |  | | (___ | |_ __ _| |_ ___ \n | |    |  __| | |  | |\\___ \\| __/ _` | __/ _ \\\n | |____| |____| |__| |____) | || (_| | ||  __/\n |______|______|_____/|_____/ \\__\\__,_|\\__\\___|\n                                               \n                                               \n*\n* Author: Joshua Bijak\n* Description: Smart contract for monitoring and controlling states of a LED DAlI enabled Creol Luminaire\n* TODO: Check and validate all inputs coming into functions\n*/\n\n\nimport  '../../node_modules/openzeppelin-solidity/contracts/ownership/Ownable.sol';\n\n\n\n\ncontract LEDState is Ownable {\n    \n    //On off switch\n    bool public currentState;\n    \n    uint256 public daliShortAddress;\n    //On how much, if off. Remember this dim rate\n    uint256 public LEDDim =0;\n     \n    address public roomContract;\n    \n    \n    event daliShortAddressUpdated(uint256 daliShortAddress);\n    event stateUpdated(bool updatedState);\n    event roomChanged(address roomContract);\n    event dimUpdated(uint256 LEDDim);\n    \n    constructor(bool defaultState, address _roomContract,address _roomOwner, uint256 _daliShortAddress, uint256 _LEDDim) public{\n        // TODO: Check inputs and validate, errors here come from Instantiation Abuse\n        roomContract = _roomContract;\n        \n        daliShortAddress = _daliShortAddress;\n        emit daliShortAddressUpdated(daliShortAddress);\n        \n        currentState = defaultState;\n        //TODO: Check that LEDDim is between range of 0 -253\n        LEDDim = _LEDDim;\n    \n        emit stateUpdated(defaultState);\n        emit dimUpdated(LEDDim);\n        \n        transferOwnership(_roomOwner);\n        \n        \n    }\n    function onDim(bool newState, uint256 _LEDDim) public onlyOwner{\n        updateState(newState);\n        updateDim(_LEDDim);\n    }\n    \n    \n    function updateState(bool newState) public onlyOwner{\n        currentState = newState;\n        emit stateUpdated(currentState);\n    }\n    function updateDim(uint256 _LEDDim) public onlyOwner{\n        LEDDim = _LEDDim;\n        emit dimUpdated(_LEDDim);\n    }\n    \n    function updatedaliShortAddr(uint256 newdaliShortAddr) public onlyOwner{\n        daliShortAddress = newdaliShortAddr;\n        emit daliShortAddressUpdated(daliShortAddress);\n    }\n    function updateRoomContract(address newRoomAddr) public onlyOwner{\n        roomContract = newRoomAddr;\n        emit roomChanged(roomContract);\n    }\n    \n    \n}",
  "sourcePath": "D:\\Documents\\Repos\\creol-eth\\contracts\\contracts\\LEDState\\LEDState.sol",
  "compiler": {
    "name": "solc",
    "version": "0.5.0+commit.1d4f565a.Emscripten.clang"
  },
  "schemaVersion": "3.0.2",
  "updatedAt": "2019-06-11T11:01:58.604Z",
  "devdoc": {
    "methods": {
      "isOwner()": {
        "return": "true if `msg.sender` is the owner of the contract."
      },
      "owner()": {
        "return": "the address of the owner."
      },
      "renounceOwnership()": {
        "details": "Allows the current owner to relinquish control of the contract."
      },
      "transferOwnership(address)": {
        "details": "Allows the current owner to transfer control of the contract to a newOwner.",
        "params": {
          "newOwner": "The address to transfer ownership to."
        }
      }
    }
  },
  "userdoc": {
    "methods": {
      "renounceOwnership()": {
        "notice": "Renouncing to ownership will leave the contract without an owner. It will not be possible to call the functions with the `onlyOwner` modifier anymore."
      }
    }
  }
}