{
  "contractName": "RoomState",
  "abi": [
    {
      "constant": true,
      "inputs": [
        {
          "name": "",
          "type": "address"
        }
      ],
      "name": "coapAddressesCreezyPi",
      "outputs": [
        {
          "name": "",
          "type": "string"
        }
      ],
      "payable": false,
      "stateMutability": "view",
      "type": "function"
    },
    {
      "constant": false,
      "inputs": [],
      "name": "renounceOwnership",
      "outputs": [],
      "payable": false,
      "stateMutability": "nonpayable",
      "type": "function"
    },
    {
      "constant": true,
      "inputs": [],
      "name": "numCreezies",
      "outputs": [
        {
          "name": "",
          "type": "uint256"
        }
      ],
      "payable": false,
      "stateMutability": "view",
      "type": "function"
    },
    {
      "constant": true,
      "inputs": [],
      "name": "owner",
      "outputs": [
        {
          "name": "",
          "type": "address"
        }
      ],
      "payable": false,
      "stateMutability": "view",
      "type": "function"
    },
    {
      "constant": true,
      "inputs": [],
      "name": "isOwner",
      "outputs": [
        {
          "name": "",
          "type": "bool"
        }
      ],
      "payable": false,
      "stateMutability": "view",
      "type": "function"
    },
    {
      "constant": true,
      "inputs": [
        {
          "name": "",
          "type": "uint256"
        }
      ],
      "name": "creezies",
      "outputs": [
        {
          "name": "coapAddress",
          "type": "string"
        },
        {
          "name": "numLEDs",
          "type": "uint256"
        },
        {
          "name": "numUniverses",
          "type": "uint256"
        }
      ],
      "payable": false,
      "stateMutability": "view",
      "type": "function"
    },
    {
      "constant": false,
      "inputs": [
        {
          "name": "newOwner",
          "type": "address"
        }
      ],
      "name": "transferOwnership",
      "outputs": [],
      "payable": false,
      "stateMutability": "nonpayable",
      "type": "function"
    },
    {
      "inputs": [
        {
          "name": "_coapAddr",
          "type": "string"
        },
        {
          "name": "contractOwner",
          "type": "address"
        },
        {
          "name": "_numLEDs",
          "type": "uint256"
        },
        {
          "name": "_numUniverses",
          "type": "uint256"
        }
      ],
      "payable": false,
      "stateMutability": "nonpayable",
      "type": "constructor"
    },
    {
      "anonymous": false,
      "inputs": [
        {
          "indexed": false,
          "name": "numCreezies",
          "type": "uint256"
        },
        {
          "indexed": false,
          "name": "roomAddr",
          "type": "address"
        }
      ],
      "name": "newRoom",
      "type": "event"
    },
    {
      "anonymous": false,
      "inputs": [
        {
          "indexed": false,
          "name": "numCreezies",
          "type": "uint256"
        }
      ],
      "name": "newCreezy",
      "type": "event"
    },
    {
      "anonymous": false,
      "inputs": [
        {
          "indexed": false,
          "name": "numCreezies",
          "type": "uint256"
        }
      ],
      "name": "delCreezy",
      "type": "event"
    },
    {
      "anonymous": false,
      "inputs": [
        {
          "indexed": false,
          "name": "numCreezies",
          "type": "uint256"
        },
        {
          "indexed": false,
          "name": "coapAddress",
          "type": "string"
        }
      ],
      "name": "newCreezyCoapAddr",
      "type": "event"
    },
    {
      "anonymous": false,
      "inputs": [
        {
          "indexed": false,
          "name": "numCreezies",
          "type": "uint256"
        },
        {
          "indexed": false,
          "name": "numLEDs",
          "type": "uint256"
        }
      ],
      "name": "newCreezyNumLEDs",
      "type": "event"
    },
    {
      "anonymous": false,
      "inputs": [
        {
          "indexed": false,
          "name": "numCreezies",
          "type": "uint256"
        },
        {
          "indexed": false,
          "name": "numUniverses",
          "type": "uint256"
        }
      ],
      "name": "newCreezyNumUniverses",
      "type": "event"
    },
    {
      "anonymous": false,
      "inputs": [
        {
          "indexed": false,
          "name": "groupID",
          "type": "string"
        },
        {
          "indexed": false,
          "name": "_type",
          "type": "uint256"
        }
      ],
      "name": "newGroup",
      "type": "event"
    },
    {
      "anonymous": false,
      "inputs": [
        {
          "indexed": false,
          "name": "groupID",
          "type": "string"
        },
        {
          "indexed": false,
          "name": "_type",
          "type": "uint256"
        }
      ],
      "name": "groupDeleted",
      "type": "event"
    },
    {
      "anonymous": false,
      "inputs": [
        {
          "indexed": true,
          "name": "previousOwner",
          "type": "address"
        },
        {
          "indexed": true,
          "name": "newOwner",
          "type": "address"
        }
      ],
      "name": "OwnershipTransferred",
      "type": "event"
    },
    {
      "constant": false,
      "inputs": [
        {
          "name": "_coapAddr",
          "type": "string"
        },
        {
          "name": "_numLEDs",
          "type": "uint256"
        },
        {
          "name": "_numUniverses",
          "type": "uint256"
        }
      ],
      "name": "addCreezy",
      "outputs": [],
      "payable": false,
      "stateMutability": "nonpayable",
      "type": "function"
    },
    {
      "constant": false,
      "inputs": [
        {
          "name": "_creezyNum",
          "type": "uint256"
        }
      ],
      "name": "removeCreezy",
      "outputs": [],
      "payable": false,
      "stateMutability": "nonpayable",
      "type": "function"
    },
    {
      "constant": false,
      "inputs": [
        {
          "name": "_creezyNum",
          "type": "uint256"
        },
        {
          "name": "_coapAddr",
          "type": "string"
        }
      ],
      "name": "updateCreezyCoap",
      "outputs": [],
      "payable": false,
      "stateMutability": "nonpayable",
      "type": "function"
    },
    {
      "constant": false,
      "inputs": [
        {
          "name": "_creezyNum",
          "type": "uint256"
        },
        {
          "name": "_new_numLEDs",
          "type": "uint256"
        }
      ],
      "name": "updateCreezyLEDs",
      "outputs": [],
      "payable": false,
      "stateMutability": "nonpayable",
      "type": "function"
    },
    {
      "constant": false,
      "inputs": [
        {
          "name": "_creezyNum",
          "type": "uint256"
        },
        {
          "name": "_new_numUniverses",
          "type": "uint256"
        }
      ],
      "name": "updateCreezyUniverses",
      "outputs": [],
      "payable": false,
      "stateMutability": "nonpayable",
      "type": "function"
    },
    {
      "constant": false,
      "inputs": [
        {
          "name": "_groupString",
          "type": "string"
        },
        {
          "name": "LEDs",
          "type": "address[]"
        },
        {
          "name": "_type",
          "type": "uint256"
        }
      ],
      "name": "addCreezyGroup",
      "outputs": [],
      "payable": false,
      "stateMutability": "nonpayable",
      "type": "function"
    },
    {
      "constant": false,
      "inputs": [
        {
          "name": "_groupString",
          "type": "string"
        },
        {
          "name": "_type",
          "type": "uint256"
        }
      ],
      "name": "removeGroup",
      "outputs": [],
      "payable": false,
      "stateMutability": "nonpayable",
      "type": "function"
    },
    {
      "constant": true,
      "inputs": [
        {
          "name": "_groupID",
          "type": "string"
        },
        {
          "name": "_type",
          "type": "uint256"
        }
      ],
      "name": "getGroup",
      "outputs": [
        {
          "components": [
            {
              "name": "count",
              "type": "uint256"
            },
            {
              "name": "LEDs",
              "type": "address[]"
            }
          ],
          "name": "",
          "type": "tuple"
        }
      ],
      "payable": false,
      "stateMutability": "view",
      "type": "function"
    }
  ],
  "bytecode": "0x608060405260006004553480156200001657600080fd5b50604051620025d7380380620025d783398101806040526200003c919081019062000609565b60008054600160a060020a0319163317808255604051600160a060020a039190911691907f8be0079c531659141344cd1fd0a4f28419497f9722a3daafe3b4186f6b6457e0908290a3604080516060810182528581526020808201859052818301849052600454600090815260058252929092208151805192939192620000c792849201906200044a565b506020820151600182015560409091015160029091015560005b828110156200018857600080308684607b620000fc620004cf565b6200010c959493929190620006f7565b604051809103906000f08015801562000129573d6000803e3d6000fd5b5060068054600180820183556000929092527ff652222313e28459528d920b65115c16c04f3efc82aaedc97be59f3f377c0d3f018054600160a060020a031916600160a060020a039390931692909217909155919091019050620000e1565b5062000202846006805480602002602001604051908101604052809291908181526020018280548015620001e657602002820191906000526020600020905b8154600160a060020a03168152600190910190602001808311620001c7575b5050505050600062000264640100000000026401000000009004565b606080516200021790600690608090620004e0565b5060048390556040517f4efecd69e4537b84b787f7e0bfb689bf38a82373d329fb55112ba0cda2ad9c9d9062000251908590309062000784565b60405180910390a1505050505062000864565b6200027764010000000062000438810204565b15156200028357600080fd5b6060836040516020016200029891906200074d565b604051602081830303815290604052905081600014156200035357604080519081016040528084518152602001848152506002826040518082805190602001908083835b60208310620002fd5780518252601f199092019160209182019101620002dc565b51815160209384036101000a60001901801990921691161790529201948552506040519384900381019093208451815584840151805191946200034994506001860193500190620004e0565b50905050620003f7565b8160011415620003f757604080519081016040528084518152602001848152506003826040518082805190602001908083835b60208310620003a75780518252601f19909201916020918201910162000386565b51815160209384036101000a6000190180199092169116179052920194855250604051938490038101909320845181558484015180519194620003f394506001860193500190620004e0565b5050505b7f72cf2a0e43ef47815c3115927ecb10602b86c76f1d1dea089e04c68deda872ff84836040516200042a92919062000760565b60405180910390a150505050565b600054600160a060020a031633145b90565b828054600181600116156101000203166002900490600052602060002090601f016020900481019282601f106200048d57805160ff1916838001178555620004bd565b82800160010185558215620004bd579182015b82811115620004bd578251825591602001919060010190620004a0565b50620004cb92915062000546565b5090565b60405161091a8062001cbd83390190565b82805482825590600052602060002090810192821562000538579160200282015b82811115620005385782518254600160a060020a031916600160a060020a0390911617825560209092019160019091019062000501565b50620004cb92915062000563565b6200044791905b80821115620004cb57600081556001016200054d565b6200044791905b80821115620004cb578054600160a060020a03191681556001016200056a565b6000620005988251620007f6565b9392505050565b6000601f82018313620005b157600080fd5b8151620005c8620005c282620007ca565b620007a3565b91508082526020830160208301858383011115620005e557600080fd5b620005f283828462000827565b50505092915050565b600062000598825162000447565b600080600080608085870312156200062057600080fd5b84516001604060020a038111156200063757600080fd5b62000645878288016200059f565b945050602062000658878288016200058a565b93505060406200066b87828801620005fb565b92505060606200067e87828801620005fb565b91505092959194509250565b6200069581620007f6565b82525050565b620006958162000809565b62000695816200081a565b6000620006be82620007f2565b808452620006d481602086016020860162000827565b620006df816200085a565b9093016020019392505050565b620006958162000447565b60a081016200070782886200069b565b6200071660208301876200068a565b6200072560408301866200068a565b620007346060830185620006ec565b620007436080830184620006a6565b9695505050505050565b60208082528101620005988184620006b1565b60408082528101620007738185620006b1565b9050620005986020830184620006ec565b60408101620007948285620006ec565b6200059860208301846200068a565b6040518181016001604060020a0381118282101715620007c257600080fd5b604052919050565b60006001604060020a03821115620007e157600080fd5b506020601f91909101601f19160190565b5190565b600062000803826200080e565b92915050565b151590565b600160a060020a031690565b6000620008038262000447565b60005b83811015620008445781810151838201526020016200082a565b8381111562000854576000848401525b50505050565b601f01601f191690565b61144980620008746000396000f3fe6080604052600436106100da5763ffffffff7c0100000000000000000000000000000000000000000000000000000000600035041663077377c481146100df578063177078831461011557806325b81d76146101375780634ac28d1914610157578063592c4fd5146101775780636a98a155146101a45780636eac5889146101c4578063715018a6146101e4578063802d5bc7146101f95780638da5cb5b1461021b5780638f32d59b1461023d578063a52651a41461025f578063b8c01fa51461027f578063f1c973351461029f578063f2fde38b146102ce575b600080fd5b3480156100eb57600080fd5b506100ff6100fa366004610f24565b6102ee565b60405161010c9190611262565b60405180910390f35b34801561012157600080fd5b50610135610130366004610fc6565b610388565b005b34801561014357600080fd5b5061013561015236600461107e565b610501565b34801561016357600080fd5b50610135610172366004611060565b610580565b34801561018357600080fd5b50610197610192366004610fc6565b6105f8565b60405161010c91906112c0565b3480156101b057600080fd5b506101356101bf366004611017565b61074c565b3480156101d057600080fd5b506101356101df3660046110c6565b6107e6565b3480156101f057600080fd5b5061013561083f565b34801561020557600080fd5b5061020e6108b6565b60405161010c91906112d1565b34801561022757600080fd5b506102306108bc565b60405161010c9190611246565b34801561024957600080fd5b506102526108d9565b60405161010c9190611254565b34801561026b57600080fd5b5061013561027a3660046110c6565b6108f7565b34801561028b57600080fd5b5061013561029a366004610f4a565b610950565b3480156102ab57600080fd5b506102bf6102ba366004611060565b610b09565b60405161010c93929190611293565b3480156102da57600080fd5b506101356102e9366004610f24565b610bb6565b60016020818152600092835260409283902080548451600294821615610100026000190190911693909304601f81018390048302840183019094528383529192908301828280156103805780601f1061035557610100808354040283529160200191610380565b820191906000526020600020905b81548152906001019060200180831161036357829003601f168201915b505050505081565b6103906108d9565b151561039b57600080fd5b6060826040516020016103ae9190611262565b60405160208183030381529060405290508160001415610443576002816040518082805190602001908083835b602083106103fa5780518252601f1990920191602091820191016103db565b51815160209384036101000a600019018019909216911617905292019485525060405193849003019092206000808255909250905061043c6001830182610c79565b50506104c3565b81600114156104c3576003816040518082805190602001908083835b6020831061047e5780518252601f19909201916020918201910161045f565b51815160209384036101000a60001901801990921691161790529201948552506040519384900301909220600080825590925090506104c06001830182610c79565b50505b7f14d27183b88c64b05156f52255b5334d645d366e47242d37036ea1772d9cd3bf83836040516104f4929190611273565b60405180910390a1505050565b6105096108d9565b151561051457600080fd5b6000828152600560209081526040909120825161053392840190610c97565b506000828152600560205260409081902090517fdf37a3af1061852011e6f1b546dd4dd425c5a648bd97cfd84b3800d8ce39877e91610574918591906112df565b60405180910390a15050565b6105886108d9565b151561059357600080fd5b6000818152600560205260408120906105ac8282610d15565b506000600182018190556002909101556004546040517f7323e331d04ebb0fbf38b7863e7205aa96f87191a43db984e866ec6bef89423a916105ed916112d1565b60405180910390a150565b610600610d59565b6060836040516020016106139190611262565b6040516020818303038152906040529050826000141561070a576002816040518082805190602001908083835b6020831061065f5780518252601f199092019160209182019101610640565b51815160209384036101000a6000190180199092169116179052920194855250604080519485900382018520858201825280548652600181018054835181860281018601909452808452919550868401945091928301828280156106f957602002820191906000526020600020905b815473ffffffffffffffffffffffffffffffffffffffff1681526001909101906020018083116106ce575b505050505081525050915050610746565b8260011415610744576003816040518082805190602001908083836020831061065f5780518252601f199092019160209182019101610640565b505b92915050565b6107546108d9565b151561075f57600080fd5b6004546040805160608101825285815260208082018690528183018590526000938452600581529190922082518051919261079f92849290910190610c97565b506020820151600182015560409182015160029091015560045490517fba6d029c9e4f3916aa96f93ab5aa29f1071d6c94faaf0adeaada69bd8afdf29e916104f4916112d1565b6107ee6108d9565b15156107f957600080fd5b60008281526005602052604090819020600201829055517faf94623ea0ff02b495cf7b526aaf7a3926bbb0217b26d757682fd6e4ee20285e9061057490849084906112ff565b6108476108d9565b151561085257600080fd5b6000805460405173ffffffffffffffffffffffffffffffffffffffff909116907f8be0079c531659141344cd1fd0a4f28419497f9722a3daafe3b4186f6b6457e0908390a36000805473ffffffffffffffffffffffffffffffffffffffff19169055565b60045481565b60005473ffffffffffffffffffffffffffffffffffffffff165b90565b60005473ffffffffffffffffffffffffffffffffffffffff16331490565b6108ff6108d9565b151561090a57600080fd5b60008281526005602052604090819020600101829055517f02657c5d95b239e70e878c4638a153da4971883c509d9ce93d7a3e3ee762dc529061057490849084906112ff565b6109586108d9565b151561096357600080fd5b6060836040516020016109769190611262565b60405160208183030381529060405290508160001415610a2b57604080519081016040528084518152602001848152506002826040518082805190602001908083835b602083106109d85780518252601f1990920191602091820191016109b9565b51815160209384036101000a6000190180199092169116179052920194855250604051938490038101909320845181558484015180519194610a2294506001860193500190610d71565b50905050610aca565b8160011415610aca57604080519081016040528084518152602001848152506003826040518082805190602001908083835b60208310610a7c5780518252601f199092019160209182019101610a5d565b51815160209384036101000a6000190180199092169116179052920194855250604051938490038101909320845181558484015180519194610ac694506001860193500190610d71565b5050505b7f72cf2a0e43ef47815c3115927ecb10602b86c76f1d1dea089e04c68deda872ff8483604051610afb929190611273565b60405180910390a150505050565b60056020908152600091825260409182902080548351601f60026000196101006001861615020190931692909204918201849004840281018401909452808452909291839190830182828015610ba05780601f10610b7557610100808354040283529160200191610ba0565b820191906000526020600020905b815481529060010190602001808311610b8357829003601f168201915b5050505050908060010154908060020154905083565b610bbe6108d9565b1515610bc957600080fd5b610bd281610bd5565b50565b73ffffffffffffffffffffffffffffffffffffffff81161515610bf757600080fd5b6000805460405173ffffffffffffffffffffffffffffffffffffffff808516939216917f8be0079c531659141344cd1fd0a4f28419497f9722a3daafe3b4186f6b6457e091a36000805473ffffffffffffffffffffffffffffffffffffffff191673ffffffffffffffffffffffffffffffffffffffff92909216919091179055565b5080546000825590600052602060002090810190610bd29190610dec565b828054600181600116156101000203166002900490600052602060002090601f016020900481019282601f10610cd857805160ff1916838001178555610d05565b82800160010185558215610d05579182015b82811115610d05578251825591602001919060010190610cea565b50610d11929150610dec565b5090565b50805460018160011615610100020316600290046000825580601f10610d3b5750610bd2565b601f016020900490600052602060002090810190610bd29190610dec565b60408051808201909152600081526060602082015290565b828054828255906000526020600020908101928215610de0579160200282015b82811115610de0578251825473ffffffffffffffffffffffffffffffffffffffff191673ffffffffffffffffffffffffffffffffffffffff909116178255602090920191600190910190610d91565b50610d11929150610e06565b6108d691905b80821115610d115760008155600101610df2565b6108d691905b80821115610d1157805473ffffffffffffffffffffffffffffffffffffffff19168155600101610e0c565b6000610e4382356113a0565b9392505050565b6000601f82018313610e5b57600080fd5b8135610e6e610e6982611341565b61131a565b91508181835260208401935060208101905083856020840282011115610e9357600080fd5b60005b83811015610ebf5781610ea98882610e37565b8452506020928301929190910190600101610e96565b5050505092915050565b6000601f82018313610eda57600080fd5b8135610ee8610e6982611362565b91508082526020830160208301858383011115610f0457600080fd5b610f0f8382846113c9565b50505092915050565b6000610e4382356108d6565b600060208284031215610f3657600080fd5b6000610f428484610e37565b949350505050565b600080600060608486031215610f5f57600080fd5b833567ffffffffffffffff811115610f7657600080fd5b610f8286828701610ec9565b935050602084013567ffffffffffffffff811115610f9f57600080fd5b610fab86828701610e4a565b9250506040610fbc86828701610f18565b9150509250925092565b60008060408385031215610fd957600080fd5b823567ffffffffffffffff811115610ff057600080fd5b610ffc85828601610ec9565b925050602061100d85828601610f18565b9150509250929050565b60008060006060848603121561102c57600080fd5b833567ffffffffffffffff81111561104357600080fd5b61104f86828701610ec9565b9350506020610fab86828701610f18565b60006020828403121561107257600080fd5b6000610f428484610f18565b6000806040838503121561109157600080fd5b600061109d8585610f18565b925050602083013567ffffffffffffffff8111156110ba57600080fd5b61100d85828601610ec9565b600080604083850312156110d957600080fd5b6000610ffc8585610f18565b6110ee816113a0565b82525050565b60006110ff8261139c565b8084526020840193506111118361138a565b60005b82811015611141576111278683516110e5565b6111308261138a565b602096909601959150600101611114565b5093949350505050565b6110ee816113ab565b600061115f8261139c565b8084526111738160208601602086016113d5565b61117c81611405565b9093016020019392505050565b6000815460018116600081146111a657600181146111c457611200565b60028204607f16855260ff1982166020860152604085019250611200565b600282048086526020860195506111da85611390565b60005b828110156111f9578154888201526001909101906020016111dd565b8701945050505b505092915050565b8051600090604084019061121c858261123d565b506020830151848203602086015261123482826110f4565b95945050505050565b6110ee816108d6565b6020810161074682846110e5565b60208101610746828461114b565b60208082528101610e438184611154565b604080825281016112848185611154565b9050610e43602083018461123d565b606080825281016112a48186611154565b90506112b3602083018561123d565b610f42604083018461123d565b60208082528101610e438184611208565b60208101610746828461123d565b604081016112ed828561123d565b8181036020830152610f428184611189565b6040810161130d828561123d565b610e43602083018461123d565b60405181810167ffffffffffffffff8111828210171561133957600080fd5b604052919050565b600067ffffffffffffffff82111561135857600080fd5b5060209081020190565b600067ffffffffffffffff82111561137957600080fd5b506020601f91909101601f19160190565b60200190565b60009081526020902090565b5190565b6000610746826113b0565b151590565b73ffffffffffffffffffffffffffffffffffffffff1690565b82818337506000910152565b60005b838110156113f05781810151838201526020016113d8565b838111156113ff576000848401525b50505050565b601f01601f19169056fea265627a7a72305820e9378e5f363ef87e230b2ceec33244de9e2e0c3a9fc7033fbc4130b91125b5dc6c6578706572696d656e74616cf500376080604052600060025534801561001557600080fd5b5060405160a08061091a833981018060405260a081101561003557600080fd5b5080516020820151604080840151606085015160809095015160008054600160a060020a03191633178082559351959694959294939192600160a060020a0392909216916000805160206108fa833981519152908290a360038054600160a060020a031916600160a060020a03861617905560018290556040805183815290517fcb79942d30d1c678805ad277e46eca6fc95003ded1feefc23d51da9022f9ed85916020908290030190a16000805486151574010000000000000000000000000000000000000000810260a060020a60ff021990921691909117909155600282905560408051918252517f9e3d55ed4e38566cb92d2caa898e85e8c917efcdce6ae9dfc2ac5188675d81829181900360200190a160025460408051918252517ffeb31388affc5046bfbc73aff5acfd6e7e35294625cb1fb9e143a4f3370038799181900360200190a16101908364010000000061019a810204565b505050505061023a565b6101ab6401000000006101cb810204565b15156101b657600080fd5b6101c8816401000000006101dc810204565b50565b600054600160a060020a0316331490565b600160a060020a03811615156101f157600080fd5b60008054604051600160a060020a03808516939216916000805160206108fa83398151915291a360008054600160a060020a031916600160a060020a0392909216919091179055565b6106b1806102496000396000f3fe6080604052600436106100c45763ffffffff7c01000000000000000000000000000000000000000000000000000000006000350416630c3f6acf81146100c95780633b8c8eb0146100f2578063715018a61461011e57806380db3598146101335780638da5cb5b1461015d5780638f32d59b1461019b57806391ce8a0d146101b05780639cda6dc2146101f0578063b93f4e3414610205578063c70bdeae14610231578063d3ebb17014610263578063e013c7961461028a578063f2fde38b1461029f575b600080fd5b3480156100d557600080fd5b506100de6102df565b604080519115158252519081900360200190f35b3480156100fe57600080fd5b5061011c6004803603602081101561011557600080fd5b5035610300565b005b34801561012a57600080fd5b5061011c61034e565b34801561013f57600080fd5b5061011c6004803603602081101561015657600080fd5b50356103c5565b34801561016957600080fd5b50610172610413565b6040805173ffffffffffffffffffffffffffffffffffffffff9092168252519081900360200190f35b3480156101a757600080fd5b506100de61042f565b3480156101bc57600080fd5b5061011c600480360360208110156101d357600080fd5b503573ffffffffffffffffffffffffffffffffffffffff1661044d565b3480156101fc57600080fd5b506101726104d4565b34801561021157600080fd5b5061011c6004803603602081101561022857600080fd5b503515156104f0565b34801561023d57600080fd5b5061011c6004803603604081101561025457600080fd5b5080351515906020013561058d565b34801561026f57600080fd5b506102786105b6565b60408051918252519081900360200190f35b34801561029657600080fd5b506102786105bc565b3480156102ab57600080fd5b5061011c600480360360208110156102c257600080fd5b503573ffffffffffffffffffffffffffffffffffffffff166105c2565b60005474010000000000000000000000000000000000000000900460ff1681565b61030861042f565b151561031357600080fd5b60018190556040805182815290517fcb79942d30d1c678805ad277e46eca6fc95003ded1feefc23d51da9022f9ed859181900360200190a150565b61035661042f565b151561036157600080fd5b6000805460405173ffffffffffffffffffffffffffffffffffffffff909116907f8be0079c531659141344cd1fd0a4f28419497f9722a3daafe3b4186f6b6457e0908390a36000805473ffffffffffffffffffffffffffffffffffffffff19169055565b6103cd61042f565b15156103d857600080fd5b60028190556040805182815290517ffeb31388affc5046bfbc73aff5acfd6e7e35294625cb1fb9e143a4f3370038799181900360200190a150565b60005473ffffffffffffffffffffffffffffffffffffffff1690565b60005473ffffffffffffffffffffffffffffffffffffffff16331490565b61045561042f565b151561046057600080fd5b6003805473ffffffffffffffffffffffffffffffffffffffff191673ffffffffffffffffffffffffffffffffffffffff838116919091179182905560408051929091168252517f154c816c73f52003b03ea9ecb0ca882ec73beca16c20a6ee92420ddbd1599ca3916020908290030190a150565b60035473ffffffffffffffffffffffffffffffffffffffff1681565b6104f861042f565b151561050357600080fd5b60008054821515740100000000000000000000000000000000000000009081027fffffffffffffffffffffff00ffffffffffffffffffffffffffffffffffffffff9092169190911791829055604080519190920460ff161515815290517f9e3d55ed4e38566cb92d2caa898e85e8c917efcdce6ae9dfc2ac5188675d81829181900360200190a150565b61059561042f565b15156105a057600080fd5b6105a9826104f0565b6105b2816103c5565b5050565b60025481565b60015481565b6105ca61042f565b15156105d557600080fd5b6105de816105e1565b50565b73ffffffffffffffffffffffffffffffffffffffff8116151561060357600080fd5b6000805460405173ffffffffffffffffffffffffffffffffffffffff808516939216917f8be0079c531659141344cd1fd0a4f28419497f9722a3daafe3b4186f6b6457e091a36000805473ffffffffffffffffffffffffffffffffffffffff191673ffffffffffffffffffffffffffffffffffffffff9290921691909117905556fea165627a7a72305820dae78e79148a4deec07a3e470b50ff4b69b62174707ee580218ed6df4e7223b200298be0079c531659141344cd1fd0a4f28419497f9722a3daafe3b4186f6b6457e0",
  "source": "\npragma solidity ^0.5.0;\npragma experimental ABIEncoderV2;\n/**\n * \n * \n * \n  _____                        _____ _        _       \n |  __ \\                      / ____| |      | |      \n | |__) |___   ___  _ __ ___ | (___ | |_ __ _| |_ ___ \n |  _  // _ \\ / _ \\| '_ ` _ \\ \\___ \\| __/ _` | __/ _ \\\n | | \\ \\ (_) | (_) | | | | | |____) | || (_| | ||  __/\n |_|  \\_\\___/ \\___/|_| |_| |_|_____/ \\__\\__,_|\\__\\___|\n                                                      \n                                                      \n* Author: Joshua Bijak\n* Desc: Contract designed to hold the state of a Room containing LED contracts\n* \n* \n* \n*/\n\nimport  '../../node_modules/openzeppelin-solidity/contracts/ownership/Ownable.sol';\n\nimport   '../LEDState/LEDState.sol';\n\n\ncontract RoomState is Ownable {\n    \n    //Lookup LED Contract Address for it's Creezy's address\n    mapping(address => string) public coapAddressesCreezyPi;\n    \n    struct Group {\n        uint256 count;\n        address[] LEDs;\n    }\n    // Look up group by its coap address (aka all lights connected to a creezy), currently only for 1 universe\n    // Packed as bytes from string\n    mapping( bytes => Group) creezyUniverse;\n    //Look up group by its \"Group Designation\" aka (Office Lights)\n    // Packed as bytes from string\n    \n    \n    mapping( bytes => Group) groupDesignator;\n    \n    //Struct To Hold Creezies\n    \n    struct CreezyPi {\n        string coapAddress;\n        uint256 numLEDs;\n        uint256 numUniverses;\n        \n    }\n    \n    //Creezies in this Room\n    uint256 public numCreezies =0;\n    mapping( uint => CreezyPi ) public creezies;\n    address[] newLEDs;\n        \n    event newRoom( uint256 numCreezies, address roomAddr);\n    event newCreezy( uint256 numCreezies);\n    event delCreezy( uint256 numCreezies);\n    event newCreezyCoapAddr( uint256 numCreezies, string coapAddress);\n    event newCreezyNumLEDs ( uint256 numCreezies, uint256 numLEDs);\n    event newCreezyNumUniverses(  uint256 numCreezies, uint256 numUniverses);\n    event newGroup(string groupID, uint256 _type);\n    event groupDeleted( string groupID, uint256 _type);\n    \n    // constructor creates first Creezy. Creezies after are with Add Creezy function. \n    // Deploys the LED Contracts for its new Universe and registers them as group\n    constructor(string memory _coapAddr,address contractOwner, uint256 _numLEDs, uint256 _numUniverses) public {\n        \n        \n        \n        creezies[numCreezies] = CreezyPi(_coapAddr, _numLEDs, _numUniverses);\n        \n        for (uint256 i=0; i<_numLEDs;i++){\n            //Instantiate new contract and assign address with params (off, with 50% dim)\n            LEDState LEDStateContract = new LEDState(false, address(this),contractOwner, i, 123);\n            \n            newLEDs.push(address(LEDStateContract));\n            \n        }\n        //Create new type of universe type group\n        addCreezyGroup(_coapAddr,newLEDs, 0);\n        //Clear for future use\n        address[] memory LEDClear;\n        newLEDs = LEDClear;\n        \n        numCreezies = _numLEDs;\n        \n        emit newRoom(numCreezies, address(this));\n        \n        \n    }\n    function addCreezy(string memory _coapAddr, uint256 _numLEDs, uint256 _numUniverses) public onlyOwner {\n        numCreezies = numCreezies++;\n        \n        creezies[numCreezies] = CreezyPi(_coapAddr, _numLEDs, _numUniverses);\n        \n        emit newCreezy(numCreezies);\n    }\n    /**\n     *  Removes Creezy from Room. Unregisters Coap Address, must know creezy num prior\n     */\n\n    function removeCreezy(uint256 _creezyNum) public onlyOwner {\n        \n        \n        delete creezies[_creezyNum];\n        \n        numCreezies = numCreezies--;\n        \n        emit delCreezy(numCreezies);\n    }\n    \n    function updateCreezyCoap(uint256 _creezyNum, string memory _coapAddr) public onlyOwner {\n        \n        creezies[_creezyNum].coapAddress = _coapAddr;\n        \n        emit newCreezyCoapAddr(_creezyNum, creezies[_creezyNum].coapAddress);\n    }\n    function updateCreezyLEDs(uint256 _creezyNum, uint256 _new_numLEDs) public onlyOwner {\n        creezies[_creezyNum].numLEDs = _new_numLEDs;\n        \n        emit newCreezyNumLEDs(_creezyNum, creezies[_creezyNum].numLEDs);\n        \n    }\n    function updateCreezyUniverses(uint256 _creezyNum, uint256 _new_numUniverses) public onlyOwner {\n        creezies[_creezyNum].numUniverses = _new_numUniverses;\n        \n        emit newCreezyNumUniverses(_creezyNum, creezies[_creezyNum].numUniverses);\n    }\n    // Create group based on Creezy or on new Designator \"string\"\n    function addCreezyGroup(string memory _groupString, address[] memory LEDs, uint _type) public onlyOwner {\n        \n        bytes memory packedBytes = abi.encode(_groupString);\n        \n        if (_type == 0){\n            creezyUniverse[packedBytes] = Group(LEDs.length, LEDs);\n        }\n        \n        else if (_type ==1){\n            groupDesignator[packedBytes] = Group(LEDs.length, LEDs);\n        }\n        \n        emit newGroup(_groupString, _type);\n        \n    }\n    // Remove \n    function removeGroup(string memory _groupString, uint256 _type) public onlyOwner {\n        \n        bytes memory packedBytes = abi.encode(_groupString);\n        \n        if (_type == 0){\n            delete creezyUniverse[packedBytes];\n            \n        }\n        else if (_type == 1){\n            delete groupDesignator[packedBytes];\n            \n        }\n        \n        emit groupDeleted(_groupString, _type);\n    }\n    function getGroup(string memory _groupID, uint256 _type) public view returns(Group memory) {\n        \n        bytes memory packedBytes = abi.encode(_groupID);\n        if (_type == 0){\n            return creezyUniverse[packedBytes];\n        }\n        else if (_type == 1){\n            return groupDesignator[packedBytes];\n        }\n    }\n\n    //function updateGroup() public onlyOwner {}\n    \n}\n",
  "sourcePath": "D:/Documents/Repos/creol-eth/contracts/contracts/RoomState/RoomState.sol",
  "compiler": {
    "name": "solc",
    "version": "0.5.0+commit.1d4f565a.Emscripten.clang"
  },
  "schemaVersion": "3.0.2",
  "updatedAt": "2019-06-11T10:00:12.941Z",
  "devdoc": {
    "methods": {
      "isOwner()": {
        "return": "true if `msg.sender` is the owner of the contract."
      },
      "owner()": {
        "return": "the address of the owner."
      },
      "renounceOwnership()": {
        "details": "Allows the current owner to relinquish control of the contract."
      },
      "transferOwnership(address)": {
        "details": "Allows the current owner to transfer control of the contract to a newOwner.",
        "params": {
          "newOwner": "The address to transfer ownership to."
        }
      }
    }
  },
  "userdoc": {
    "methods": {
      "removeCreezy(uint256)": {
        "notice": "Removes Creezy from Room. Unregisters Coap Address, must know creezy num prior"
      },
      "renounceOwnership()": {
        "notice": "Renouncing to ownership will leave the contract without an owner. It will not be possible to call the functions with the `onlyOwner` modifier anymore."
      }
    }
  }
}