{
  "fileName": "AccessHub.sol",
  "contractName": "AccessHub",
  "source": "pragma solidity ^0.5.17;\r\n\r\n\r\nimport \"@openzeppelin/upgrades/contracts/Initializable.sol\";\r\nimport \"@openzeppelin/contracts-ethereum-package/contracts/ownership/Ownable.sol\";\r\nimport \"@openzeppelin/contracts-ethereum-package/contracts/GSN/GSNRecipient.sol\";\r\nimport \"@openzeppelin/contracts-ethereum-package/contracts/access/Roles.sol\";\r\n\r\nimport \"../ControlState/ControlStateInterface.sol\";\r\nimport \"../LEDState/LEDStateInterface.sol\";\r\nimport \"../RoomState/RoomStateInterface.sol\";\r\nimport \"../SiteState/SiteStateInterface.sol\";\r\n\r\nimport \"./AccessHubInterface.sol\";\r\n\r\n\r\n\r\n\r\n\r\n\r\ncontract AccessHub is AccessHubInterface, Initializable, Ownable, GSNRecipient {\r\n\r\n\r\n     using Roles for Roles.Role;\r\n\r\n    event AccessLevelGranted(address userAddress, ContractTypes AccessLevel);\r\n    event AccessLevelRemoved(address userAddress, ContractTypes AccessLevel);\r\n    event newControlState(address newControlState);\r\n    \r\n     address public creolSuper;\r\n     address public allowedGSNAddress;\r\n\r\n     Roles.Role private _buildingManagers;\r\n\r\n     Roles.Role private _officeAdmin;\r\n\r\n     Roles.Role private _officeUser;\r\n\r\n     Roles.Role private _deskUser;\r\n\r\n    address public registeredControlState;\r\n    \r\n     modifier onlyCreolSuper(){\r\n        require(_msgSender() == creolSuper, \"caller is not creolSuper\");\r\n        _;\r\n    }\r\n\r\n    constructor() public {\r\n\r\n    }\r\n\r\n    // Requires 3 seperate address otherwise it fails\r\n\r\n    function initializeAccessHub(address _owner, address _creolSuper, address _GSNAddress) public initializer {\r\n        allowedGSNAddress = _GSNAddress;\r\n        creolSuper = _creolSuper;\r\n        GSNRecipient.initialize();\r\n        Ownable.initialize(_owner);\r\n\r\n        _buildingManagers.add(_owner);\r\n        emit AccessLevelGranted(_owner, ContractTypes.ControlState);\r\n\r\n        _buildingManagers.add(_creolSuper);\r\n        emit AccessLevelGranted(_creolSuper, ContractTypes.ControlState);\r\n\r\n        _buildingManagers.add(_GSNAddress);\r\n        emit AccessLevelGranted(_GSNAddress, ContractTypes.ControlState);\r\n    }\r\n\r\n\r\n    function setGSNAllowed(address _newGSNAddress) public onlyOwner {\r\n        removeAccess(allowedGSNAddress, ContractTypes.ControlState);\r\n        allowedGSNAddress = _newGSNAddress;\r\n        addAccess(allowedGSNAddress, ContractTypes.ControlState);\r\n    }\r\n\r\n    function setCreolSuper(address _newCreolSuper) public onlyCreolSuper {\r\n        removeAccess(creolSuper, ContractTypes.ControlState);\r\n        creolSuper = _newCreolSuper;\r\n        addAccess(creolSuper, ContractTypes.ControlState);\r\n    }\r\n    /**\r\n     * This function assumes that the methodID is computed offchain as well as its parameters are packed accordingly\r\n     *\r\n     */\r\n\r\n    function checkAndSendFunction( bytes memory packedMethodCall, address destination, ContractTypes destinationType) public {\r\n\r\n        address sender = _msgSender();\r\n\r\n        if (destinationType == ContractTypes.ControlState) {\r\n            require(_buildingManagers.has(sender), \"Not a building manager\");\r\n\r\n            ControlStateInterface tempInterface = ControlStateInterface(destination);\r\n            address(tempInterface).call(packedMethodCall);\r\n\r\n        }\r\n        else if (destinationType == ContractTypes.SiteState) {\r\n            require(_buildingManagers.has(sender) || _officeAdmin.has(sender), \"Not a site manager\");\r\n\r\n            SiteStateInterface tempInterface = SiteStateInterface(destination);\r\n            address(tempInterface).call(packedMethodCall);\r\n\r\n        }\r\n        else if(destinationType == ContractTypes.RoomState) {\r\n            require(_buildingManagers.has(sender) || _officeAdmin.has(sender) || _officeUser.has(sender), \"Not an office manager\");\r\n\r\n            RoomStateInterface tempInterface = RoomStateInterface(destination);\r\n            address(tempInterface).call(packedMethodCall);\r\n\r\n        }\r\n        else if(destinationType == ContractTypes.LEDState) {\r\n            require(_buildingManagers.has(sender) || _officeAdmin.has(sender) || _officeUser.has(sender) || _deskUser.has(sender), \"Not an office user\");\r\n\r\n            LEDStateInterface tempInterface = LEDStateInterface(destination);\r\n            address(tempInterface).call(packedMethodCall);\r\n\r\n        }\r\n        else {\r\n            revert(\"Invalid destinationType\");\r\n\r\n        }\r\n    }\r\n    function setRegisteredControlState(address _controlState) onlyCreolSuper public {\r\n        registeredControlState = _controlState;\r\n        emit newControlState(_controlState);\r\n    }\r\n    function acceptRelayedCall(\r\n        address,\r\n        address from,\r\n        bytes calldata,\r\n        uint256,\r\n        uint256,\r\n        uint256,\r\n        uint256,\r\n        bytes calldata,\r\n        uint256\r\n    ) external view returns (uint256, bytes memory)  {\r\n\r\n        //emit emittedMsgSender(_msgSender());\r\n        //emit emittedAllowedAddress(allowedAddress);\r\n        if(checkHasAccess(from, ContractTypes.ControlState) || checkHasAccess(from, ContractTypes.SiteState) || checkHasAccess(from, ContractTypes.RoomState) || checkHasAccess(from, ContractTypes.LEDState) ){\r\n            return _approveRelayedCall();\r\n\r\n        }\r\n        else {\r\n            return _rejectRelayedCall(uint256(0));\r\n        }\r\n    }\r\n\r\n    function _preRelayedCall(bytes memory context) internal returns (bytes32) {\r\n\r\n    }\r\n\r\n    function _postRelayedCall(bytes memory context, bool, uint256 actualCharge, bytes32) internal {\r\n\r\n    }\r\n\r\n    function setRelayHubAddress() public {\r\n        if(getHubAddr() == address(0)) {\r\n            _upgradeRelayHub(0xD216153c06E857cD7f72665E0aF1d7D82172F494);\r\n        }\r\n    }\r\n\r\n    function getRecipientBalance() public view returns (uint) {\r\n        return IRelayHub(getHubAddr()).balanceOf(address(this));\r\n    }\r\n\r\n\r\n    function addAccess(address userAddress, ContractTypes destinationType) public {\r\n\r\n        address sender = _msgSender();\r\n\r\n        if (destinationType == ContractTypes.ControlState) {\r\n            require(_buildingManagers.has(sender), \"Not a building manager\");\r\n\r\n            _buildingManagers.add(userAddress);\r\n            emit AccessLevelGranted(userAddress, destinationType);\r\n\r\n        }\r\n        else if (destinationType == ContractTypes.SiteState) {\r\n            require(_buildingManagers.has(sender) || _officeAdmin.has(sender), \"Not a site manager\");\r\n\r\n            _officeAdmin.add(userAddress);\r\n            emit AccessLevelGranted(userAddress, destinationType);\r\n\r\n\r\n        }\r\n        else if(destinationType == ContractTypes.RoomState) {\r\n            require(_buildingManagers.has(sender) || _officeAdmin.has(sender) || _officeUser.has(sender), \"Not an office manager\");\r\n\r\n            _officeUser.add(userAddress);\r\n            emit AccessLevelGranted(userAddress, destinationType);\r\n\r\n        }\r\n        else if(destinationType == ContractTypes.LEDState) {\r\n            require(_buildingManagers.has(sender) || _officeAdmin.has(sender) || _officeUser.has(sender) || _deskUser.has(sender), \"Not an office user\");\r\n\r\n            _deskUser.add(userAddress);\r\n            emit AccessLevelGranted(userAddress, destinationType);\r\n\r\n\r\n\r\n        }\r\n        else {\r\n            revert(\"Invalid destinationType\");\r\n\r\n        }\r\n    }\r\n\r\n    function removeAccess(address userAddress, ContractTypes destinationType) public {\r\n\r\n        address sender = _msgSender();\r\n\r\n        if (destinationType == ContractTypes.ControlState) {\r\n            require(_buildingManagers.has(sender), \"Not a building manager\");\r\n\r\n            _buildingManagers.remove(userAddress);\r\n            emit AccessLevelRemoved(userAddress, destinationType);\r\n\r\n        }\r\n        else if (destinationType == ContractTypes.SiteState) {\r\n            require(_buildingManagers.has(sender) || _officeAdmin.has(sender), \"Not a site manager\");\r\n\r\n            _officeAdmin.remove(userAddress);\r\n            emit AccessLevelRemoved(userAddress, destinationType);\r\n\r\n\r\n        }\r\n        else if(destinationType == ContractTypes.RoomState) {\r\n            require(_buildingManagers.has(sender) || _officeAdmin.has(sender) || _officeUser.has(sender), \"Not an office manager\");\r\n\r\n            _officeUser.remove(userAddress);\r\n            emit AccessLevelRemoved(userAddress, destinationType);\r\n\r\n        }\r\n        else if(destinationType == ContractTypes.LEDState) {\r\n            require(_buildingManagers.has(sender) || _officeAdmin.has(sender) || _officeUser.has(sender) || _deskUser.has(sender), \"Not an office user\");\r\n\r\n            _deskUser.remove(userAddress);\r\n            emit AccessLevelRemoved(userAddress, destinationType);\r\n\r\n        }\r\n        else {\r\n            revert(\"Invalid destinationType\");\r\n\r\n        }\r\n\r\n    }\r\n    function checkHasAccess(address _accountToCheck, ContractTypes destinationType) public view returns (bool hasAccess) {\r\n\r\n        address sender = _accountToCheck;\r\n\r\n        if (destinationType == ContractTypes.ControlState) {\r\n            hasAccess = _buildingManagers.has(sender);\r\n            return hasAccess;\r\n        }\r\n        else if (destinationType == ContractTypes.SiteState) {\r\n            hasAccess = _buildingManagers.has(sender);\r\n            if(!hasAccess){\r\n                hasAccess = _officeAdmin.has(sender);\r\n            }\r\n\r\n            return hasAccess;\r\n\r\n        }\r\n        else if(destinationType == ContractTypes.RoomState) {\r\n            hasAccess = _buildingManagers.has(sender);\r\n\r\n            if(!hasAccess){\r\n                hasAccess = _officeAdmin.has(sender);\r\n            }\r\n            if(!hasAccess){\r\n                hasAccess = _officeUser.has(sender);\r\n            }\r\n\r\n            return hasAccess;\r\n\r\n        }\r\n        else if(destinationType == ContractTypes.LEDState) {\r\n\r\n            hasAccess = _buildingManagers.has(sender);\r\n            if(!hasAccess){\r\n                hasAccess = _officeAdmin.has(sender);\r\n            }\r\n             if(!hasAccess){\r\n                hasAccess = _officeUser.has(sender);\r\n            }\r\n             if(!hasAccess){\r\n                hasAccess = _deskUser.has(sender);\r\n            }\r\n\r\n            return hasAccess;\r\n\r\n        }\r\n        else {\r\n            revert(\"Invalid destinationType\");\r\n\r\n        }\r\n\r\n    }\r\n\r\n}\r\n",
  "sourcePath": "contracts/AccessHub/AccessHub.sol",
  "abi": [
    {
      "inputs": [],
      "payable": false,
      "stateMutability": "nonpayable",
      "type": "constructor"
    },
    {
      "anonymous": false,
      "inputs": [
        {
          "indexed": false,
          "internalType": "address",
          "name": "userAddress",
          "type": "address"
        },
        {
          "indexed": false,
          "internalType": "enum AccessHubInterface.ContractTypes",
          "name": "AccessLevel",
          "type": "uint8"
        }
      ],
      "name": "AccessLevelGranted",
      "type": "event"
    },
    {
      "anonymous": false,
      "inputs": [
        {
          "indexed": false,
          "internalType": "address",
          "name": "userAddress",
          "type": "address"
        },
        {
          "indexed": false,
          "internalType": "enum AccessHubInterface.ContractTypes",
          "name": "AccessLevel",
          "type": "uint8"
        }
      ],
      "name": "AccessLevelRemoved",
      "type": "event"
    },
    {
      "anonymous": false,
      "inputs": [
        {
          "indexed": true,
          "internalType": "address",
          "name": "previousOwner",
          "type": "address"
        },
        {
          "indexed": true,
          "internalType": "address",
          "name": "newOwner",
          "type": "address"
        }
      ],
      "name": "OwnershipTransferred",
      "type": "event"
    },
    {
      "anonymous": false,
      "inputs": [
        {
          "indexed": true,
          "internalType": "address",
          "name": "oldRelayHub",
          "type": "address"
        },
        {
          "indexed": true,
          "internalType": "address",
          "name": "newRelayHub",
          "type": "address"
        }
      ],
      "name": "RelayHubChanged",
      "type": "event"
    },
    {
      "anonymous": false,
      "inputs": [
        {
          "indexed": false,
          "internalType": "address",
          "name": "newControlState",
          "type": "address"
        }
      ],
      "name": "newControlState",
      "type": "event"
    },
    {
      "constant": true,
      "inputs": [
        {
          "internalType": "address",
          "name": "",
          "type": "address"
        },
        {
          "internalType": "address",
          "name": "from",
          "type": "address"
        },
        {
          "internalType": "bytes",
          "name": "",
          "type": "bytes"
        },
        {
          "internalType": "uint256",
          "name": "",
          "type": "uint256"
        },
        {
          "internalType": "uint256",
          "name": "",
          "type": "uint256"
        },
        {
          "internalType": "uint256",
          "name": "",
          "type": "uint256"
        },
        {
          "internalType": "uint256",
          "name": "",
          "type": "uint256"
        },
        {
          "internalType": "bytes",
          "name": "",
          "type": "bytes"
        },
        {
          "internalType": "uint256",
          "name": "",
          "type": "uint256"
        }
      ],
      "name": "acceptRelayedCall",
      "outputs": [
        {
          "internalType": "uint256",
          "name": "",
          "type": "uint256"
        },
        {
          "internalType": "bytes",
          "name": "",
          "type": "bytes"
        }
      ],
      "payable": false,
      "stateMutability": "view",
      "type": "function"
    },
    {
      "constant": false,
      "inputs": [
        {
          "internalType": "address",
          "name": "userAddress",
          "type": "address"
        },
        {
          "internalType": "enum AccessHubInterface.ContractTypes",
          "name": "destinationType",
          "type": "uint8"
        }
      ],
      "name": "addAccess",
      "outputs": [],
      "payable": false,
      "stateMutability": "nonpayable",
      "type": "function"
    },
    {
      "constant": true,
      "inputs": [],
      "name": "allowedGSNAddress",
      "outputs": [
        {
          "internalType": "address",
          "name": "",
          "type": "address"
        }
      ],
      "payable": false,
      "stateMutability": "view",
      "type": "function"
    },
    {
      "constant": false,
      "inputs": [
        {
          "internalType": "bytes",
          "name": "packedMethodCall",
          "type": "bytes"
        },
        {
          "internalType": "address",
          "name": "destination",
          "type": "address"
        },
        {
          "internalType": "enum AccessHubInterface.ContractTypes",
          "name": "destinationType",
          "type": "uint8"
        }
      ],
      "name": "checkAndSendFunction",
      "outputs": [],
      "payable": false,
      "stateMutability": "nonpayable",
      "type": "function"
    },
    {
      "constant": true,
      "inputs": [
        {
          "internalType": "address",
          "name": "_accountToCheck",
          "type": "address"
        },
        {
          "internalType": "enum AccessHubInterface.ContractTypes",
          "name": "destinationType",
          "type": "uint8"
        }
      ],
      "name": "checkHasAccess",
      "outputs": [
        {
          "internalType": "bool",
          "name": "hasAccess",
          "type": "bool"
        }
      ],
      "payable": false,
      "stateMutability": "view",
      "type": "function"
    },
    {
      "constant": true,
      "inputs": [],
      "name": "creolSuper",
      "outputs": [
        {
          "internalType": "address",
          "name": "",
          "type": "address"
        }
      ],
      "payable": false,
      "stateMutability": "view",
      "type": "function"
    },
    {
      "constant": true,
      "inputs": [],
      "name": "getHubAddr",
      "outputs": [
        {
          "internalType": "address",
          "name": "",
          "type": "address"
        }
      ],
      "payable": false,
      "stateMutability": "view",
      "type": "function"
    },
    {
      "constant": true,
      "inputs": [],
      "name": "getRecipientBalance",
      "outputs": [
        {
          "internalType": "uint256",
          "name": "",
          "type": "uint256"
        }
      ],
      "payable": false,
      "stateMutability": "view",
      "type": "function"
    },
    {
      "constant": false,
      "inputs": [],
      "name": "initialize",
      "outputs": [],
      "payable": false,
      "stateMutability": "nonpayable",
      "type": "function"
    },
    {
      "constant": false,
      "inputs": [
        {
          "internalType": "address",
          "name": "sender",
          "type": "address"
        }
      ],
      "name": "initialize",
      "outputs": [],
      "payable": false,
      "stateMutability": "nonpayable",
      "type": "function"
    },
    {
      "constant": false,
      "inputs": [
        {
          "internalType": "address",
          "name": "_owner",
          "type": "address"
        },
        {
          "internalType": "address",
          "name": "_creolSuper",
          "type": "address"
        },
        {
          "internalType": "address",
          "name": "_GSNAddress",
          "type": "address"
        }
      ],
      "name": "initializeAccessHub",
      "outputs": [],
      "payable": false,
      "stateMutability": "nonpayable",
      "type": "function"
    },
    {
      "constant": true,
      "inputs": [],
      "name": "isOwner",
      "outputs": [
        {
          "internalType": "bool",
          "name": "",
          "type": "bool"
        }
      ],
      "payable": false,
      "stateMutability": "view",
      "type": "function"
    },
    {
      "constant": true,
      "inputs": [],
      "name": "owner",
      "outputs": [
        {
          "internalType": "address",
          "name": "",
          "type": "address"
        }
      ],
      "payable": false,
      "stateMutability": "view",
      "type": "function"
    },
    {
      "constant": false,
      "inputs": [
        {
          "internalType": "bytes",
          "name": "context",
          "type": "bytes"
        },
        {
          "internalType": "bool",
          "name": "success",
          "type": "bool"
        },
        {
          "internalType": "uint256",
          "name": "actualCharge",
          "type": "uint256"
        },
        {
          "internalType": "bytes32",
          "name": "preRetVal",
          "type": "bytes32"
        }
      ],
      "name": "postRelayedCall",
      "outputs": [],
      "payable": false,
      "stateMutability": "nonpayable",
      "type": "function"
    },
    {
      "constant": false,
      "inputs": [
        {
          "internalType": "bytes",
          "name": "context",
          "type": "bytes"
        }
      ],
      "name": "preRelayedCall",
      "outputs": [
        {
          "internalType": "bytes32",
          "name": "",
          "type": "bytes32"
        }
      ],
      "payable": false,
      "stateMutability": "nonpayable",
      "type": "function"
    },
    {
      "constant": true,
      "inputs": [],
      "name": "registeredControlState",
      "outputs": [
        {
          "internalType": "address",
          "name": "",
          "type": "address"
        }
      ],
      "payable": false,
      "stateMutability": "view",
      "type": "function"
    },
    {
      "constant": true,
      "inputs": [],
      "name": "relayHubVersion",
      "outputs": [
        {
          "internalType": "string",
          "name": "",
          "type": "string"
        }
      ],
      "payable": false,
      "stateMutability": "view",
      "type": "function"
    },
    {
      "constant": false,
      "inputs": [
        {
          "internalType": "address",
          "name": "userAddress",
          "type": "address"
        },
        {
          "internalType": "enum AccessHubInterface.ContractTypes",
          "name": "destinationType",
          "type": "uint8"
        }
      ],
      "name": "removeAccess",
      "outputs": [],
      "payable": false,
      "stateMutability": "nonpayable",
      "type": "function"
    },
    {
      "constant": false,
      "inputs": [],
      "name": "renounceOwnership",
      "outputs": [],
      "payable": false,
      "stateMutability": "nonpayable",
      "type": "function"
    },
    {
      "constant": false,
      "inputs": [
        {
          "internalType": "address",
          "name": "_newCreolSuper",
          "type": "address"
        }
      ],
      "name": "setCreolSuper",
      "outputs": [],
      "payable": false,
      "stateMutability": "nonpayable",
      "type": "function"
    },
    {
      "constant": false,
      "inputs": [],
      "name": "setDefaultRelayHub",
      "outputs": [],
      "payable": false,
      "stateMutability": "nonpayable",
      "type": "function"
    },
    {
      "constant": false,
      "inputs": [
        {
          "internalType": "address",
          "name": "_newGSNAddress",
          "type": "address"
        }
      ],
      "name": "setGSNAllowed",
      "outputs": [],
      "payable": false,
      "stateMutability": "nonpayable",
      "type": "function"
    },
    {
      "constant": false,
      "inputs": [
        {
          "internalType": "address",
          "name": "_controlState",
          "type": "address"
        }
      ],
      "name": "setRegisteredControlState",
      "outputs": [],
      "payable": false,
      "stateMutability": "nonpayable",
      "type": "function"
    },
    {
      "constant": false,
      "inputs": [],
      "name": "setRelayHubAddress",
      "outputs": [],
      "payable": false,
      "stateMutability": "nonpayable",
      "type": "function"
    },
    {
      "constant": false,
      "inputs": [
        {
          "internalType": "address",
          "name": "newOwner",
          "type": "address"
        }
      ],
      "name": "transferOwnership",
      "outputs": [],
      "payable": false,
      "stateMutability": "nonpayable",
      "type": "function"
    }
  ],
  "bytecode": "0x608060405234801561001057600080fd5b506120c4806100206000396000f3fe608060405234801561001057600080fd5b50600436106101a35760003560e01c80638f32d59b116100ee578063c4d66de811610097578063e06e0e2211610071578063e06e0e22146105d0578063f13d6aeb1461064e578063f2fde38b14610705578063f96dbb301461072b576101a3565b8063c4d66de81461057c578063ceaee8c1146105a2578063d3c7fb84146105c8576101a3565b8063afbc155a116100c8578063afbc155a1461050d578063b5d5588114610515578063b691744814610544576101a3565b80638f32d59b14610480578063ac57041114610488578063ad61ccd514610490576101a3565b8063715018a6116101505780638129fc1c1161012a5780638129fc1c146102ff57806383947ea0146103075780638da5cb5b14610478576101a3565b8063715018a61461026d57806374e861d61461027557806380274db71461027d576101a3565b806337800b221161018157806337800b221461021b578063626ca5121461023f578063657f519514610265576101a3565b8063069e0a8a146101a857806311217cec146101eb5780631220e2ff14610213575b600080fd5b6101d7600480360360408110156101be57600080fd5b5080356001600160a01b0316906020013560ff1661075a565b604080519115158252519081900360200190f35b6102116004803603602081101561020157600080fd5b50356001600160a01b03166108e5565b005b6102116109a8565b6102236109c7565b604080516001600160a01b039092168252519081900360200190f35b6102116004803603602081101561025557600080fd5b50356001600160a01b03166109d6565b610223610a8c565b610211610a9b565b610223610b3e565b6102ed6004803603602081101561029357600080fd5b8101906020810181356401000000008111156102ae57600080fd5b8201836020820111156102c057600080fd5b803590602001918460018302840111640100000000831117156102e257600080fd5b509092509050610b4e565b60408051918252519081900360200190f35b610211610bed565b6103f9600480360361012081101561031e57600080fd5b6001600160a01b03823581169260208101359091169181019060608101604082013564010000000081111561035257600080fd5b82018360208201111561036457600080fd5b8035906020019184600183028401116401000000008311171561038657600080fd5b9193909282359260208101359260408201359260608301359260a0810190608001356401000000008111156103ba57600080fd5b8201836020820111156103cc57600080fd5b803590602001918460018302840111640100000000831117156103ee57600080fd5b919350915035610ca6565b6040518083815260200180602001828103825283818151815260200191508051906020019080838360005b8381101561043c578181015183820152602001610424565b50505050905090810190601f1680156104695780820380516001836020036101000a031916815260200191505b50935050505060405180910390f35b610223610d18565b6101d7610d27565b6102ed610d4d565b610498610ddd565b6040805160208082528351818301528351919283929083019185019080838360005b838110156104d25781810151838201526020016104ba565b50505050905090810190601f1680156104ff5780820380516001836020036101000a031916815260200191505b509250505060405180910390f35b610223610e14565b6102116004803603604081101561052b57600080fd5b5080356001600160a01b0316906020013560ff16610e23565b6102116004803603606081101561055a57600080fd5b506001600160a01b038135811691602081013582169160409091013516611128565b6102116004803603602081101561059257600080fd5b50356001600160a01b031661130d565b610211600480360360208110156105b857600080fd5b50356001600160a01b03166113ff565b61021161149c565b610211600480360360808110156105e657600080fd5b81019060208101813564010000000081111561060157600080fd5b82018360208201111561061357600080fd5b8035906020019184600183028401116401000000008311171561063557600080fd5b91935091508035151590602081013590604001356114d2565b6102116004803603606081101561066457600080fd5b81019060208101813564010000000081111561067f57600080fd5b82018360208201111561069157600080fd5b803590602001918460018302840111640100000000831117156106b357600080fd5b91908080601f016020809104026020016040519081016040528093929190818152602001838380828437600092019190915250929550505081356001600160a01b03169250506020013560ff16611574565b6102116004803603602081101561071b57600080fd5b50356001600160a01b031661187b565b6102116004803603604081101561074157600080fd5b5080356001600160a01b0316906020013560ff166118dd565b6000828183600381111561076a57fe5b141561078a5761078160698263ffffffff611bc416565b91506108df9050565b600183600381111561079857fe5b14156107cd576107af60698263ffffffff611bc416565b9150816107c757610781606a8263ffffffff611bc416565b506108df565b60028360038111156107db57fe5b1415610823576107f260698263ffffffff611bc416565b91508161080d5761080a606a8263ffffffff611bc416565b91505b816107c757610781606b8263ffffffff611bc416565b600383600381111561083157fe5b14156108925761084860698263ffffffff611bc416565b91508161086357610860606a8263ffffffff611bc416565b91505b8161087c57610879606b8263ffffffff611bc416565b91505b816107c757610781606c8263ffffffff611bc416565b6040805162461bcd60e51b815260206004820152601760248201527f496e76616c69642064657374696e6174696f6e54797065000000000000000000604482015290519081900360640190fd5b92915050565b6067546001600160a01b03166108f9611c2b565b6001600160a01b031614610954576040805162461bcd60e51b815260206004820152601860248201527f63616c6c6572206973206e6f74206372656f6c53757065720000000000000000604482015290519081900360640190fd5b606d80546001600160a01b0383166001600160a01b0319909116811790915560408051918252517f91a64780483280dfe7a3d2fac6daefaba09ddc8219489a389c193891bfe2f9c49181900360200190a150565b6109c573d216153c06e857cd7f72665e0af1d7d82172f494611c56565b565b6067546001600160a01b031681565b6067546001600160a01b03166109ea611c2b565b6001600160a01b031614610a45576040805162461bcd60e51b815260206004820152601860248201527f63616c6c6572206973206e6f74206372656f6c53757065720000000000000000604482015290519081900360640190fd5b606754610a5c906001600160a01b03166000610e23565b606780546001600160a01b0319166001600160a01b038381169190911791829055610a89911660006118dd565b50565b606d546001600160a01b031681565b610aa3610d27565b610af4576040805162461bcd60e51b815260206004820181905260248201527f4f776e61626c653a2063616c6c6572206973206e6f7420746865206f776e6572604482015290519081900360640190fd5b6033546040516000916001600160a01b0316907f8be0079c531659141344cd1fd0a4f28419497f9722a3daafe3b4186f6b6457e0908390a3603380546001600160a01b0319169055565b6066546001600160a01b03165b90565b6000610b58610b3e565b6001600160a01b0316336001600160a01b031614610ba75760405162461bcd60e51b815260040180806020018281038252602481526020018061206c6024913960400191505060405180910390fd5b610be683838080601f016020809104026020016040519081016040528093929190818152602001838380828437600092019190915250611d5692505050565b9392505050565b600054610100900460ff1680610c065750610c06611d5c565b80610c14575060005460ff16155b610c4f5760405162461bcd60e51b815260040180806020018281038252602e815260200180612011602e913960400191505060405180910390fd5b600054610100900460ff16158015610c7a576000805460ff1961ff0019909116610100171660011790555b6066546001600160a01b0316610c9257610c926109a8565b8015610a89576000805461ff001916905550565b60006060610cb58c600061075a565b80610cc65750610cc68c600161075a565b80610cd75750610cd78c600261075a565b80610ce85750610ce88c600361075a565b15610cfe57610cf5611d62565b91509150610d08565b610cf56000611d86565b9b509b9950505050505050505050565b6033546001600160a01b031690565b6033546000906001600160a01b0316610d3e611c2b565b6001600160a01b031614905090565b6000610d57610b3e565b6001600160a01b03166370a08231306040518263ffffffff1660e01b815260040180826001600160a01b03166001600160a01b0316815260200191505060206040518083038186803b158015610dac57600080fd5b505afa158015610dc0573d6000803e3d6000fd5b505050506040513d6020811015610dd657600080fd5b5051905090565b60408051808201909152600581527f312e302e30000000000000000000000000000000000000000000000000000000602082015290565b6068546001600160a01b031681565b6000610e2d611c2b565b90506000826003811115610e3d57fe5b1415610f1a57610e5460698263ffffffff611bc416565b610ea5576040805162461bcd60e51b815260206004820152601660248201527f4e6f742061206275696c64696e67206d616e6167657200000000000000000000604482015290519081900360640190fd5b610eb660698463ffffffff611d9e16565b7f44b6d0be669c0693dda7bde26187b15f101f791e845281756f483b6e5549a8da838360405180836001600160a01b03166001600160a01b03168152602001826003811115610f0157fe5b60ff1681526020019250505060405180910390a1611123565b6001826003811115610f2857fe5b1415610fad57610f3f60698263ffffffff611bc416565b80610f565750610f56606a8263ffffffff611bc416565b610f9c576040805162461bcd60e51b81526020600482015260126024820152712737ba10309039b4ba329036b0b730b3b2b960711b604482015290519081900360640190fd5b610eb6606a8463ffffffff611d9e16565b6002826003811115610fbb57fe5b141561106257610fd260698263ffffffff611bc416565b80610fe95750610fe9606a8263ffffffff611bc416565b806110005750611000606b8263ffffffff611bc416565b611051576040805162461bcd60e51b815260206004820152601560248201527f4e6f7420616e206f6666696365206d616e616765720000000000000000000000604482015290519081900360640190fd5b610eb6606b8463ffffffff611d9e16565b600382600381111561107057fe5b14156108925761108760698263ffffffff611bc416565b8061109e575061109e606a8263ffffffff611bc416565b806110b557506110b5606b8263ffffffff611bc416565b806110cc57506110cc606c8263ffffffff611bc416565b611112576040805162461bcd60e51b81526020600482015260126024820152712737ba1030b71037b33334b1b2903ab9b2b960711b604482015290519081900360640190fd5b610eb6606c8463ffffffff611d9e16565b505050565b600054610100900460ff16806111415750611141611d5c565b8061114f575060005460ff16155b61118a5760405162461bcd60e51b815260040180806020018281038252602e815260200180612011602e913960400191505060405180910390fd5b600054610100900460ff161580156111b5576000805460ff1961ff0019909116610100171660011790555b606880546001600160a01b038085166001600160a01b03199283161790925560678054928616929091169190911790556111ed610bed565b6111f68461130d565b61120760698563ffffffff611e0516565b604080516001600160a01b03861681526000602082015281517fb92abe584d804fddf2e0a4a6f4334bc45cbe5da9a14cb0b865282ca39768a4f7929181900390910190a161125c60698463ffffffff611e0516565b604080516001600160a01b03851681526000602082015281517fb92abe584d804fddf2e0a4a6f4334bc45cbe5da9a14cb0b865282ca39768a4f7929181900390910190a16112b160698363ffffffff611e0516565b604080516001600160a01b03841681526000602082015281517fb92abe584d804fddf2e0a4a6f4334bc45cbe5da9a14cb0b865282ca39768a4f7929181900390910190a18015611307576000805461ff00191690555b50505050565b600054610100900460ff16806113265750611326611d5c565b80611334575060005460ff16155b61136f5760405162461bcd60e51b815260040180806020018281038252602e815260200180612011602e913960400191505060405180910390fd5b600054610100900460ff1615801561139a576000805460ff1961ff0019909116610100171660011790555b603380546001600160a01b0319166001600160a01b0384811691909117918290556040519116906000907f8be0079c531659141344cd1fd0a4f28419497f9722a3daafe3b4186f6b6457e0908290a380156113fb576000805461ff00191690555b5050565b611407610d27565b611458576040805162461bcd60e51b815260206004820181905260248201527f4f776e61626c653a2063616c6c6572206973206e6f7420746865206f776e6572604482015290519081900360640190fd5b60685461146f906001600160a01b03166000610e23565b606880546001600160a01b0319166001600160a01b038381169190911791829055610a89911660006118dd565b60006114a6610b3e565b6001600160a01b031614156109c5576109c573d216153c06e857cd7f72665e0af1d7d82172f494611c56565b6114da610b3e565b6001600160a01b0316336001600160a01b0316146115295760405162461bcd60e51b815260040180806020018281038252602481526020018061206c6024913960400191505060405180910390fd5b61156d85858080601f016020809104026020016040519081016040528093929190818152602001838380828437600092019190915250879250869150859050611307565b5050505050565b600061157e611c2b565b9050600082600381111561158e57fe5b14156116a5576115a560698263ffffffff611bc416565b6115f6576040805162461bcd60e51b815260206004820152601660248201527f4e6f742061206275696c64696e67206d616e6167657200000000000000000000604482015290519081900360640190fd5b6000839050806001600160a01b0316856040518082805190602001908083835b602083106116355780518252601f199092019160209182019101611616565b6001836020036101000a0380198251168184511680821785525050505050509050019150506000604051808303816000865af19150503d8060008114611697576040519150601f19603f3d011682016040523d82523d6000602084013e61169c565b606091505b50505050611307565b60018260038111156116b357fe5b1415611727576116ca60698263ffffffff611bc416565b806116e157506116e1606a8263ffffffff611bc416565b6115f6576040805162461bcd60e51b81526020600482015260126024820152712737ba10309039b4ba329036b0b730b3b2b960711b604482015290519081900360640190fd5b600282600381111561173557fe5b14156117cb5761174c60698263ffffffff611bc416565b806117635750611763606a8263ffffffff611bc416565b8061177a575061177a606b8263ffffffff611bc416565b6115f6576040805162461bcd60e51b815260206004820152601560248201527f4e6f7420616e206f6666696365206d616e616765720000000000000000000000604482015290519081900360640190fd5b60038260038111156117d957fe5b1415610892576117f060698263ffffffff611bc416565b806118075750611807606a8263ffffffff611bc416565b8061181e575061181e606b8263ffffffff611bc416565b806118355750611835606c8263ffffffff611bc416565b6115f6576040805162461bcd60e51b81526020600482015260126024820152712737ba1030b71037b33334b1b2903ab9b2b960711b604482015290519081900360640190fd5b611883610d27565b6118d4576040805162461bcd60e51b815260206004820181905260248201527f4f776e61626c653a2063616c6c6572206973206e6f7420746865206f776e6572604482015290519081900360640190fd5b610a8981611e86565b60006118e7611c2b565b905060008260038111156118f757fe5b14156119bb5761190e60698263ffffffff611bc416565b61195f576040805162461bcd60e51b815260206004820152601660248201527f4e6f742061206275696c64696e67206d616e6167657200000000000000000000604482015290519081900360640190fd5b61197060698463ffffffff611e0516565b7fb92abe584d804fddf2e0a4a6f4334bc45cbe5da9a14cb0b865282ca39768a4f7838360405180836001600160a01b03166001600160a01b03168152602001826003811115610f0157fe5b60018260038111156119c957fe5b1415611a4e576119e060698263ffffffff611bc416565b806119f757506119f7606a8263ffffffff611bc416565b611a3d576040805162461bcd60e51b81526020600482015260126024820152712737ba10309039b4ba329036b0b730b3b2b960711b604482015290519081900360640190fd5b611970606a8463ffffffff611e0516565b6002826003811115611a5c57fe5b1415611b0357611a7360698263ffffffff611bc416565b80611a8a5750611a8a606a8263ffffffff611bc416565b80611aa15750611aa1606b8263ffffffff611bc416565b611af2576040805162461bcd60e51b815260206004820152601560248201527f4e6f7420616e206f6666696365206d616e616765720000000000000000000000604482015290519081900360640190fd5b611970606b8463ffffffff611e0516565b6003826003811115611b1157fe5b141561089257611b2860698263ffffffff611bc416565b80611b3f5750611b3f606a8263ffffffff611bc416565b80611b565750611b56606b8263ffffffff611bc416565b80611b6d5750611b6d606c8263ffffffff611bc416565b611bb3576040805162461bcd60e51b81526020600482015260126024820152712737ba1030b71037b33334b1b2903ab9b2b960711b604482015290519081900360640190fd5b611970606c8463ffffffff611e0516565b60006001600160a01b038216611c0b5760405162461bcd60e51b8152600401808060200182810382526022815260200180611fef6022913960400191505060405180910390fd5b506001600160a01b03166000908152602091909152604090205460ff1690565b6066546000906001600160a01b03163314611c47575033610b4b565b611c4f611f27565b9050610b4b565b6066546001600160a01b03908116908216611ca25760405162461bcd60e51b815260040180806020018281038252602e815260200180611fa0602e913960400191505060405180910390fd5b806001600160a01b0316826001600160a01b03161415611cf35760405162461bcd60e51b815260040180806020018281038252602d81526020018061203f602d913960400191505060405180910390fd5b816001600160a01b0316816001600160a01b03167fb9f84b8e65164b14439ae3620df0a4d8786d896996c0282b683f9d8c08f046e860405160405180910390a350606680546001600160a01b0319166001600160a01b0392909216919091179055565b50600090565b303b1590565b60006060611d7e60405180602001604052806000815250611f74565b915091509091565b604080516020810190915260008152600b9190910191565b611da88282611bc4565b611de35760405162461bcd60e51b8152600401808060200182810382526021815260200180611fce6021913960400191505060405180910390fd5b6001600160a01b0316600090815260209190915260409020805460ff19169055565b611e0f8282611bc4565b15611e61576040805162461bcd60e51b815260206004820152601f60248201527f526f6c65733a206163636f756e7420616c72656164792068617320726f6c6500604482015290519081900360640190fd5b6001600160a01b0316600090815260209190915260409020805460ff19166001179055565b6001600160a01b038116611ecb5760405162461bcd60e51b8152600401808060200182810382526026815260200180611f7a6026913960400191505060405180910390fd5b6033546040516001600160a01b038084169216907f8be0079c531659141344cd1fd0a4f28419497f9722a3daafe3b4186f6b6457e090600090a3603380546001600160a01b0319166001600160a01b0392909216919091179055565b600060606000368080601f0160208091040260200160405190810160405280939291908181526020018383808284376000920191909152505050503601516001600160a01b031692915050565b60009156fe4f776e61626c653a206e6577206f776e657220697320746865207a65726f206164647265737347534e526563697069656e743a206e65772052656c617948756220697320746865207a65726f2061646472657373526f6c65733a206163636f756e7420646f6573206e6f74206861766520726f6c65526f6c65733a206163636f756e7420697320746865207a65726f2061646472657373436f6e747261637420696e7374616e63652068617320616c7265616479206265656e20696e697469616c697a656447534e526563697069656e743a206e65772052656c6179487562206973207468652063757272656e74206f6e6547534e526563697069656e743a2063616c6c6572206973206e6f742052656c6179487562a265627a7a723158202b6265eda8e7c95f410ea86773dbc7e2a598cfd0963e5aab7b42b38f4faa08a364736f6c63430005110032",
  "compiler": {
    "name": "solc",
    "version": "0.5.17+commit.d19bba13.Emscripten.clang",
    "optimizer": {
      "enabled": true,
      "runs": 1000
    },
    "evmVersion": "petersburg"
  }
}