{
  "fileName": "AccountRegistry.sol",
  "contractName": "AccountRegistry",
  "source": "pragma solidity ^0.5.17;\r\n\r\n\r\nimport \"@openzeppelin/upgrades/contracts/Initializable.sol\";\r\nimport \"@openzeppelin/contracts-ethereum-package/contracts/ownership/Ownable.sol\";\r\nimport \"@openzeppelin/contracts-ethereum-package/contracts/access/Roles.sol\";\r\n\r\nimport \"./AccountRegistryInterface.sol\";\r\n\r\ncontract AccountRegistry is AccountRegistryInterface, Initializable, Ownable {\r\n\r\n    event AccountRegistryInitialized(address creolSuper);\r\n    event AccessHubAdded(address AccessHubAddress, string AccessHubName);\r\n    event AccessHubDeleted(address AccessHubAddress);\r\n    event AccessHubNameChange(address _AccessHubID, string _newAccessHubName);\r\n\r\n    struct AccessHub {\r\n        bool IsRegistered;\r\n        bool IsActive;\r\n        string AccessHubName;\r\n    }\r\n    \r\n    struct User {\r\n        bool IsActive;\r\n        address[] userAccessHubs;\r\n    }\r\n\r\n    bool public CreolSuperIsRegistered;\r\n    bool public CreolSuperIsActive;\r\n\r\n    address[] public AccessHubAddresses;\r\n\r\n    mapping (address => AccessHub) public AccessHubIDtoAccessHubData;\r\n    \r\n    mapping (address => User ) public userAddresstoAccessHubData;\r\n    \r\n\r\n    modifier onlyCreolSuper(){\r\n        require(_msgSender() == owner(), \"Caller, not CreolSuper\");\r\n        _;\r\n    }\r\n    constructor() public {\r\n    }\r\n\r\n    function initialize(address _creolSuper) public initializer {\r\n        CreolSuperIsActive = true;\r\n        CreolSuperIsRegistered = true;\r\n\r\n        if (_creolSuper == address(0)) {\r\n            Ownable.initialize(_msgSender());\r\n\r\n        }\r\n        else {\r\n            Ownable.initialize(_creolSuper);\r\n        }\r\n        emit AccountRegistryInitialized(_creolSuper);\r\n    }\r\n\r\n    function IsRegistered (address _AccessHubID) public view returns(bool AccessHubStatus) {\r\n        return (AccessHubIDtoAccessHubData[_AccessHubID].IsRegistered);\r\n    }\r\n\r\n    function IsActive (address _AccessHubID) public view returns(bool AccessHubStatus) {\r\n        return (AccessHubIDtoAccessHubData[_AccessHubID].IsActive);\r\n    }\r\n\r\n    function AddAccessHub (address _AccessHubID, string memory _AccessHubName) onlyCreolSuper public {\r\n        if(CreolSuperIsRegistered == true) {\r\n            if (AccessHubIDtoAccessHubData[_AccessHubID].IsRegistered == false) {\r\n                AccessHubIDtoAccessHubData[_AccessHubID].IsRegistered = true;\r\n                AccessHubIDtoAccessHubData[_AccessHubID].IsActive = true;\r\n                AccessHubIDtoAccessHubData[_AccessHubID].AccessHubName = _AccessHubName;\r\n                AccessHubAddresses.push(_AccessHubID);\r\n                emit AccessHubAdded(_AccessHubID, _AccessHubName);\r\n            }\r\n            else {\r\n                revert(\"AccessHub is already active\");\r\n            }\r\n        }\r\n        else {\r\n            revert(\"CreolSuper is not active\");\r\n        }\r\n    }\r\n\r\n    function RemoveAccessHub (address _AccessHubID) onlyCreolSuper public {\r\n        if(CreolSuperIsRegistered == true) {\r\n            if (AccessHubIDtoAccessHubData[_AccessHubID].IsActive == true) {\r\n                AccessHubIDtoAccessHubData[_AccessHubID].IsActive = false;\r\n                emit AccessHubDeleted(_AccessHubID);\r\n            }\r\n            else {\r\n                revert(\"AccessHub is not active\");\r\n            }\r\n        }\r\n        else {\r\n            revert(\"CreolSuper is not active\");\r\n        }\r\n    }\r\n\r\n    function EditAccessHubName (address _AccessHubID, string memory _newAccessHubName) onlyCreolSuper public {\r\n        if (CreolSuperIsRegistered) {\r\n            if (AccessHubIDtoAccessHubData[_AccessHubID].IsRegistered){\r\n                AccessHubIDtoAccessHubData[_AccessHubID].AccessHubName = _newAccessHubName;\r\n                emit AccessHubNameChange(_AccessHubID, _newAccessHubName);\r\n            }\r\n            else {\r\n                revert(\"AccessHub is not registered\");\r\n            }\r\n        }\r\n        else {\r\n            revert(\"CreolSuper is not registered\");\r\n        }\r\n    }\r\n    function setUserRegistration(address _user, address[] memory _AccessHubs) public onlyCreolSuper {\r\n        \r\n        userAddresstoAccessHubData[_user].userAccessHubs = _AccessHubs;\r\n        userAddresstoAccessHubData[_user].IsActive = true;\r\n    }\r\n    \r\n    function getUserHubs(address _user) public view returns (address[] memory _AccessHubs){\r\n        return userAddresstoAccessHubData[_user].userAccessHubs;\r\n    }\r\n    \r\n    function getAccessHubCount() public view returns(uint AccessHubCount){\r\n        return AccessHubAddresses.length;\r\n    }\r\n\r\n}\r\n",
  "sourcePath": "contracts/AccountRegistry/AccountRegistry.sol",
  "abi": [
    {
      "inputs": [],
      "payable": false,
      "stateMutability": "nonpayable",
      "type": "constructor"
    },
    {
      "anonymous": false,
      "inputs": [
        {
          "indexed": false,
          "internalType": "address",
          "name": "AccessHubAddress",
          "type": "address"
        },
        {
          "indexed": false,
          "internalType": "string",
          "name": "AccessHubName",
          "type": "string"
        }
      ],
      "name": "AccessHubAdded",
      "type": "event"
    },
    {
      "anonymous": false,
      "inputs": [
        {
          "indexed": false,
          "internalType": "address",
          "name": "AccessHubAddress",
          "type": "address"
        }
      ],
      "name": "AccessHubDeleted",
      "type": "event"
    },
    {
      "anonymous": false,
      "inputs": [
        {
          "indexed": false,
          "internalType": "address",
          "name": "_AccessHubID",
          "type": "address"
        },
        {
          "indexed": false,
          "internalType": "string",
          "name": "_newAccessHubName",
          "type": "string"
        }
      ],
      "name": "AccessHubNameChange",
      "type": "event"
    },
    {
      "anonymous": false,
      "inputs": [
        {
          "indexed": false,
          "internalType": "address",
          "name": "creolSuper",
          "type": "address"
        }
      ],
      "name": "AccountRegistryInitialized",
      "type": "event"
    },
    {
      "anonymous": false,
      "inputs": [
        {
          "indexed": true,
          "internalType": "address",
          "name": "previousOwner",
          "type": "address"
        },
        {
          "indexed": true,
          "internalType": "address",
          "name": "newOwner",
          "type": "address"
        }
      ],
      "name": "OwnershipTransferred",
      "type": "event"
    },
    {
      "constant": true,
      "inputs": [
        {
          "internalType": "uint256",
          "name": "",
          "type": "uint256"
        }
      ],
      "name": "AccessHubAddresses",
      "outputs": [
        {
          "internalType": "address",
          "name": "",
          "type": "address"
        }
      ],
      "payable": false,
      "stateMutability": "view",
      "type": "function"
    },
    {
      "constant": true,
      "inputs": [
        {
          "internalType": "address",
          "name": "",
          "type": "address"
        }
      ],
      "name": "AccessHubIDtoAccessHubData",
      "outputs": [
        {
          "internalType": "bool",
          "name": "IsRegistered",
          "type": "bool"
        },
        {
          "internalType": "bool",
          "name": "IsActive",
          "type": "bool"
        },
        {
          "internalType": "string",
          "name": "AccessHubName",
          "type": "string"
        }
      ],
      "payable": false,
      "stateMutability": "view",
      "type": "function"
    },
    {
      "constant": false,
      "inputs": [
        {
          "internalType": "address",
          "name": "_AccessHubID",
          "type": "address"
        },
        {
          "internalType": "string",
          "name": "_AccessHubName",
          "type": "string"
        }
      ],
      "name": "AddAccessHub",
      "outputs": [],
      "payable": false,
      "stateMutability": "nonpayable",
      "type": "function"
    },
    {
      "constant": true,
      "inputs": [],
      "name": "CreolSuperIsActive",
      "outputs": [
        {
          "internalType": "bool",
          "name": "",
          "type": "bool"
        }
      ],
      "payable": false,
      "stateMutability": "view",
      "type": "function"
    },
    {
      "constant": true,
      "inputs": [],
      "name": "CreolSuperIsRegistered",
      "outputs": [
        {
          "internalType": "bool",
          "name": "",
          "type": "bool"
        }
      ],
      "payable": false,
      "stateMutability": "view",
      "type": "function"
    },
    {
      "constant": false,
      "inputs": [
        {
          "internalType": "address",
          "name": "_AccessHubID",
          "type": "address"
        },
        {
          "internalType": "string",
          "name": "_newAccessHubName",
          "type": "string"
        }
      ],
      "name": "EditAccessHubName",
      "outputs": [],
      "payable": false,
      "stateMutability": "nonpayable",
      "type": "function"
    },
    {
      "constant": true,
      "inputs": [
        {
          "internalType": "address",
          "name": "_AccessHubID",
          "type": "address"
        }
      ],
      "name": "IsActive",
      "outputs": [
        {
          "internalType": "bool",
          "name": "AccessHubStatus",
          "type": "bool"
        }
      ],
      "payable": false,
      "stateMutability": "view",
      "type": "function"
    },
    {
      "constant": true,
      "inputs": [
        {
          "internalType": "address",
          "name": "_AccessHubID",
          "type": "address"
        }
      ],
      "name": "IsRegistered",
      "outputs": [
        {
          "internalType": "bool",
          "name": "AccessHubStatus",
          "type": "bool"
        }
      ],
      "payable": false,
      "stateMutability": "view",
      "type": "function"
    },
    {
      "constant": false,
      "inputs": [
        {
          "internalType": "address",
          "name": "_AccessHubID",
          "type": "address"
        }
      ],
      "name": "RemoveAccessHub",
      "outputs": [],
      "payable": false,
      "stateMutability": "nonpayable",
      "type": "function"
    },
    {
      "constant": true,
      "inputs": [],
      "name": "getAccessHubCount",
      "outputs": [
        {
          "internalType": "uint256",
          "name": "AccessHubCount",
          "type": "uint256"
        }
      ],
      "payable": false,
      "stateMutability": "view",
      "type": "function"
    },
    {
      "constant": true,
      "inputs": [
        {
          "internalType": "address",
          "name": "_user",
          "type": "address"
        }
      ],
      "name": "getUserHubs",
      "outputs": [
        {
          "internalType": "address[]",
          "name": "_AccessHubs",
          "type": "address[]"
        }
      ],
      "payable": false,
      "stateMutability": "view",
      "type": "function"
    },
    {
      "constant": false,
      "inputs": [
        {
          "internalType": "address",
          "name": "_creolSuper",
          "type": "address"
        }
      ],
      "name": "initialize",
      "outputs": [],
      "payable": false,
      "stateMutability": "nonpayable",
      "type": "function"
    },
    {
      "constant": true,
      "inputs": [],
      "name": "isOwner",
      "outputs": [
        {
          "internalType": "bool",
          "name": "",
          "type": "bool"
        }
      ],
      "payable": false,
      "stateMutability": "view",
      "type": "function"
    },
    {
      "constant": true,
      "inputs": [],
      "name": "owner",
      "outputs": [
        {
          "internalType": "address",
          "name": "",
          "type": "address"
        }
      ],
      "payable": false,
      "stateMutability": "view",
      "type": "function"
    },
    {
      "constant": false,
      "inputs": [],
      "name": "renounceOwnership",
      "outputs": [],
      "payable": false,
      "stateMutability": "nonpayable",
      "type": "function"
    },
    {
      "constant": false,
      "inputs": [
        {
          "internalType": "address",
          "name": "_user",
          "type": "address"
        },
        {
          "internalType": "address[]",
          "name": "_AccessHubs",
          "type": "address[]"
        }
      ],
      "name": "setUserRegistration",
      "outputs": [],
      "payable": false,
      "stateMutability": "nonpayable",
      "type": "function"
    },
    {
      "constant": false,
      "inputs": [
        {
          "internalType": "address",
          "name": "newOwner",
          "type": "address"
        }
      ],
      "name": "transferOwnership",
      "outputs": [],
      "payable": false,
      "stateMutability": "nonpayable",
      "type": "function"
    },
    {
      "constant": true,
      "inputs": [
        {
          "internalType": "address",
          "name": "",
          "type": "address"
        }
      ],
      "name": "userAddresstoAccessHubData",
      "outputs": [
        {
          "internalType": "bool",
          "name": "IsActive",
          "type": "bool"
        }
      ],
      "payable": false,
      "stateMutability": "view",
      "type": "function"
    }
  ],
  "bytecode": "0x608060405234801561001057600080fd5b506113e9806100206000396000f3fe608060405234801561001057600080fd5b50600436106101365760003560e01c80638da5cb5b116100b2578063c4d66de811610081578063d9af5f6611610066578063d9af5f66146104f9578063f2fde38b1461051f578063f3a12d9f1461054557610136565b8063c4d66de8146104ad578063cb1a9c2d146104d357610136565b80638da5cb5b146103c15780638f32d59b146103c9578063b8513c62146103d1578063c224122d1461048757610136565b80634864f80e116101095780636194cdbf116100ee5780636194cdbf14610378578063715018a61461038057806388e0f8911461038857610136565b80634864f80e146102bd578063568574611461037057610136565b806320df50111461013b5780632e80b0c7146101f3578063361bbc5c1461022d57806340b51daf146102a3575b600080fd5b6101f16004803603604081101561015157600080fd5b6001600160a01b03823516919081019060408101602082013564010000000081111561017c57600080fd5b82018360208201111561018e57600080fd5b803590602001918460018302840111640100000000831117156101b057600080fd5b91908080601f0160208091040260200160405190810160405280939291908181526020018383808284376000920191909152509295506105f9945050505050565b005b6102196004803603602081101561020957600080fd5b50356001600160a01b0316610880565b604080519115158252519081900360200190f35b6102536004803603602081101561024357600080fd5b50356001600160a01b0316610895565b60408051602080825283518183015283519192839290830191858101910280838360005b8381101561028f578181015183820152602001610277565b505050509050019250505060405180910390f35b6102ab61090e565b60408051918252519081900360200190f35b6101f1600480360360408110156102d357600080fd5b6001600160a01b0382351691908101906040810160208201356401000000008111156102fe57600080fd5b82018360208201111561031057600080fd5b8035906020019184602083028401116401000000008311171561033257600080fd5b919080806020026020016040519081016040528093929190818152602001838360200280828437600092019190915250929550610915945050505050565b6102196109de565b6102196109e7565b6101f16109f5565b6103a56004803603602081101561039e57600080fd5b5035610a98565b604080516001600160a01b039092168252519081900360200190f35b6103a5610abf565b610219610ace565b6101f1600480360360408110156103e757600080fd5b6001600160a01b03823516919081019060408101602082013564010000000081111561041257600080fd5b82018360208201111561042457600080fd5b8035906020019184600183028401116401000000008311171561044657600080fd5b91908080601f016020809104026020016040519081016040528093929190818152602001838380828437600092019190915250929550610af4945050505050565b6102196004803603602081101561049d57600080fd5b50356001600160a01b0316610cd5565b6101f1600480360360208110156104c357600080fd5b50356001600160a01b0316610cf3565b6101f1600480360360208110156104e957600080fd5b50356001600160a01b0316610e15565b6102196004803603602081101561050f57600080fd5b50356001600160a01b0316610f70565b6101f16004803603602081101561053557600080fd5b50356001600160a01b0316610f93565b61056b6004803603602081101561055b57600080fd5b50356001600160a01b0316610ff5565b60405180841515151581526020018315151515815260200180602001828103825283818151815260200191508051906020019080838360005b838110156105bc5781810151838201526020016105a4565b50505050905090810190601f1680156105e95780820380516001836020036101000a031916815260200191505b5094505050505060405180910390f35b610601610abf565b6001600160a01b03166106126110a7565b6001600160a01b03161461066d576040805162461bcd60e51b815260206004820152601660248201527f43616c6c65722c206e6f74204372656f6c537570657200000000000000000000604482015290519081900360640190fd5b60665460ff1615156001141561082f576001600160a01b03821660009081526068602052604090205460ff166107dd576001600160a01b03821660009081526068602090815260409091208054610100600160ff19909216821761ff00191617825583516106e393919092019190840190611243565b506067805460018101825560009182527f9787eeb91fe3101235e4a76063c7023ecb40f923f97916639c598592fa30d6ae0180546001600160a01b0319166001600160a01b03851690811790915560408051918252602080830182815285519284019290925284517f32f98e0b89f5b63f168873665b81dab891655d3982d2a6f9ab200d84882739439487948794909390926060850192918601918190849084905b8381101561079d578181015183820152602001610785565b50505050905090810190601f1680156107ca5780820380516001836020036101000a031916815260200191505b50935050505060405180910390a161082a565b6040805162461bcd60e51b815260206004820152601b60248201527f41636365737348756220697320616c7265616479206163746976650000000000604482015290519081900360640190fd5b61087c565b6040805162461bcd60e51b815260206004820152601860248201527f4372656f6c5375706572206973206e6f74206163746976650000000000000000604482015290519081900360640190fd5b5050565b60696020526000908152604090205460ff1681565b6001600160a01b03811660009081526069602090815260409182902060010180548351818402810184019094528084526060939283018282801561090257602002820191906000526020600020905b81546001600160a01b031681526001909101906020018083116108e4575b50505050509050919050565b6067545b90565b61091d610abf565b6001600160a01b031661092e6110a7565b6001600160a01b031614610989576040805162461bcd60e51b815260206004820152601660248201527f43616c6c65722c206e6f74204372656f6c537570657200000000000000000000604482015290519081900360640190fd5b6001600160a01b038216600090815260696020908152604090912082516109b8926001909201918401906112c1565b50506001600160a01b03166000908152606960205260409020805460ff19166001179055565b60665460ff1681565b606654610100900460ff1681565b6109fd610ace565b610a4e576040805162461bcd60e51b815260206004820181905260248201527f4f776e61626c653a2063616c6c6572206973206e6f7420746865206f776e6572604482015290519081900360640190fd5b6033546040516000916001600160a01b0316907f8be0079c531659141344cd1fd0a4f28419497f9722a3daafe3b4186f6b6457e0908390a3603380546001600160a01b0319169055565b60678181548110610aa557fe5b6000918252602090912001546001600160a01b0316905081565b6033546001600160a01b031690565b6033546000906001600160a01b0316610ae56110a7565b6001600160a01b031614905090565b610afc610abf565b6001600160a01b0316610b0d6110a7565b6001600160a01b031614610b68576040805162461bcd60e51b815260206004820152601660248201527f43616c6c65722c206e6f74204372656f6c537570657200000000000000000000604482015290519081900360640190fd5b60665460ff1615610c88576001600160a01b03821660009081526068602052604090205460ff1615610c3b576001600160a01b03821660009081526068602090815260409091208251610bc392600190920191840190611243565b507f65626d23eabca73e56dbd9249ee6a803980cdd883cbbe8a0eafb8961959e6239828260405180836001600160a01b03166001600160a01b0316815260200180602001828103825283818151815260200191508051906020019080838360008381101561079d578181015183820152602001610785565b6040805162461bcd60e51b815260206004820152601b60248201527f416363657373487562206973206e6f7420726567697374657265640000000000604482015290519081900360640190fd5b6040805162461bcd60e51b815260206004820152601c60248201527f4372656f6c5375706572206973206e6f74207265676973746572656400000000604482015290519081900360640190fd5b6001600160a01b031660009081526068602052604090205460ff1690565b600054610100900460ff1680610d0c5750610d0c6110ab565b80610d1a575060005460ff16155b610d555760405162461bcd60e51b815260040180806020018281038252602e815260200180611387602e913960400191505060405180910390fd5b600054610100900460ff16158015610d80576000805460ff1961ff0019909116610100171660011790555b6066805460ff1961ff0019909116610100171660011790556001600160a01b038216610dbb57610db6610db16110a7565b6110b1565b610dc4565b610dc4826110b1565b604080516001600160a01b038416815290517f15de8eedee2c9a0f95fa6eec4be85fa9b8714006085b4ccd56026593cbf351269181900360200190a1801561087c576000805461ff00191690555050565b610e1d610abf565b6001600160a01b0316610e2e6110a7565b6001600160a01b031614610e89576040805162461bcd60e51b815260206004820152601660248201527f43616c6c65722c206e6f74204372656f6c537570657200000000000000000000604482015290519081900360640190fd5b60665460ff1615156001141561082f576001600160a01b03811660009081526068602052604090205460ff61010090910416151560011415610f20576001600160a01b038116600081815260686020908152604091829020805461ff0019169055815192835290517fca576b86b8ca1fe85c9a725948a31bfca18a11e230fcedb7cda298b3a9d30abf9281900390910190a1610f6d565b6040805162461bcd60e51b815260206004820152601760248201527f416363657373487562206973206e6f7420616374697665000000000000000000604482015290519081900360640190fd5b50565b6001600160a01b0316600090815260686020526040902054610100900460ff1690565b610f9b610ace565b610fec576040805162461bcd60e51b815260206004820181905260248201527f4f776e61626c653a2063616c6c6572206973206e6f7420746865206f776e6572604482015290519081900360640190fd5b610f6d816111a2565b606860209081526000918252604091829020805460018083018054865160026101009483161585026000190190921691909104601f810187900487028201870190975286815260ff80851697939094049093169490919083018282801561109d5780601f106110725761010080835404028352916020019161109d565b820191906000526020600020905b81548152906001019060200180831161108057829003601f168201915b5050505050905083565b3390565b303b1590565b600054610100900460ff16806110ca57506110ca6110ab565b806110d8575060005460ff16155b6111135760405162461bcd60e51b815260040180806020018281038252602e815260200180611387602e913960400191505060405180910390fd5b600054610100900460ff1615801561113e576000805460ff1961ff0019909116610100171660011790555b603380546001600160a01b0319166001600160a01b0384811691909117918290556040519116906000907f8be0079c531659141344cd1fd0a4f28419497f9722a3daafe3b4186f6b6457e0908290a3801561087c576000805461ff00191690555050565b6001600160a01b0381166111e75760405162461bcd60e51b81526004018080602001828103825260268152602001806113616026913960400191505060405180910390fd5b6033546040516001600160a01b038084169216907f8be0079c531659141344cd1fd0a4f28419497f9722a3daafe3b4186f6b6457e090600090a3603380546001600160a01b0319166001600160a01b0392909216919091179055565b828054600181600116156101000203166002900490600052602060002090601f016020900481019282601f1061128457805160ff19168380011785556112b1565b828001600101855582156112b1579182015b828111156112b1578251825591602001919060010190611296565b506112bd929150611322565b5090565b828054828255906000526020600020908101928215611316579160200282015b8281111561131657825182546001600160a01b0319166001600160a01b039091161782556020909201916001909101906112e1565b506112bd92915061133c565b61091291905b808211156112bd5760008155600101611328565b61091291905b808211156112bd5780546001600160a01b031916815560010161134256fe4f776e61626c653a206e6577206f776e657220697320746865207a65726f2061646472657373436f6e747261637420696e7374616e63652068617320616c7265616479206265656e20696e697469616c697a6564a265627a7a72315820543cf37765e322c52491ad53920767b92afda37c357d77d4b2a4b76b4c6cec4764736f6c63430005110032",
  "compiler": {
    "name": "solc",
    "version": "0.5.17+commit.d19bba13.Emscripten.clang",
    "optimizer": {
      "enabled": true,
      "runs": 1000
    },
    "evmVersion": "petersburg"
  }
}