{
  "fileName": "ControlState.sol",
  "contractName": "ControlState",
  "source": "pragma solidity ^0.5.17;\r\n\r\nimport \"@openzeppelin/contracts-ethereum-package/contracts/ownership/Ownable.sol\";\r\nimport \"@openzeppelin/upgrades/contracts/Initializable.sol\";\r\nimport \"@openzeppelin/contracts-ethereum-package/contracts/GSN/GSNRecipient.sol\";\r\n\r\nimport \"../SiteState/SiteStateInterface.sol\";\r\nimport \"../SiteState/SiteStateFactoryInterface.sol\";\r\n\r\nimport \"../LEDState/LEDFactoryInterface.sol\";\r\nimport \"../RoomState/RoomStateFactoryInterface.sol\";\r\n\r\nimport \"./ControlStateInterface.sol\";\r\n\r\nimport  '../AccessHub/AccessHubInterface.sol';\r\n\r\n\r\ncontract ControlState is ControlStateInterface, Initializable, Ownable, GSNRecipient {\r\n\r\n    //Events\r\n    event SiteAdded(address SiteAddress, string SiteName);\r\n    event SiteDeleted(address SiteAddress);\r\n    event newProxyAdmin(address _newProxyAdmin);\r\n    event SiteNameChange(address _SiteID, string _newSiteName);\r\n\r\n    SiteStateInterface private genericSiteStateInterface;\r\n    SiteStateFactoryInterface public genericSiteStateFactoryInterface;\r\n\r\n    RoomStateFactoryInterface public RoomStateFactoryInterfaceCreol;\r\n\r\n    LEDFactoryInterface public LEDFactoryInterfaceCreol;\r\n\r\n    AccessHubInterface public credentials;\r\n\r\n\r\n\r\n    struct Site {\r\n        bool IsRegistered;\r\n        bool IsActive;\r\n        string SiteName;\r\n    }\r\n\r\n    address ControlAddress;\r\n\r\n    bool public ControlIsRegistered;\r\n    bool public ControlIsActive;\r\n    string public ControlName;\r\n    address[] public SiteAddresses;\r\n\r\n    address public proxyAdmin;\r\n\r\n    address private allowedGSNAddress;\r\n    //Site state address\r\n    mapping (address => Site) public SiteIDtoSiteData;\r\n\r\n\r\n    modifier onlyAccessHub(){\r\n        require(credentials.checkHasAccess(_msgSender(), AccessHubInterface.ContractTypes.ControlState) || _msgSender() == owner(), \"Caller, not registered in access hub\");\r\n        _;\r\n    }\r\n\r\n    //Functions\r\n    constructor() public {\r\n    }\r\n\r\n    function initialize(address owner, address _accessHub, address _allowedGSNAddress, string memory _ControlName, address _SiteStateFactory, address _LEDFactory, address _RoomStateFactory) public initializer {\r\n\r\n        RoomStateFactoryInterfaceCreol = RoomStateFactoryInterface(_RoomStateFactory);\r\n\r\n        LEDFactoryInterfaceCreol = LEDFactoryInterface(_LEDFactory);\r\n\r\n        genericSiteStateFactoryInterface = SiteStateFactoryInterface(_SiteStateFactory);\r\n\r\n        credentials = AccessHubInterface(_accessHub);\r\n\r\n        ControlAddress = _accessHub;\r\n        ControlIsRegistered = true;\r\n        ControlIsActive  = true;\r\n        ControlName = _ControlName;\r\n        allowedGSNAddress = _allowedGSNAddress;\r\n\r\n        if (owner == address(0)) {\r\n            Ownable.initialize(_msgSender());\r\n        }\r\n        else {\r\n            Ownable.initialize(owner);\r\n        }\r\n        GSNRecipient.initialize();\r\n\r\n    }\r\n\r\n    function IsRegistered (address _SiteID) public view returns(bool SiteStatus) {\r\n        return (SiteIDtoSiteData[_SiteID].IsRegistered);\r\n    }\r\n\r\n    function IsActive (address _SiteID) public view returns(bool SiteStatus) {\r\n        return (SiteIDtoSiteData[_SiteID].IsActive);\r\n    }\r\n\r\n    function AddSite (address _SiteID, string memory _SiteName) onlyAccessHub public {\r\n        if(ControlIsRegistered == true) {\r\n            if (SiteIDtoSiteData[_SiteID].IsRegistered == false) {\r\n                SiteIDtoSiteData[_SiteID].IsRegistered = true;\r\n                SiteIDtoSiteData[_SiteID].IsActive = true;\r\n                SiteIDtoSiteData[_SiteID].SiteName = _SiteName;\r\n                SiteAddresses.push(_SiteID);\r\n                emit SiteAdded(_SiteID, _SiteName);\r\n            }\r\n            else {\r\n                revert(\"Site is already active\");\r\n            }\r\n        }\r\n        else {\r\n            revert(\"Control is not active\");\r\n        }\r\n    }\r\n\r\n    function RemoveSite (address _SiteID) onlyAccessHub public {\r\n        if(ControlIsRegistered == true) {\r\n            if (SiteIDtoSiteData[_SiteID].IsActive == true) {\r\n                SiteIDtoSiteData[_SiteID].IsActive = false;\r\n                emit SiteDeleted(_SiteID);\r\n            }\r\n            else {\r\n                revert(\"Site is not active\");\r\n            }\r\n        }\r\n        else {\r\n            revert(\"Control is not active\");\r\n        }\r\n    }\r\n    function EditSiteName (address _SiteID, string memory _newSiteName) onlyAccessHub public {\r\n        if (ControlIsRegistered) {\r\n            if (SiteIDtoSiteData[_SiteID].IsRegistered){\r\n                SiteIDtoSiteData[_SiteID].SiteName = _newSiteName;\r\n                emit SiteNameChange(_SiteID, _newSiteName);\r\n            }\r\n            else {\r\n                revert(\"Site is not registered\");\r\n            }\r\n        }\r\n        else {\r\n            revert(\"Control is not registered\");\r\n        }\r\n\r\n    }\r\n\r\n\r\n    function CreateSite (address _owner, address _accessHub, address _GSNAddress, string memory _siteName, address _RoomStateFactory, address _LEDFactory) public onlyAccessHub {\r\n\r\n        bytes memory payLoadData = abi.encodeWithSignature(\"initialize(address,address,address,string,address,address)\",_owner, _accessHub,_GSNAddress, _siteName, _RoomStateFactory, _LEDFactory);\r\n\r\n        address _newSite = genericSiteStateFactoryInterface.createSiteStateUpgradeable(proxyAdmin, payLoadData);\r\n\r\n        RoomStateFactoryInterfaceCreol.addApprovedSiteState(_newSite);\r\n\r\n        LEDFactoryInterfaceCreol.addApprovedRoomState(_newSite);\r\n\r\n        AddSite(_newSite,_siteName);\r\n    }\r\n    function getSiteCount() public view returns(uint siteCount){\r\n        return SiteAddresses.length;\r\n    }\r\n\r\n    /**\r\n    * @dev Meant to update the proxyAdmin address, that was added in new version.\r\n    * @notice Meant to update the proxyAdmin address, that was added in new version.\r\n    * @param _proxyAdmin new address of the proxyAdmin contract for the openzeppelin app entry\r\n    */\r\n    function setProxyAdmin( address _proxyAdmin) public onlyAccessHub {\r\n        proxyAdmin = _proxyAdmin;\r\n        emit newProxyAdmin(_proxyAdmin);\r\n\r\n    }\r\n    function setGSNAllowed(address _newGSNAddress) public onlyOwner {\r\n        allowedGSNAddress = _newGSNAddress;\r\n    }\r\n    function acceptRelayedCall(\r\n        address relay,\r\n        address from,\r\n        bytes calldata encodedFunction,\r\n        uint256 transactionFee,\r\n        uint256 gasPrice,\r\n        uint256 gasLimit,\r\n        uint256 nonce,\r\n        bytes calldata approvalData,\r\n        uint256 maxPossibleCharge\r\n    ) external view returns (uint256, bytes memory)  {\r\n\r\n        //emit emittedMsgSender(_msgSender());\r\n        //emit emittedAllowedAddress(allowedAddress);\r\n        if(from == allowedGSNAddress){\r\n            return _approveRelayedCall();\r\n\r\n        }\r\n        else {\r\n            return _rejectRelayedCall(uint256(0));\r\n        }\r\n    }\r\n\r\n    function _preRelayedCall(bytes memory context) internal returns (bytes32) {\r\n\r\n    }\r\n\r\n    function _postRelayedCall(bytes memory context, bool, uint256 actualCharge, bytes32) internal {\r\n\r\n    }\r\n\r\n    function setRelayHubAddress() public {\r\n        if(getHubAddr() == address(0)) {\r\n            _upgradeRelayHub(0xD216153c06E857cD7f72665E0aF1d7D82172F494);\r\n        }\r\n    }\r\n\r\n    function getRecipientBalance() public view returns (uint) {\r\n        return IRelayHub(getHubAddr()).balanceOf(address(this));\r\n    }\r\n}\r\n",
  "sourcePath": "contracts/ControlState/ControlState.sol",
  "abi": [
    {
      "inputs": [],
      "payable": false,
      "stateMutability": "nonpayable",
      "type": "constructor"
    },
    {
      "anonymous": false,
      "inputs": [
        {
          "indexed": true,
          "internalType": "address",
          "name": "previousOwner",
          "type": "address"
        },
        {
          "indexed": true,
          "internalType": "address",
          "name": "newOwner",
          "type": "address"
        }
      ],
      "name": "OwnershipTransferred",
      "type": "event"
    },
    {
      "anonymous": false,
      "inputs": [
        {
          "indexed": true,
          "internalType": "address",
          "name": "oldRelayHub",
          "type": "address"
        },
        {
          "indexed": true,
          "internalType": "address",
          "name": "newRelayHub",
          "type": "address"
        }
      ],
      "name": "RelayHubChanged",
      "type": "event"
    },
    {
      "anonymous": false,
      "inputs": [
        {
          "indexed": false,
          "internalType": "address",
          "name": "SiteAddress",
          "type": "address"
        },
        {
          "indexed": false,
          "internalType": "string",
          "name": "SiteName",
          "type": "string"
        }
      ],
      "name": "SiteAdded",
      "type": "event"
    },
    {
      "anonymous": false,
      "inputs": [
        {
          "indexed": false,
          "internalType": "address",
          "name": "SiteAddress",
          "type": "address"
        }
      ],
      "name": "SiteDeleted",
      "type": "event"
    },
    {
      "anonymous": false,
      "inputs": [
        {
          "indexed": false,
          "internalType": "address",
          "name": "_SiteID",
          "type": "address"
        },
        {
          "indexed": false,
          "internalType": "string",
          "name": "_newSiteName",
          "type": "string"
        }
      ],
      "name": "SiteNameChange",
      "type": "event"
    },
    {
      "anonymous": false,
      "inputs": [
        {
          "indexed": false,
          "internalType": "address",
          "name": "_newProxyAdmin",
          "type": "address"
        }
      ],
      "name": "newProxyAdmin",
      "type": "event"
    },
    {
      "constant": false,
      "inputs": [
        {
          "internalType": "address",
          "name": "_SiteID",
          "type": "address"
        },
        {
          "internalType": "string",
          "name": "_SiteName",
          "type": "string"
        }
      ],
      "name": "AddSite",
      "outputs": [],
      "payable": false,
      "stateMutability": "nonpayable",
      "type": "function"
    },
    {
      "constant": true,
      "inputs": [],
      "name": "ControlIsActive",
      "outputs": [
        {
          "internalType": "bool",
          "name": "",
          "type": "bool"
        }
      ],
      "payable": false,
      "stateMutability": "view",
      "type": "function"
    },
    {
      "constant": true,
      "inputs": [],
      "name": "ControlIsRegistered",
      "outputs": [
        {
          "internalType": "bool",
          "name": "",
          "type": "bool"
        }
      ],
      "payable": false,
      "stateMutability": "view",
      "type": "function"
    },
    {
      "constant": true,
      "inputs": [],
      "name": "ControlName",
      "outputs": [
        {
          "internalType": "string",
          "name": "",
          "type": "string"
        }
      ],
      "payable": false,
      "stateMutability": "view",
      "type": "function"
    },
    {
      "constant": false,
      "inputs": [
        {
          "internalType": "address",
          "name": "_owner",
          "type": "address"
        },
        {
          "internalType": "address",
          "name": "_accessHub",
          "type": "address"
        },
        {
          "internalType": "address",
          "name": "_GSNAddress",
          "type": "address"
        },
        {
          "internalType": "string",
          "name": "_siteName",
          "type": "string"
        },
        {
          "internalType": "address",
          "name": "_RoomStateFactory",
          "type": "address"
        },
        {
          "internalType": "address",
          "name": "_LEDFactory",
          "type": "address"
        }
      ],
      "name": "CreateSite",
      "outputs": [],
      "payable": false,
      "stateMutability": "nonpayable",
      "type": "function"
    },
    {
      "constant": false,
      "inputs": [
        {
          "internalType": "address",
          "name": "_SiteID",
          "type": "address"
        },
        {
          "internalType": "string",
          "name": "_newSiteName",
          "type": "string"
        }
      ],
      "name": "EditSiteName",
      "outputs": [],
      "payable": false,
      "stateMutability": "nonpayable",
      "type": "function"
    },
    {
      "constant": true,
      "inputs": [
        {
          "internalType": "address",
          "name": "_SiteID",
          "type": "address"
        }
      ],
      "name": "IsActive",
      "outputs": [
        {
          "internalType": "bool",
          "name": "SiteStatus",
          "type": "bool"
        }
      ],
      "payable": false,
      "stateMutability": "view",
      "type": "function"
    },
    {
      "constant": true,
      "inputs": [
        {
          "internalType": "address",
          "name": "_SiteID",
          "type": "address"
        }
      ],
      "name": "IsRegistered",
      "outputs": [
        {
          "internalType": "bool",
          "name": "SiteStatus",
          "type": "bool"
        }
      ],
      "payable": false,
      "stateMutability": "view",
      "type": "function"
    },
    {
      "constant": true,
      "inputs": [],
      "name": "LEDFactoryInterfaceCreol",
      "outputs": [
        {
          "internalType": "contract LEDFactoryInterface",
          "name": "",
          "type": "address"
        }
      ],
      "payable": false,
      "stateMutability": "view",
      "type": "function"
    },
    {
      "constant": false,
      "inputs": [
        {
          "internalType": "address",
          "name": "_SiteID",
          "type": "address"
        }
      ],
      "name": "RemoveSite",
      "outputs": [],
      "payable": false,
      "stateMutability": "nonpayable",
      "type": "function"
    },
    {
      "constant": true,
      "inputs": [],
      "name": "RoomStateFactoryInterfaceCreol",
      "outputs": [
        {
          "internalType": "contract RoomStateFactoryInterface",
          "name": "",
          "type": "address"
        }
      ],
      "payable": false,
      "stateMutability": "view",
      "type": "function"
    },
    {
      "constant": true,
      "inputs": [
        {
          "internalType": "uint256",
          "name": "",
          "type": "uint256"
        }
      ],
      "name": "SiteAddresses",
      "outputs": [
        {
          "internalType": "address",
          "name": "",
          "type": "address"
        }
      ],
      "payable": false,
      "stateMutability": "view",
      "type": "function"
    },
    {
      "constant": true,
      "inputs": [
        {
          "internalType": "address",
          "name": "",
          "type": "address"
        }
      ],
      "name": "SiteIDtoSiteData",
      "outputs": [
        {
          "internalType": "bool",
          "name": "IsRegistered",
          "type": "bool"
        },
        {
          "internalType": "bool",
          "name": "IsActive",
          "type": "bool"
        },
        {
          "internalType": "string",
          "name": "SiteName",
          "type": "string"
        }
      ],
      "payable": false,
      "stateMutability": "view",
      "type": "function"
    },
    {
      "constant": true,
      "inputs": [
        {
          "internalType": "address",
          "name": "relay",
          "type": "address"
        },
        {
          "internalType": "address",
          "name": "from",
          "type": "address"
        },
        {
          "internalType": "bytes",
          "name": "encodedFunction",
          "type": "bytes"
        },
        {
          "internalType": "uint256",
          "name": "transactionFee",
          "type": "uint256"
        },
        {
          "internalType": "uint256",
          "name": "gasPrice",
          "type": "uint256"
        },
        {
          "internalType": "uint256",
          "name": "gasLimit",
          "type": "uint256"
        },
        {
          "internalType": "uint256",
          "name": "nonce",
          "type": "uint256"
        },
        {
          "internalType": "bytes",
          "name": "approvalData",
          "type": "bytes"
        },
        {
          "internalType": "uint256",
          "name": "maxPossibleCharge",
          "type": "uint256"
        }
      ],
      "name": "acceptRelayedCall",
      "outputs": [
        {
          "internalType": "uint256",
          "name": "",
          "type": "uint256"
        },
        {
          "internalType": "bytes",
          "name": "",
          "type": "bytes"
        }
      ],
      "payable": false,
      "stateMutability": "view",
      "type": "function"
    },
    {
      "constant": true,
      "inputs": [],
      "name": "credentials",
      "outputs": [
        {
          "internalType": "contract AccessHubInterface",
          "name": "",
          "type": "address"
        }
      ],
      "payable": false,
      "stateMutability": "view",
      "type": "function"
    },
    {
      "constant": true,
      "inputs": [],
      "name": "genericSiteStateFactoryInterface",
      "outputs": [
        {
          "internalType": "contract SiteStateFactoryInterface",
          "name": "",
          "type": "address"
        }
      ],
      "payable": false,
      "stateMutability": "view",
      "type": "function"
    },
    {
      "constant": true,
      "inputs": [],
      "name": "getHubAddr",
      "outputs": [
        {
          "internalType": "address",
          "name": "",
          "type": "address"
        }
      ],
      "payable": false,
      "stateMutability": "view",
      "type": "function"
    },
    {
      "constant": true,
      "inputs": [],
      "name": "getRecipientBalance",
      "outputs": [
        {
          "internalType": "uint256",
          "name": "",
          "type": "uint256"
        }
      ],
      "payable": false,
      "stateMutability": "view",
      "type": "function"
    },
    {
      "constant": true,
      "inputs": [],
      "name": "getSiteCount",
      "outputs": [
        {
          "internalType": "uint256",
          "name": "siteCount",
          "type": "uint256"
        }
      ],
      "payable": false,
      "stateMutability": "view",
      "type": "function"
    },
    {
      "constant": false,
      "inputs": [],
      "name": "initialize",
      "outputs": [],
      "payable": false,
      "stateMutability": "nonpayable",
      "type": "function"
    },
    {
      "constant": false,
      "inputs": [
        {
          "internalType": "address",
          "name": "sender",
          "type": "address"
        }
      ],
      "name": "initialize",
      "outputs": [],
      "payable": false,
      "stateMutability": "nonpayable",
      "type": "function"
    },
    {
      "constant": false,
      "inputs": [
        {
          "internalType": "address",
          "name": "owner",
          "type": "address"
        },
        {
          "internalType": "address",
          "name": "_accessHub",
          "type": "address"
        },
        {
          "internalType": "address",
          "name": "_allowedGSNAddress",
          "type": "address"
        },
        {
          "internalType": "string",
          "name": "_ControlName",
          "type": "string"
        },
        {
          "internalType": "address",
          "name": "_SiteStateFactory",
          "type": "address"
        },
        {
          "internalType": "address",
          "name": "_LEDFactory",
          "type": "address"
        },
        {
          "internalType": "address",
          "name": "_RoomStateFactory",
          "type": "address"
        }
      ],
      "name": "initialize",
      "outputs": [],
      "payable": false,
      "stateMutability": "nonpayable",
      "type": "function"
    },
    {
      "constant": true,
      "inputs": [],
      "name": "isOwner",
      "outputs": [
        {
          "internalType": "bool",
          "name": "",
          "type": "bool"
        }
      ],
      "payable": false,
      "stateMutability": "view",
      "type": "function"
    },
    {
      "constant": true,
      "inputs": [],
      "name": "owner",
      "outputs": [
        {
          "internalType": "address",
          "name": "",
          "type": "address"
        }
      ],
      "payable": false,
      "stateMutability": "view",
      "type": "function"
    },
    {
      "constant": false,
      "inputs": [
        {
          "internalType": "bytes",
          "name": "context",
          "type": "bytes"
        },
        {
          "internalType": "bool",
          "name": "success",
          "type": "bool"
        },
        {
          "internalType": "uint256",
          "name": "actualCharge",
          "type": "uint256"
        },
        {
          "internalType": "bytes32",
          "name": "preRetVal",
          "type": "bytes32"
        }
      ],
      "name": "postRelayedCall",
      "outputs": [],
      "payable": false,
      "stateMutability": "nonpayable",
      "type": "function"
    },
    {
      "constant": false,
      "inputs": [
        {
          "internalType": "bytes",
          "name": "context",
          "type": "bytes"
        }
      ],
      "name": "preRelayedCall",
      "outputs": [
        {
          "internalType": "bytes32",
          "name": "",
          "type": "bytes32"
        }
      ],
      "payable": false,
      "stateMutability": "nonpayable",
      "type": "function"
    },
    {
      "constant": true,
      "inputs": [],
      "name": "proxyAdmin",
      "outputs": [
        {
          "internalType": "address",
          "name": "",
          "type": "address"
        }
      ],
      "payable": false,
      "stateMutability": "view",
      "type": "function"
    },
    {
      "constant": true,
      "inputs": [],
      "name": "relayHubVersion",
      "outputs": [
        {
          "internalType": "string",
          "name": "",
          "type": "string"
        }
      ],
      "payable": false,
      "stateMutability": "view",
      "type": "function"
    },
    {
      "constant": false,
      "inputs": [],
      "name": "renounceOwnership",
      "outputs": [],
      "payable": false,
      "stateMutability": "nonpayable",
      "type": "function"
    },
    {
      "constant": false,
      "inputs": [],
      "name": "setDefaultRelayHub",
      "outputs": [],
      "payable": false,
      "stateMutability": "nonpayable",
      "type": "function"
    },
    {
      "constant": false,
      "inputs": [
        {
          "internalType": "address",
          "name": "_newGSNAddress",
          "type": "address"
        }
      ],
      "name": "setGSNAllowed",
      "outputs": [],
      "payable": false,
      "stateMutability": "nonpayable",
      "type": "function"
    },
    {
      "constant": false,
      "inputs": [
        {
          "internalType": "address",
          "name": "_proxyAdmin",
          "type": "address"
        }
      ],
      "name": "setProxyAdmin",
      "outputs": [],
      "payable": false,
      "stateMutability": "nonpayable",
      "type": "function"
    },
    {
      "constant": false,
      "inputs": [],
      "name": "setRelayHubAddress",
      "outputs": [],
      "payable": false,
      "stateMutability": "nonpayable",
      "type": "function"
    },
    {
      "constant": false,
      "inputs": [
        {
          "internalType": "address",
          "name": "newOwner",
          "type": "address"
        }
      ],
      "name": "transferOwnership",
      "outputs": [],
      "payable": false,
      "stateMutability": "nonpayable",
      "type": "function"
    }
  ],
  "bytecode": "0x608060405234801561001057600080fd5b506125e6806100206000396000f3fe608060405234801561001057600080fd5b50600436106102265760003560e01c8063927df9981161012a578063ceaee8c1116100bd578063d9af5f661161008c578063ed20994c11610071578063ed20994c146109cd578063eea8de6a14610aaa578063f2fde38b14610ab257610226565b8063d9af5f6614610929578063e06e0e221461094f57610226565b8063ceaee8c114610812578063d3c7fb8414610838578063d5ef07ff14610840578063d838ef361461092157610226565b8063ad61ccd5116100f9578063ad61ccd5146107b6578063c224122d146107be578063c4d66de8146107e4578063c9d4e67b1461080a57610226565b8063927df99814610673578063974fd13b1461067b578063a940924c14610731578063ac570411146107ae57610226565b806374e861d6116101bd57806383947ea01161018c5780638f32d59b116101715780638f32d59b146106295780638f54ffce14610645578063914747891461066b57610226565b806383947ea0146104b05780638da5cb5b1461062157610226565b806374e861d61461041657806380274db71461041e5780638129fc1c146104a05780638391f6e8146104a857610226565b80632f809b56116101f95780632f809b56146103d85780633e47158c146103e057806347c02661146103e8578063715018a61461040e57610226565b80630160401e1461022b57806305208859146102df5780631220e2ff146103185780632a19241114610322575b600080fd5b6102516004803603602081101561024157600080fd5b50356001600160a01b0316610ad8565b60405180841515151581526020018315151515815260200180602001828103825283818151815260200191508051906020019080838360005b838110156102a257818101518382015260200161028a565b50505050905090810190601f1680156102cf5780820380516001836020036101000a031916815260200191505b5094505050505060405180910390f35b6102fc600480360360208110156102f557600080fd5b5035610b8a565b604080516001600160a01b039092168252519081900360200190f35b610320610bb1565b005b6103206004803603604081101561033857600080fd5b6001600160a01b03823516919081019060408101602082013564010000000081111561036357600080fd5b82018360208201111561037557600080fd5b8035906020019184600183028401116401000000008311171561039757600080fd5b91908080601f016020809104026020016040519081016040528093929190818152602001838380828437600092019190915250929550610bd0945050505050565b6102fc610ee1565b6102fc610ef0565b610320600480360360208110156103fe57600080fd5b50356001600160a01b0316610eff565b61032061104a565b6102fc6110ed565b61048e6004803603602081101561043457600080fd5b81019060208101813564010000000081111561044f57600080fd5b82018360208201111561046157600080fd5b8035906020019184600183028401116401000000008311171561048357600080fd5b5090925090506110fd565b60408051918252519081900360200190f35b61032061119c565b61048e611256565b6105a260048036036101208110156104c757600080fd5b6001600160a01b0382358116926020810135909116918101906060810160408201356401000000008111156104fb57600080fd5b82018360208201111561050d57600080fd5b8035906020019184600183028401116401000000008311171561052f57600080fd5b9193909282359260208101359260408201359260608301359260a08101906080013564010000000081111561056357600080fd5b82018360208201111561057557600080fd5b8035906020019184600183028401116401000000008311171561059757600080fd5b91935091503561125c565b6040518083815260200180602001828103825283818151815260200191508051906020019080838360005b838110156105e55781810151838201526020016105cd565b50505050905090810190601f1680156106125780820380516001836020036101000a031916815260200191505b50935050505060405180910390f35b6102fc6112a3565b6106316112b2565b604080519115158252519081900360200190f35b6103206004803603602081101561065b57600080fd5b50356001600160a01b03166112d8565b6106316114bf565b6102fc6114cf565b6103206004803603604081101561069157600080fd5b6001600160a01b0382351691908101906040810160208201356401000000008111156106bc57600080fd5b8201836020820111156106ce57600080fd5b803590602001918460018302840111640100000000831117156106f057600080fd5b91908080601f0160208091040260200160405190810160405280939291908181526020018383808284376000920191909152509295506114de945050505050565b610739611749565b6040805160208082528351818301528351919283929083019185019080838360005b8381101561077357818101518382015260200161075b565b50505050905090810190601f1680156107a05780820380516001836020036101000a031916815260200191505b509250505060405180910390f35b61048e6117d7565b610739611867565b610631600480360360208110156107d457600080fd5b50356001600160a01b031661189e565b610320600480360360208110156107fa57600080fd5b50356001600160a01b03166118bc565b6102fc6119ad565b6103206004803603602081101561082857600080fd5b50356001600160a01b03166119bc565b610320611a37565b610320600480360360e081101561085657600080fd5b6001600160a01b038235811692602081013582169260408201359092169181019060808101606082013564010000000081111561089257600080fd5b8201836020820111156108a457600080fd5b803590602001918460018302840111640100000000831117156108c657600080fd5b91908080601f016020809104026020016040519081016040528093929190818152602001838380828437600092019190915250929550506001600160a01b03833581169450602084013581169360400135169150611a6d9050565b6102fc611c1d565b6106316004803603602081101561093f57600080fd5b50356001600160a01b0316611c2c565b6103206004803603608081101561096557600080fd5b81019060208101813564010000000081111561098057600080fd5b82018360208201111561099257600080fd5b803590602001918460018302840111640100000000831117156109b457600080fd5b9193509150803515159060208101359060400135611c4f565b610320600480360360c08110156109e357600080fd5b6001600160a01b0382358116926020810135821692604082013590921691810190608081016060820135640100000000811115610a1f57600080fd5b820183602082011115610a3157600080fd5b80359060200191846001830284011164010000000083111715610a5357600080fd5b91908080601f016020809104026020016040519081016040528093929190818152602001838380828437600092019190915250929550506001600160a01b038335811694506020909301359092169150611cf19050565b610631612144565b61032060048036036020811015610ac857600080fd5b50356001600160a01b0316612154565b607160209081526000918252604091829020805460018083018054865160026101009483161585026000190190921691909104601f810187900487028201870190975286815260ff808516979390940490931694909190830182828015610b805780601f10610b5557610100808354040283529160200191610b80565b820191906000526020600020905b815481529060010190602001808311610b6357829003601f168201915b5050505050905083565b606e8181548110610b9757fe5b6000918252602090912001546001600160a01b0316905081565b610bce73d216153c06e857cd7f72665e0af1d7d82172f4946121b6565b565b606b546001600160a01b031663069e0a8a610be96122b6565b6040805160e084901b6001600160e01b03191681526001600160a01b0392909216600483015260006024830152516044808301926020929190829003018186803b158015610c3657600080fd5b505afa158015610c4a573d6000803e3d6000fd5b505050506040513d6020811015610c6057600080fd5b505180610c8c5750610c706112a3565b6001600160a01b0316610c816122b6565b6001600160a01b0316145b610cc75760405162461bcd60e51b81526004018080602001828103825260248152602001806124bb6024913960400191505060405180910390fd5b606c54600160a01b900460ff16151560011415610e90576001600160a01b03821660009081526071602052604090205460ff16610e3e576001600160a01b03821660009081526071602090815260409091208054610100600160ff19909216821761ff0019161782558351610d4493919092019190840190612422565b50606e805460018101825560009182527f9930d9ff0dee0ef5ca2f7710ea66b8f84dd0f5f5351ecffe72b952cd9db7142a0180546001600160a01b0319166001600160a01b03851690811790915560408051918252602080830182815285519284019290925284517f79a8d665a43ae0efc767482f3f611f6f94359bf27d0bc808a5371bc678ce99c39487948794909390926060850192918601918190849084905b83811015610dfe578181015183820152602001610de6565b50505050905090810190601f168015610e2b5780820380516001836020036101000a031916815260200191505b50935050505060405180910390a1610e8b565b6040805162461bcd60e51b815260206004820152601660248201527f5369746520697320616c72656164792061637469766500000000000000000000604482015290519081900360640190fd5b610edd565b6040805162461bcd60e51b815260206004820152601560248201527f436f6e74726f6c206973206e6f74206163746976650000000000000000000000604482015290519081900360640190fd5b5050565b6069546001600160a01b031681565b606f546001600160a01b031681565b606b546001600160a01b031663069e0a8a610f186122b6565b6040805160e084901b6001600160e01b03191681526001600160a01b0392909216600483015260006024830152516044808301926020929190829003018186803b158015610f6557600080fd5b505afa158015610f79573d6000803e3d6000fd5b505050506040513d6020811015610f8f57600080fd5b505180610fbb5750610f9f6112a3565b6001600160a01b0316610fb06122b6565b6001600160a01b0316145b610ff65760405162461bcd60e51b81526004018080602001828103825260248152602001806124bb6024913960400191505060405180910390fd5b606f80546001600160a01b0383166001600160a01b0319909116811790915560408051918252517f6946d4ce6ea07b42684d639cbf6ac64603390f99027f1e4fc7fb2ad95eb182d69181900360200190a150565b6110526112b2565b6110a3576040805162461bcd60e51b815260206004820181905260248201527f4f776e61626c653a2063616c6c6572206973206e6f7420746865206f776e6572604482015290519081900360640190fd5b6033546040516000916001600160a01b0316907f8be0079c531659141344cd1fd0a4f28419497f9722a3daafe3b4186f6b6457e0908390a3603380546001600160a01b0319169055565b6066546001600160a01b03165b90565b60006111076110ed565b6001600160a01b0316336001600160a01b0316146111565760405162461bcd60e51b815260040180806020018281038252602481526020018061258e6024913960400191505060405180910390fd5b61119583838080601f0160208091040260200160405190810160405280939291908181526020018383808284376000920191909152506122e192505050565b9392505050565b600054610100900460ff16806111b557506111b56122e7565b806111c3575060005460ff16155b6111fe5760405162461bcd60e51b815260040180806020018281038252602e815260200180612533602e913960400191505060405180910390fd5b600054610100900460ff16158015611229576000805460ff1961ff0019909116610100171660011790555b6066546001600160a01b031661124157611241610bb1565b8015611253576000805461ff00191690555b50565b606e5490565b6070546000906060906001600160a01b038d811691161415611289576112806122ed565b91509150611293565b6112806000612311565b9b509b9950505050505050505050565b6033546001600160a01b031690565b6033546000906001600160a01b03166112c96122b6565b6001600160a01b031614905090565b606b546001600160a01b031663069e0a8a6112f16122b6565b6040805160e084901b6001600160e01b03191681526001600160a01b0392909216600483015260006024830152516044808301926020929190829003018186803b15801561133e57600080fd5b505afa158015611352573d6000803e3d6000fd5b505050506040513d602081101561136857600080fd5b50518061139457506113786112a3565b6001600160a01b03166113896122b6565b6001600160a01b0316145b6113cf5760405162461bcd60e51b81526004018080602001828103825260248152602001806124bb6024913960400191505060405180910390fd5b606c54600160a01b900460ff16151560011415610e90576001600160a01b03811660009081526071602052604090205460ff6101009091041615156001141561146d576001600160a01b038116600081815260716020908152604091829020805461ff0019169055815192835290517fcb833dc66d3e821565ff7dd0e869a4da03845f1bd17819510ca3d3182400f6fb9281900390910190a16114ba565b6040805162461bcd60e51b815260206004820152601260248201527f53697465206973206e6f74206163746976650000000000000000000000000000604482015290519081900360640190fd5b611253565b606c54600160a01b900460ff1681565b606b546001600160a01b031681565b606b546001600160a01b031663069e0a8a6114f76122b6565b6040805160e084901b6001600160e01b03191681526001600160a01b0392909216600483015260006024830152516044808301926020929190829003018186803b15801561154457600080fd5b505afa158015611558573d6000803e3d6000fd5b505050506040513d602081101561156e57600080fd5b50518061159a575061157e6112a3565b6001600160a01b031661158f6122b6565b6001600160a01b0316145b6115d55760405162461bcd60e51b81526004018080602001828103825260248152602001806124bb6024913960400191505060405180910390fd5b606c54600160a01b900460ff16156116fc576001600160a01b03821660009081526071602052604090205460ff16156116af576001600160a01b0382166000908152607160209081526040909120825161163792600190920191840190612422565b507f6c06c289143678367312c7e741baef829869d71f79bd0f51c9b8d6fc0d361226828260405180836001600160a01b03166001600160a01b03168152602001806020018281038252838181518152602001915080519060200190808383600083811015610dfe578181015183820152602001610de6565b6040805162461bcd60e51b815260206004820152601660248201527f53697465206973206e6f74207265676973746572656400000000000000000000604482015290519081900360640190fd5b6040805162461bcd60e51b815260206004820152601960248201527f436f6e74726f6c206973206e6f74207265676973746572656400000000000000604482015290519081900360640190fd5b606d805460408051602060026001851615610100026000190190941693909304601f810184900484028201840190925281815292918301828280156117cf5780601f106117a4576101008083540402835291602001916117cf565b820191906000526020600020905b8154815290600101906020018083116117b257829003601f168201915b505050505081565b60006117e16110ed565b6001600160a01b03166370a08231306040518263ffffffff1660e01b815260040180826001600160a01b03166001600160a01b0316815260200191505060206040518083038186803b15801561183657600080fd5b505afa15801561184a573d6000803e3d6000fd5b505050506040513d602081101561186057600080fd5b5051905090565b60408051808201909152600581527f312e302e30000000000000000000000000000000000000000000000000000000602082015290565b6001600160a01b031660009081526071602052604090205460ff1690565b600054610100900460ff16806118d557506118d56122e7565b806118e3575060005460ff16155b61191e5760405162461bcd60e51b815260040180806020018281038252602e815260200180612533602e913960400191505060405180910390fd5b600054610100900460ff16158015611949576000805460ff1961ff0019909116610100171660011790555b603380546001600160a01b0319166001600160a01b0384811691909117918290556040519116906000907f8be0079c531659141344cd1fd0a4f28419497f9722a3daafe3b4186f6b6457e0908290a38015610edd576000805461ff00191690555050565b6068546001600160a01b031681565b6119c46112b2565b611a15576040805162461bcd60e51b815260206004820181905260248201527f4f776e61626c653a2063616c6c6572206973206e6f7420746865206f776e6572604482015290519081900360640190fd5b607080546001600160a01b0319166001600160a01b0392909216919091179055565b6000611a416110ed565b6001600160a01b03161415610bce57610bce73d216153c06e857cd7f72665e0af1d7d82172f4946121b6565b600054610100900460ff1680611a865750611a866122e7565b80611a94575060005460ff16155b611acf5760405162461bcd60e51b815260040180806020018281038252602e815260200180612533602e913960400191505060405180910390fd5b600054610100900460ff16158015611afa576000805460ff1961ff0019909116610100171660011790555b606980546001600160a01b038085166001600160a01b031992831617909255606a805486841690831617905560688054878416908316179055606b8054928a1692821683179055606c80547fffffffffffffffffffff00ffffffffffffffffffffffffffffffffffffffffff7fffffffffffffffffffffff00ffffffffffffffffffffffffffffffffffffffff9190931690931792909216600160a01b1716600160a81b1790558451611bb490606d906020880190612422565b50607080546001600160a01b0319166001600160a01b03888116919091179091558816611bf057611beb611be66122b6565b6118bc565b611bf9565b611bf9886118bc565b611c0161119c565b8015611c13576000805461ff00191690555b5050505050505050565b606a546001600160a01b031681565b6001600160a01b0316600090815260716020526040902054610100900460ff1690565b611c576110ed565b6001600160a01b0316336001600160a01b031614611ca65760405162461bcd60e51b815260040180806020018281038252602481526020018061258e6024913960400191505060405180910390fd5b611cea85858080601f016020809104026020016040519081016040528093929190818152602001838380828437600092019190915250879250869150859050612329565b5050505050565b606b546001600160a01b031663069e0a8a611d0a6122b6565b6040805160e084901b6001600160e01b03191681526001600160a01b0392909216600483015260006024830152516044808301926020929190829003018186803b158015611d5757600080fd5b505afa158015611d6b573d6000803e3d6000fd5b505050506040513d6020811015611d8157600080fd5b505180611dad5750611d916112a3565b6001600160a01b0316611da26122b6565b6001600160a01b0316145b611de85760405162461bcd60e51b81526004018080602001828103825260248152602001806124bb6024913960400191505060405180910390fd5b6040516001600160a01b03808816602483019081528188166044840152818716606484015281851660a484015290831660c483015260c060848301908152855160e484015285516060938a938a938a938a938a938a93909290916101040190602087019080838360005b83811015611e6a578181015183820152602001611e52565b50505050905090810190601f168015611e975780820380516001836020036101000a031916815260200191505b509750505050505050506040516020818303038152906040527fd5ab8abc000000000000000000000000000000000000000000000000000000007bffffffffffffffffffffffffffffffffffffffffffffffffffffffff19166020820180517bffffffffffffffffffffffffffffffffffffffffffffffffffffffff838183161783525050505090506000606860009054906101000a90046001600160a01b03166001600160a01b0316639a7c43e0606f60009054906101000a90046001600160a01b0316846040518363ffffffff1660e01b815260040180836001600160a01b03166001600160a01b0316815260200180602001828103825283818151815260200191508051906020019080838360005b83811015611fc1578181015183820152602001611fa9565b50505050905090810190601f168015611fee5780820380516001836020036101000a031916815260200191505b509350505050602060405180830381600087803b15801561200e57600080fd5b505af1158015612022573d6000803e3d6000fd5b505050506040513d602081101561203857600080fd5b5051606954604080517f08f49a260000000000000000000000000000000000000000000000000000000081526001600160a01b03808516600483015291519394509116916308f49a269160248082019260009290919082900301818387803b1580156120a357600080fd5b505af11580156120b7573d6000803e3d6000fd5b5050606a54604080517fe655837c0000000000000000000000000000000000000000000000000000000081526001600160a01b038681166004830152915191909216935063e655837c9250602480830192600092919082900301818387803b15801561212257600080fd5b505af1158015612136573d6000803e3d6000fd5b50505050611c138186610bd0565b606c54600160a81b900460ff1681565b61215c6112b2565b6121ad576040805162461bcd60e51b815260206004820181905260248201527f4f776e61626c653a2063616c6c6572206973206e6f7420746865206f776e6572604482015290519081900360640190fd5b6112538161232f565b6066546001600160a01b039081169082166122025760405162461bcd60e51b815260040180806020018281038252602e815260200180612505602e913960400191505060405180910390fd5b806001600160a01b0316826001600160a01b031614156122535760405162461bcd60e51b815260040180806020018281038252602d815260200180612561602d913960400191505060405180910390fd5b816001600160a01b0316816001600160a01b03167fb9f84b8e65164b14439ae3620df0a4d8786d896996c0282b683f9d8c08f046e860405160405180910390a350606680546001600160a01b0319166001600160a01b0392909216919091179055565b6066546000906001600160a01b031633146122d25750336110fa565b6122da6123d0565b90506110fa565b50600090565b303b1590565b600060606123096040518060200160405280600081525061241d565b915091509091565b604080516020810190915260008152600b9190910191565b50505050565b6001600160a01b0381166123745760405162461bcd60e51b81526004018080602001828103825260268152602001806124df6026913960400191505060405180910390fd5b6033546040516001600160a01b038084169216907f8be0079c531659141344cd1fd0a4f28419497f9722a3daafe3b4186f6b6457e090600090a3603380546001600160a01b0319166001600160a01b0392909216919091179055565b600060606000368080601f0160208091040260200160405190810160405280939291908181526020018383808284376000920191909152505050503601516001600160a01b031692915050565b600091565b828054600181600116156101000203166002900490600052602060002090601f016020900481019282601f1061246357805160ff1916838001178555612490565b82800160010185558215612490579182015b82811115612490578251825591602001919060010190612475565b5061249c9291506124a0565b5090565b6110fa91905b8082111561249c57600081556001016124a656fe43616c6c65722c206e6f74207265676973746572656420696e20616363657373206875624f776e61626c653a206e6577206f776e657220697320746865207a65726f206164647265737347534e526563697069656e743a206e65772052656c617948756220697320746865207a65726f2061646472657373436f6e747261637420696e7374616e63652068617320616c7265616479206265656e20696e697469616c697a656447534e526563697069656e743a206e65772052656c6179487562206973207468652063757272656e74206f6e6547534e526563697069656e743a2063616c6c6572206973206e6f742052656c6179487562a265627a7a72315820943930c6321e49351873e8a93304924d33c3d86ff5dff76b29eb3c4849b98c5464736f6c63430005110032",
  "compiler": {
    "name": "solc",
    "version": "0.5.17+commit.d19bba13.Emscripten.clang",
    "optimizer": {
      "enabled": true,
      "runs": 1000
    },
    "evmVersion": "petersburg"
  }
}