{
  "fileName": "GridMix.sol",
  "contractName": "GridMix",
  "source": "\r\npragma solidity ^0.5.0;\r\n/**\r\n *\r\n *\r\n *\r\n *   @title GridMix v0.0.1\r\n ________  ________  _______   ________  ___\r\n|\\   ____\\|\\   __  \\|\\  ___ \\ |\\   __  \\|\\  \\\r\n\\ \\  \\___|\\ \\  \\|\\  \\ \\   __/|\\ \\  \\|\\  \\ \\  \\\r\n \\ \\  \\    \\ \\   _  _\\ \\  \\_|/_\\ \\  \\\\\\  \\ \\  \\\r\n  \\ \\  \\____\\ \\  \\\\  \\\\ \\  \\_|\\ \\ \\  \\\\\\  \\ \\  \\____\r\n   \\ \\_______\\ \\__\\\\ _\\\\ \\_______\\ \\_______\\ \\_______\\\r\n    \\|_______|\\|__|\\|__|\\|_______|\\|_______|\\|_______|\r\n\r\n\r\n\r\n *\r\n *\r\n   _____      _     _ __  __ _\r\n  / ____|    (_)   | |  \\/  (_)\r\n | |  __ _ __ _  __| | \\  / |___  __\r\n | | |_ | '__| |/ _` | |\\/| | \\ \\/ /\r\n | |__| | |  | | (_| | |  | | |>  <\r\n  \\_____|_|  |_|\\__,_|_|  |_|_/_/\\_\\\r\n\r\n\r\n* @author Joshua Bijak\r\n* Date:        March 12, 2019\r\n* @notice Grid Mix API Pulling Contract\r\n* @dev Oracle Contract that pulls grid mix data using Provable\r\n\r\n*\r\n*\r\n*\r\n  ___                            _\r\n|_ _|_ __ ___  _ __   ___  _ __| |_ ___\r\n | || '_ ` _ \\| '_ \\ / _ \\| '__| __/ __|\r\n | || | | | | | |_) | (_) | |  | |_\\__ \\\r\n|___|_| |_| |_| .__/ \\___/|_|   \\__|___/\r\n              |_|\r\n\r\n*\r\n*/\r\n\r\n\r\nimport \"../Provable/provableAPI.sol\";\r\n\r\nimport \"../../node_modules/solidity-util/lib/Strings.sol\";\r\n\r\nimport \"../../node_modules/solidity-util/lib/Integers.sol\";\r\n\r\nimport \"./GridMixInterface.sol\";\r\n\r\nimport \"../VCUOffset/VCUOffsetInterface.sol\";\r\n\r\nimport \"@openzeppelin/upgrades/contracts/Initializable.sol\";\r\n\r\nimport \"@openzeppelin/contracts-ethereum-package/contracts/ownership/Ownable.sol\";\r\n\r\nimport \"@openzeppelin/contracts-ethereum-package/contracts/GSN/GSNRecipient.sol\";\r\n\r\n\r\ncontract GridMix is GridMixInterface, usingProvable, Initializable , Ownable, GSNRecipient {\r\n\r\n    /**\r\n     *\r\n           _____ _       _           _\r\n          / ____| |     | |         | |\r\n         | |  __| | ___ | |__   __ _| |___\r\n         | | |_ | |/ _ \\| '_ \\ / _` | / __|\r\n         | |__| | | (_) | |_) | (_| | \\__ \\\r\n          \\_____|_|\\___/|_.__/ \\__,_|_|___/\r\n\r\n\r\n    */\r\n\r\n\r\n    using Strings for string;\r\n    using Integers for uint;\r\n\r\n    string public GridIntensity;\r\n    event LogNewProvableQuery(string description);\r\n    event newGridIntensity(string result);\r\n\r\n    VCUOffsetInterface public genericVCUOffsetInterface;\r\n\r\n    address private allowedGSNAddress;\r\n\r\n    /**\r\n     * @notice Deploys GridMix contract\r\n     * @dev currently hardcoded API/Keys, subject to change.\r\n     */\r\n    //constructor()public{}\r\n\r\n\r\n    /**\r\n     * OZ initialize function\r\n     */\r\n    function initialize(address _VCUOffsetContract, address _owner, address _allowedGSNAddress) public initializer {\r\n        GSNRecipient.initialize();\r\n        allowedGSNAddress = _allowedGSNAddress;\r\n        genericVCUOffsetInterface = VCUOffsetInterface(_VCUOffsetContract);\r\n        provable_setProof(proofType_Android | proofStorage_IPFS);\r\n        super.initialize(_owner);\r\n\r\n    }\r\n\r\n\r\n    /**\r\n      *   ______                _   _\r\n         |  ____|              | | (_)\r\n         | |__ _   _ _ __   ___| |_ _  ___  _ __  ___\r\n         |  __| | | | '_ \\ / __| __| |/ _ \\| '_ \\/ __|\r\n         | |  | |_| | | | | (__| |_| | (_) | | | \\__ \\\r\n         |_|   \\__,_|_| |_|\\___|\\__|_|\\___/|_| |_|___/\r\n     */\r\n\r\n    function __callback(\r\n        bytes32 _myid,\r\n        string memory _result,\r\n        bytes memory _proof\r\n    )\r\n        public\r\n    {\r\n        require(msg.sender == provable_cbAddress());\r\n\r\n        GridIntensity = _result;\r\n        emit newGridIntensity(_result);\r\n\r\n        genericVCUOffsetInterface.continueOffset(parseInt(_result));\r\n\r\n\r\n\r\n\r\n    }\r\n    function updateVCUOffset (address _newVCUOffsetContract)public onlyOwner{\r\n\r\n        genericVCUOffsetInterface = VCUOffsetInterface(_newVCUOffsetContract);\r\n    }\r\n\r\n    function comp_request(\r\n        string memory _query,\r\n        string memory _method,\r\n        string memory _url,\r\n        string memory _kwargs\r\n    )\r\n        public\r\n        payable\r\n    {\r\n        if (provable_getPrice(\"computation\") > address(this).balance) {\r\n            emit LogNewProvableQuery(\"Oraclize query was NOT sent, please add some ETH to cover for the query fee\");\r\n        } else {\r\n            emit LogNewProvableQuery(\"Oraclize query was sent, standing by for the answer...\");\r\n            provable_query(\"computation\",\r\n                [_query,\r\n                _method,\r\n                _url,\r\n                _kwargs]\r\n            );\r\n        }\r\n    }\r\n    /**\r\n     * @notice ASks Co2signal.com for a gridMix value of UK grid. Uses a default API Key\r\n     * @dev This is hardcoded but subject to change\r\n     * @param countryCode Country Code to Query GridMix\r\n     */\r\n\r\n    function requestCO2Signal(string memory countryCode)\r\n        public\r\n        payable\r\n    {\r\n\r\n        string memory apiURL = \"https://api.co2signal.com/v1/latest?countryCode=\";\r\n\r\n        apiURL = apiURL.concat(countryCode);\r\n\r\n        comp_request(\"json(QmdKK319Veha83h6AYgQqhx9YRsJ9MJE7y33oCXyZ4MqHE).data.carbonIntensity\",\r\n                \"GET\",\r\n                apiURL,\r\n                \"{'headers': {'auth-token': 'aad60b7310e3211a'}}\"\r\n                );\r\n    }\r\n    function setGSNAllowed(address _newGSNAddress) public onlyOwner {\r\n        allowedGSNAddress = _newGSNAddress;\r\n    }\r\n    function acceptRelayedCall(\r\n        address relay,\r\n        address from,\r\n        bytes calldata encodedFunction,\r\n        uint256 transactionFee,\r\n        uint256 gasPrice,\r\n        uint256 gasLimit,\r\n        uint256 nonce,\r\n        bytes calldata approvalData,\r\n        uint256 maxPossibleCharge\r\n    ) external view returns (uint256, bytes memory)  {\r\n\r\n        //emit emittedMsgSender(_msgSender());\r\n        //emit emittedAllowedAddress(allowedAddress);\r\n        if(from == allowedGSNAddress){\r\n            return _approveRelayedCall();\r\n\r\n        }\r\n        else {\r\n            return _rejectRelayedCall(uint256(0));\r\n        }\r\n    }\r\n\r\n    function _preRelayedCall(bytes memory context) internal returns (bytes32) {\r\n\r\n    }\r\n\r\n    function _postRelayedCall(bytes memory context, bool, uint256 actualCharge, bytes32) internal {\r\n\r\n    }\r\n\r\n    function setRelayHubAddress() public {\r\n        if(getHubAddr() == address(0)) {\r\n            _upgradeRelayHub(0xD216153c06E857cD7f72665E0aF1d7D82172F494);\r\n        }\r\n    }\r\n\r\n    function getRecipientBalance() public view returns (uint) {\r\n        return IRelayHub(getHubAddr()).balanceOf(address(this));\r\n    }\r\n/**\r\n *\r\n *\r\n *   _                      _\r\n    | |                    | |\r\n    | |     ___  __ _  __ _| |\r\n    | |    / _ \\/ _` |/ _` | |\r\n    | |___|  __/ (_| | (_| | |\r\n    |______\\___|\\__, |\\__,_|_|\r\n                 __/ |\r\n                |___/\r\n *\r\n * They come with no warranty and are not for use in a production setting. For production usage, please contact joshua.bijak@creol.io\r\n *\r\n */\r\n}\r\n\r\n",
  "sourcePath": "contracts/GridMix/GridMix.sol",
  "abi": [
    {
      "anonymous": false,
      "inputs": [
        {
          "indexed": false,
          "internalType": "string",
          "name": "description",
          "type": "string"
        }
      ],
      "name": "LogNewProvableQuery",
      "type": "event"
    },
    {
      "anonymous": false,
      "inputs": [
        {
          "indexed": true,
          "internalType": "address",
          "name": "previousOwner",
          "type": "address"
        },
        {
          "indexed": true,
          "internalType": "address",
          "name": "newOwner",
          "type": "address"
        }
      ],
      "name": "OwnershipTransferred",
      "type": "event"
    },
    {
      "anonymous": false,
      "inputs": [
        {
          "indexed": true,
          "internalType": "address",
          "name": "oldRelayHub",
          "type": "address"
        },
        {
          "indexed": true,
          "internalType": "address",
          "name": "newRelayHub",
          "type": "address"
        }
      ],
      "name": "RelayHubChanged",
      "type": "event"
    },
    {
      "anonymous": false,
      "inputs": [
        {
          "indexed": false,
          "internalType": "string",
          "name": "result",
          "type": "string"
        }
      ],
      "name": "newGridIntensity",
      "type": "event"
    },
    {
      "constant": true,
      "inputs": [],
      "name": "GridIntensity",
      "outputs": [
        {
          "internalType": "string",
          "name": "",
          "type": "string"
        }
      ],
      "payable": false,
      "stateMutability": "view",
      "type": "function"
    },
    {
      "constant": false,
      "inputs": [
        {
          "internalType": "bytes32",
          "name": "_myid",
          "type": "bytes32"
        },
        {
          "internalType": "string",
          "name": "_result",
          "type": "string"
        }
      ],
      "name": "__callback",
      "outputs": [],
      "payable": false,
      "stateMutability": "nonpayable",
      "type": "function"
    },
    {
      "constant": false,
      "inputs": [
        {
          "internalType": "bytes32",
          "name": "_myid",
          "type": "bytes32"
        },
        {
          "internalType": "string",
          "name": "_result",
          "type": "string"
        },
        {
          "internalType": "bytes",
          "name": "_proof",
          "type": "bytes"
        }
      ],
      "name": "__callback",
      "outputs": [],
      "payable": false,
      "stateMutability": "nonpayable",
      "type": "function"
    },
    {
      "constant": true,
      "inputs": [
        {
          "internalType": "address",
          "name": "relay",
          "type": "address"
        },
        {
          "internalType": "address",
          "name": "from",
          "type": "address"
        },
        {
          "internalType": "bytes",
          "name": "encodedFunction",
          "type": "bytes"
        },
        {
          "internalType": "uint256",
          "name": "transactionFee",
          "type": "uint256"
        },
        {
          "internalType": "uint256",
          "name": "gasPrice",
          "type": "uint256"
        },
        {
          "internalType": "uint256",
          "name": "gasLimit",
          "type": "uint256"
        },
        {
          "internalType": "uint256",
          "name": "nonce",
          "type": "uint256"
        },
        {
          "internalType": "bytes",
          "name": "approvalData",
          "type": "bytes"
        },
        {
          "internalType": "uint256",
          "name": "maxPossibleCharge",
          "type": "uint256"
        }
      ],
      "name": "acceptRelayedCall",
      "outputs": [
        {
          "internalType": "uint256",
          "name": "",
          "type": "uint256"
        },
        {
          "internalType": "bytes",
          "name": "",
          "type": "bytes"
        }
      ],
      "payable": false,
      "stateMutability": "view",
      "type": "function"
    },
    {
      "constant": false,
      "inputs": [
        {
          "internalType": "string",
          "name": "_query",
          "type": "string"
        },
        {
          "internalType": "string",
          "name": "_method",
          "type": "string"
        },
        {
          "internalType": "string",
          "name": "_url",
          "type": "string"
        },
        {
          "internalType": "string",
          "name": "_kwargs",
          "type": "string"
        }
      ],
      "name": "comp_request",
      "outputs": [],
      "payable": true,
      "stateMutability": "payable",
      "type": "function"
    },
    {
      "constant": true,
      "inputs": [],
      "name": "genericVCUOffsetInterface",
      "outputs": [
        {
          "internalType": "contract VCUOffsetInterface",
          "name": "",
          "type": "address"
        }
      ],
      "payable": false,
      "stateMutability": "view",
      "type": "function"
    },
    {
      "constant": true,
      "inputs": [],
      "name": "getHubAddr",
      "outputs": [
        {
          "internalType": "address",
          "name": "",
          "type": "address"
        }
      ],
      "payable": false,
      "stateMutability": "view",
      "type": "function"
    },
    {
      "constant": true,
      "inputs": [],
      "name": "getRecipientBalance",
      "outputs": [
        {
          "internalType": "uint256",
          "name": "",
          "type": "uint256"
        }
      ],
      "payable": false,
      "stateMutability": "view",
      "type": "function"
    },
    {
      "constant": false,
      "inputs": [],
      "name": "initialize",
      "outputs": [],
      "payable": false,
      "stateMutability": "nonpayable",
      "type": "function"
    },
    {
      "constant": false,
      "inputs": [
        {
          "internalType": "address",
          "name": "_VCUOffsetContract",
          "type": "address"
        },
        {
          "internalType": "address",
          "name": "_owner",
          "type": "address"
        },
        {
          "internalType": "address",
          "name": "_allowedGSNAddress",
          "type": "address"
        }
      ],
      "name": "initialize",
      "outputs": [],
      "payable": false,
      "stateMutability": "nonpayable",
      "type": "function"
    },
    {
      "constant": false,
      "inputs": [
        {
          "internalType": "address",
          "name": "sender",
          "type": "address"
        }
      ],
      "name": "initialize",
      "outputs": [],
      "payable": false,
      "stateMutability": "nonpayable",
      "type": "function"
    },
    {
      "constant": true,
      "inputs": [],
      "name": "isOwner",
      "outputs": [
        {
          "internalType": "bool",
          "name": "",
          "type": "bool"
        }
      ],
      "payable": false,
      "stateMutability": "view",
      "type": "function"
    },
    {
      "constant": true,
      "inputs": [],
      "name": "owner",
      "outputs": [
        {
          "internalType": "address",
          "name": "",
          "type": "address"
        }
      ],
      "payable": false,
      "stateMutability": "view",
      "type": "function"
    },
    {
      "constant": false,
      "inputs": [
        {
          "internalType": "bytes",
          "name": "context",
          "type": "bytes"
        },
        {
          "internalType": "bool",
          "name": "success",
          "type": "bool"
        },
        {
          "internalType": "uint256",
          "name": "actualCharge",
          "type": "uint256"
        },
        {
          "internalType": "bytes32",
          "name": "preRetVal",
          "type": "bytes32"
        }
      ],
      "name": "postRelayedCall",
      "outputs": [],
      "payable": false,
      "stateMutability": "nonpayable",
      "type": "function"
    },
    {
      "constant": false,
      "inputs": [
        {
          "internalType": "bytes",
          "name": "context",
          "type": "bytes"
        }
      ],
      "name": "preRelayedCall",
      "outputs": [
        {
          "internalType": "bytes32",
          "name": "",
          "type": "bytes32"
        }
      ],
      "payable": false,
      "stateMutability": "nonpayable",
      "type": "function"
    },
    {
      "constant": true,
      "inputs": [],
      "name": "relayHubVersion",
      "outputs": [
        {
          "internalType": "string",
          "name": "",
          "type": "string"
        }
      ],
      "payable": false,
      "stateMutability": "view",
      "type": "function"
    },
    {
      "constant": false,
      "inputs": [],
      "name": "renounceOwnership",
      "outputs": [],
      "payable": false,
      "stateMutability": "nonpayable",
      "type": "function"
    },
    {
      "constant": false,
      "inputs": [
        {
          "internalType": "string",
          "name": "countryCode",
          "type": "string"
        }
      ],
      "name": "requestCO2Signal",
      "outputs": [],
      "payable": true,
      "stateMutability": "payable",
      "type": "function"
    },
    {
      "constant": false,
      "inputs": [],
      "name": "setDefaultRelayHub",
      "outputs": [],
      "payable": false,
      "stateMutability": "nonpayable",
      "type": "function"
    },
    {
      "constant": false,
      "inputs": [
        {
          "internalType": "address",
          "name": "_newGSNAddress",
          "type": "address"
        }
      ],
      "name": "setGSNAllowed",
      "outputs": [],
      "payable": false,
      "stateMutability": "nonpayable",
      "type": "function"
    },
    {
      "constant": false,
      "inputs": [],
      "name": "setRelayHubAddress",
      "outputs": [],
      "payable": false,
      "stateMutability": "nonpayable",
      "type": "function"
    },
    {
      "constant": false,
      "inputs": [
        {
          "internalType": "address",
          "name": "newOwner",
          "type": "address"
        }
      ],
      "name": "transferOwnership",
      "outputs": [],
      "payable": false,
      "stateMutability": "nonpayable",
      "type": "function"
    },
    {
      "constant": false,
      "inputs": [
        {
          "internalType": "address",
          "name": "_newVCUOffsetContract",
          "type": "address"
        }
      ],
      "name": "updateVCUOffset",
      "outputs": [],
      "payable": false,
      "stateMutability": "nonpayable",
      "type": "function"
    }
  ],
  "bytecode": "0x6080604052613147806100136000396000f3fe6080604052600436106101805760003560e01c8063838e4f16116100d6578063c0c53b8b1161007f578063d3c7fb8411610059578063d3c7fb8414610abe578063e06e0e2214610ad3578063f2fde38b14610b5e57610180565b8063c0c53b8b14610a13578063c4d66de814610a58578063ceaee8c114610a8b57610180565b80638f32d59b116100b05780638f32d59b146109c0578063ac570411146109e9578063ad61ccd5146109fe57610180565b8063838e4f16146107a257806383947ea01461082e5780638da5cb5b146109ab57610180565b8063474b59701161013857806380274db71161011257806380274db7146104c75780638129fc1c14610556578063818f4ae01461056b57610180565b8063474b59701461046a578063715018a61461049d57806374e861d6146104b257610180565b806327dc297e1161016957806327dc297e146101cd57806338bbfa50146102865780633f6a178d146103c557610180565b80631220e2ff14610185578063169cb5571461019c575b600080fd5b34801561019157600080fd5b5061019a610b91565b005b3480156101a857600080fd5b506101b1610bb0565b6040516001600160a01b03909116815260200160405180910390f35b3480156101d957600080fd5b5061019a600480360360408110156101f057600080fd5b8135919081019060408101602082013564010000000081111561021257600080fd5b82018360208201111561022457600080fd5b8035906020019184600183028401116401000000008311171561024657600080fd5b91908080601f0160208091040260200160405190810160405281815292919060208401838380828437600092019190915250929550610bbf945050505050565b34801561029257600080fd5b5061019a600480360360608110156102a957600080fd5b813591908101906040810160208201356401000000008111156102cb57600080fd5b8201836020820111156102dd57600080fd5b803590602001918460018302840111640100000000831117156102ff57600080fd5b91908080601f0160208091040260200160405190810160405281815292919060208401838380828437600092019190915250929594936020810193503591505064010000000081111561035157600080fd5b82018360208201111561036357600080fd5b8035906020019184600183028401116401000000008311171561038557600080fd5b91908080601f0160208091040260200160405190810160405281815292919060208401838380828437600092019190915250929550610bfa945050505050565b61019a600480360360208110156103db57600080fd5b8101906020810181356401000000008111156103f657600080fd5b82018360208201111561040857600080fd5b8035906020019184600183028401116401000000008311171561042a57600080fd5b91908080601f0160208091040260200160405190810160405281815292919060208401838380828437600092019190915250929550610d53945050505050565b34801561047657600080fd5b5061019a6004803603602081101561048d57600080fd5b50356001600160a01b0316610dea565b3480156104a957600080fd5b5061019a610e64565b3480156104be57600080fd5b506101b1610f09565b3480156104d357600080fd5b50610544600480360360208110156104ea57600080fd5b81019060208101813564010000000081111561050557600080fd5b82018360208201111561051757600080fd5b8035906020019184600183028401116401000000008311171561053957600080fd5b509092509050610f19565b60405190815260200160405180910390f35b34801561056257600080fd5b5061019a610fb9565b61019a6004803603608081101561058157600080fd5b81019060208101813564010000000081111561059c57600080fd5b8201836020820111156105ae57600080fd5b803590602001918460018302840111640100000000831117156105d057600080fd5b91908080601f0160208091040260200160405190810160405281815292919060208401838380828437600092019190915250929594936020810193503591505064010000000081111561062257600080fd5b82018360208201111561063457600080fd5b8035906020019184600183028401116401000000008311171561065657600080fd5b91908080601f016020809104026020016040519081016040528181529291906020840183838082843760009201919091525092959493602081019350359150506401000000008111156106a857600080fd5b8201836020820111156106ba57600080fd5b803590602001918460018302840111640100000000831117156106dc57600080fd5b91908080601f0160208091040260200160405190810160405281815292919060208401838380828437600092019190915250929594936020810193503591505064010000000081111561072e57600080fd5b82018360208201111561074057600080fd5b8035906020019184600183028401116401000000008311171561076257600080fd5b91908080601f0160208091040260200160405190810160405281815292919060208401838380828437600092019190915250929550611073945050505050565b3480156107ae57600080fd5b506107b7611191565b60405160208082528190810183818151815260200191508051906020019080838360005b838110156107f35780820151838201526020016107db565b50505050905090810190601f1680156108205780820380516001836020036101000a031916815260200191505b509250505060405180910390f35b34801561083a57600080fd5b5061092d600480360361012081101561085257600080fd5b6001600160a01b03823581169260208101359091169181019060608101604082013564010000000081111561088657600080fd5b82018360208201111561089857600080fd5b803590602001918460018302840111640100000000831117156108ba57600080fd5b9193909282359260208101359260408201359260608301359260a0810190608001356401000000008111156108ee57600080fd5b82018360208201111561090057600080fd5b8035906020019184600183028401116401000000008311171561092257600080fd5b91935091503561122f565b60405182815260406020820181815290820183818151815260200191508051906020019080838360005b8381101561096f578082015183820152602001610957565b50505050905090810190601f16801561099c5780820380516001836020036101000a031916815260200191505b50935050505060405180910390f35b3480156109b757600080fd5b506101b1611276565b3480156109cc57600080fd5b506109d5611285565b604051901515815260200160405180910390f35b3480156109f557600080fd5b506105446112ab565b348015610a0a57600080fd5b506107b7611353565b348015610a1f57600080fd5b5061019a60048036036060811015610a3657600080fd5b506001600160a01b03813581169160208101358216916040909101351661138e565b348015610a6457600080fd5b5061019a60048036036020811015610a7b57600080fd5b50356001600160a01b031661149c565b348015610a9757600080fd5b5061019a60048036036020811015610aae57600080fd5b50356001600160a01b031661158e565b348015610aca57600080fd5b5061019a611608565b348015610adf57600080fd5b5061019a60048036036080811015610af657600080fd5b810190602081018135640100000000811115610b1157600080fd5b820183602082011115610b2357600080fd5b80359060200191846001830284011164010000000083111715610b4557600080fd5b919350915080351515906020810135906040013561163e565b348015610b6a57600080fd5b5061019a60048036036020811015610b8157600080fd5b50356001600160a01b03166116d8565b610bae73d216153c06e857cd7f72665e0af1d7d82172f494611739565b565b606d546001600160a01b031681565b610bf682826000604051818152601f19601f8301168101602001604052908015610bf0576020820181803883390190505b50610bfa565b5050565b610c02611839565b6001600160a01b0316336001600160a01b031614610c1f57600080fd5b606c828051610c32929160200190612e66565b507f779ee92d418773b3ec7061e1916c9dba9a27f49c36f48384d82a337e30b829c58260405160208082528190810183818151815260200191508051906020019080838360005b83811015610c91578082015183820152602001610c79565b50505050905090810190601f168015610cbe5780820380516001836020036101000a031916815260200191505b509250505060405180910390a1606d546001600160a01b031663e12d2dd5610ce5846119ca565b6040517fffffffff0000000000000000000000000000000000000000000000000000000060e084901b1681526004810191909152602401600060405180830381600087803b158015610d3657600080fd5b505af1158015610d4a573d6000803e3d6000fd5b50505050505050565b6060604051606081016040526030808252612f7360208301399050610d7e818363ffffffff6119d716565b9050610bf6604051608081016040526049808252613000602083013960405160408082018152600382527f4745540000000000000000000000000000000000000000000000000000000000602083015284905160608101604052602f808252612fd16020830139611073565b610df2611285565b610e425760405162461bcd60e51b815260206004820181905260248201527f4f776e61626c653a2063616c6c6572206973206e6f7420746865206f776e6572604482015260640160405180910390fd5b606d80546001600160a01b0319166001600160a01b0392909216919091179055565b610e6c611285565b610ebc5760405162461bcd60e51b815260206004820181905260248201527f4f776e61626c653a2063616c6c6572206973206e6f7420746865206f776e6572604482015260640160405180910390fd5b6038546000906001600160a01b03167f8be0079c531659141344cd1fd0a4f28419497f9722a3daafe3b4186f6b6457e060405160405180910390a3603880546001600160a01b0319169055565b606b546001600160a01b03165b90565b6000610f23610f09565b6001600160a01b0316336001600160a01b031614610f725760405162461bcd60e51b81526004018080602001828103825260248152602001806130ef6024913960400191505060405180910390fd5b610fb083838080601f0160208091040260200160405190810160405281815292919060208401838380828437600092019190915250611b0992505050565b90505b92915050565b600554610100900460ff1680610fd25750610fd2611b0f565b80610fe0575060055460ff16155b61101b5760405162461bcd60e51b815260040180806020018281038252602e815260200180613049602e913960400191505060405180910390fd5b600554610100900460ff16158015611046576005805460ff1961ff0019909116610100171660011790555b606b546001600160a01b031661105e5761105e610b91565b8015611070576005805461ff00191690555b50565b303161109f60405160408082019052600b81526a31b7b6b83aba30ba34b7b760a91b6020820152611b15565b11156110f5577fc4dc360d0a9c0677a3379ae0a3d81e887f761e65fdf3d7e00859d1bcd3c4738960405180806020018281038252604b8152602001806130a4604b913960600191505060405180910390a161118b565b7fc4dc360d0a9c0677a3379ae0a3d81e887f761e65fdf3d7e00859d1bcd3c47389604051808060200182810382526036815260200180612f176036913960400191505060405180910390a161118960405160408082018152600b82526a31b7b6b83aba30ba34b7b760a91b602083015251806080016040528087815260200186815260200185815260200184815250611d4e565b505b50505050565b606c8054600181600116156101000203166002900480601f0160208091040260200160405190810160405280929190818152602001828054600181600116156101000203166002900480156112275780601f106111fc57610100808354040283529160200191611227565b820191906000526020600020905b81548152906001019060200180831161120a57829003601f168201915b505050505081565b606e546000906060906001600160a01b038d81169116141561125c57611253611f64565b91509150611266565b6112536000611f86565b9b509b9950505050505050505050565b6038546001600160a01b031690565b6038546000906001600160a01b031661129c611fa6565b6001600160a01b031614905090565b60006112b5610f09565b6001600160a01b03166370a08231306040517fffffffff0000000000000000000000000000000000000000000000000000000060e084901b1681526001600160a01b03909116600482015260240160206040518083038186803b15801561131b57600080fd5b505afa15801561132f573d6000803e3d6000fd5b505050506040513d602081101561134557600080fd5b810190808051935050505090565b606060405160408082019052600581527f312e302e300000000000000000000000000000000000000000000000000000006020820152905090565b600554610100900460ff16806113a757506113a7611b0f565b806113b5575060055460ff16155b6113f05760405162461bcd60e51b815260040180806020018281038252602e815260200180613049602e913960400191505060405180910390fd5b600554610100900460ff1615801561141b576005805460ff1961ff0019909116610100171660011790555b611423610fb9565b606e80546001600160a01b038085166001600160a01b031992831617909255606d80549287169290911691909117905561147c7f4100000000000000000000000000000000000000000000000000000000000000611fd1565b6114858361149c565b801561118b576005805461ff001916905550505050565b600554610100900460ff16806114b557506114b5611b0f565b806114c3575060055460ff16155b6114fe5760405162461bcd60e51b815260040180806020018281038252602e815260200180613049602e913960400191505060405180910390fd5b600554610100900460ff16158015611529576005805460ff1961ff0019909116610100171660011790555b603880546001600160a01b0319166001600160a01b0384811691909117918290551660007f8be0079c531659141344cd1fd0a4f28419497f9722a3daafe3b4186f6b6457e060405160405180910390a38015610bf6576005805461ff00191690555050565b611596611285565b6115e65760405162461bcd60e51b815260206004820181905260248201527f4f776e61626c653a2063616c6c6572206973206e6f7420746865206f776e6572604482015260640160405180910390fd5b606e80546001600160a01b0319166001600160a01b0392909216919091179055565b6000611612610f09565b6001600160a01b03161415610bae57610bae73d216153c06e857cd7f72665e0af1d7d82172f494611739565b611646610f09565b6001600160a01b0316336001600160a01b0316146116955760405162461bcd60e51b81526004018080602001828103825260248152602001806130ef6024913960400191505060405180910390fd5b61118985858080601f016020809104026020016040519081016040528181529291906020840183838082843760009201919091525087925086915085905061118b565b6116e0611285565b6117305760405162461bcd60e51b815260206004820181905260248201527f4f776e61626c653a2063616c6c6572206973206e6f7420746865206f776e6572604482015260640160405180910390fd5b611070816121bc565b606b546001600160a01b039081169082166117855760405162461bcd60e51b815260040180806020018281038252602e815260200180612fa3602e913960400191505060405180910390fd5b806001600160a01b0316826001600160a01b031614156117d65760405162461bcd60e51b815260040180806020018281038252602d815260200180613077602d913960400191505060405180910390fd5b816001600160a01b0316816001600160a01b03167fb9f84b8e65164b14439ae3620df0a4d8786d896996c0282b683f9d8c08f046e860405160405180910390a350606b80546001600160a01b0319166001600160a01b0392909216919091179055565b6001546000906001600160a01b031615806118665750600154611864906001600160a01b031661225f565b155b15611877576118756000612263565b505b6001546001600160a01b03166338cc48316040518163ffffffff1660e01b8152600401602060405180830381600087803b1580156118b457600080fd5b505af11580156118c8573d6000803e3d6000fd5b505050506040513d60208110156118de57600080fd5b8101908080516000546001600160a01b03908116911614925061198f915050576001546001600160a01b03166338cc48316040518163ffffffff1660e01b8152600401602060405180830381600087803b15801561193b57600080fd5b505af115801561194f573d6000803e3d6000fd5b505050506040513d602081101561196557600080fd5b810190808051600080546001600160a01b0319166001600160a01b03929092169190911790555050505b6000546001600160a01b031663c281d19e6040518163ffffffff1660e01b815260040160206040518083038186803b15801561131b57600080fd5b6000610fb382600061226d565b6060828260008151116119e657fe5b60608151835101604051818152601f19601f8301168101602001604052908015611a17576020820181803883390190505b509050806000805b8551821015611a8b57858281518110611a3457fe5b602001015160f81c60f81b838280600101935081518110611a5157fe5b60200101907effffffffffffffffffffffffffffffffffffffffffffffffffffffffffffff1916908160001a905350600190910190611a1f565b600091505b8451821015611afc57848281518110611aa557fe5b602001015160f81c60f81b838280600101935081518110611ac257fe5b60200101907effffffffffffffffffffffffffffffffffffffffffffffffffffffffffffff1916908160001a905350600190910190611a90565b5090979650505050505050565b50600090565b303b1590565b6001546000906001600160a01b03161580611b425750600154611b40906001600160a01b031661225f565b155b15611b5357611b516000612263565b505b6001546001600160a01b03166338cc48316040518163ffffffff1660e01b8152600401602060405180830381600087803b158015611b9057600080fd5b505af1158015611ba4573d6000803e3d6000fd5b505050506040513d6020811015611bba57600080fd5b8101908080516000546001600160a01b039081169116149250611c6b915050576001546001600160a01b03166338cc48316040518163ffffffff1660e01b8152600401602060405180830381600087803b158015611c1757600080fd5b505af1158015611c2b573d6000803e3d6000fd5b505050506040513d6020811015611c4157600080fd5b810190808051600080546001600160a01b0319166001600160a01b03929092169190911790555050505b6000546001600160a01b031663524f3889836040518263ffffffff1660e01b81526004018080602001828103825283818151815260200191508051906020019080838360005b83811015611cc9578082015183820152602001611cb1565b50505050905090810190601f168015611cf65780820380516001836020036101000a031916815260200191505b5092505050602060405180830381600087803b158015611d1557600080fd5b505af1158015611d29573d6000803e3d6000fd5b505050506040513d6020811015611d3f57600080fd5b81019080805195945050505050565b6001546000906001600160a01b03161580611d7b5750600154611d79906001600160a01b031661225f565b155b15611d8c57611d8a6000612263565b505b6001546001600160a01b03166338cc48316040518163ffffffff1660e01b8152600401602060405180830381600087803b158015611dc957600080fd5b505af1158015611ddd573d6000803e3d6000fd5b505050506040513d6020811015611df357600080fd5b8101908080516000546001600160a01b039081169116149250611ea4915050576001546001600160a01b03166338cc48316040518163ffffffff1660e01b8152600401602060405180830381600087803b158015611e5057600080fd5b505af1158015611e64573d6000803e3d6000fd5b505050506040513d6020811015611e7a57600080fd5b810190808051600080546001600160a01b0319166001600160a01b03929092169190911790555050505b60606004604051908082528060200260200182016040528015611edb57816020015b6060815260200190600190039081611ec65790505b509050825181600081518110611eed57fe5b6020908102919091010152826001602002015181600181518110611f0d57fe5b6020908102919091010152604083015181600281518110611f2a57fe5b6020908102919091010152606083015181600381518110611f4757fe5b6020026020010181905250611f5c848261233b565b949350505050565b60006060611f7e60405160208101604052600081526126fe565b915091509091565b6000606082600b0160405160208101604052600081529092509050915091565b606b546000906001600160a01b03163314611fc2575033610f16565b611fca612703565b9050610f16565b6001546001600160a01b03161580611ffb5750600154611ff9906001600160a01b031661225f565b155b1561200c5761200a6000612263565b505b6001546001600160a01b03166338cc48316040518163ffffffff1660e01b8152600401602060405180830381600087803b15801561204957600080fd5b505af115801561205d573d6000803e3d6000fd5b505050506040513d602081101561207357600080fd5b8101908080516000546001600160a01b039081169116149250612124915050576001546001600160a01b03166338cc48316040518163ffffffff1660e01b8152600401602060405180830381600087803b1580156120d057600080fd5b505af11580156120e4573d6000803e3d6000fd5b505050506040513d60208110156120fa57600080fd5b810190808051600080546001600160a01b0319166001600160a01b03929092169190911790555050505b6000546001600160a01b031663688dcfd7826040517fffffffff0000000000000000000000000000000000000000000000000000000060e084901b1681527fff000000000000000000000000000000000000000000000000000000000000009091166004820152602401600060405180830381600087803b1580156121a857600080fd5b505af1158015611189573d6000803e3d6000fd5b6001600160a01b0381166122015760405162461bcd60e51b8152600401808060200182810382526026815260200180612f4d6026913960400191505060405180910390fd5b6038546001600160a01b0380831691167f8be0079c531659141344cd1fd0a4f28419497f9722a3daafe3b4186f6b6457e060405160405180910390a3603880546001600160a01b0319166001600160a01b0392909216919091179055565b3b90565b6000610fb3612757565b6000828180805b835181101561232257603084828151811061228b57fe5b602001015160f81c108015906122b5575060398482815181106122aa57fe5b602001015160f81c11155b156122f95781156122d257856122ca57612322565b600019909501945b600a8302925060308482815181106122e657fe5b602001015160f81c03929092019161231a565b83818151811061230557fe5b602001015160f81c602e141561231a57600191505b600101612274565b5084156123325784600a0a820291505b50949350505050565b6001546000906001600160a01b031615806123685750600154612366906001600160a01b031661225f565b155b15612379576123776000612263565b505b6001546001600160a01b03166338cc48316040518163ffffffff1660e01b8152600401602060405180830381600087803b1580156123b657600080fd5b505af11580156123ca573d6000803e3d6000fd5b505050506040513d60208110156123e057600080fd5b8101908080516000546001600160a01b039081169116149250612491915050576001546001600160a01b03166338cc48316040518163ffffffff1660e01b8152600401602060405180830381600087803b15801561243d57600080fd5b505af1158015612451573d6000803e3d6000fd5b505050506040513d602081101561246757600080fd5b810190808051600080546001600160a01b0319166001600160a01b03929092169190911790555050505b600080546001600160a01b031663524f3889856040518263ffffffff1660e01b81526004018080602001828103825283818151815260200191508051906020019080838360005b838110156124f05780820151838201526020016124d8565b50505050905090810190601f16801561251d5780820380516001836020036101000a031916815260200191505b5092505050602060405180830381600087803b15801561253c57600080fd5b505af1158015612550573d6000803e3d6000fd5b505050506040513d602081101561256657600080fd5b8101908080519350505050670de0b6b3a764000062030d403a0201811115612592575060009050610fb3565b606061259d84612af6565b600080549192506001600160a01b03909116906383eed3d590849088856040518563ffffffff1660e01b8152600401808481526020018060200180602001838103835285818151815260200191508051906020019080838360005b838110156126105780820151838201526020016125f8565b50505050905090810190601f16801561263d5780820380516001836020036101000a031916815260200191505b50838103825284818151815260200191508051906020019080838360005b8381101561267357808201518382015260200161265b565b50505050905090810190601f1680156126a05780820380516001836020036101000a031916815260200191505b50955050505050506020604051808303818588803b1580156126c157600080fd5b505af11580156126d5573d6000803e3d6000fd5b50505050506040513d60208110156126ec57600080fd5b81019080805198975050505050505050565b600091565b600060606000368080601f01602080910402602001604051908101604052818152929190602084018383808284376000920191909152509293503692506001600160a01b0391505081830151169250505090565b600080612777731d3b2638a7cc9f2cb3d298a3da7a90b67e5506ed61225f565b11156127e757600180546001600160a01b031916731d3b2638a7cc9f2cb3d298a3da7a90b67e5506ed1790556127df60405160408082019052600b81527f6574685f6d61696e6e65740000000000000000000000000000000000000000006020820152612b68565b506001610f16565b600061280673c03a2615d5efaf5f49f60b7bb6583eaec212fdf161225f565b111561286e57600180546001600160a01b03191673c03a2615d5efaf5f49f60b7bb6583eaec212fdf11790556127df60405160408082019052600c81527f6574685f726f707374656e3300000000000000000000000000000000000000006020820152612b68565b600061288d73b7a07bcf2ba2f2703b24c0691b5278999c59ac7e61225f565b11156128f557600180546001600160a01b03191673b7a07bcf2ba2f2703b24c0691b5278999c59ac7e1790556127df60405160408082019052600981527f6574685f6b6f76616e00000000000000000000000000000000000000000000006020820152612b68565b600061291473146500cfd35b22e4a392fe0adc06de1a1368ed4861225f565b111561297c57600180546001600160a01b03191673146500cfd35b22e4a392fe0adc06de1a1368ed481790556127df60405160408082019052600b81527f6574685f72696e6b6562790000000000000000000000000000000000000000006020820152612b68565b600061299b73a2998efd205fb9d4b4963afb70778d6354ad3a4161225f565b1115612a0357600180546001600160a01b03191673a2998efd205fb9d4b4963afb70778d6354ad3a411790556127df60405160408082019052600a81527f6574685f676f65726c69000000000000000000000000000000000000000000006020820152612b68565b6000612a22736f485c8bf6fc43ea212e93bbf8ce046c7f1cb47561225f565b1115612a545750600180546001600160a01b031916736f485c8bf6fc43ea212e93bbf8ce046c7f1cb475178155610f16565b6000612a737320e12a1f859b3feae5fb2a0a32c18f5a65555bbf61225f565b1115612aa55750600180546001600160a01b0319167320e12a1f859b3feae5fb2a0a32c18f5a65555bbf178155610f16565b6000612ac47351efaf4c8b3c9afbd5ab9f4bbc82784ab6ef8faa61225f565b1115611b095750600180546001600160a01b0319167351efaf4c8b3c9afbd5ab9f4bbc82784ab6ef8faa178155610f16565b6060612b00612b7b565b612b08612ee4565b612b1481610400612b87565b612b1d81612bb5565b60005b8351811015612b5557612b4d848281518110612b3857fe5b6020026020010151839063ffffffff612bc016565b600101612b20565b50612b5f81612be2565b80519392505050565b6002818051610bf6929160200190612e66565b60405180590338823950565b806020810615612b9a5760208106602003015b60208301819052604051928390526000835290910160405250565b611070816004612be9565b612bcd8260038351612c04565b612bdd828263ffffffff612d0f16565b505050565b6110708160075b610bf682601f611fe0600585901b161763ffffffff612da816565b60178111612c2a57612c258360e0600585901b16831763ffffffff612da816565b612bdd565b60ff8111612c6557612c4d836018611fe0600586901b161763ffffffff612da816565b612c5f8382600163ffffffff612de116565b50612bdd565b61ffff8111612c9b57612c89836019611fe0600586901b161763ffffffff612da816565b612c5f8382600263ffffffff612de116565b63ffffffff8111612cd357612cc183601a611fe0600586901b161763ffffffff612da816565b612c5f8382600463ffffffff612de116565b67ffffffffffffffff8111612bdd57612cfd83601b611fe0600586901b161763ffffffff612da816565b61118b8382600863ffffffff612de116565b612d17612ee4565b82602001518351518351011115612d4357612d4383612d3b85602001518551612e35565b600202612e4c565b60008060008451905085518051602081830101945086510190526020850191505b60208110612d8457815183526020928301929190910190601f1901612d64565b60001960208290036101000a01801983511681855116179093525093949350505050565b81602001518251516001011115612dca57612dca828360200151600202612e4c565b815180516020818301018381535060010190525050565b612de9612ee4565b836020015184515183011115612e0b57612e0b84612d3b866020015185612e35565b60001961010083900a01845180518481830101868419825116179052909301909252509192915050565b600081831115612e46575081610fb3565b50919050565b606082519050612e5c8383612b87565b61118b8382612d0f565b828054600181600116156101000203166002900490600052602060002090601f016020900481019282601f10612ea757805160ff1916838001178555612ed4565b82800160010185558215612ed4579182015b82811115612ed4578251825591602001919060010190612eb9565b50612ee0929150612efc565b5090565b60405160408082019052606081526000602082015290565b610f1691905b80821115612ee05760008155600101612f0256fe4f7261636c697a65207175657279207761732073656e742c207374616e64696e6720627920666f722074686520616e737765722e2e2e4f776e61626c653a206e6577206f776e657220697320746865207a65726f206164647265737368747470733a2f2f6170692e636f327369676e616c2e636f6d2f76312f6c61746573743f636f756e747279436f64653d47534e526563697069656e743a206e65772052656c617948756220697320746865207a65726f20616464726573737b2768656164657273273a207b27617574682d746f6b656e273a202761616436306237333130653332313161277d7d6a736f6e28516d644b4b333139566568613833683641596751716878395952734a394d4a45377933336f4358795a344d714845292e646174612e636172626f6e496e74656e73697479436f6e747261637420696e7374616e63652068617320616c7265616479206265656e20696e697469616c697a656447534e526563697069656e743a206e65772052656c6179487562206973207468652063757272656e74206f6e654f7261636c697a6520717565727920776173204e4f542073656e742c20706c656173652061646420736f6d652045544820746f20636f76657220666f72207468652071756572792066656547534e526563697069656e743a2063616c6c6572206973206e6f742052656c6179487562a265627a7a72315820d593cb80f59edb185bd987d8d05cf065254393d447eb7e48394abdce5238b26b64736f6c63430005110032",
  "compiler": {
    "name": "solc",
    "version": "0.5.17+commit.d19bba13.Emscripten.clang",
    "optimizer": {
      "enabled": true,
      "runs": 1000
    },
    "evmVersion": "petersburg"
  }
}