{
  "fileName": "Integers.sol",
  "contractName": "Integers",
  "source": "pragma solidity ^0.5.0;\r\n\r\n/**\r\n * Integers Library\r\n * \r\n * In summary this is a simple library of integer functions which allow a simple\r\n * conversion to and from strings\r\n * \r\n * @author James Lockhart <james@n3tw0rk.co.uk>\r\n */\r\nlibrary Integers {\r\n    /**\r\n     * Parse Int\r\n     * \r\n     * Converts an ASCII string value into an uint as long as the string \r\n     * its self is a valid unsigned integer\r\n     * \r\n     * @param _value The ASCII string to be converted to an unsigned integer\r\n     * @return uint The unsigned value of the ASCII string\r\n     */\r\n    function parseInt(string memory _value)\r\n        public\r\n        pure\r\n        returns (uint _ret) {\r\n        bytes memory _bytesValue = bytes(_value);\r\n        uint j = 1;\r\n        for(uint i = _bytesValue.length-1; i >= 0 && i < _bytesValue.length; i--) {\r\n            assert(uint8(_bytesValue[i]) >= 48 && uint8(_bytesValue[i]) <= 57);\r\n            _ret += (uint8(_bytesValue[i]) - 48)*j;\r\n            j*=10;\r\n        }\r\n    }\r\n\r\n    /**\r\n     * To String\r\n     * \r\n     * Converts an unsigned integer to the ASCII string equivalent value\r\n     * \r\n     * @param _base The unsigned integer to be converted to a string\r\n     * @return string The resulting ASCII string value\r\n     */\r\n    function toString(uint _base)\r\n        internal\r\n        pure\r\n        returns (string memory) {\r\n        bytes memory _tmp = new bytes(32);\r\n        uint i;\r\n        for(i = 0;_base > 0;i++) {\r\n            _tmp[i] = byte(uint8((_base % 10) + 48));\r\n            _base /= 10;\r\n        }\r\n        bytes memory _real = new bytes(i--);\r\n        for(uint j = 0; j < _real.length; j++) {\r\n            _real[j] = _tmp[i--];\r\n        }\r\n        return string(_real);\r\n    }\r\n\r\n    /**\r\n     * To Byte\r\n     *\r\n     * Convert an 8 bit unsigned integer to a byte\r\n     *\r\n     * @param _base The 8 bit unsigned integer\r\n     * @return byte The byte equivalent\r\n     */\r\n    function toByte(uint8 _base)\r\n        public\r\n        pure\r\n        returns (byte _ret) {\r\n        assembly {\r\n            let m_alloc := add(msize(),0x1)\r\n            mstore8(m_alloc, _base)\r\n            _ret := mload(m_alloc)\r\n        }\r\n    }\r\n\r\n    /**\r\n     * To Bytes\r\n     *\r\n     * Converts an unsigned integer to bytes\r\n     *\r\n     * @param _base The integer to be converted to bytes\r\n     * @return bytes The bytes equivalent \r\n     */\r\n    function toBytes(uint _base)\r\n        internal\r\n        pure\r\n        returns (bytes memory _ret) {\r\n        assembly {\r\n            let m_alloc := add(msize(),0x1)\r\n            _ret := mload(m_alloc)\r\n            mstore(_ret, 0x20)\r\n            mstore(add(_ret, 0x20), _base)\r\n        }\r\n    }\r\n}",
  "sourcePath": "node_modules/solidity-util/lib/Integers.sol",
  "abi": [
    {
      "constant": true,
      "inputs": [
        {
          "internalType": "string",
          "name": "_value",
          "type": "string"
        }
      ],
      "name": "parseInt",
      "outputs": [
        {
          "internalType": "uint256",
          "name": "_ret",
          "type": "uint256"
        }
      ],
      "payable": false,
      "stateMutability": "pure",
      "type": "function"
    },
    {
      "constant": true,
      "inputs": [
        {
          "internalType": "uint8",
          "name": "_base",
          "type": "uint8"
        }
      ],
      "name": "toByte",
      "outputs": [
        {
          "internalType": "bytes1",
          "name": "_ret",
          "type": "bytes1"
        }
      ],
      "payable": false,
      "stateMutability": "pure",
      "type": "function"
    }
  ],
  "bytecode": "0x610225610026600b82828239805160001a60731461001957fe5b30600052607381538281f3fe73000000000000000000000000000000000000000030146080604052600436106100405760003560e01c806342346c5e14610045578063a86b73f0146100fc575b600080fd5b6100ea6004803603602081101561005b57600080fd5b81019060208101813564010000000081111561007657600080fd5b82018360208201111561008857600080fd5b803590602001918460018302840111640100000000831117156100aa57600080fd5b91908080601f0160208091040260200160405190810160405281815292919060208401838380828437600092019190915250929550610151945050505050565b60405190815260200160405180910390f35b61011c6004803603602081101561011257600080fd5b503560ff166101de565b6040517fff00000000000000000000000000000000000000000000000000000000000000909116815260200160405180910390f35b6000816001828183510390505b82518110156101d657603083828151811061017557fe5b602001015160f81c1080159061019f5750603983828151811061019457fe5b602001015160f81c11155b6101a557fe5b8160308483815181106101b457fe5b602001015160f81c0360ff16029390930192600a91909102906000190161015e565b505050919050565b6000600159018281538051939250505056fea265627a7a72315820c81a685496c546035f03cafcc32cb5d83c4b4ddee9ff2d92f1bf86da687b038d64736f6c63430005110032",
  "compiler": {
    "name": "solc",
    "version": "0.5.17+commit.d19bba13.Emscripten.clang",
    "optimizer": {
      "enabled": true,
      "runs": 1000
    },
    "evmVersion": "petersburg"
  }
}