{
  "fileName": "LEDState.sol",
  "contractName": "LEDState",
  "source": "pragma solidity ^0.5.0;\r\n\r\n\r\n/**\r\n *\r\n *   @title LEDState v0.0.1\r\n ________  ________  _______   ________  ___\r\n|\\   ____\\|\\   __  \\|\\  ___ \\ |\\   __  \\|\\  \\\r\n\\ \\  \\___|\\ \\  \\|\\  \\ \\   __/|\\ \\  \\|\\  \\ \\  \\\r\n \\ \\  \\    \\ \\   _  _\\ \\  \\_|/_\\ \\  \\\\\\  \\ \\  \\\r\n  \\ \\  \\____\\ \\  \\\\  \\\\ \\  \\_|\\ \\ \\  \\\\\\  \\ \\  \\____\r\n   \\ \\_______\\ \\__\\\\ _\\\\ \\_______\\ \\_______\\ \\_______\\\r\n    \\|_______|\\|__|\\|__|\\|_______|\\|_______|\\|_______|\r\n\r\n\r\n  _      ______ _____   _____ _        _\r\n | |    |  ____|  __ \\ / ____| |      | |\r\n | |    | |__  | |  | | (___ | |_ __ _| |_ ___\r\n | |    |  __| | |  | |\\___ \\| __/ _` | __/ _ \\\r\n | |____| |____| |__| |____) | || (_| | ||  __/\r\n |______|______|_____/|_____/ \\__\\__,_|\\__\\___|\r\n\r\n\r\n*\r\n* Author: Joshua Bijak\r\n* Description: Smart contract for monitoring and controlling states of a LED DAlI enabled Creol Luminaire\r\n* TODO: Check and validate all inputs coming into functions\r\n*/\r\n\r\n/**\r\n *   ___                            _\r\n    |_ _|_ __ ___  _ __   ___  _ __| |_ ___\r\n     | || '_ ` _ \\| '_ \\ / _ \\| '__| __/ __|\r\n     | || | | | | | |_) | (_) | |  | |_\\__ \\\r\n    |___|_| |_| |_| .__/ \\___/|_|   \\__|___/\r\n                  |_|\r\n\r\n *\r\n */\r\nimport \"@openzeppelin/upgrades/contracts/Initializable.sol\";\r\n\r\nimport \"@openzeppelin/contracts-ethereum-package/contracts/ownership/Ownable.sol\";\r\nimport \"@openzeppelin/contracts-ethereum-package/contracts/GSN/GSNRecipient.sol\";\r\n\r\n\r\nimport  './LEDLibrary.sol';\r\nimport  './LEDStateInterface.sol';\r\n\r\nimport  '../AccessHub/AccessHubInterface.sol';\r\n/**\r\n * @author Joshua Bijak\r\n * @dev LEDState contract that uses LEDLibrary\r\n * @notice LEDState Contract\r\n *\r\n */\r\ncontract LEDState is LEDStateInterface, Initializable, Ownable, GSNRecipient {\r\n\r\n       /**\r\n     *\r\n           _____ _       _           _\r\n          / ____| |     | |         | |\r\n         | |  __| | ___ | |__   __ _| |___\r\n         | | |_ | |/ _ \\| '_ \\ / _` | / __|\r\n         | |__| | | (_) | |_) | (_| | \\__ \\\r\n          \\_____|_|\\___/|_.__/ \\__,_|_|___/\r\n\r\n\r\n    */\r\n\r\n    using LEDLibrary for LEDLibrary.LEDStorage;\r\n\r\n    LEDLibrary.LEDStorage public luminaire;\r\n\r\n    address private allowedGSNAddress;\r\n\r\n    AccessHubInterface public credentials;\r\n\r\n\r\n    /**\r\n     *\r\n          ______               _\r\n         |  ____|             | |\r\n         | |____   _____ _ __ | |_ ___\r\n         |  __\\ \\ / / _ \\ '_ \\| __/ __|\r\n         | |___\\ V /  __/ | | | |_\\__ \\\r\n         |______\\_/ \\___|_| |_|\\__|___/\r\n\r\n     *\r\n     *\r\n     */\r\n\r\n    event daliShortAddressUpdated(uint256 daliShortAddress);\r\n    event dateStarted(uint256 startDate);\r\n    event stateUpdated(bool updatedState);\r\n    event roomChanged(address roomContract);\r\n    event dimUpdated(uint256 LEDDim);\r\n    event wattageUpdated(uint256 LEDWattage);\r\n    event runtimeClocksUpdated(bool updatedState);\r\n    event lastOffsetUpdated(uint256 lastOffsetTime);\r\n\r\n    modifier onlyAccessHub(){\r\n        require(credentials.checkHasAccess(_msgSender(), AccessHubInterface.ContractTypes.LEDState) || _msgSender() == owner(), \"Caller, not registered in access hub\");\r\n        _;\r\n    }\r\n\r\n     /**\r\n      *   ______                _   _\r\n         |  ____|              | | (_)\r\n         | |__ _   _ _ __   ___| |_ _  ___  _ __  ___\r\n         |  __| | | | '_ \\ / __| __| |/ _ \\| '_ \\/ __|\r\n         | |  | |_| | | | | (__| |_| | (_) | | | \\__ \\\r\n         |_|   \\__,_|_| |_|\\___|\\__|_|\\___/|_| |_|___/\r\n     */\r\n\r\n    constructor() public {\r\n\r\n    }\r\n        /**\r\n     *  /**\r\n      * @dev creates a new LEDState contract\r\n      * @notice create new LEDState contract\r\n      * @param defaultState first state of the LED , on or off\r\n      * @param _roomContract Address of the room this LED belongs to\r\n      * @param _accessHub AccessHub deployed\r\n      * @param _daliShortAddress DALI short address from 0-63\r\n      * @param _LEDDim Dim rate assigned to LED 0-254\r\n      * @param _LEDWattage Wattage associated with this LED\r\n      *\r\n      */\r\n\r\n    function initialize (bool defaultState, address _roomContract,address _accessHub, address _GSNAddress, uint256 _daliShortAddress, uint256 _LEDDim, uint256 _LEDWattage) public initializer {\r\n        require(_daliShortAddress >= 0, \"DALI short address must be between 0-63\");\r\n        require(_daliShortAddress <= 63, \"DALI short address must be between 0-63\");\r\n        require(_LEDDim >= 0, \"DALI short address must be between 0-255\");\r\n        require(_LEDDim <= 255, \"DALI short address must be between 0-255\");\r\n\r\n        Ownable.initialize(_accessHub);\r\n        GSNRecipient.initialize();\r\n        credentials = AccessHubInterface(_accessHub);\r\n\r\n        allowedGSNAddress = _GSNAddress;\r\n\r\n        luminaire.newLED(defaultState,_roomContract,_daliShortAddress,_LEDDim, _LEDWattage);\r\n\r\n    }\r\n        /**\r\n    * @dev Updates state and Dim in one function, is abstraction of two lower functions\r\n    * @param newState New LED state\r\n    * @param _LEDDim New LED Dim value\r\n    * @notice Turn on/off and dim at the same time.\r\n    */\r\n    function onDim(bool newState, uint256 _LEDDim) public onlyAccessHub{\r\n        luminaire.onDim(newState,_LEDDim);\r\n    }\r\n        /**\r\n     * @dev update the current state of the LEDStorage object\r\n     * @notice Turn LED on/off\r\n     * @param newState New LED state\r\n     */\r\n    function updateState(bool newState) public onlyAccessHub{\r\n\r\n        luminaire.updateState(newState);\r\n    }\r\n\r\n        /**\r\n     * @dev update the dim setting of the LEDStorage object\r\n     * @notice Change LED Dim settings\r\n     * @param _LEDDim New LED dim rate\r\n     */\r\n    function updateDim(uint256 _LEDDim) public onlyAccessHub{\r\n        require(_LEDDim >= 0, \"DALI short address must be between 0-255\");\r\n        require(_LEDDim <= 255, \"DALI short address must be between 0-255\");\r\n        luminaire.updateDim(_LEDDim);\r\n    }\r\n        /**\r\n     * @dev update wattage of the LEDStorage\r\n     * @notice update wattage of the LED\r\n     * @param _LEDWattage New LED wattage\r\n     */\r\n    function updateWattage(uint256 _LEDWattage) public onlyAccessHub{\r\n        luminaire.updateWattage(_LEDWattage);\r\n    }\r\n        /**\r\n     * @dev update DALI short address\r\n     * @notice Change the DALI short address\r\n     * @param newdaliShortAddr New DALI address\r\n     */\r\n    function updatedaliShortAddr(uint256 newdaliShortAddr) public onlyAccessHub{\r\n        require(newdaliShortAddr >= 0, \"DALI short address must be between 0-63\");\r\n        require(newdaliShortAddr <= 63, \"DALI short address must be between 0-63\");\r\n        luminaire.updatedaliShortAddr(newdaliShortAddr);\r\n    }\r\n        /**\r\n     * @dev update contract room address\r\n     * @notice update the address for the room this LED is Int\r\n     * @param newRoomAddr new Room address\r\n     */\r\n    function updateRoomContract(address newRoomAddr) public onlyAccessHub{\r\n        luminaire.updateRoomContract(newRoomAddr);\r\n    }\r\n        /**\r\n     * @dev update the runtime CLocks\r\n     * @notice Update the clocks with the new state\r\n     * @param newState new LED State\r\n     */\r\n    function updateRuntimeClocks(bool newState) public onlyAccessHub {\r\n        luminaire.updateRuntimeClocks(newState);\r\n    }\r\n    /**\r\n     * @dev update the Offset Time\r\n     * @notice Update the clocks with the Offset Time\r\n     */\r\n    function updateLastOffsetTime() public onlyAccessHub {\r\n\r\n        luminaire.updateLastOffsetTime();\r\n\r\n    }\r\n        /**\r\n     * @dev calculate the daily runtime\r\n     * @notice Get the Daily runtime\r\n     */\r\n    function getDailyRuntime() public view returns (uint256 dailyRun) {\r\n        return luminaire.getDailyRuntime();\r\n\r\n    }\r\n         /**\r\n     * @dev calculate the weekly runtime\r\n     * @notice Get the weekly runtime\r\n     */\r\n    function getWeeklyRuntime() public view returns (uint256 weeklyRun) {\r\n       return luminaire.getDailyRuntime();\r\n    }\r\n         /**\r\n     * @dev calculate the monthly runtime\r\n     * @notice Get the monthly runtime\r\n     */\r\n    function getMonthlyRuntime() public view returns (uint256 monthlyRun) {\r\n        return luminaire.getMonthlyRuntime();\r\n    }\r\n         /**\r\n     * @dev calculate the yearly runtime\r\n     * @notice Get the yearly runtime\r\n     */\r\n    function getYearlyRuntime() public view returns (uint256 yearlyRun) {\r\n        return luminaire.getYearlyRuntime();\r\n\r\n    }\r\n     /**\r\n     * @dev calculate the complete runtime\r\n     * @notice Get the all runtime\r\n     */\r\n    function getAllRuntime() public view returns (uint256 alltimeRun) {\r\n        return luminaire.getAllRuntime();\r\n    }\r\n    /**\r\n     * @dev Get the current Dim value\r\n     * @notice Get the LED Dim level (DALI)\r\n     */\r\n     function getDim () public view returns (uint256 currentDim){\r\n         return luminaire.LEDDim;\r\n     }\r\n     /**\r\n     * @dev Get the current State value\r\n     * @notice Get the state (on / off)\r\n     */\r\n     function getState () public view returns (bool currentState){\r\n         return luminaire.currentState;\r\n     }\r\n     /**\r\n     * @dev Get the current wattage\r\n     * @notice Get the LED Wattage in W\r\n     *\r\n     */\r\n     function getWattage () public view returns (uint256 currentWattage){\r\n         return luminaire.LEDWattage;\r\n     }\r\n    /**\r\n     * @dev Get the current DALI short address (0-64)\r\n     * @notice Get the DALI Short address\r\n     */\r\n     function getDALIShortAddress () public view returns (uint256 currentDALIShort){\r\n         return luminaire.daliShortAddress;\r\n     }\r\n    /**\r\n     * @dev Get the current room address\r\n     * @notice Get the current room address\r\n     */\r\n     function getRoomContract () public view returns (address currentRoom){\r\n         return luminaire.roomContract;\r\n     }\r\n     /**\r\n     * @dev Get the start date\r\n     * @notice Get the start date of this LED\r\n     */\r\n     function getStartDate () public view returns (uint256 startDate) {\r\n         return luminaire.startDate;\r\n     }\r\n     /**\r\n     * @dev Get the last time this LED was offset\r\n     * @notice Get the last offset date of this LED\r\n     */\r\n     function getLastOffsetDate () public view returns (uint256 lastOffsetTime) {\r\n         return luminaire.lastOffsetTime;\r\n     }\r\n    function setGSNAllowed(address _newGSNAddress) public onlyAccessHub {\r\n        allowedGSNAddress = _newGSNAddress;\r\n    }\r\n    function acceptRelayedCall(\r\n        address relay,\r\n        address from,\r\n        bytes calldata encodedFunction,\r\n        uint256 transactionFee,\r\n        uint256 gasPrice,\r\n        uint256 gasLimit,\r\n        uint256 nonce,\r\n        bytes calldata approvalData,\r\n        uint256 maxPossibleCharge\r\n    ) external view returns (uint256, bytes memory)  {\r\n\r\n        //emit emittedMsgSender(_msgSender());\r\n        //emit emittedAllowedAddress(allowedAddress);\r\n        if(from == allowedGSNAddress){\r\n            return _approveRelayedCall();\r\n\r\n        }\r\n        else {\r\n            return _rejectRelayedCall(uint256(0));\r\n        }\r\n    }\r\n\r\n    function _preRelayedCall(bytes memory context) internal returns (bytes32) {\r\n\r\n    }\r\n\r\n    function _postRelayedCall(bytes memory context, bool, uint256 actualCharge, bytes32) internal {\r\n\r\n    }\r\n\r\n    function setRelayHubAddress() public {\r\n        if(getHubAddr() == address(0)) {\r\n            _upgradeRelayHub(0xD216153c06E857cD7f72665E0aF1d7D82172F494);\r\n        }\r\n    }\r\n\r\n    function getRecipientBalance() public view returns (uint) {\r\n        return IRelayHub(getHubAddr()).balanceOf(address(this));\r\n    }\r\n}\r\n",
  "sourcePath": "contracts/LEDState/LEDState.sol",
  "abi": [
    {
      "inputs": [],
      "payable": false,
      "stateMutability": "nonpayable",
      "type": "constructor"
    },
    {
      "anonymous": false,
      "inputs": [
        {
          "indexed": true,
          "internalType": "address",
          "name": "previousOwner",
          "type": "address"
        },
        {
          "indexed": true,
          "internalType": "address",
          "name": "newOwner",
          "type": "address"
        }
      ],
      "name": "OwnershipTransferred",
      "type": "event"
    },
    {
      "anonymous": false,
      "inputs": [
        {
          "indexed": true,
          "internalType": "address",
          "name": "oldRelayHub",
          "type": "address"
        },
        {
          "indexed": true,
          "internalType": "address",
          "name": "newRelayHub",
          "type": "address"
        }
      ],
      "name": "RelayHubChanged",
      "type": "event"
    },
    {
      "anonymous": false,
      "inputs": [
        {
          "indexed": false,
          "internalType": "uint256",
          "name": "daliShortAddress",
          "type": "uint256"
        }
      ],
      "name": "daliShortAddressUpdated",
      "type": "event"
    },
    {
      "anonymous": false,
      "inputs": [
        {
          "indexed": false,
          "internalType": "uint256",
          "name": "startDate",
          "type": "uint256"
        }
      ],
      "name": "dateStarted",
      "type": "event"
    },
    {
      "anonymous": false,
      "inputs": [
        {
          "indexed": false,
          "internalType": "uint256",
          "name": "LEDDim",
          "type": "uint256"
        }
      ],
      "name": "dimUpdated",
      "type": "event"
    },
    {
      "anonymous": false,
      "inputs": [
        {
          "indexed": false,
          "internalType": "uint256",
          "name": "lastOffsetTime",
          "type": "uint256"
        }
      ],
      "name": "lastOffsetUpdated",
      "type": "event"
    },
    {
      "anonymous": false,
      "inputs": [
        {
          "indexed": false,
          "internalType": "address",
          "name": "roomContract",
          "type": "address"
        }
      ],
      "name": "roomChanged",
      "type": "event"
    },
    {
      "anonymous": false,
      "inputs": [
        {
          "indexed": false,
          "internalType": "bool",
          "name": "updatedState",
          "type": "bool"
        }
      ],
      "name": "runtimeClocksUpdated",
      "type": "event"
    },
    {
      "anonymous": false,
      "inputs": [
        {
          "indexed": false,
          "internalType": "bool",
          "name": "updatedState",
          "type": "bool"
        }
      ],
      "name": "stateUpdated",
      "type": "event"
    },
    {
      "anonymous": false,
      "inputs": [
        {
          "indexed": false,
          "internalType": "uint256",
          "name": "LEDWattage",
          "type": "uint256"
        }
      ],
      "name": "wattageUpdated",
      "type": "event"
    },
    {
      "constant": true,
      "inputs": [
        {
          "internalType": "address",
          "name": "relay",
          "type": "address"
        },
        {
          "internalType": "address",
          "name": "from",
          "type": "address"
        },
        {
          "internalType": "bytes",
          "name": "encodedFunction",
          "type": "bytes"
        },
        {
          "internalType": "uint256",
          "name": "transactionFee",
          "type": "uint256"
        },
        {
          "internalType": "uint256",
          "name": "gasPrice",
          "type": "uint256"
        },
        {
          "internalType": "uint256",
          "name": "gasLimit",
          "type": "uint256"
        },
        {
          "internalType": "uint256",
          "name": "nonce",
          "type": "uint256"
        },
        {
          "internalType": "bytes",
          "name": "approvalData",
          "type": "bytes"
        },
        {
          "internalType": "uint256",
          "name": "maxPossibleCharge",
          "type": "uint256"
        }
      ],
      "name": "acceptRelayedCall",
      "outputs": [
        {
          "internalType": "uint256",
          "name": "",
          "type": "uint256"
        },
        {
          "internalType": "bytes",
          "name": "",
          "type": "bytes"
        }
      ],
      "payable": false,
      "stateMutability": "view",
      "type": "function"
    },
    {
      "constant": true,
      "inputs": [],
      "name": "credentials",
      "outputs": [
        {
          "internalType": "contract AccessHubInterface",
          "name": "",
          "type": "address"
        }
      ],
      "payable": false,
      "stateMutability": "view",
      "type": "function"
    },
    {
      "constant": true,
      "inputs": [],
      "name": "getAllRuntime",
      "outputs": [
        {
          "internalType": "uint256",
          "name": "alltimeRun",
          "type": "uint256"
        }
      ],
      "payable": false,
      "stateMutability": "view",
      "type": "function"
    },
    {
      "constant": true,
      "inputs": [],
      "name": "getDALIShortAddress",
      "outputs": [
        {
          "internalType": "uint256",
          "name": "currentDALIShort",
          "type": "uint256"
        }
      ],
      "payable": false,
      "stateMutability": "view",
      "type": "function"
    },
    {
      "constant": true,
      "inputs": [],
      "name": "getDailyRuntime",
      "outputs": [
        {
          "internalType": "uint256",
          "name": "dailyRun",
          "type": "uint256"
        }
      ],
      "payable": false,
      "stateMutability": "view",
      "type": "function"
    },
    {
      "constant": true,
      "inputs": [],
      "name": "getDim",
      "outputs": [
        {
          "internalType": "uint256",
          "name": "currentDim",
          "type": "uint256"
        }
      ],
      "payable": false,
      "stateMutability": "view",
      "type": "function"
    },
    {
      "constant": true,
      "inputs": [],
      "name": "getHubAddr",
      "outputs": [
        {
          "internalType": "address",
          "name": "",
          "type": "address"
        }
      ],
      "payable": false,
      "stateMutability": "view",
      "type": "function"
    },
    {
      "constant": true,
      "inputs": [],
      "name": "getLastOffsetDate",
      "outputs": [
        {
          "internalType": "uint256",
          "name": "lastOffsetTime",
          "type": "uint256"
        }
      ],
      "payable": false,
      "stateMutability": "view",
      "type": "function"
    },
    {
      "constant": true,
      "inputs": [],
      "name": "getMonthlyRuntime",
      "outputs": [
        {
          "internalType": "uint256",
          "name": "monthlyRun",
          "type": "uint256"
        }
      ],
      "payable": false,
      "stateMutability": "view",
      "type": "function"
    },
    {
      "constant": true,
      "inputs": [],
      "name": "getRecipientBalance",
      "outputs": [
        {
          "internalType": "uint256",
          "name": "",
          "type": "uint256"
        }
      ],
      "payable": false,
      "stateMutability": "view",
      "type": "function"
    },
    {
      "constant": true,
      "inputs": [],
      "name": "getRoomContract",
      "outputs": [
        {
          "internalType": "address",
          "name": "currentRoom",
          "type": "address"
        }
      ],
      "payable": false,
      "stateMutability": "view",
      "type": "function"
    },
    {
      "constant": true,
      "inputs": [],
      "name": "getStartDate",
      "outputs": [
        {
          "internalType": "uint256",
          "name": "startDate",
          "type": "uint256"
        }
      ],
      "payable": false,
      "stateMutability": "view",
      "type": "function"
    },
    {
      "constant": true,
      "inputs": [],
      "name": "getState",
      "outputs": [
        {
          "internalType": "bool",
          "name": "currentState",
          "type": "bool"
        }
      ],
      "payable": false,
      "stateMutability": "view",
      "type": "function"
    },
    {
      "constant": true,
      "inputs": [],
      "name": "getWattage",
      "outputs": [
        {
          "internalType": "uint256",
          "name": "currentWattage",
          "type": "uint256"
        }
      ],
      "payable": false,
      "stateMutability": "view",
      "type": "function"
    },
    {
      "constant": true,
      "inputs": [],
      "name": "getWeeklyRuntime",
      "outputs": [
        {
          "internalType": "uint256",
          "name": "weeklyRun",
          "type": "uint256"
        }
      ],
      "payable": false,
      "stateMutability": "view",
      "type": "function"
    },
    {
      "constant": true,
      "inputs": [],
      "name": "getYearlyRuntime",
      "outputs": [
        {
          "internalType": "uint256",
          "name": "yearlyRun",
          "type": "uint256"
        }
      ],
      "payable": false,
      "stateMutability": "view",
      "type": "function"
    },
    {
      "constant": false,
      "inputs": [],
      "name": "initialize",
      "outputs": [],
      "payable": false,
      "stateMutability": "nonpayable",
      "type": "function"
    },
    {
      "constant": false,
      "inputs": [
        {
          "internalType": "address",
          "name": "sender",
          "type": "address"
        }
      ],
      "name": "initialize",
      "outputs": [],
      "payable": false,
      "stateMutability": "nonpayable",
      "type": "function"
    },
    {
      "constant": false,
      "inputs": [
        {
          "internalType": "bool",
          "name": "defaultState",
          "type": "bool"
        },
        {
          "internalType": "address",
          "name": "_roomContract",
          "type": "address"
        },
        {
          "internalType": "address",
          "name": "_accessHub",
          "type": "address"
        },
        {
          "internalType": "address",
          "name": "_GSNAddress",
          "type": "address"
        },
        {
          "internalType": "uint256",
          "name": "_daliShortAddress",
          "type": "uint256"
        },
        {
          "internalType": "uint256",
          "name": "_LEDDim",
          "type": "uint256"
        },
        {
          "internalType": "uint256",
          "name": "_LEDWattage",
          "type": "uint256"
        }
      ],
      "name": "initialize",
      "outputs": [],
      "payable": false,
      "stateMutability": "nonpayable",
      "type": "function"
    },
    {
      "constant": true,
      "inputs": [],
      "name": "isOwner",
      "outputs": [
        {
          "internalType": "bool",
          "name": "",
          "type": "bool"
        }
      ],
      "payable": false,
      "stateMutability": "view",
      "type": "function"
    },
    {
      "constant": true,
      "inputs": [],
      "name": "luminaire",
      "outputs": [
        {
          "internalType": "bool",
          "name": "currentState",
          "type": "bool"
        },
        {
          "internalType": "uint256",
          "name": "daliShortAddress",
          "type": "uint256"
        },
        {
          "internalType": "uint256",
          "name": "LEDDim",
          "type": "uint256"
        },
        {
          "internalType": "uint256",
          "name": "LEDWattage",
          "type": "uint256"
        },
        {
          "internalType": "address",
          "name": "roomContract",
          "type": "address"
        },
        {
          "internalType": "uint256",
          "name": "startDate",
          "type": "uint256"
        },
        {
          "internalType": "uint256",
          "name": "fullWattEquivBurnTime",
          "type": "uint256"
        },
        {
          "internalType": "uint256",
          "name": "dailyEquivBurnTime",
          "type": "uint256"
        },
        {
          "internalType": "uint256",
          "name": "dailyEquivBurnClock",
          "type": "uint256"
        },
        {
          "internalType": "uint256",
          "name": "lastStateChangeTime",
          "type": "uint256"
        },
        {
          "internalType": "uint256",
          "name": "lastOffsetTime",
          "type": "uint256"
        }
      ],
      "payable": false,
      "stateMutability": "view",
      "type": "function"
    },
    {
      "constant": false,
      "inputs": [
        {
          "internalType": "bool",
          "name": "newState",
          "type": "bool"
        },
        {
          "internalType": "uint256",
          "name": "_LEDDim",
          "type": "uint256"
        }
      ],
      "name": "onDim",
      "outputs": [],
      "payable": false,
      "stateMutability": "nonpayable",
      "type": "function"
    },
    {
      "constant": true,
      "inputs": [],
      "name": "owner",
      "outputs": [
        {
          "internalType": "address",
          "name": "",
          "type": "address"
        }
      ],
      "payable": false,
      "stateMutability": "view",
      "type": "function"
    },
    {
      "constant": false,
      "inputs": [
        {
          "internalType": "bytes",
          "name": "context",
          "type": "bytes"
        },
        {
          "internalType": "bool",
          "name": "success",
          "type": "bool"
        },
        {
          "internalType": "uint256",
          "name": "actualCharge",
          "type": "uint256"
        },
        {
          "internalType": "bytes32",
          "name": "preRetVal",
          "type": "bytes32"
        }
      ],
      "name": "postRelayedCall",
      "outputs": [],
      "payable": false,
      "stateMutability": "nonpayable",
      "type": "function"
    },
    {
      "constant": false,
      "inputs": [
        {
          "internalType": "bytes",
          "name": "context",
          "type": "bytes"
        }
      ],
      "name": "preRelayedCall",
      "outputs": [
        {
          "internalType": "bytes32",
          "name": "",
          "type": "bytes32"
        }
      ],
      "payable": false,
      "stateMutability": "nonpayable",
      "type": "function"
    },
    {
      "constant": true,
      "inputs": [],
      "name": "relayHubVersion",
      "outputs": [
        {
          "internalType": "string",
          "name": "",
          "type": "string"
        }
      ],
      "payable": false,
      "stateMutability": "view",
      "type": "function"
    },
    {
      "constant": false,
      "inputs": [],
      "name": "renounceOwnership",
      "outputs": [],
      "payable": false,
      "stateMutability": "nonpayable",
      "type": "function"
    },
    {
      "constant": false,
      "inputs": [],
      "name": "setDefaultRelayHub",
      "outputs": [],
      "payable": false,
      "stateMutability": "nonpayable",
      "type": "function"
    },
    {
      "constant": false,
      "inputs": [
        {
          "internalType": "address",
          "name": "_newGSNAddress",
          "type": "address"
        }
      ],
      "name": "setGSNAllowed",
      "outputs": [],
      "payable": false,
      "stateMutability": "nonpayable",
      "type": "function"
    },
    {
      "constant": false,
      "inputs": [],
      "name": "setRelayHubAddress",
      "outputs": [],
      "payable": false,
      "stateMutability": "nonpayable",
      "type": "function"
    },
    {
      "constant": false,
      "inputs": [
        {
          "internalType": "address",
          "name": "newOwner",
          "type": "address"
        }
      ],
      "name": "transferOwnership",
      "outputs": [],
      "payable": false,
      "stateMutability": "nonpayable",
      "type": "function"
    },
    {
      "constant": false,
      "inputs": [
        {
          "internalType": "uint256",
          "name": "_LEDDim",
          "type": "uint256"
        }
      ],
      "name": "updateDim",
      "outputs": [],
      "payable": false,
      "stateMutability": "nonpayable",
      "type": "function"
    },
    {
      "constant": false,
      "inputs": [],
      "name": "updateLastOffsetTime",
      "outputs": [],
      "payable": false,
      "stateMutability": "nonpayable",
      "type": "function"
    },
    {
      "constant": false,
      "inputs": [
        {
          "internalType": "address",
          "name": "newRoomAddr",
          "type": "address"
        }
      ],
      "name": "updateRoomContract",
      "outputs": [],
      "payable": false,
      "stateMutability": "nonpayable",
      "type": "function"
    },
    {
      "constant": false,
      "inputs": [
        {
          "internalType": "bool",
          "name": "newState",
          "type": "bool"
        }
      ],
      "name": "updateRuntimeClocks",
      "outputs": [],
      "payable": false,
      "stateMutability": "nonpayable",
      "type": "function"
    },
    {
      "constant": false,
      "inputs": [
        {
          "internalType": "bool",
          "name": "newState",
          "type": "bool"
        }
      ],
      "name": "updateState",
      "outputs": [],
      "payable": false,
      "stateMutability": "nonpayable",
      "type": "function"
    },
    {
      "constant": false,
      "inputs": [
        {
          "internalType": "uint256",
          "name": "_LEDWattage",
          "type": "uint256"
        }
      ],
      "name": "updateWattage",
      "outputs": [],
      "payable": false,
      "stateMutability": "nonpayable",
      "type": "function"
    },
    {
      "constant": false,
      "inputs": [
        {
          "internalType": "uint256",
          "name": "newdaliShortAddr",
          "type": "uint256"
        }
      ],
      "name": "updatedaliShortAddr",
      "outputs": [],
      "payable": false,
      "stateMutability": "nonpayable",
      "type": "function"
    }
  ],
  "bytecode": "0x608060405234801561001057600080fd5b50612308806100206000396000f3fe608060405234801561001057600080fd5b50600436106102925760003560e01c80638da5cb5b11610160578063b369a611116100d8578063d3c7fb841161008c578063e06e0e2211610071578063e06e0e22146107bd578063f2fde38b1461083b578063ffaf98a51461086157610292565b8063d3c7fb8414610765578063de3875971461076d57610292565b8063c4d66de8116100bd578063c4d66de8146106f4578063c70bdeae1461071a578063ceaee8c11461073f57610292565b8063b369a611146106b8578063b93f4e34146106d557610292565b806399c1a6071161012f578063aa84088911610114578063aa8408891461062b578063ac57041114610633578063ad61ccd51461063b57610292565b806399c1a6071461061b578063a03cccd41461062357610292565b80638da5cb5b146105dd5780638f32d59b146105e557806391ce8a0d146105ed578063927df9981461061357610292565b80634dad7b4f1161020e57806378f305c6116101c257806380db3598116101a757806380db3598146104475780638129fc1c1461046457806383947ea01461046c57610292565b806378f305c6146103cf57806380274db7146103d757610292565b806350e4b76a116101f357806350e4b76a1461038b578063715018a6146103a357806374e861d6146103ab57610292565b80634dad7b4f14610393578063505829f21461039b57610292565b80631220e2ff116102655780633b8c8eb01161024a5780633b8c8eb01461034f57806346bbdddc1461036c57806347dc7cc11461038b57610292565b80631220e2ff146103295780631865c57d1461033357610292565b806301a84efb14610297578063020c874f146102b15780630ab08a7f146102b95780630ee82cc4146102c1575b600080fd5b61029f610869565b60408051918252519081900360200190f35b61029f6108ef565b61029f6108f5565b6102c96108fb565b604080519b15158c5260208c019a909a528a8a019890985260608a01969096526001600160a01b03909416608089015260a088019290925260c087015260e086015261010085015261012084015261014083015251908190036101600190f35b610331610931565b005b61033b610950565b604080519115158252519081900360200190f35b6103316004803603602081101561036557600080fd5b5035610959565b6103316004803603602081101561038257600080fd5b50351515610b1d565b61029f610c87565b61029f610cdb565b61029f610d2f565b610331610d83565b6103b3610e26565b604080516001600160a01b039092168252519081900360200190f35b61029f610e35565b61029f600480360360208110156103ed57600080fd5b81019060208101813564010000000081111561040857600080fd5b82018360208201111561041a57600080fd5b8035906020019184600183028401116401000000008311171561043c57600080fd5b509092509050610e3b565b6103316004803603602081101561045d57600080fd5b5035610eda565b610331611083565b61055e600480360361012081101561048357600080fd5b6001600160a01b0382358116926020810135909116918101906060810160408201356401000000008111156104b757600080fd5b8201836020820111156104c957600080fd5b803590602001918460018302840111640100000000831117156104eb57600080fd5b9193909282359260208101359260408201359260608301359260a08101906080013564010000000081111561051f57600080fd5b82018360208201111561053157600080fd5b8035906020019184600183028401116401000000008311171561055357600080fd5b91935091503561113d565b6040518083815260200180602001828103825283818151815260200191508051906020019080838360005b838110156105a1578181015183820152602001610589565b50505050905090810190601f1680156105ce5780820380516001836020036101000a031916815260200191505b50935050505060405180910390f35b6103b3611184565b61033b611193565b6103316004803603602081101561060357600080fd5b50356001600160a01b03166111b9565b6103b361132a565b610331611339565b61029f6114b5565b61029f6114bb565b61029f6114c1565b610643611534565b6040805160208082528351818301528351919283929083019185019080838360005b8381101561067d578181015183820152602001610665565b50505050905090810190601f1680156106aa5780820380516001836020036101000a031916815260200191505b509250505060405180910390f35b610331600480360360208110156106ce57600080fd5b503561156b565b610331600480360360208110156106eb57600080fd5b503515156116d4565b6103316004803603602081101561070a57600080fd5b50356001600160a01b031661183e565b6103316004803603604081101561073057600080fd5b50803515159060200135611930565b6103316004803603602081101561075557600080fd5b50356001600160a01b0316611abd565b610331611bd6565b610331600480360360e081101561078357600080fd5b5080351515906001600160a01b03602082013581169160408101358216916060820135169060808101359060a08101359060c00135611c0c565b610331600480360360808110156107d357600080fd5b8101906020810181356401000000008111156107ee57600080fd5b82018360208201111561080057600080fd5b8035906020019184600183028401116401000000008311171561082257600080fd5b9193509150803515159060208101359060400135611e1b565b6103316004803603602081101561085157600080fd5b50356001600160a01b0316611eb6565b6103b3611f18565b6000606773__LEDLibrary____________________________6388d156cd90916040518263ffffffff1660e01b81526004018082815260200191505060206040518083038186803b1580156108bd57600080fd5b505af41580156108d1573d6000803e3d6000fd5b505050506040513d60208110156108e757600080fd5b505190505b90565b60695490565b606a5490565b606754606854606954606a54606b54606c54606d54606e54606f5460705460725460ff909a16996001600160a01b03909616958b565b61094e73d216153c06e857cd7f72665e0af1d7d82172f494611f27565b565b60675460ff1690565b6074546001600160a01b031663069e0a8a610972612027565b6040805160e084901b6001600160e01b03191681526001600160a01b0392909216600483015260036024830152516044808301926020929190829003018186803b1580156109bf57600080fd5b505afa1580156109d3573d6000803e3d6000fd5b505050506040513d60208110156109e957600080fd5b505180610a1557506109f9611184565b6001600160a01b0316610a0a612027565b6001600160a01b0316145b610a505760405162461bcd60e51b81526004018080602001828103825260248152602001806121b66024913960400191505060405180910390fd5b603f811115610a905760405162461bcd60e51b81526004018080602001828103825260278152602001806122006027913960400191505060405180910390fd5b604080517fc1233c3a0000000000000000000000000000000000000000000000000000000081526067600482015260248101839052905173__LEDLibrary____________________________9163c1233c3a916044808301926000929190829003018186803b158015610b0257600080fd5b505af4158015610b16573d6000803e3d6000fd5b5050505050565b6074546001600160a01b031663069e0a8a610b36612027565b6040805160e084901b6001600160e01b03191681526001600160a01b0392909216600483015260036024830152516044808301926020929190829003018186803b158015610b8357600080fd5b505afa158015610b97573d6000803e3d6000fd5b505050506040513d6020811015610bad57600080fd5b505180610bd95750610bbd611184565b6001600160a01b0316610bce612027565b6001600160a01b0316145b610c145760405162461bcd60e51b81526004018080602001828103825260248152602001806121b66024913960400191505060405180910390fd5b604080517f073217eb000000000000000000000000000000000000000000000000000000008152606760048201528215156024820152905173__LEDLibrary____________________________9163073217eb916044808301926000929190829003018186803b158015610b0257600080fd5b6000606773__LEDLibrary____________________________639f1f06a290916040518263ffffffff1660e01b81526004018082815260200191505060206040518083038186803b1580156108bd57600080fd5b6000606773__LEDLibrary____________________________6303c3cd2690916040518263ffffffff1660e01b81526004018082815260200191505060206040518083038186803b1580156108bd57600080fd5b6000606773__LEDLibrary____________________________638e72953f90916040518263ffffffff1660e01b81526004018082815260200191505060206040518083038186803b1580156108bd57600080fd5b610d8b611193565b610ddc576040805162461bcd60e51b815260206004820181905260248201527f4f776e61626c653a2063616c6c6572206973206e6f7420746865206f776e6572604482015290519081900360640190fd5b6033546040516000916001600160a01b0316907f8be0079c531659141344cd1fd0a4f28419497f9722a3daafe3b4186f6b6457e0908390a3603380546001600160a01b0319169055565b6066546001600160a01b031690565b606c5490565b6000610e45610e26565b6001600160a01b0316336001600160a01b031614610e945760405162461bcd60e51b81526004018080602001828103825260248152602001806122b06024913960400191505060405180910390fd5b610ed383838080601f01602080910402602001604051908101604052809392919081815260200183838082843760009201919091525061205292505050565b9392505050565b6074546001600160a01b031663069e0a8a610ef3612027565b6040805160e084901b6001600160e01b03191681526001600160a01b0392909216600483015260036024830152516044808301926020929190829003018186803b158015610f4057600080fd5b505afa158015610f54573d6000803e3d6000fd5b505050506040513d6020811015610f6a57600080fd5b505180610f965750610f7a611184565b6001600160a01b0316610f8b612027565b6001600160a01b0316145b610fd15760405162461bcd60e51b81526004018080602001828103825260248152602001806121b66024913960400191505060405180910390fd5b60ff8111156110115760405162461bcd60e51b815260040180806020018281038252602881526020018061218e6028913960400191505060405180910390fd5b604080517fa3970a860000000000000000000000000000000000000000000000000000000081526067600482015260248101839052905173__LEDLibrary____________________________9163a3970a86916044808301926000929190829003018186803b158015610b0257600080fd5b600054610100900460ff168061109c575061109c612058565b806110aa575060005460ff16155b6110e55760405162461bcd60e51b815260040180806020018281038252602e815260200180612255602e913960400191505060405180910390fd5b600054610100900460ff16158015611110576000805460ff1961ff0019909116610100171660011790555b6066546001600160a01b031661112857611128610931565b801561113a576000805461ff00191690555b50565b6073546000906060906001600160a01b038d81169116141561116a5761116161205e565b91509150611174565b6111616000612082565b9b509b9950505050505050505050565b6033546001600160a01b031690565b6033546000906001600160a01b03166111aa612027565b6001600160a01b031614905090565b6074546001600160a01b031663069e0a8a6111d2612027565b6040805160e084901b6001600160e01b03191681526001600160a01b0392909216600483015260036024830152516044808301926020929190829003018186803b15801561121f57600080fd5b505afa158015611233573d6000803e3d6000fd5b505050506040513d602081101561124957600080fd5b5051806112755750611259611184565b6001600160a01b031661126a612027565b6001600160a01b0316145b6112b05760405162461bcd60e51b81526004018080602001828103825260248152602001806121b66024913960400191505060405180910390fd5b604080517fc12f7f58000000000000000000000000000000000000000000000000000000008152606760048201526001600160a01b0383166024820152905173__LEDLibrary____________________________9163c12f7f58916044808301926000929190829003018186803b158015610b0257600080fd5b6074546001600160a01b031681565b6074546001600160a01b031663069e0a8a611352612027565b6040805160e084901b6001600160e01b03191681526001600160a01b0392909216600483015260036024830152516044808301926020929190829003018186803b15801561139f57600080fd5b505afa1580156113b3573d6000803e3d6000fd5b505050506040513d60208110156113c957600080fd5b5051806113f557506113d9611184565b6001600160a01b03166113ea612027565b6001600160a01b0316145b6114305760405162461bcd60e51b81526004018080602001828103825260248152602001806121b66024913960400191505060405180910390fd5b604080517f076c7ca800000000000000000000000000000000000000000000000000000000815260676004820152905173__LEDLibrary____________________________9163076c7ca8916024808301926000929190829003018186803b15801561149b57600080fd5b505af41580156114af573d6000803e3d6000fd5b50505050565b60685490565b60725490565b60006114cb610e26565b6001600160a01b03166370a08231306040518263ffffffff1660e01b815260040180826001600160a01b03166001600160a01b0316815260200191505060206040518083038186803b15801561152057600080fd5b505afa1580156108d1573d6000803e3d6000fd5b60408051808201909152600581527f312e302e30000000000000000000000000000000000000000000000000000000602082015290565b6074546001600160a01b031663069e0a8a611584612027565b6040805160e084901b6001600160e01b03191681526001600160a01b0392909216600483015260036024830152516044808301926020929190829003018186803b1580156115d157600080fd5b505afa1580156115e5573d6000803e3d6000fd5b505050506040513d60208110156115fb57600080fd5b505180611627575061160b611184565b6001600160a01b031661161c612027565b6001600160a01b0316145b6116625760405162461bcd60e51b81526004018080602001828103825260248152602001806121b66024913960400191505060405180910390fd5b604080517f8e224c7d0000000000000000000000000000000000000000000000000000000081526067600482015260248101839052905173__LEDLibrary____________________________91638e224c7d916044808301926000929190829003018186803b158015610b0257600080fd5b6074546001600160a01b031663069e0a8a6116ed612027565b6040805160e084901b6001600160e01b03191681526001600160a01b0392909216600483015260036024830152516044808301926020929190829003018186803b15801561173a57600080fd5b505afa15801561174e573d6000803e3d6000fd5b505050506040513d602081101561176457600080fd5b5051806117905750611774611184565b6001600160a01b0316611785612027565b6001600160a01b0316145b6117cb5760405162461bcd60e51b81526004018080602001828103825260248152602001806121b66024913960400191505060405180910390fd5b604080517fbb3bac26000000000000000000000000000000000000000000000000000000008152606760048201528215156024820152905173__LEDLibrary____________________________9163bb3bac26916044808301926000929190829003018186803b158015610b0257600080fd5b600054610100900460ff16806118575750611857612058565b80611865575060005460ff16155b6118a05760405162461bcd60e51b815260040180806020018281038252602e815260200180612255602e913960400191505060405180910390fd5b600054610100900460ff161580156118cb576000805460ff1961ff0019909116610100171660011790555b603380546001600160a01b0319166001600160a01b0384811691909117918290556040519116906000907f8be0079c531659141344cd1fd0a4f28419497f9722a3daafe3b4186f6b6457e0908290a3801561192c576000805461ff00191690555b5050565b6074546001600160a01b031663069e0a8a611949612027565b6040805160e084901b6001600160e01b03191681526001600160a01b0392909216600483015260036024830152516044808301926020929190829003018186803b15801561199657600080fd5b505afa1580156119aa573d6000803e3d6000fd5b505050506040513d60208110156119c057600080fd5b5051806119ec57506119d0611184565b6001600160a01b03166119e1612027565b6001600160a01b0316145b611a275760405162461bcd60e51b81526004018080602001828103825260248152602001806121b66024913960400191505060405180910390fd5b604080517fb5b4b54800000000000000000000000000000000000000000000000000000000815260676004820152831515602482015260448101839052905173__LEDLibrary____________________________9163b5b4b548916064808301926000929190829003018186803b158015611aa157600080fd5b505af4158015611ab5573d6000803e3d6000fd5b505050505050565b6074546001600160a01b031663069e0a8a611ad6612027565b6040805160e084901b6001600160e01b03191681526001600160a01b0392909216600483015260036024830152516044808301926020929190829003018186803b158015611b2357600080fd5b505afa158015611b37573d6000803e3d6000fd5b505050506040513d6020811015611b4d57600080fd5b505180611b795750611b5d611184565b6001600160a01b0316611b6e612027565b6001600160a01b0316145b611bb45760405162461bcd60e51b81526004018080602001828103825260248152602001806121b66024913960400191505060405180910390fd5b607380546001600160a01b0319166001600160a01b0392909216919091179055565b6000611be0610e26565b6001600160a01b0316141561094e5761094e73d216153c06e857cd7f72665e0af1d7d82172f494611f27565b600054610100900460ff1680611c255750611c25612058565b80611c33575060005460ff16155b611c6e5760405162461bcd60e51b815260040180806020018281038252602e815260200180612255602e913960400191505060405180910390fd5b600054610100900460ff16158015611c99576000805460ff1961ff0019909116610100171660011790555b603f841115611cd95760405162461bcd60e51b81526004018080602001828103825260278152602001806122006027913960400191505060405180910390fd5b60ff831115611d195760405162461bcd60e51b815260040180806020018281038252602881526020018061218e6028913960400191505060405180910390fd5b611d228661183e565b611d2a611083565b607480546001600160a01b038089166001600160a01b031992831617909255607380548884169216919091179055604080517fc3d11e62000000000000000000000000000000000000000000000000000000008152606760048201528a151560248201529189166044830152606482018690526084820185905260a482018490525173__LEDLibrary____________________________9163c3d11e629160c4808301926000929190829003018186803b158015611de757600080fd5b505af4158015611dfb573d6000803e3d6000fd5b505050508015611e11576000805461ff00191690555b5050505050505050565b611e23610e26565b6001600160a01b0316336001600160a01b031614611e725760405162461bcd60e51b81526004018080602001828103825260248152602001806122b06024913960400191505060405180910390fd5b610b1685858080601f0160208091040260200160405190810160405280939291908181526020018383808284376000920191909152508792508691508590506114af565b611ebe611193565b611f0f576040805162461bcd60e51b815260206004820181905260248201527f4f776e61626c653a2063616c6c6572206973206e6f7420746865206f776e6572604482015290519081900360640190fd5b61113a8161209a565b606b546001600160a01b031690565b6066546001600160a01b03908116908216611f735760405162461bcd60e51b815260040180806020018281038252602e815260200180612227602e913960400191505060405180910390fd5b806001600160a01b0316826001600160a01b03161415611fc45760405162461bcd60e51b815260040180806020018281038252602d815260200180612283602d913960400191505060405180910390fd5b816001600160a01b0316816001600160a01b03167fb9f84b8e65164b14439ae3620df0a4d8786d896996c0282b683f9d8c08f046e860405160405180910390a350606680546001600160a01b0319166001600160a01b0392909216919091179055565b6066546000906001600160a01b031633146120435750336108ec565b61204b61213b565b90506108ec565b50600090565b303b1590565b6000606061207a60405180602001604052806000815250612188565b915091509091565b604080516020810190915260008152600b9190910191565b6001600160a01b0381166120df5760405162461bcd60e51b81526004018080602001828103825260268152602001806121da6026913960400191505060405180910390fd5b6033546040516001600160a01b038084169216907f8be0079c531659141344cd1fd0a4f28419497f9722a3daafe3b4186f6b6457e090600090a3603380546001600160a01b0319166001600160a01b0392909216919091179055565b600060606000368080601f0160208091040260200160405190810160405280939291908181526020018383808284376000920191909152505050503601516001600160a01b031692915050565b60009156fe44414c492073686f72742061646472657373206d757374206265206265747765656e20302d32353543616c6c65722c206e6f74207265676973746572656420696e20616363657373206875624f776e61626c653a206e6577206f776e657220697320746865207a65726f206164647265737344414c492073686f72742061646472657373206d757374206265206265747765656e20302d363347534e526563697069656e743a206e65772052656c617948756220697320746865207a65726f2061646472657373436f6e747261637420696e7374616e63652068617320616c7265616479206265656e20696e697469616c697a656447534e526563697069656e743a206e65772052656c6179487562206973207468652063757272656e74206f6e6547534e526563697069656e743a2063616c6c6572206973206e6f742052656c6179487562a265627a7a723158204867e3c9b8aff25e25d9d822005f1d8e02df3e64c4c8547f33d2a1cec2c2bbc564736f6c63430005110032",
  "compiler": {
    "name": "solc",
    "version": "0.5.17+commit.d19bba13.Emscripten.clang",
    "optimizer": {
      "enabled": true,
      "runs": 1000
    },
    "evmVersion": "petersburg"
  }
}