{
  "fileName": "RoomStateFactory.sol",
  "contractName": "RoomStateFactory",
  "source": "/*\r\n  @title RoomStateFactory v0.1.4\r\n ________  ________  _______   ________  ___          \r\n|\\   ____\\|\\   __  \\|\\  ___ \\ |\\   __  \\|\\  \\         \r\n\\ \\  \\___|\\ \\  \\|\\  \\ \\   __/|\\ \\  \\|\\  \\ \\  \\        \r\n \\ \\  \\    \\ \\   _  _\\ \\  \\_|/_\\ \\  \\\\\\  \\ \\  \\       \r\n  \\ \\  \\____\\ \\  \\\\  \\\\ \\  \\_|\\ \\ \\  \\\\\\  \\ \\  \\____  \r\n   \\ \\_______\\ \\__\\\\ _\\\\ \\_______\\ \\_______\\ \\_______\\\r\n    \\|_______|\\|__|\\|__|\\|_______|\\|_______|\\|_______|\r\n                                             \r\n \r\n \r\n\r\n\r\n\r\n                        \r\nAuthor:      Joshua Bijak\r\nDate:        July 23, 2020\r\nTitle:       RoomState Contract Factory\r\nDescription: Contract that deploys RoomState contracts for gas optimizations and OZ upgradeability\r\n              \r\n  ___                            _       \r\n|_ _|_ __ ___  _ __   ___  _ __| |_ ___ \r\n | || '_ ` _ \\| '_ \\ / _ \\| '__| __/ __|\r\n | || | | | | | |_) | (_) | |  | |_\\__ \\\r\n|___|_| |_| |_| .__/ \\___/|_|   \\__|___/\r\n              |_|                       \r\n\r\n*/\r\n\r\npragma solidity ^0.5.0; \r\n\r\nimport \"./RoomStateFactoryInterface.sol\";\r\nimport \"./RoomState.sol\";\r\n\r\n\r\nimport \"@openzeppelin/upgrades/contracts/Initializable.sol\";\r\nimport \"@openzeppelin/upgrades/contracts/application/App.sol\";\r\n\r\nimport \"@openzeppelin/contracts-ethereum-package/contracts/ownership/Ownable.sol\";\r\n/**\r\n * @author Joshua Bijak\r\n * @dev Contract to deploy RoomState contracts for tracking.\r\n * @notice RoomStateFactory: Creates RoomState contracts using RoomState Contract\r\n *\r\n */\r\ncontract RoomStateFactory is RoomStateFactoryInterface, Initializable, Ownable {\r\n   \r\n   /**\r\n     * \r\n           _____ _       _           _     \r\n          / ____| |     | |         | |    \r\n         | |  __| | ___ | |__   __ _| |___ \r\n         | | |_ | |/ _ \\| '_ \\ / _` | / __|\r\n         | |__| | | (_) | |_) | (_| | \\__ \\\r\n          \\_____|_|\\___/|_.__/ \\__,_|_|___/\r\n                                           \r\n                                   \r\n    */\r\n    \r\n    address[] public RoomStates;\r\n    mapping(address => bool) public RoomStateExists;\r\n    mapping(address => bool) public ApprovedSiteStates;\r\n    \r\n    App private creolApp;\r\n    \r\n    \r\n    /**\r\n     *   __  __           _ _  __ _               \r\n        |  \\/  |         | (_)/ _(_)              \r\n        | \\  / | ___   __| |_| |_ _  ___ _ __ ___ \r\n        | |\\/| |/ _ \\ / _` | |  _| |/ _ \\ '__/ __|\r\n        | |  | | (_) | (_| | | | | |  __/ |  \\__ \\\r\n        |_|  |_|\\___/ \\__,_|_|_| |_|\\___|_|  |___/\r\n        \r\n    */\r\n    modifier onlyApprovedSiteStates(){\r\n        require(ApprovedSiteStates[msg.sender] || msg.sender == owner(),\"not an approved site state\");\r\n        _;\r\n    }\r\n    /**\r\n     * \r\n          ______               _       \r\n         |  ____|             | |      \r\n         | |____   _____ _ __ | |_ ___ \r\n         |  __\\ \\ / / _ \\ '_ \\| __/ __|\r\n         | |___\\ V /  __/ | | | |_\\__ \\\r\n         |______\\_/ \\___|_| |_|\\__|___/\r\n                                       \r\n     * \r\n     * \r\n     */\r\n \r\n    event LogNewRoomState(address RoomState);\r\n    event newSiteStateAddress(address _newSiteState);\r\n    event removedSiteStateAddress(address _oldSiteState);\r\n    event newAppPackage(App _appPackage);\r\n    \r\n    /**\r\n      *   ______                _   _                 \r\n         |  ____|              | | (_)                \r\n         | |__ _   _ _ __   ___| |_ _  ___  _ __  ___ \r\n         |  __| | | | '_ \\ / __| __| |/ _ \\| '_ \\/ __|\r\n         | |  | |_| | | | | (__| |_| | (_) | | | \\__ \\\r\n         |_|   \\__,_|_| |_|\\___|\\__|_|\\___/|_| |_|___/\r\n     */\r\n    \r\n    function initialize (address _owner, App _appPackage) public initializer {\r\n        Ownable.initialize(_owner);\r\n        setAppPackage(_appPackage);\r\n        addApprovedSiteState(_owner);\r\n        \r\n    }\r\n    \r\n    function setAppPackage (App _appPackage) public onlyOwner {\r\n        creolApp = _appPackage;\r\n        emit newAppPackage(_appPackage);\r\n    }\r\n    function createRoomStateUpgradeable(address _proxyAdmin, bytes memory _encodedData) public onlyApprovedSiteStates returns (address) {\r\n        string memory packageName = \"creol-eth\";\r\n        string memory contractName = \"RoomState\";\r\n        address newRoomState = address(creolApp.create(packageName,contractName,_proxyAdmin, _encodedData));\r\n        RoomStates.push(newRoomState);\r\n        RoomStateExists[newRoomState] = true;\r\n        \r\n        emit LogNewRoomState(newRoomState);\r\n        \r\n        return newRoomState;\r\n    }\r\n    function addApprovedSiteState(address _newSiteStateAddress) public onlyApprovedSiteStates {\r\n        ApprovedSiteStates[_newSiteStateAddress] = true;\r\n        emit newSiteStateAddress(_newSiteStateAddress);\r\n    }\r\n    function removeApprovedSiteState(address _oldSiteStateAddress) public onlyApprovedSiteStates {\r\n        ApprovedSiteStates[_oldSiteStateAddress] = false;\r\n        emit removedSiteStateAddress(_oldSiteStateAddress);\r\n    }\r\n}",
  "sourcePath": "contracts/RoomState/RoomStateFactory.sol",
  "abi": [
    {
      "anonymous": false,
      "inputs": [
        {
          "indexed": false,
          "internalType": "address",
          "name": "RoomState",
          "type": "address"
        }
      ],
      "name": "LogNewRoomState",
      "type": "event"
    },
    {
      "anonymous": false,
      "inputs": [
        {
          "indexed": true,
          "internalType": "address",
          "name": "previousOwner",
          "type": "address"
        },
        {
          "indexed": true,
          "internalType": "address",
          "name": "newOwner",
          "type": "address"
        }
      ],
      "name": "OwnershipTransferred",
      "type": "event"
    },
    {
      "anonymous": false,
      "inputs": [
        {
          "indexed": false,
          "internalType": "contract App",
          "name": "_appPackage",
          "type": "address"
        }
      ],
      "name": "newAppPackage",
      "type": "event"
    },
    {
      "anonymous": false,
      "inputs": [
        {
          "indexed": false,
          "internalType": "address",
          "name": "_newSiteState",
          "type": "address"
        }
      ],
      "name": "newSiteStateAddress",
      "type": "event"
    },
    {
      "anonymous": false,
      "inputs": [
        {
          "indexed": false,
          "internalType": "address",
          "name": "_oldSiteState",
          "type": "address"
        }
      ],
      "name": "removedSiteStateAddress",
      "type": "event"
    },
    {
      "constant": true,
      "inputs": [
        {
          "internalType": "address",
          "name": "",
          "type": "address"
        }
      ],
      "name": "ApprovedSiteStates",
      "outputs": [
        {
          "internalType": "bool",
          "name": "",
          "type": "bool"
        }
      ],
      "payable": false,
      "stateMutability": "view",
      "type": "function"
    },
    {
      "constant": true,
      "inputs": [
        {
          "internalType": "address",
          "name": "",
          "type": "address"
        }
      ],
      "name": "RoomStateExists",
      "outputs": [
        {
          "internalType": "bool",
          "name": "",
          "type": "bool"
        }
      ],
      "payable": false,
      "stateMutability": "view",
      "type": "function"
    },
    {
      "constant": true,
      "inputs": [
        {
          "internalType": "uint256",
          "name": "",
          "type": "uint256"
        }
      ],
      "name": "RoomStates",
      "outputs": [
        {
          "internalType": "address",
          "name": "",
          "type": "address"
        }
      ],
      "payable": false,
      "stateMutability": "view",
      "type": "function"
    },
    {
      "constant": false,
      "inputs": [
        {
          "internalType": "address",
          "name": "_newSiteStateAddress",
          "type": "address"
        }
      ],
      "name": "addApprovedSiteState",
      "outputs": [],
      "payable": false,
      "stateMutability": "nonpayable",
      "type": "function"
    },
    {
      "constant": false,
      "inputs": [
        {
          "internalType": "address",
          "name": "_proxyAdmin",
          "type": "address"
        },
        {
          "internalType": "bytes",
          "name": "_encodedData",
          "type": "bytes"
        }
      ],
      "name": "createRoomStateUpgradeable",
      "outputs": [
        {
          "internalType": "address",
          "name": "",
          "type": "address"
        }
      ],
      "payable": false,
      "stateMutability": "nonpayable",
      "type": "function"
    },
    {
      "constant": false,
      "inputs": [
        {
          "internalType": "address",
          "name": "_owner",
          "type": "address"
        },
        {
          "internalType": "contract App",
          "name": "_appPackage",
          "type": "address"
        }
      ],
      "name": "initialize",
      "outputs": [],
      "payable": false,
      "stateMutability": "nonpayable",
      "type": "function"
    },
    {
      "constant": false,
      "inputs": [
        {
          "internalType": "address",
          "name": "sender",
          "type": "address"
        }
      ],
      "name": "initialize",
      "outputs": [],
      "payable": false,
      "stateMutability": "nonpayable",
      "type": "function"
    },
    {
      "constant": true,
      "inputs": [],
      "name": "isOwner",
      "outputs": [
        {
          "internalType": "bool",
          "name": "",
          "type": "bool"
        }
      ],
      "payable": false,
      "stateMutability": "view",
      "type": "function"
    },
    {
      "constant": true,
      "inputs": [],
      "name": "owner",
      "outputs": [
        {
          "internalType": "address",
          "name": "",
          "type": "address"
        }
      ],
      "payable": false,
      "stateMutability": "view",
      "type": "function"
    },
    {
      "constant": false,
      "inputs": [
        {
          "internalType": "address",
          "name": "_oldSiteStateAddress",
          "type": "address"
        }
      ],
      "name": "removeApprovedSiteState",
      "outputs": [],
      "payable": false,
      "stateMutability": "nonpayable",
      "type": "function"
    },
    {
      "constant": false,
      "inputs": [],
      "name": "renounceOwnership",
      "outputs": [],
      "payable": false,
      "stateMutability": "nonpayable",
      "type": "function"
    },
    {
      "constant": false,
      "inputs": [
        {
          "internalType": "contract App",
          "name": "_appPackage",
          "type": "address"
        }
      ],
      "name": "setAppPackage",
      "outputs": [],
      "payable": false,
      "stateMutability": "nonpayable",
      "type": "function"
    },
    {
      "constant": false,
      "inputs": [
        {
          "internalType": "address",
          "name": "newOwner",
          "type": "address"
        }
      ],
      "name": "transferOwnership",
      "outputs": [],
      "payable": false,
      "stateMutability": "nonpayable",
      "type": "function"
    }
  ],
  "bytecode": "0x6080604052610d8d806100136000396000f3fe608060405234801561001057600080fd5b50600436106100df5760003560e01c8063715018a61161008c578063c4d66de811610066578063c4d66de8146102a1578063c6785e7f146102c7578063f2fde38b146102ed578063fb32112a14610313576100df565b8063715018a6146102895780638da5cb5b146102915780638f32d59b14610299576100df565b80635131381a116100bd5780635131381a1461016057806357a3b3c91461023257806359b167c71461026c576100df565b806308f49a26146100e4578063253b83d51461010c578063485cc95514610132575b600080fd5b61010a600480360360208110156100fa57600080fd5b50356001600160a01b0316610339565b005b61010a6004803603602081101561012257600080fd5b50356001600160a01b031661041b565b61010a6004803603604081101561014857600080fd5b506001600160a01b03813581169160200135166104c8565b6102166004803603604081101561017657600080fd5b6001600160a01b0382351691908101906040810160208201356401000000008111156101a157600080fd5b8201836020820111156101b357600080fd5b803590602001918460018302840111640100000000831117156101d557600080fd5b91908080601f016020809104026020016040519081016040528093929190818152602001838380828437600092019190915250929550610587945050505050565b604080516001600160a01b039092168252519081900360200190f35b6102586004803603602081101561024857600080fd5b50356001600160a01b03166108fa565b604080519115158252519081900360200190f35b6102166004803603602081101561028257600080fd5b503561090f565b61010a610936565b6102166109d9565b6102586109e8565b61010a600480360360208110156102b757600080fd5b50356001600160a01b0316610a0e565b610258600480360360208110156102dd57600080fd5b50356001600160a01b0316610b00565b61010a6004803603602081101561030357600080fd5b50356001600160a01b0316610b15565b61010a6004803603602081101561032957600080fd5b50356001600160a01b0316610b7a565b3360009081526068602052604090205460ff168061036f575061035a6109d9565b6001600160a01b0316336001600160a01b0316145b6103c0576040805162461bcd60e51b815260206004820152601a60248201527f6e6f7420616e20617070726f7665642073697465207374617465000000000000604482015290519081900360640190fd5b6001600160a01b038116600081815260686020908152604091829020805460ff19166001179055815192835290517f8c1b9932d69893eeb06f867e5a8a9a87bfe5d2eeea669669fcee62e8a507393a9281900390910190a150565b6104236109e8565b610474576040805162461bcd60e51b815260206004820181905260248201527f4f776e61626c653a2063616c6c6572206973206e6f7420746865206f776e6572604482015290519081900360640190fd5b606980546001600160a01b0383166001600160a01b0319909116811790915560408051918252517f03a1f005f3a13b7552a492f3eebbe1bc36ab9aebf32184e9b01951443348cb259181900360200190a150565b600054610100900460ff16806104e157506104e1610c59565b806104ef575060005460ff16155b61052a5760405162461bcd60e51b815260040180806020018281038252602e815260200180610d2b602e913960400191505060405180910390fd5b600054610100900460ff16158015610555576000805460ff1961ff0019909116610100171660011790555b61055e83610a0e565b6105678261041b565b61057083610339565b8015610582576000805461ff00191690555b505050565b3360009081526068602052604081205460ff16806105bd57506105a86109d9565b6001600160a01b0316336001600160a01b0316145b61060e576040805162461bcd60e51b815260206004820152601a60248201527f6e6f7420616e20617070726f7665642073697465207374617465000000000000604482015290519081900360640190fd5b60606040518060400160405280600981526020017f6372656f6c2d6574680000000000000000000000000000000000000000000000815250905060606040518060400160405280600981526020017f526f6f6d5374617465000000000000000000000000000000000000000000000081525090506000606960009054906101000a90046001600160a01b03166001600160a01b031663cd3e318a848489896040518563ffffffff1660e01b8152600401808060200180602001856001600160a01b03166001600160a01b0316815260200180602001848103845288818151815260200191508051906020019080838360005b83811015610718578181015183820152602001610700565b50505050905090810190601f1680156107455780820380516001836020036101000a031916815260200191505b50848103835287518152875160209182019189019080838360005b83811015610778578181015183820152602001610760565b50505050905090810190601f1680156107a55780820380516001836020036101000a031916815260200191505b50848103825285518152855160209182019187019080838360005b838110156107d85781810151838201526020016107c0565b50505050905090810190601f1680156108055780820380516001836020036101000a031916815260200191505b50975050505050505050602060405180830381600087803b15801561082957600080fd5b505af115801561083d573d6000803e3d6000fd5b505050506040513d602081101561085357600080fd5b50516066805460018082019092557f46501879b8ca8525e8c2fd519e2fbfcfa2ebea26501294aa02cbfcfb12e943540180546001600160a01b0319166001600160a01b038416908117909155600081815260676020908152604091829020805460ff19169094179093558051918252519293507fa13f4ce94b063365c7d4545910947224e192f76ca8a6a8aee591e0f031b29260929081900390910190a195945050505050565b60676020526000908152604090205460ff1681565b6066818154811061091c57fe5b6000918252602090912001546001600160a01b0316905081565b61093e6109e8565b61098f576040805162461bcd60e51b815260206004820181905260248201527f4f776e61626c653a2063616c6c6572206973206e6f7420746865206f776e6572604482015290519081900360640190fd5b6033546040516000916001600160a01b0316907f8be0079c531659141344cd1fd0a4f28419497f9722a3daafe3b4186f6b6457e0908390a3603380546001600160a01b0319169055565b6033546001600160a01b031690565b6033546000906001600160a01b03166109ff610c5f565b6001600160a01b031614905090565b600054610100900460ff1680610a275750610a27610c59565b80610a35575060005460ff16155b610a705760405162461bcd60e51b815260040180806020018281038252602e815260200180610d2b602e913960400191505060405180910390fd5b600054610100900460ff16158015610a9b576000805460ff1961ff0019909116610100171660011790555b603380546001600160a01b0319166001600160a01b0384811691909117918290556040519116906000907f8be0079c531659141344cd1fd0a4f28419497f9722a3daafe3b4186f6b6457e0908290a38015610afc576000805461ff00191690555b5050565b60686020526000908152604090205460ff1681565b610b1d6109e8565b610b6e576040805162461bcd60e51b815260206004820181905260248201527f4f776e61626c653a2063616c6c6572206973206e6f7420746865206f776e6572604482015290519081900360640190fd5b610b7781610c63565b50565b3360009081526068602052604090205460ff1680610bb05750610b9b6109d9565b6001600160a01b0316336001600160a01b0316145b610c01576040805162461bcd60e51b815260206004820152601a60248201527f6e6f7420616e20617070726f7665642073697465207374617465000000000000604482015290519081900360640190fd5b6001600160a01b038116600081815260686020908152604091829020805460ff19169055815192835290517f3db4c38747ede64a8e987a5a79c3c97aefa7bf6c1703ca880f55416e7f2c69fe9281900390910190a150565b303b1590565b3390565b6001600160a01b038116610ca85760405162461bcd60e51b8152600401808060200182810382526026815260200180610d056026913960400191505060405180910390fd5b6033546040516001600160a01b038084169216907f8be0079c531659141344cd1fd0a4f28419497f9722a3daafe3b4186f6b6457e090600090a3603380546001600160a01b0319166001600160a01b039290921691909117905556fe4f776e61626c653a206e6577206f776e657220697320746865207a65726f2061646472657373436f6e747261637420696e7374616e63652068617320616c7265616479206265656e20696e697469616c697a6564a265627a7a723158202636a1514dc5f624d215309f15a83005a942fdcedb2adcb259034ac5898119a064736f6c63430005110032",
  "compiler": {
    "name": "solc",
    "version": "0.5.17+commit.d19bba13.Emscripten.clang",
    "optimizer": {
      "enabled": true,
      "runs": 1000
    },
    "evmVersion": "petersburg"
  }
}