{
  "fileName": "RoomState.sol",
  "contractName": "RoomState",
  "source": "\r\npragma solidity ^0.5.0;\r\n/**\r\n *\r\n *\r\n *\r\n *   @title RoomState v0.0.2\r\n ________  ________  _______   ________  ___\r\n|\\   ____\\|\\   __  \\|\\  ___ \\ |\\   __  \\|\\  \\\r\n\\ \\  \\___|\\ \\  \\|\\  \\ \\   __/|\\ \\  \\|\\  \\ \\  \\\r\n \\ \\  \\    \\ \\   _  _\\ \\  \\_|/_\\ \\  \\\\\\  \\ \\  \\\r\n  \\ \\  \\____\\ \\  \\\\  \\\\ \\  \\_|\\ \\ \\  \\\\\\  \\ \\  \\____\r\n   \\ \\_______\\ \\__\\\\ _\\\\ \\_______\\ \\_______\\ \\_______\\\r\n    \\|_______|\\|__|\\|__|\\|_______|\\|_______|\\|_______|\r\n\r\n\r\n\r\n *\r\n *\r\n  _____                        _____ _        _\r\n |  __ \\                      / ____| |      | |\r\n | |__) |___   ___  _ __ ___ | (___ | |_ __ _| |_ ___\r\n |  _  // _ \\ / _ \\| '_ ` _ \\ \\___ \\| __/ _` | __/ _ \\\r\n | | \\ \\ (_) | (_) | | | | | |____) | || (_| | ||  __/\r\n |_|  \\_\\___/ \\___/|_| |_| |_|_____/ \\__\\__,_|\\__\\___|\r\n\r\n\r\n* Author: Joshua Bijak\r\n* Desc: Contract designed to hold the state of a Room containing LED contracts\r\n*\r\n*\r\n*\r\n*/\r\n\r\nimport   '../LEDState/LEDFactoryInterface.sol';\r\n\r\nimport   '../LEDState/LEDStateInterface.sol';\r\n\r\nimport   './RoomStateInterface.sol';\r\n\r\nimport  '../AccessHub/AccessHubInterface.sol';\r\n\r\n//import  '../LEDState/LEDFactory.sol';\r\n\r\nimport \"@openzeppelin/upgrades/contracts/Initializable.sol\";\r\n\r\nimport \"@openzeppelin/contracts-ethereum-package/contracts/ownership/Ownable.sol\";\r\n\r\nimport \"@openzeppelin/contracts-ethereum-package/contracts/GSN/GSNRecipient.sol\";\r\n\r\n\r\ncontract RoomState is RoomStateInterface, Initializable, Ownable, GSNRecipient {\r\n\r\n\r\n    LEDFactoryInterface private genericLEDFactoryInterface;\r\n\r\n    LEDStateInterface private genericLEDStateInterface;\r\n\r\n    AccessHubInterface public credentials;\r\n\r\n    address public proxyAdmin;\r\n\r\n    address private allowedGSNAddress;\r\n\r\n    struct Group {\r\n        uint256 count;\r\n        address[] LEDs;\r\n        bool isActive;\r\n        string groupName;\r\n    }\r\n\r\n    //Struct To Hold Creezies\r\n\r\n    struct CreezyPi {\r\n        string coapAddress;\r\n        string creezyID;\r\n        uint256 numLEDs;\r\n        uint256 numUniverses;\r\n        bool isActive;\r\n\r\n    }\r\n\r\n\r\n    address[] public roomLEDs;\r\n\r\n    Group[] public roomGroups;\r\n\r\n    Group[] public roomUniverses;\r\n\r\n    //Creezies in this Room\r\n    CreezyPi[] public creezyPis;\r\n\r\n    // Identify each creezy in the room by its index number\r\n    // These are considered unique and unrevocable\r\n\r\n    mapping( uint256 => CreezyPi ) public creezyIndextoCreezyData;\r\n\r\n    mapping ( string => uint256 ) public creezyIdtoCreezyIndex;\r\n\r\n    mapping( uint256 => Group ) public groupIndextoGroupData;\r\n\r\n    mapping ( string => uint256 ) public groupNametoGroupIndex;\r\n\r\n    mapping ( string => CreezyPi ) public groupNametoParentCreezyPi;\r\n\r\n    // Look up group by its coap address (aka all lights connected to a creezy), currently only for 1 universe\r\n    // Packed as bytes from string\r\n    //Look up group by its \"Group Designation\" aka (Office Lights)\r\n    // Packed as bytes from string\r\n\r\n\r\n\r\n    // TODO: Rework this mapping to actually group by Creezy for Grouped Piping\r\n\r\n\r\n    event newRoom ( address roomAddr);\r\n    event newCreezy( string creezyID, address[] newCreezyLEDs);\r\n    event newLED(address _newLED);\r\n    event delCreezy( string creezyID);\r\n    event newCreezyCoapAddr( string creezyID, string coapAddress);\r\n    event newCreezyNumLEDs ( string creezyID, uint256 numLEDs);\r\n    event newCreezyNumUniverses( string creezyID, uint256 numUniverses);\r\n    event newGroup(string groupID, uint256 groupIndex);\r\n    event groupDeleted( string groupID, uint256 groupIndex);\r\n    event newProxyAdmin(address _newProxyAdmin);\r\n    event payloadDataPacked(bytes _payLoadData);\r\n\r\n    modifier onlyAccessHub(){\r\n        require(credentials.checkHasAccess(_msgSender(), AccessHubInterface.ContractTypes.RoomState) || _msgSender() == owner(), \"Caller, not registered in access hub\");\r\n        _;\r\n    }\r\n    // Requires LEDFactory to be deployed\r\n    constructor() public {\r\n\r\n    }\r\n\r\n\r\n    function initialize (address LEDFactory, address _accessHub, address _allowedGSNAddress) public initializer {\r\n        genericLEDFactoryInterface =  LEDFactoryInterface(LEDFactory);\r\n        Ownable.initialize(_accessHub);\r\n        allowedGSNAddress = _allowedGSNAddress;\r\n        GSNRecipient.initialize();\r\n\r\n        credentials = AccessHubInterface(_accessHub);\r\n\r\n        emit newRoom(address(this));\r\n\r\n    }\r\n    function addLED (bool _defaultState, address _roomContract, address _accessHub, uint256 _daliAddress, uint256 _ledDim, uint256 _ledWattage) public onlyAccessHub returns (address newLEDAddress){\r\n\r\n        bytes memory payLoadData = abi.encodeWithSignature(\"initialize(bool,address,address,address,uint256,uint256,uint256)\",_defaultState,_roomContract,_accessHub,allowedGSNAddress,_daliAddress,_ledDim,_ledWattage);\r\n\r\n        emit payloadDataPacked(payLoadData);\r\n        address _newLED = genericLEDFactoryInterface.createLEDStateUpgradeable(proxyAdmin, payLoadData);\r\n\r\n        roomLEDs.push(_newLED);\r\n        emit newLED(_newLED);\r\n\r\n        return _newLED;\r\n    }\r\n\r\n\r\n    // Creezies are added to the room with this function\r\n    // Deploys the LED Contracts for its new Universe and registers them as group\r\n    /**\r\n\r\n    */\r\n    function addCreezy(string memory _coapAddr,string memory _creezyId, uint256 _numLEDs,address _accessHub, uint256 _numUniverses, uint256 _ledWattage) public onlyAccessHub {\r\n\r\n\r\n        require(creezyIndextoCreezyData[creezyIdtoCreezyIndex[_creezyId]].isActive == false, \"CreezyID Already Exists, use updateCreezy\");\r\n        require(_numLEDs < 64, \"Too many LEDs for a single universe, maximum is 64\");\r\n        require(_numUniverses < 4, \"Too many Universes, maximum is 4\");\r\n        // Allocate temporary memory for the array\r\n        address[] memory newLEDs = new address[](_numLEDs);\r\n\r\n        for (uint256 i=0; i<_numLEDs;i++){\r\n\r\n            //Instantiate new contract and assign address with params (off, with 50% dim, 30W Wattage)\r\n            newLEDs[i] = addLED(false, address(this),_accessHub, i, 123,_ledWattage);\r\n\r\n        }\r\n        CreezyPi memory newCreezyPi = CreezyPi(_coapAddr, _creezyId,_numLEDs, _numUniverses,true);\r\n\r\n        // Make indexable getter for this Creezy\r\n        creezyIndextoCreezyData[creezyPis.length] = newCreezyPi;\r\n        // Allow index to be found for the getter\r\n        creezyIdtoCreezyIndex[_creezyId] = creezyPis.length;\r\n        // Add creezyPis to global array\r\n        creezyPis.push(newCreezyPi);\r\n        // Create a roomGroup out of the newly deployed LEDs (aka Room-Creezy-Group-XX)\r\n        addCreezyGroup(_creezyId, newLEDs);\r\n\r\n        // Assign groupName to be able to lookup the Creezy itself\r\n        groupNametoParentCreezyPi[_creezyId] = newCreezyPi;\r\n\r\n        emit newCreezy(_creezyId, newLEDs );\r\n    }\r\n    // Create group based on Designator \"string\"\r\n    // This will allow for overwriting of groups that were previously removed\r\n    //\r\n    function addCreezyGroup(string memory _groupString, address[] memory LEDs) public onlyAccessHub {\r\n\r\n        require(groupIndextoGroupData[groupNametoGroupIndex[_groupString]].isActive == false, \"Group already active\");\r\n        Group memory newGroupToAdd = Group(LEDs.length, LEDs, true, _groupString);\r\n\r\n        groupIndextoGroupData[roomGroups.length] = newGroupToAdd;\r\n        groupNametoGroupIndex[_groupString] = roomGroups.length;\r\n\r\n        roomGroups.push(newGroupToAdd);\r\n\r\n        emit newGroup(_groupString, groupNametoGroupIndex[_groupString]);\r\n\r\n    }\r\n    // Remove\r\n    function removeGroup(string memory _groupString) public onlyAccessHub {\r\n        require(groupIndextoGroupData[groupNametoGroupIndex[_groupString]].isActive == true, \"Group already removed\");\r\n\r\n        groupIndextoGroupData[groupNametoGroupIndex[_groupString]].isActive = false;\r\n\r\n        emit groupDeleted(_groupString, groupNametoGroupIndex[_groupString]);\r\n    }\r\n    /**\r\n     *  Removes Creezy from Room by marking Active flag as inactive, data remains for later inspection to not lose LED addresses\r\n     *  Removes associated groups\r\n     */\r\n    function removeCreezy(string memory _creezyId) public onlyAccessHub {\r\n\r\n        require(creezyIndextoCreezyData[creezyIdtoCreezyIndex[_creezyId]].isActive == true, \"CreezyID does not exist, cannot remove\");\r\n        // Remove the CreezyID encompassing group as well\r\n        removeGroup(_creezyId);\r\n\r\n        creezyIndextoCreezyData[creezyIdtoCreezyIndex[_creezyId]].isActive = false;\r\n\r\n        emit delCreezy(_creezyId);\r\n    }\r\n    /**\r\n     * Updates a  Creezy COAP Address, number of crezy must be known\r\n     */\r\n    function updateCreezyCoap(string memory _creezyId, string memory _coapAddr) public onlyAccessHub {\r\n\r\n        require(creezyIndextoCreezyData[creezyIdtoCreezyIndex[_creezyId]].isActive == true, \"CreezyID does not exist, cannot update coap\");\r\n\r\n        creezyIndextoCreezyData[creezyIdtoCreezyIndex[_creezyId]].coapAddress = _coapAddr;\r\n\r\n        emit newCreezyCoapAddr(_creezyId, creezyIndextoCreezyData[creezyIdtoCreezyIndex[_creezyId]].coapAddress);\r\n    }\r\n    /**\r\n     * @dev Adds LEDs to an existing Creezy\r\n     */\r\n\r\n     // TODO: Add a remove or add flag for adding OR removing LEDs\r\n    function addAndUpdateCreezyLEDs(string memory _creezyId, uint256 _new_numLEDs, address contractOwner, uint256 _ledWattage) public onlyAccessHub {\r\n\r\n        require(creezyIndextoCreezyData[creezyIdtoCreezyIndex[_creezyId]].isActive == true, \"CreezyID does not exist, cannot update LEDs\");\r\n\r\n        // Get old LED array\r\n        address[] memory oldLEDs = getGroupAddresses(_creezyId);\r\n        // Build new array in memory\r\n        address[] memory newLEDsArray = new address[](oldLEDs.length+_new_numLEDs);\r\n        uint256 i=0;\r\n        // Clone oldLEDs into new array: SOLIDITY does not allow storage and memory mixing and matching\r\n        for (i; i<oldLEDs.length; i++){\r\n            //Instantiate new contract and assign address with params (off, with 50% dim)\r\n            newLEDsArray[i] = oldLEDs[i];\r\n        }\r\n        // Add remaining LEDs by deploying them\r\n        for (i; i<oldLEDs.length+_new_numLEDs; i++){\r\n            newLEDsArray[i] = addLED(false, address(this),contractOwner, i, 123,_ledWattage);\r\n        }\r\n\r\n        //Overwrite the existing whole groups\r\n        removeGroup(_creezyId);\r\n        addCreezyGroup(_creezyId, newLEDsArray);\r\n\r\n\r\n        creezyIndextoCreezyData[creezyIdtoCreezyIndex[_creezyId]].numLEDs = newLEDsArray.length;\r\n\r\n        emit newCreezyNumLEDs(_creezyId, creezyIndextoCreezyData[creezyIdtoCreezyIndex[_creezyId]].numLEDs);\r\n\r\n    }\r\n    function updateCreezyUniverses(string memory _creezyId, uint256 _new_numUniverses) internal {\r\n\r\n        require(creezyIndextoCreezyData[creezyIdtoCreezyIndex[_creezyId]].isActive == true, \"CreezyID does not exist, cannot update universes\");\r\n\r\n        creezyIndextoCreezyData[creezyIdtoCreezyIndex[_creezyId]].numUniverses = _new_numUniverses;\r\n\r\n        emit newCreezyNumUniverses(_creezyId, creezyIndextoCreezyData[creezyIdtoCreezyIndex[_creezyId]].numUniverses);\r\n    }\r\n\r\n\r\n    function getGroupAddresses(string memory _groupId) public view returns(address[] memory) {\r\n\r\n        return groupIndextoGroupData[groupNametoGroupIndex[_groupId]].LEDs;\r\n\r\n    }\r\n    function getLEDCount() public view returns(uint LEDCount){\r\n        return roomLEDs.length;\r\n    }\r\n    function getGroupCount() public view returns(uint groupCount) {\r\n        return roomGroups.length;\r\n    }\r\n    function getCreezyCount() public view returns(uint creezyCount) {\r\n        return creezyPis.length;\r\n    }\r\n\r\n    function groupSwitchPlate (bool _newState, address[] memory LEDAddresses) public onlyAccessHub{\r\n        for (uint256 i=0; i< LEDAddresses.length;i++){\r\n            genericLEDStateInterface = LEDStateInterface(LEDAddresses[i]);\r\n            genericLEDStateInterface.updateState(_newState);\r\n        }\r\n    }\r\n    function groupDimPlate (uint256 _newDim, address[] memory LEDAddresses) public onlyAccessHub{\r\n        for (uint256 i=0; i< LEDAddresses.length;i++){\r\n            genericLEDStateInterface = LEDStateInterface(LEDAddresses[i]);\r\n            genericLEDStateInterface.updateDim(_newDim);\r\n        }\r\n    }\r\n    /**\r\n   * @dev Meant to update the proxyAdmin address, that was added in new version.\r\n   * @notice Meant to update the proxyAdmin address, that was added in new version.\r\n   * @param _proxyAdmin new address of the proxyAdmin contract for the openzeppelin app entry\r\n   */\r\n    function setProxyAdmin( address _proxyAdmin) public onlyAccessHub {\r\n        proxyAdmin = _proxyAdmin;\r\n        emit newProxyAdmin(_proxyAdmin);\r\n\r\n    }\r\n    function setGSNAllowed(address _newGSNAddress) public onlyAccessHub {\r\n        allowedGSNAddress = _newGSNAddress;\r\n    }\r\n    function acceptRelayedCall(\r\n        address relay,\r\n        address from,\r\n        bytes calldata encodedFunction,\r\n        uint256 transactionFee,\r\n        uint256 gasPrice,\r\n        uint256 gasLimit,\r\n        uint256 nonce,\r\n        bytes calldata approvalData,\r\n        uint256 maxPossibleCharge\r\n    ) external view returns (uint256, bytes memory)  {\r\n\r\n        //emit emittedMsgSender(_msgSender());\r\n        //emit emittedAllowedAddress(allowedAddress);\r\n        if(from == allowedGSNAddress){\r\n            return _approveRelayedCall();\r\n\r\n        }\r\n        else {\r\n            return _rejectRelayedCall(uint256(0));\r\n        }\r\n    }\r\n\r\n    function _preRelayedCall(bytes memory context) internal returns (bytes32) {\r\n\r\n    }\r\n\r\n    function _postRelayedCall(bytes memory context, bool, uint256 actualCharge, bytes32) internal {\r\n\r\n    }\r\n\r\n    function setRelayHubAddress() public {\r\n        if(getHubAddr() == address(0)) {\r\n            _upgradeRelayHub(0xD216153c06E857cD7f72665E0aF1d7D82172F494);\r\n        }\r\n    }\r\n\r\n    function getRecipientBalance() public view returns (uint) {\r\n        return IRelayHub(getHubAddr()).balanceOf(address(this));\r\n    }\r\n\r\n}\r\n",
  "sourcePath": "contracts/RoomState/RoomState.sol",
  "abi": [
    {
      "inputs": [],
      "payable": false,
      "stateMutability": "nonpayable",
      "type": "constructor"
    },
    {
      "anonymous": false,
      "inputs": [
        {
          "indexed": true,
          "internalType": "address",
          "name": "previousOwner",
          "type": "address"
        },
        {
          "indexed": true,
          "internalType": "address",
          "name": "newOwner",
          "type": "address"
        }
      ],
      "name": "OwnershipTransferred",
      "type": "event"
    },
    {
      "anonymous": false,
      "inputs": [
        {
          "indexed": true,
          "internalType": "address",
          "name": "oldRelayHub",
          "type": "address"
        },
        {
          "indexed": true,
          "internalType": "address",
          "name": "newRelayHub",
          "type": "address"
        }
      ],
      "name": "RelayHubChanged",
      "type": "event"
    },
    {
      "anonymous": false,
      "inputs": [
        {
          "indexed": false,
          "internalType": "string",
          "name": "creezyID",
          "type": "string"
        }
      ],
      "name": "delCreezy",
      "type": "event"
    },
    {
      "anonymous": false,
      "inputs": [
        {
          "indexed": false,
          "internalType": "string",
          "name": "groupID",
          "type": "string"
        },
        {
          "indexed": false,
          "internalType": "uint256",
          "name": "groupIndex",
          "type": "uint256"
        }
      ],
      "name": "groupDeleted",
      "type": "event"
    },
    {
      "anonymous": false,
      "inputs": [
        {
          "indexed": false,
          "internalType": "string",
          "name": "creezyID",
          "type": "string"
        },
        {
          "indexed": false,
          "internalType": "address[]",
          "name": "newCreezyLEDs",
          "type": "address[]"
        }
      ],
      "name": "newCreezy",
      "type": "event"
    },
    {
      "anonymous": false,
      "inputs": [
        {
          "indexed": false,
          "internalType": "string",
          "name": "creezyID",
          "type": "string"
        },
        {
          "indexed": false,
          "internalType": "string",
          "name": "coapAddress",
          "type": "string"
        }
      ],
      "name": "newCreezyCoapAddr",
      "type": "event"
    },
    {
      "anonymous": false,
      "inputs": [
        {
          "indexed": false,
          "internalType": "string",
          "name": "creezyID",
          "type": "string"
        },
        {
          "indexed": false,
          "internalType": "uint256",
          "name": "numLEDs",
          "type": "uint256"
        }
      ],
      "name": "newCreezyNumLEDs",
      "type": "event"
    },
    {
      "anonymous": false,
      "inputs": [
        {
          "indexed": false,
          "internalType": "string",
          "name": "creezyID",
          "type": "string"
        },
        {
          "indexed": false,
          "internalType": "uint256",
          "name": "numUniverses",
          "type": "uint256"
        }
      ],
      "name": "newCreezyNumUniverses",
      "type": "event"
    },
    {
      "anonymous": false,
      "inputs": [
        {
          "indexed": false,
          "internalType": "string",
          "name": "groupID",
          "type": "string"
        },
        {
          "indexed": false,
          "internalType": "uint256",
          "name": "groupIndex",
          "type": "uint256"
        }
      ],
      "name": "newGroup",
      "type": "event"
    },
    {
      "anonymous": false,
      "inputs": [
        {
          "indexed": false,
          "internalType": "address",
          "name": "_newLED",
          "type": "address"
        }
      ],
      "name": "newLED",
      "type": "event"
    },
    {
      "anonymous": false,
      "inputs": [
        {
          "indexed": false,
          "internalType": "address",
          "name": "_newProxyAdmin",
          "type": "address"
        }
      ],
      "name": "newProxyAdmin",
      "type": "event"
    },
    {
      "anonymous": false,
      "inputs": [
        {
          "indexed": false,
          "internalType": "address",
          "name": "roomAddr",
          "type": "address"
        }
      ],
      "name": "newRoom",
      "type": "event"
    },
    {
      "anonymous": false,
      "inputs": [
        {
          "indexed": false,
          "internalType": "bytes",
          "name": "_payLoadData",
          "type": "bytes"
        }
      ],
      "name": "payloadDataPacked",
      "type": "event"
    },
    {
      "constant": true,
      "inputs": [
        {
          "internalType": "address",
          "name": "relay",
          "type": "address"
        },
        {
          "internalType": "address",
          "name": "from",
          "type": "address"
        },
        {
          "internalType": "bytes",
          "name": "encodedFunction",
          "type": "bytes"
        },
        {
          "internalType": "uint256",
          "name": "transactionFee",
          "type": "uint256"
        },
        {
          "internalType": "uint256",
          "name": "gasPrice",
          "type": "uint256"
        },
        {
          "internalType": "uint256",
          "name": "gasLimit",
          "type": "uint256"
        },
        {
          "internalType": "uint256",
          "name": "nonce",
          "type": "uint256"
        },
        {
          "internalType": "bytes",
          "name": "approvalData",
          "type": "bytes"
        },
        {
          "internalType": "uint256",
          "name": "maxPossibleCharge",
          "type": "uint256"
        }
      ],
      "name": "acceptRelayedCall",
      "outputs": [
        {
          "internalType": "uint256",
          "name": "",
          "type": "uint256"
        },
        {
          "internalType": "bytes",
          "name": "",
          "type": "bytes"
        }
      ],
      "payable": false,
      "stateMutability": "view",
      "type": "function"
    },
    {
      "constant": false,
      "inputs": [
        {
          "internalType": "string",
          "name": "_creezyId",
          "type": "string"
        },
        {
          "internalType": "uint256",
          "name": "_new_numLEDs",
          "type": "uint256"
        },
        {
          "internalType": "address",
          "name": "contractOwner",
          "type": "address"
        },
        {
          "internalType": "uint256",
          "name": "_ledWattage",
          "type": "uint256"
        }
      ],
      "name": "addAndUpdateCreezyLEDs",
      "outputs": [],
      "payable": false,
      "stateMutability": "nonpayable",
      "type": "function"
    },
    {
      "constant": false,
      "inputs": [
        {
          "internalType": "string",
          "name": "_coapAddr",
          "type": "string"
        },
        {
          "internalType": "string",
          "name": "_creezyId",
          "type": "string"
        },
        {
          "internalType": "uint256",
          "name": "_numLEDs",
          "type": "uint256"
        },
        {
          "internalType": "address",
          "name": "_accessHub",
          "type": "address"
        },
        {
          "internalType": "uint256",
          "name": "_numUniverses",
          "type": "uint256"
        },
        {
          "internalType": "uint256",
          "name": "_ledWattage",
          "type": "uint256"
        }
      ],
      "name": "addCreezy",
      "outputs": [],
      "payable": false,
      "stateMutability": "nonpayable",
      "type": "function"
    },
    {
      "constant": false,
      "inputs": [
        {
          "internalType": "string",
          "name": "_groupString",
          "type": "string"
        },
        {
          "internalType": "address[]",
          "name": "LEDs",
          "type": "address[]"
        }
      ],
      "name": "addCreezyGroup",
      "outputs": [],
      "payable": false,
      "stateMutability": "nonpayable",
      "type": "function"
    },
    {
      "constant": false,
      "inputs": [
        {
          "internalType": "bool",
          "name": "_defaultState",
          "type": "bool"
        },
        {
          "internalType": "address",
          "name": "_roomContract",
          "type": "address"
        },
        {
          "internalType": "address",
          "name": "_accessHub",
          "type": "address"
        },
        {
          "internalType": "uint256",
          "name": "_daliAddress",
          "type": "uint256"
        },
        {
          "internalType": "uint256",
          "name": "_ledDim",
          "type": "uint256"
        },
        {
          "internalType": "uint256",
          "name": "_ledWattage",
          "type": "uint256"
        }
      ],
      "name": "addLED",
      "outputs": [
        {
          "internalType": "address",
          "name": "newLEDAddress",
          "type": "address"
        }
      ],
      "payable": false,
      "stateMutability": "nonpayable",
      "type": "function"
    },
    {
      "constant": true,
      "inputs": [],
      "name": "credentials",
      "outputs": [
        {
          "internalType": "contract AccessHubInterface",
          "name": "",
          "type": "address"
        }
      ],
      "payable": false,
      "stateMutability": "view",
      "type": "function"
    },
    {
      "constant": true,
      "inputs": [
        {
          "internalType": "string",
          "name": "",
          "type": "string"
        }
      ],
      "name": "creezyIdtoCreezyIndex",
      "outputs": [
        {
          "internalType": "uint256",
          "name": "",
          "type": "uint256"
        }
      ],
      "payable": false,
      "stateMutability": "view",
      "type": "function"
    },
    {
      "constant": true,
      "inputs": [
        {
          "internalType": "uint256",
          "name": "",
          "type": "uint256"
        }
      ],
      "name": "creezyIndextoCreezyData",
      "outputs": [
        {
          "internalType": "string",
          "name": "coapAddress",
          "type": "string"
        },
        {
          "internalType": "string",
          "name": "creezyID",
          "type": "string"
        },
        {
          "internalType": "uint256",
          "name": "numLEDs",
          "type": "uint256"
        },
        {
          "internalType": "uint256",
          "name": "numUniverses",
          "type": "uint256"
        },
        {
          "internalType": "bool",
          "name": "isActive",
          "type": "bool"
        }
      ],
      "payable": false,
      "stateMutability": "view",
      "type": "function"
    },
    {
      "constant": true,
      "inputs": [
        {
          "internalType": "uint256",
          "name": "",
          "type": "uint256"
        }
      ],
      "name": "creezyPis",
      "outputs": [
        {
          "internalType": "string",
          "name": "coapAddress",
          "type": "string"
        },
        {
          "internalType": "string",
          "name": "creezyID",
          "type": "string"
        },
        {
          "internalType": "uint256",
          "name": "numLEDs",
          "type": "uint256"
        },
        {
          "internalType": "uint256",
          "name": "numUniverses",
          "type": "uint256"
        },
        {
          "internalType": "bool",
          "name": "isActive",
          "type": "bool"
        }
      ],
      "payable": false,
      "stateMutability": "view",
      "type": "function"
    },
    {
      "constant": true,
      "inputs": [],
      "name": "getCreezyCount",
      "outputs": [
        {
          "internalType": "uint256",
          "name": "creezyCount",
          "type": "uint256"
        }
      ],
      "payable": false,
      "stateMutability": "view",
      "type": "function"
    },
    {
      "constant": true,
      "inputs": [
        {
          "internalType": "string",
          "name": "_groupId",
          "type": "string"
        }
      ],
      "name": "getGroupAddresses",
      "outputs": [
        {
          "internalType": "address[]",
          "name": "",
          "type": "address[]"
        }
      ],
      "payable": false,
      "stateMutability": "view",
      "type": "function"
    },
    {
      "constant": true,
      "inputs": [],
      "name": "getGroupCount",
      "outputs": [
        {
          "internalType": "uint256",
          "name": "groupCount",
          "type": "uint256"
        }
      ],
      "payable": false,
      "stateMutability": "view",
      "type": "function"
    },
    {
      "constant": true,
      "inputs": [],
      "name": "getHubAddr",
      "outputs": [
        {
          "internalType": "address",
          "name": "",
          "type": "address"
        }
      ],
      "payable": false,
      "stateMutability": "view",
      "type": "function"
    },
    {
      "constant": true,
      "inputs": [],
      "name": "getLEDCount",
      "outputs": [
        {
          "internalType": "uint256",
          "name": "LEDCount",
          "type": "uint256"
        }
      ],
      "payable": false,
      "stateMutability": "view",
      "type": "function"
    },
    {
      "constant": true,
      "inputs": [],
      "name": "getRecipientBalance",
      "outputs": [
        {
          "internalType": "uint256",
          "name": "",
          "type": "uint256"
        }
      ],
      "payable": false,
      "stateMutability": "view",
      "type": "function"
    },
    {
      "constant": false,
      "inputs": [
        {
          "internalType": "uint256",
          "name": "_newDim",
          "type": "uint256"
        },
        {
          "internalType": "address[]",
          "name": "LEDAddresses",
          "type": "address[]"
        }
      ],
      "name": "groupDimPlate",
      "outputs": [],
      "payable": false,
      "stateMutability": "nonpayable",
      "type": "function"
    },
    {
      "constant": true,
      "inputs": [
        {
          "internalType": "uint256",
          "name": "",
          "type": "uint256"
        }
      ],
      "name": "groupIndextoGroupData",
      "outputs": [
        {
          "internalType": "uint256",
          "name": "count",
          "type": "uint256"
        },
        {
          "internalType": "bool",
          "name": "isActive",
          "type": "bool"
        },
        {
          "internalType": "string",
          "name": "groupName",
          "type": "string"
        }
      ],
      "payable": false,
      "stateMutability": "view",
      "type": "function"
    },
    {
      "constant": true,
      "inputs": [
        {
          "internalType": "string",
          "name": "",
          "type": "string"
        }
      ],
      "name": "groupNametoGroupIndex",
      "outputs": [
        {
          "internalType": "uint256",
          "name": "",
          "type": "uint256"
        }
      ],
      "payable": false,
      "stateMutability": "view",
      "type": "function"
    },
    {
      "constant": true,
      "inputs": [
        {
          "internalType": "string",
          "name": "",
          "type": "string"
        }
      ],
      "name": "groupNametoParentCreezyPi",
      "outputs": [
        {
          "internalType": "string",
          "name": "coapAddress",
          "type": "string"
        },
        {
          "internalType": "string",
          "name": "creezyID",
          "type": "string"
        },
        {
          "internalType": "uint256",
          "name": "numLEDs",
          "type": "uint256"
        },
        {
          "internalType": "uint256",
          "name": "numUniverses",
          "type": "uint256"
        },
        {
          "internalType": "bool",
          "name": "isActive",
          "type": "bool"
        }
      ],
      "payable": false,
      "stateMutability": "view",
      "type": "function"
    },
    {
      "constant": false,
      "inputs": [
        {
          "internalType": "bool",
          "name": "_newState",
          "type": "bool"
        },
        {
          "internalType": "address[]",
          "name": "LEDAddresses",
          "type": "address[]"
        }
      ],
      "name": "groupSwitchPlate",
      "outputs": [],
      "payable": false,
      "stateMutability": "nonpayable",
      "type": "function"
    },
    {
      "constant": false,
      "inputs": [],
      "name": "initialize",
      "outputs": [],
      "payable": false,
      "stateMutability": "nonpayable",
      "type": "function"
    },
    {
      "constant": false,
      "inputs": [
        {
          "internalType": "address",
          "name": "LEDFactory",
          "type": "address"
        },
        {
          "internalType": "address",
          "name": "_accessHub",
          "type": "address"
        },
        {
          "internalType": "address",
          "name": "_allowedGSNAddress",
          "type": "address"
        }
      ],
      "name": "initialize",
      "outputs": [],
      "payable": false,
      "stateMutability": "nonpayable",
      "type": "function"
    },
    {
      "constant": false,
      "inputs": [
        {
          "internalType": "address",
          "name": "sender",
          "type": "address"
        }
      ],
      "name": "initialize",
      "outputs": [],
      "payable": false,
      "stateMutability": "nonpayable",
      "type": "function"
    },
    {
      "constant": true,
      "inputs": [],
      "name": "isOwner",
      "outputs": [
        {
          "internalType": "bool",
          "name": "",
          "type": "bool"
        }
      ],
      "payable": false,
      "stateMutability": "view",
      "type": "function"
    },
    {
      "constant": true,
      "inputs": [],
      "name": "owner",
      "outputs": [
        {
          "internalType": "address",
          "name": "",
          "type": "address"
        }
      ],
      "payable": false,
      "stateMutability": "view",
      "type": "function"
    },
    {
      "constant": false,
      "inputs": [
        {
          "internalType": "bytes",
          "name": "context",
          "type": "bytes"
        },
        {
          "internalType": "bool",
          "name": "success",
          "type": "bool"
        },
        {
          "internalType": "uint256",
          "name": "actualCharge",
          "type": "uint256"
        },
        {
          "internalType": "bytes32",
          "name": "preRetVal",
          "type": "bytes32"
        }
      ],
      "name": "postRelayedCall",
      "outputs": [],
      "payable": false,
      "stateMutability": "nonpayable",
      "type": "function"
    },
    {
      "constant": false,
      "inputs": [
        {
          "internalType": "bytes",
          "name": "context",
          "type": "bytes"
        }
      ],
      "name": "preRelayedCall",
      "outputs": [
        {
          "internalType": "bytes32",
          "name": "",
          "type": "bytes32"
        }
      ],
      "payable": false,
      "stateMutability": "nonpayable",
      "type": "function"
    },
    {
      "constant": true,
      "inputs": [],
      "name": "proxyAdmin",
      "outputs": [
        {
          "internalType": "address",
          "name": "",
          "type": "address"
        }
      ],
      "payable": false,
      "stateMutability": "view",
      "type": "function"
    },
    {
      "constant": true,
      "inputs": [],
      "name": "relayHubVersion",
      "outputs": [
        {
          "internalType": "string",
          "name": "",
          "type": "string"
        }
      ],
      "payable": false,
      "stateMutability": "view",
      "type": "function"
    },
    {
      "constant": false,
      "inputs": [
        {
          "internalType": "string",
          "name": "_creezyId",
          "type": "string"
        }
      ],
      "name": "removeCreezy",
      "outputs": [],
      "payable": false,
      "stateMutability": "nonpayable",
      "type": "function"
    },
    {
      "constant": false,
      "inputs": [
        {
          "internalType": "string",
          "name": "_groupString",
          "type": "string"
        }
      ],
      "name": "removeGroup",
      "outputs": [],
      "payable": false,
      "stateMutability": "nonpayable",
      "type": "function"
    },
    {
      "constant": false,
      "inputs": [],
      "name": "renounceOwnership",
      "outputs": [],
      "payable": false,
      "stateMutability": "nonpayable",
      "type": "function"
    },
    {
      "constant": true,
      "inputs": [
        {
          "internalType": "uint256",
          "name": "",
          "type": "uint256"
        }
      ],
      "name": "roomGroups",
      "outputs": [
        {
          "internalType": "uint256",
          "name": "count",
          "type": "uint256"
        },
        {
          "internalType": "bool",
          "name": "isActive",
          "type": "bool"
        },
        {
          "internalType": "string",
          "name": "groupName",
          "type": "string"
        }
      ],
      "payable": false,
      "stateMutability": "view",
      "type": "function"
    },
    {
      "constant": true,
      "inputs": [
        {
          "internalType": "uint256",
          "name": "",
          "type": "uint256"
        }
      ],
      "name": "roomLEDs",
      "outputs": [
        {
          "internalType": "address",
          "name": "",
          "type": "address"
        }
      ],
      "payable": false,
      "stateMutability": "view",
      "type": "function"
    },
    {
      "constant": true,
      "inputs": [
        {
          "internalType": "uint256",
          "name": "",
          "type": "uint256"
        }
      ],
      "name": "roomUniverses",
      "outputs": [
        {
          "internalType": "uint256",
          "name": "count",
          "type": "uint256"
        },
        {
          "internalType": "bool",
          "name": "isActive",
          "type": "bool"
        },
        {
          "internalType": "string",
          "name": "groupName",
          "type": "string"
        }
      ],
      "payable": false,
      "stateMutability": "view",
      "type": "function"
    },
    {
      "constant": false,
      "inputs": [],
      "name": "setDefaultRelayHub",
      "outputs": [],
      "payable": false,
      "stateMutability": "nonpayable",
      "type": "function"
    },
    {
      "constant": false,
      "inputs": [
        {
          "internalType": "address",
          "name": "_newGSNAddress",
          "type": "address"
        }
      ],
      "name": "setGSNAllowed",
      "outputs": [],
      "payable": false,
      "stateMutability": "nonpayable",
      "type": "function"
    },
    {
      "constant": false,
      "inputs": [
        {
          "internalType": "address",
          "name": "_proxyAdmin",
          "type": "address"
        }
      ],
      "name": "setProxyAdmin",
      "outputs": [],
      "payable": false,
      "stateMutability": "nonpayable",
      "type": "function"
    },
    {
      "constant": false,
      "inputs": [],
      "name": "setRelayHubAddress",
      "outputs": [],
      "payable": false,
      "stateMutability": "nonpayable",
      "type": "function"
    },
    {
      "constant": false,
      "inputs": [
        {
          "internalType": "address",
          "name": "newOwner",
          "type": "address"
        }
      ],
      "name": "transferOwnership",
      "outputs": [],
      "payable": false,
      "stateMutability": "nonpayable",
      "type": "function"
    },
    {
      "constant": false,
      "inputs": [
        {
          "internalType": "string",
          "name": "_creezyId",
          "type": "string"
        },
        {
          "internalType": "string",
          "name": "_coapAddr",
          "type": "string"
        }
      ],
      "name": "updateCreezyCoap",
      "outputs": [],
      "payable": false,
      "stateMutability": "nonpayable",
      "type": "function"
    }
  ],
  "bytecode": "0x608060405234801561001057600080fd5b50614783806100206000396000f3fe608060405234801561001057600080fd5b50600436106102d25760003560e01c806381c38f0911610186578063c0c53b8b116100e3578063daf34add11610097578063f2fde38b11610071578063f2fde38b146111f3578063fcec049e14611219578063fd631ab4146112bd576102d2565b8063daf34add1461113d578063dd5f53dc1461115a578063e06e0e2214611177576102d2565b8063cac0204e116100c8578063cac0204e146110f2578063ceaee8c11461110f578063d3c7fb8414611135576102d2565b8063c0c53b8b14611094578063c4d66de8146110cc576102d2565b8063927df9981161013a5780639e7ed9e91161011f5780639e7ed9e914610ee9578063ac5704111461100f578063ad61ccd514611017576102d2565b8063927df99814610e375780639496da9514610e3f576102d2565b80638da5cb5b1161016b5780638da5cb5b14610df65780638f32d59b14610dfe5780639228862e14610e1a576102d2565b806381c38f0914610be557806383947ea014610c89576102d2565b80634dcbfec5116102345780637406c6f5116101e857806380274db7116101cd57806380274db714610ac85780638129fc1c14610b3657806381a13a4214610b3e576102d2565b80637406c6f514610a1c57806374e861d614610ac0576102d2565b806364e3e8251161021957806364e3e825146109c257806369f67778146109ca578063715018a614610a14576102d2565b80634dcbfec5146107db5780636246b3101461091e576102d2565b8063288a367c1161028b5780633e47158c116102705780633e47158c14610668578063443e9cb91461068c57806347c02661146107b5576102d2565b8063288a367c146104cc5780632aea40b414610574576102d2565b80631220e2ff116102bc5780631220e2ff146102f95780632771bff414610303578063285f568e146103bb576102d2565b8062faa8e3146102d757806306545a93146102f1575b600080fd5b6102df611361565b60408051918252519081900360200190f35b6102df611368565b61030161136e565b005b6103016004803603608081101561031957600080fd5b810190602081018135600160201b81111561033357600080fd5b82018360208201111561034557600080fd5b803590602001918460018302840111600160201b8311171561036657600080fd5b91908080601f0160208091040260200160405190810160405280939291908181526020018383808284376000920191909152509295505082359350505060208101356001600160a01b0316906040013561138d565b6103d8600480360360208110156103d157600080fd5b50356117cb565b6040805190810184905260608101839052811515608082015260a08082528651908201528551819060208083019160c08401918a019080838360005b8381101561042c578181015183820152602001610414565b50505050905090810190601f1680156104595780820380516001836020036101000a031916815260200191505b50838103825287518152875160209182019189019080838360005b8381101561048c578181015183820152602001610474565b50505050905090810190601f1680156104b95780820380516001836020036101000a031916815260200191505b5097505050505050505060405180910390f35b610301600480360360408110156104e257600080fd5b81359190810190604081016020820135600160201b81111561050357600080fd5b82018360208201111561051557600080fd5b803590602001918460208302840111600160201b8311171561053657600080fd5b919080806020026020016040519081016040528093929190818152602001838360200280828437600092019190915250929550611921945050505050565b6106186004803603602081101561058a57600080fd5b810190602081018135600160201b8111156105a457600080fd5b8201836020820111156105b657600080fd5b803590602001918460018302840111600160201b831117156105d757600080fd5b91908080601f016020809104026020016040519081016040528093929190818152602001838380828437600092019190915250929550611add945050505050565b60408051602080825283518183015283519192839290830191858101910280838360005b8381101561065457818101518382015260200161063c565b505050509050019250505060405180910390f35b610670611bba565b604080516001600160a01b039092168252519081900360200190f35b610301600480360360408110156106a257600080fd5b810190602081018135600160201b8111156106bc57600080fd5b8201836020820111156106ce57600080fd5b803590602001918460018302840111600160201b831117156106ef57600080fd5b91908080601f0160208091040260200160405190810160405280939291908181526020018383808284376000920191909152509295949360208101935035915050600160201b81111561074157600080fd5b82018360208201111561075357600080fd5b803590602001918460018302840111600160201b8311171561077457600080fd5b91908080601f016020809104026020016040519081016040528093929190818152602001838380828437600092019190915250929550611bc9945050505050565b610301600480360360208110156107cb57600080fd5b50356001600160a01b0316611f95565b610301600480360360c08110156107f157600080fd5b810190602081018135600160201b81111561080b57600080fd5b82018360208201111561081d57600080fd5b803590602001918460018302840111600160201b8311171561083e57600080fd5b91908080601f0160208091040260200160405190810160405280939291908181526020018383808284376000920191909152509295949360208101935035915050600160201b81111561089057600080fd5b8201836020820111156108a257600080fd5b803590602001918460018302840111600160201b831117156108c357600080fd5b91908080601f0160208091040260200160405190810160405280939291908181526020018383808284376000920191909152509295505082359350506001600160a01b036020830135169160408101359150606001356120e0565b6103016004803603602081101561093457600080fd5b810190602081018135600160201b81111561094e57600080fd5b82018360208201111561096057600080fd5b803590602001918460018302840111600160201b8311171561098157600080fd5b91908080601f0160208091040260200160405190810160405280939291908181526020018383808284376000920191909152509295506126ed945050505050565b6102df612a4a565b610670600480360360c08110156109e057600080fd5b5080351515906001600160a01b03602082013581169160408101359091169060608101359060808101359060a00135612a50565b610301612e11565b6102df60048036036020811015610a3257600080fd5b810190602081018135600160201b811115610a4c57600080fd5b820183602082011115610a5e57600080fd5b803590602001918460018302840111600160201b83111715610a7f57600080fd5b91908080601f016020809104026020016040519081016040528093929190818152602001838380828437600092019190915250929550612eb4945050505050565b610670612ed1565b6102df60048036036020811015610ade57600080fd5b810190602081018135600160201b811115610af857600080fd5b820183602082011115610b0a57600080fd5b803590602001918460018302840111600160201b83111715610b2b57600080fd5b509092509050612ee0565b610301612f7f565b610b5b60048036036020811015610b5457600080fd5b5035613039565b604051808481526020018315151515815260200180602001828103825283818151815260200191508051906020019080838360005b83811015610ba8578181015183820152602001610b90565b50505050905090810190601f168015610bd55780820380516001836020036101000a031916815260200191505b5094505050505060405180910390f35b6103d860048036036020811015610bfb57600080fd5b810190602081018135600160201b811115610c1557600080fd5b820183602082011115610c2757600080fd5b803590602001918460018302840111600160201b83111715610c4857600080fd5b91908080601f0160208091040260200160405190810160405280939291908181526020018383808284376000920191909152509295506130f8945050505050565b610d776004803603610120811015610ca057600080fd5b6001600160a01b038235811692602081013590911691810190606081016040820135600160201b811115610cd357600080fd5b820183602082011115610ce557600080fd5b803590602001918460018302840111600160201b83111715610d0657600080fd5b9193909282359260208101359260408201359260608301359260a081019060800135600160201b811115610d3957600080fd5b820183602082011115610d4b57600080fd5b803590602001918460018302840111600160201b83111715610d6c57600080fd5b919350915035613170565b6040518083815260200180602001828103825283818151815260200191508051906020019080838360005b83811015610dba578181015183820152602001610da2565b50505050905090810190601f168015610de75780820380516001836020036101000a031916815260200191505b50935050505060405180910390f35b6106706131b7565b610e066131c6565b604080519115158252519081900360200190f35b610b5b60048036036020811015610e3057600080fd5b50356131ec565b6106706131f9565b61030160048036036040811015610e5557600080fd5b813515159190810190604081016020820135600160201b811115610e7857600080fd5b820183602082011115610e8a57600080fd5b803590602001918460208302840111600160201b83111715610eab57600080fd5b919080806020026020016040519081016040528093929190818152602001838360200280828437600092019190915250929550613208945050505050565b61030160048036036040811015610eff57600080fd5b810190602081018135600160201b811115610f1957600080fd5b820183602082011115610f2b57600080fd5b803590602001918460018302840111600160201b83111715610f4c57600080fd5b91908080601f0160208091040260200160405190810160405280939291908181526020018383808284376000920191909152509295949360208101935035915050600160201b811115610f9e57600080fd5b820183602082011115610fb057600080fd5b803590602001918460208302840111600160201b83111715610fd157600080fd5b9190808060200260200160405190810160405280939291908181526020018383602002808284376000920191909152509295506133c0945050505050565b6102df613836565b61101f6138c6565b6040805160208082528351818301528351919283929083019185019080838360005b83811015611059578181015183820152602001611041565b50505050905090810190601f1680156110865780820380516001836020036101000a031916815260200191505b509250505060405180910390f35b610301600480360360608110156110aa57600080fd5b506001600160a01b0381358116916020810135821691604090910135166138fd565b610301600480360360208110156110e257600080fd5b50356001600160a01b0316613a38565b6103d86004803603602081101561110857600080fd5b5035613b2a565b6103016004803603602081101561112557600080fd5b50356001600160a01b0316613ba5565b610301613cbe565b610b5b6004803603602081101561115357600080fd5b5035613cf4565b6106706004803603602081101561117057600080fd5b5035613d6e565b6103016004803603608081101561118d57600080fd5b810190602081018135600160201b8111156111a757600080fd5b8201836020820111156111b957600080fd5b803590602001918460018302840111600160201b831117156111da57600080fd5b9193509150803515159060208101359060400135613d95565b6103016004803603602081101561120957600080fd5b50356001600160a01b0316613e37565b6103016004803603602081101561122f57600080fd5b810190602081018135600160201b81111561124957600080fd5b82018360208201111561125b57600080fd5b803590602001918460018302840111600160201b8311171561127c57600080fd5b91908080601f016020809104026020016040519081016040528093929190818152602001838380828437600092019190915250929550613e99945050505050565b6102df600480360360208110156112d357600080fd5b810190602081018135600160201b8111156112ed57600080fd5b8201836020820111156112ff57600080fd5b803590602001918460018302840111600160201b8311171561132057600080fd5b91908080601f016020809104026020016040519081016040528093929190818152602001838380828437600092019190915250929550614185945050505050565b606f545b90565b606d5490565b61138b73d216153c06e857cd7f72665e0af1d7d82172f4946141a2565b565b6069546001600160a01b031663069e0a8a6113a66142a2565b6040805160e084901b6001600160e01b03191681526001600160a01b0392909216600483015260026024830152516044808301926020929190829003018186803b1580156113f357600080fd5b505afa158015611407573d6000803e3d6000fd5b505050506040513d602081101561141d57600080fd5b505180611449575061142d6131b7565b6001600160a01b031661143e6142a2565b6001600160a01b0316145b6114845760405162461bcd60e51b81526004018080602001828103825260248152602001806145816024913960400191505060405180910390fd5b607060006071866040518082805190602001908083835b602083106114ba5780518252601f19909201916020918201910161149b565b51815160001960209485036101000a019081169019919091161790529201948552506040805194859003820190942054855284019490945250016000206004015460ff16151560011490506115405760405162461bcd60e51b815260040180806020018281038252602b815260200180614724602b913960400191505060405180910390fd5b606061154b85611add565b905060608482510160405190808252806020026020018201604052801561157c578160200160208202803883390190505b50905060005b82518110156115cb5782818151811061159757fe5b60200260200101518282815181106115ab57fe5b6001600160a01b0390921660209283029190910190910152600101611582565b85835101811015611612576115e66000308784607b89612a50565b8282815181106115f257fe5b6001600160a01b03909216602092830291909101909101526001016115cb565b61161b876126ed565b61162587836133c0565b81516070600060718a6040518082805190602001908083835b6020831061165d5780518252601f19909201916020918201910161163e565b6001836020036101000a0380198251168184511680821785525050505050509050019150509081526020016040518091039020548152602001908152602001600020600201819055507f167ed693ac2733c06ef6e52e3df15ea7556626ff0ead00ee1293f577be7aabb0876070600060718b6040518082805190602001908083835b602083106116fe5780518252601f1990920191602091820191016116df565b6001836020036101000a0380198251168184511680821785525050505050509050019150509081526020016040518091039020548152602001908152602001600020600201546040518080602001838152602001828103825284818151815260200191508051906020019080838360005b8381101561178757818101518382015260200161176f565b50505050905090810190601f1680156117b45780820380516001836020036101000a031916815260200191505b50935050505060405180910390a150505050505050565b60706020908152600091825260409182902080548351601f600260001961010060018616150201909316929092049182018490048402810184019094528084529092918391908301828280156118625780601f1061183757610100808354040283529160200191611862565b820191906000526020600020905b81548152906001019060200180831161184557829003601f168201915b505050505090806001018054600181600116156101000203166002900480601f0160208091040260200160405190810160405280929190818152602001828054600181600116156101000203166002900480156119005780601f106118d557610100808354040283529160200191611900565b820191906000526020600020905b8154815290600101906020018083116118e357829003601f168201915b50505050600283015460038401546004909401549293909290915060ff1685565b6069546001600160a01b031663069e0a8a61193a6142a2565b6040805160e084901b6001600160e01b03191681526001600160a01b0392909216600483015260026024830152516044808301926020929190829003018186803b15801561198757600080fd5b505afa15801561199b573d6000803e3d6000fd5b505050506040513d60208110156119b157600080fd5b5051806119dd57506119c16131b7565b6001600160a01b03166119d26142a2565b6001600160a01b0316145b611a185760405162461bcd60e51b81526004018080602001828103825260248152602001806145816024913960400191505060405180910390fd5b60005b8151811015611ad857818181518110611a3057fe5b6020908102919091010151606880546001600160a01b0319166001600160a01b039283161790819055604080517f80db359800000000000000000000000000000000000000000000000000000000815260048101879052905191909216916380db359891602480830192600092919082900301818387803b158015611ab457600080fd5b505af1158015611ac8573d6000803e3d6000fd5b505060019092019150611a1b9050565b505050565b6060607260006073846040518082805190602001908083835b60208310611b155780518252601f199092019160209182019101611af6565b6001836020036101000a0380198251168184511680821785525050505050509050019150509081526020016040518091039020548152602001908152602001600020600101805480602002602001604051908101604052809291908181526020018280548015611bae57602002820191906000526020600020905b81546001600160a01b03168152600190910190602001808311611b90575b50505050509050919050565b606a546001600160a01b031681565b6069546001600160a01b031663069e0a8a611be26142a2565b6040805160e084901b6001600160e01b03191681526001600160a01b0392909216600483015260026024830152516044808301926020929190829003018186803b158015611c2f57600080fd5b505afa158015611c43573d6000803e3d6000fd5b505050506040513d6020811015611c5957600080fd5b505180611c855750611c696131b7565b6001600160a01b0316611c7a6142a2565b6001600160a01b0316145b611cc05760405162461bcd60e51b81526004018080602001828103825260248152602001806145816024913960400191505060405180910390fd5b607060006071846040518082805190602001908083835b60208310611cf65780518252601f199092019160209182019101611cd7565b51815160001960209485036101000a019081169019919091161790529201948552506040805194859003820190942054855284019490945250016000206004015460ff1615156001149050611d7c5760405162461bcd60e51b815260040180806020018281038252602b81526020018061467a602b913960400191505060405180910390fd5b80607060006071856040518082805190602001908083835b60208310611db35780518252601f199092019160209182019101611d94565b51815160209384036101000a600019018019909216911617905292019485525060408051948590038201909420548552848101959095525050016000208251611e029391929190910190614408565b507fdf215647433da5f74018e9b74b416f26aed82332c5c64888c2e19f58efce507282607060006071866040518082805190602001908083835b60208310611e5b5780518252601f199092019160209182019101611e3c565b6001836020036101000a0380198251168184511680821785525050505050509050019150509081526020016040518091039020548152602001908152602001600020600001604051808060200180602001838103835285818151815260200191508051906020019080838360005b83811015611ee1578181015183820152602001611ec9565b50505050905090810190601f168015611f0e5780820380516001836020036101000a031916815260200191505b50838103825284546002600019610100600184161502019091160480825260209091019085908015611f815780601f10611f5657610100808354040283529160200191611f81565b820191906000526020600020905b815481529060010190602001808311611f6457829003601f168201915b505094505050505060405180910390a15050565b6069546001600160a01b031663069e0a8a611fae6142a2565b6040805160e084901b6001600160e01b03191681526001600160a01b0392909216600483015260026024830152516044808301926020929190829003018186803b158015611ffb57600080fd5b505afa15801561200f573d6000803e3d6000fd5b505050506040513d602081101561202557600080fd5b50518061205157506120356131b7565b6001600160a01b03166120466142a2565b6001600160a01b0316145b61208c5760405162461bcd60e51b81526004018080602001828103825260248152602001806145816024913960400191505060405180910390fd5b606a80546001600160a01b0383166001600160a01b0319909116811790915560408051918252517f6946d4ce6ea07b42684d639cbf6ac64603390f99027f1e4fc7fb2ad95eb182d69181900360200190a150565b6069546001600160a01b031663069e0a8a6120f96142a2565b6040805160e084901b6001600160e01b03191681526001600160a01b0392909216600483015260026024830152516044808301926020929190829003018186803b15801561214657600080fd5b505afa15801561215a573d6000803e3d6000fd5b505050506040513d602081101561217057600080fd5b50518061219c57506121806131b7565b6001600160a01b03166121916142a2565b6001600160a01b0316145b6121d75760405162461bcd60e51b81526004018080602001828103825260248152602001806145816024913960400191505060405180910390fd5b607060006071876040518082805190602001908083835b6020831061220d5780518252601f1990920191602091820191016121ee565b51815160209384036101000a60001901801990921691161790529201948552506040805194859003820190942054855284019490945250016000206004015460ff1615905061228d5760405162461bcd60e51b81526004018080602001828103825260298152602001806145a56029913960400191505060405180910390fd5b604084106122cc5760405162461bcd60e51b81526004018080602001828103825260328152602001806145f46032913960400191505060405180910390fd5b60048210612321576040805162461bcd60e51b815260206004820181905260248201527f546f6f206d616e7920556e697665727365732c206d6178696d756d2069732034604482015290519081900360640190fd5b60608460405190808252806020026020018201604052801561234d578160200160208202803883390190505b50905060005b858110156123975761236b6000308784607b88612a50565b82828151811061237757fe5b6001600160a01b0390921660209283029190910190910152600101612353565b506123a0614486565b506040805160a08101825288815260208082018990528183018890526060820186905260016080830152606f546000908152607082529290922081518051929384936123ef9284920190614408565b5060208281015180516124089260018501920190614408565b506040828101516002830155606083015160038301556080909201516004909101805460ff1916911515919091179055606f54905188516071918a91819060208401908083835b6020831061246e5780518252601f19909201916020918201910161244f565b51815160001960209485036101000a019081169019919091161790529201948552506040519384900381019093209390935550606f80546001810180835560009290925284518051929450859360059092027f39f2babe526038520877fc7c33d81accf578af4a06c5fa6b0d038cae36e1271101926124f09284920190614408565b5060208281015180516125099260018501920190614408565b5060408201516002820155606082015160038201556080909101516004909101805460ff19169115159190911790555061254387836133c0565b806074886040518082805190602001908083835b602083106125765780518252601f199092019160209182019101612557565b51815160209384036101000a60001901801990921691161790529201948552506040519384900381019093208451805191946125b794508593500190614408565b5060208281015180516125d09260018501920190614408565b50604082015181600201556060820151816003015560808201518160040160006101000a81548160ff0219169083151502179055509050507f958744c2c6e9844b578e414fef63a756b939928a78f694ef398f4bad79c1cdac8783604051808060200180602001838103835285818151815260200191508051906020019080838360005b8381101561266c578181015183820152602001612654565b50505050905090810190601f1680156126995780820380516001836020036101000a031916815260200191505b508381038252845181528451602091820191808701910280838360005b838110156126ce5781810151838201526020016126b6565b5050505090500194505050505060405180910390a15050505050505050565b6069546001600160a01b031663069e0a8a6127066142a2565b6040805160e084901b6001600160e01b03191681526001600160a01b0392909216600483015260026024830152516044808301926020929190829003018186803b15801561275357600080fd5b505afa158015612767573d6000803e3d6000fd5b505050506040513d602081101561277d57600080fd5b5051806127a9575061278d6131b7565b6001600160a01b031661279e6142a2565b6001600160a01b0316145b6127e45760405162461bcd60e51b81526004018080602001828103825260248152602001806145816024913960400191505060405180910390fd5b607260006073836040518082805190602001908083835b6020831061281a5780518252601f1990920191602091820191016127fb565b51815160001960209485036101000a019081169019919091161790529201948552506040805194859003820190942054855284019490945250016000206002015460ff16151560011490506128b6576040805162461bcd60e51b815260206004820152601560248201527f47726f757020616c72656164792072656d6f7665640000000000000000000000604482015290519081900360640190fd5b6000607260006073846040518082805190602001908083835b602083106128ee5780518252601f1990920191602091820191016128cf565b6001836020036101000a038019825116818451168082178552505050505050905001915050908152602001604051809103902054815260200190815260200160002060020160006101000a81548160ff0219169083151502179055507f14d27183b88c64b05156f52255b5334d645d366e47242d37036ea1772d9cd3bf816073836040518082805190602001908083835b6020831061299e5780518252601f19909201916020918201910161297f565b51815160209384036101000a600019018019909216911617905292019485525060408051948590038201852054858301819052818652865191860191909152855190949350839250606083019186019080838360005b83811015612a0c5781810151838201526020016129f4565b50505050905090810190601f168015612a395780820380516001836020036101000a031916815260200191505b50935050505060405180910390a150565b606c5490565b6069546000906001600160a01b031663069e0a8a612a6c6142a2565b6040805160e084901b6001600160e01b03191681526001600160a01b0392909216600483015260026024830152516044808301926020929190829003018186803b158015612ab957600080fd5b505afa158015612acd573d6000803e3d6000fd5b505050506040513d6020811015612ae357600080fd5b505180612b0f5750612af36131b7565b6001600160a01b0316612b046142a2565b6001600160a01b0316145b612b4a5760405162461bcd60e51b81526004018080602001828103825260248152602001806145816024913960400191505060405180910390fd5b606b546040805189151560248201526001600160a01b03808a1660448301528089166064830152909216608483015260a4820186905260c4820185905260e4808301859052815180840390910181526101049092018152602082810180517bffffffffffffffffffffffffffffffffffffffffffffffffffffffff167fde38759700000000000000000000000000000000000000000000000000000000178152825182815284519281019290925283517fa37860fbbf810619fc7ee58efafe3300620295a885ce34748358289d5d11fcf69385939283929183019180838360005b83811015612c43578181015183820152602001612c2b565b50505050905090810190601f168015612c705780820380516001836020036101000a031916815260200191505b509250505060405180910390a1606754606a54604080517f593d01650000000000000000000000000000000000000000000000000000000081526001600160a01b039283166004820181815260248301938452865160448401528651600096959095169463593d016594929388939160649091019060208501908083838c5b83811015612d07578181015183820152602001612cef565b50505050905090810190601f168015612d345780820380516001836020036101000a031916815260200191505b509350505050602060405180830381600087803b158015612d5457600080fd5b505af1158015612d68573d6000803e3d6000fd5b505050506040513d6020811015612d7e57600080fd5b5051606c80546001810182556000919091527f2b4a51ab505fc96a0952efda2ba61bcd3078d4c02c39a186ec16f21883fbe0160180546001600160a01b0383166001600160a01b0319909116811790915560408051918252519192507f5b7c0630403b6d172ab7e8aa2be4e4b302620fb03230a795543b03fb9c184e60919081900360200190a198975050505050505050565b612e196131c6565b612e6a576040805162461bcd60e51b815260206004820181905260248201527f4f776e61626c653a2063616c6c6572206973206e6f7420746865206f776e6572604482015290519081900360640190fd5b6033546040516000916001600160a01b0316907f8be0079c531659141344cd1fd0a4f28419497f9722a3daafe3b4186f6b6457e0908390a3603380546001600160a01b0319169055565b805160208183018101805160738252928201919093012091525481565b6066546001600160a01b031690565b6000612eea612ed1565b6001600160a01b0316336001600160a01b031614612f395760405162461bcd60e51b81526004018080602001828103825260248152602001806147006024913960400191505060405180910390fd5b612f7883838080601f0160208091040260200160405190810160405280939291908181526020018383808284376000920191909152506142cd92505050565b9392505050565b600054610100900460ff1680612f985750612f986142d3565b80612fa6575060005460ff16155b612fe15760405162461bcd60e51b815260040180806020018281038252602e8152602001806146a5602e913960400191505060405180910390fd5b600054610100900460ff1615801561300c576000805460ff1961ff0019909116610100171660011790555b6066546001600160a01b03166130245761302461136e565b8015613036576000805461ff00191690555b50565b606e818154811061304657fe5b6000918252602091829020600490910201805460028083015460038401805460408051601f6000196001851615610100020190931695909504918201889004880285018801905280845293965060ff90911694919290918301828280156130ee5780601f106130c3576101008083540402835291602001916130ee565b820191906000526020600020905b8154815290600101906020018083116130d157829003601f168201915b5050505050905083565b805160208183018101805160748252928201938201939093209190925280546040805160026001841615610100026000190190931692909204601f81018590048502830185019091528082529192909183918301828280156118625780601f1061183757610100808354040283529160200191611862565b606b546000906060906001600160a01b038d81169116141561319d576131946142d9565b915091506131a7565b61319460006142fd565b9b509b9950505050505050505050565b6033546001600160a01b031690565b6033546000906001600160a01b03166131dd6142a2565b6001600160a01b031614905090565b606d818154811061304657fe5b6069546001600160a01b031681565b6069546001600160a01b031663069e0a8a6132216142a2565b6040805160e084901b6001600160e01b03191681526001600160a01b0392909216600483015260026024830152516044808301926020929190829003018186803b15801561326e57600080fd5b505afa158015613282573d6000803e3d6000fd5b505050506040513d602081101561329857600080fd5b5051806132c457506132a86131b7565b6001600160a01b03166132b96142a2565b6001600160a01b0316145b6132ff5760405162461bcd60e51b81526004018080602001828103825260248152602001806145816024913960400191505060405180910390fd5b60005b8151811015611ad85781818151811061331757fe5b6020908102919091010151606880546001600160a01b0319166001600160a01b039283161790819055604080517fb93f4e3400000000000000000000000000000000000000000000000000000000815286151560048201529051919092169163b93f4e3491602480830192600092919082900301818387803b15801561339c57600080fd5b505af11580156133b0573d6000803e3d6000fd5b5050600190920191506133029050565b6069546001600160a01b031663069e0a8a6133d96142a2565b6040805160e084901b6001600160e01b03191681526001600160a01b0392909216600483015260026024830152516044808301926020929190829003018186803b15801561342657600080fd5b505afa15801561343a573d6000803e3d6000fd5b505050506040513d602081101561345057600080fd5b50518061347c57506134606131b7565b6001600160a01b03166134716142a2565b6001600160a01b0316145b6134b75760405162461bcd60e51b81526004018080602001828103825260248152602001806145816024913960400191505060405180910390fd5b607260006073846040518082805190602001908083835b602083106134ed5780518252601f1990920191602091820191016134ce565b51815160209384036101000a60001901801990921691161790529201948552506040805194859003820190942054855284019490945250016000206002015460ff16159050613583576040805162461bcd60e51b815260206004820152601460248201527f47726f757020616c726561647920616374697665000000000000000000000000604482015290519081900360640190fd5b61358b6144b7565b5060408051608081018252825181526020808201848152600183850181905260608401879052606d546000908152607284529490942083518155905180519394859492936135de939185019201906144e1565b50604082015160028201805460ff191691151591909117905560608201518051613612916003840191602090910190614408565b50905050606d805490506073846040518082805190602001908083835b6020831061364e5780518252601f19909201916020918201910161362f565b51815160209384036101000a60001901801990921691161790529201948552506040519384900381019093209390935550606d80546001810180835560009290925284517f5006b838207c6a9ae9b84d68f467dd4bb5c305fbfb6b04eab8faaabeec1e18d86004909202918201908155858401518051939550869491936136fc937f5006b838207c6a9ae9b84d68f467dd4bb5c305fbfb6b04eab8faaabeec1e18d9019291909101906144e1565b50604082015160028201805460ff191691151591909117905560608201518051613730916003840191602090910190614408565b505050507f72cf2a0e43ef47815c3115927ecb10602b86c76f1d1dea089e04c68deda872ff836073856040518082805190602001908083835b602083106137885780518252601f199092019160209182019101613769565b51815160209384036101000a600019018019909216911617905292019485525060408051948590038201852054858301819052818652865191860191909152855190949350839250606083019186019080838360005b838110156137f65781810151838201526020016137de565b50505050905090810190601f1680156138235780820380516001836020036101000a031916815260200191505b50935050505060405180910390a1505050565b6000613840612ed1565b6001600160a01b03166370a08231306040518263ffffffff1660e01b815260040180826001600160a01b03166001600160a01b0316815260200191505060206040518083038186803b15801561389557600080fd5b505afa1580156138a9573d6000803e3d6000fd5b505050506040513d60208110156138bf57600080fd5b5051905090565b60408051808201909152600581527f312e302e30000000000000000000000000000000000000000000000000000000602082015290565b600054610100900460ff168061391657506139166142d3565b80613924575060005460ff16155b61395f5760405162461bcd60e51b815260040180806020018281038252602e8152602001806146a5602e913960400191505060405180910390fd5b600054610100900460ff1615801561398a576000805460ff1961ff0019909116610100171660011790555b606780546001600160a01b0319166001600160a01b0386161790556139ae83613a38565b606b80546001600160a01b0319166001600160a01b0384161790556139d1612f7f565b606980546001600160a01b0319166001600160a01b0385161790556040805130815290517f572af5fda5a5897bf005c36f082506c4e88315af04046e5d083dcdc6cce0bddf916020908290030190a18015613a32576000805461ff00191690555b50505050565b600054610100900460ff1680613a515750613a516142d3565b80613a5f575060005460ff16155b613a9a5760405162461bcd60e51b815260040180806020018281038252602e8152602001806146a5602e913960400191505060405180910390fd5b600054610100900460ff16158015613ac5576000805460ff1961ff0019909116610100171660011790555b603380546001600160a01b0319166001600160a01b0384811691909117918290556040519116906000907f8be0079c531659141344cd1fd0a4f28419497f9722a3daafe3b4186f6b6457e0908290a38015613b26576000805461ff00191690555b5050565b606f8181548110613b3757fe5b60009182526020918290206005919091020180546040805160026001841615610100026000190190931692909204601f8101859004850283018501909152808252919350918391908301828280156118625780601f1061183757610100808354040283529160200191611862565b6069546001600160a01b031663069e0a8a613bbe6142a2565b6040805160e084901b6001600160e01b03191681526001600160a01b0392909216600483015260026024830152516044808301926020929190829003018186803b158015613c0b57600080fd5b505afa158015613c1f573d6000803e3d6000fd5b505050506040513d6020811015613c3557600080fd5b505180613c615750613c456131b7565b6001600160a01b0316613c566142a2565b6001600160a01b0316145b613c9c5760405162461bcd60e51b81526004018080602001828103825260248152602001806145816024913960400191505060405180910390fd5b606b80546001600160a01b0319166001600160a01b0392909216919091179055565b6000613cc8612ed1565b6001600160a01b0316141561138b5761138b73d216153c06e857cd7f72665e0af1d7d82172f4946141a2565b607260209081526000918252604091829020805460028083015460038401805487516101006001831615026000190190911693909304601f8101879004870284018701909752868352929560ff909116949192918301828280156130ee5780601f106130c3576101008083540402835291602001916130ee565b606c8181548110613d7b57fe5b6000918252602090912001546001600160a01b0316905081565b613d9d612ed1565b6001600160a01b0316336001600160a01b031614613dec5760405162461bcd60e51b81526004018080602001828103825260248152602001806147006024913960400191505060405180910390fd5b613e3085858080601f016020809104026020016040519081016040528093929190818152602001838380828437600092019190915250879250869150859050613a32565b5050505050565b613e3f6131c6565b613e90576040805162461bcd60e51b815260206004820181905260248201527f4f776e61626c653a2063616c6c6572206973206e6f7420746865206f776e6572604482015290519081900360640190fd5b61303681614315565b6069546001600160a01b031663069e0a8a613eb26142a2565b6040805160e084901b6001600160e01b03191681526001600160a01b0392909216600483015260026024830152516044808301926020929190829003018186803b158015613eff57600080fd5b505afa158015613f13573d6000803e3d6000fd5b505050506040513d6020811015613f2957600080fd5b505180613f555750613f396131b7565b6001600160a01b0316613f4a6142a2565b6001600160a01b0316145b613f905760405162461bcd60e51b81526004018080602001828103825260248152602001806145816024913960400191505060405180910390fd5b607060006071836040518082805190602001908083835b60208310613fc65780518252601f199092019160209182019101613fa7565b51815160001960209485036101000a019081169019919091161790529201948552506040805194859003820190942054855284019490945250016000206004015460ff161515600114905061404c5760405162461bcd60e51b81526004018080602001828103825260268152602001806146546026913960400191505060405180910390fd5b614055816126ed565b6000607060006071846040518082805190602001908083835b6020831061408d5780518252601f19909201916020918201910161406e565b6001836020036101000a038019825116818451168082178552505050505050905001915050908152602001604051809103902054815260200190815260200160002060040160006101000a81548160ff0219169083151502179055507ff855b0ffcaf87ab4c080108f62477d0dd294d7b970435084e699519cda933c47816040518080602001828103825283818151815260200191508051906020019080838360005b83811015614148578181015183820152602001614130565b50505050905090810190601f1680156141755780820380516001836020036101000a031916815260200191505b509250505060405180910390a150565b805160208183018101805160718252928201919093012091525481565b6066546001600160a01b039081169082166141ee5760405162461bcd60e51b815260040180806020018281038252602e815260200180614626602e913960400191505060405180910390fd5b806001600160a01b0316826001600160a01b0316141561423f5760405162461bcd60e51b815260040180806020018281038252602d8152602001806146d3602d913960400191505060405180910390fd5b816001600160a01b0316816001600160a01b03167fb9f84b8e65164b14439ae3620df0a4d8786d896996c0282b683f9d8c08f046e860405160405180910390a350606680546001600160a01b0319166001600160a01b0392909216919091179055565b6066546000906001600160a01b031633146142be575033611365565b6142c66143b6565b9050611365565b50600090565b303b1590565b600060606142f560405180602001604052806000815250614403565b915091509091565b604080516020810190915260008152600b9190910191565b6001600160a01b03811661435a5760405162461bcd60e51b81526004018080602001828103825260268152602001806145ce6026913960400191505060405180910390fd5b6033546040516001600160a01b038084169216907f8be0079c531659141344cd1fd0a4f28419497f9722a3daafe3b4186f6b6457e090600090a3603380546001600160a01b0319166001600160a01b0392909216919091179055565b600060606000368080601f0160208091040260200160405190810160405280939291908181526020018383808284376000920191909152505050503601516001600160a01b031692915050565b600091565b828054600181600116156101000203166002900490600052602060002090601f016020900481019282601f1061444957805160ff1916838001178555614476565b82800160010185558215614476579182015b8281111561447657825182559160200191906001019061445b565b50614482929150614542565b5090565b6040518060a00160405280606081526020016060815260200160008152602001600081526020016000151581525090565b60405180608001604052806000815260200160608152602001600015158152602001606081525090565b828054828255906000526020600020908101928215614536579160200282015b8281111561453657825182546001600160a01b0319166001600160a01b03909116178255602090920191600190910190614501565b5061448292915061455c565b61136591905b808211156144825760008155600101614548565b61136591905b808211156144825780546001600160a01b031916815560010161456256fe43616c6c65722c206e6f74207265676973746572656420696e2061636365737320687562437265657a79494420416c7265616479204578697374732c2075736520757064617465437265657a794f776e61626c653a206e6577206f776e657220697320746865207a65726f2061646472657373546f6f206d616e79204c45447320666f7220612073696e676c6520756e6976657273652c206d6178696d756d20697320363447534e526563697069656e743a206e65772052656c617948756220697320746865207a65726f2061646472657373437265657a79494420646f6573206e6f742065786973742c2063616e6e6f742072656d6f7665437265657a79494420646f6573206e6f742065786973742c2063616e6e6f742075706461746520636f6170436f6e747261637420696e7374616e63652068617320616c7265616479206265656e20696e697469616c697a656447534e526563697069656e743a206e65772052656c6179487562206973207468652063757272656e74206f6e6547534e526563697069656e743a2063616c6c6572206973206e6f742052656c6179487562437265657a79494420646f6573206e6f742065786973742c2063616e6e6f7420757064617465204c454473a265627a7a723158209b20933b4b9a7c3b78183daf11076978c09de6b6e84ba4036f28deb9372a4a4464736f6c63430005110032",
  "compiler": {
    "name": "solc",
    "version": "0.5.17+commit.d19bba13.Emscripten.clang",
    "optimizer": {
      "enabled": true,
      "runs": 1000
    },
    "evmVersion": "petersburg"
  }
}