{
  "fileName": "SiteStateFactory.sol",
  "contractName": "SiteStateFactory",
  "source": "pragma solidity ^0.5.0;\r\n\r\nimport \"./SiteStateFactoryInterface.sol\";\r\nimport \"./SiteState.sol\";\r\n\r\n\r\nimport \"@openzeppelin/upgrades/contracts/Initializable.sol\";\r\nimport \"@openzeppelin/upgrades/contracts/application/App.sol\";\r\n\r\nimport \"@openzeppelin/contracts-ethereum-package/contracts/ownership/Ownable.sol\";\r\n\r\n\r\ncontract SiteStateFactory is SiteStateFactoryInterface, Initializable, Ownable {\r\n\r\n    address[] public SiteStates;\r\n    mapping(address => bool) public SiteStateExists;\r\n    mapping(address => bool) public ApprovedControlStates;\r\n    App private creolApp;\r\n\r\n\r\n    modifier onlyApprovedControlState(){\r\n        require(ApprovedControlStates[msg.sender] || msg.sender == owner(), \"not an approved control state\");\r\n        _;\r\n    }\r\n\r\n    event LogNewSiteState(address SiteState);\r\n    event newControlStateAddress(address _newControlState);\r\n    event removedControlStateAddress(address _oldControlState);\r\n    event newAppPackage(App _appPackage);\r\n\r\n\r\n    function initialize (address _owner,App _creolApp) public initializer {\r\n        Ownable.initialize(_owner);\r\n        setAppPackage(_creolApp);\r\n    }\r\n\r\n    function setAppPackage (App _appPackage) public onlyOwner {\r\n        creolApp = _appPackage;\r\n        emit newAppPackage(_appPackage);\r\n    }\r\n    function createSiteStateUpgradeable(address _proxyAdmin, bytes memory _encodedData) public onlyApprovedControlState returns (address) {\r\n        string memory packageName = \"creol-eth\";\r\n        string memory contractName = \"SiteState\";\r\n        address newSiteState = address(creolApp.create(packageName,contractName,_proxyAdmin, _encodedData));\r\n        SiteStates.push(newSiteState);\r\n        SiteStateExists[newSiteState] = true;\r\n\r\n        emit LogNewSiteState(newSiteState);\r\n\r\n        return newSiteState;\r\n    }\r\n    function addApprovedControlState(address _newControlStateAddress) public onlyApprovedControlState {\r\n        ApprovedControlStates[_newControlStateAddress] = true;\r\n        emit newControlStateAddress(_newControlStateAddress);\r\n    }\r\n    function removeApprovedControlState(address _oldControlStateAddress) public onlyApprovedControlState {\r\n        ApprovedControlStates[_oldControlStateAddress] = false;\r\n        emit removedControlStateAddress(_oldControlStateAddress);\r\n    }\r\n}\r\n",
  "sourcePath": "contracts/SiteState/SiteStateFactory.sol",
  "abi": [
    {
      "anonymous": false,
      "inputs": [
        {
          "indexed": false,
          "internalType": "address",
          "name": "SiteState",
          "type": "address"
        }
      ],
      "name": "LogNewSiteState",
      "type": "event"
    },
    {
      "anonymous": false,
      "inputs": [
        {
          "indexed": true,
          "internalType": "address",
          "name": "previousOwner",
          "type": "address"
        },
        {
          "indexed": true,
          "internalType": "address",
          "name": "newOwner",
          "type": "address"
        }
      ],
      "name": "OwnershipTransferred",
      "type": "event"
    },
    {
      "anonymous": false,
      "inputs": [
        {
          "indexed": false,
          "internalType": "contract App",
          "name": "_appPackage",
          "type": "address"
        }
      ],
      "name": "newAppPackage",
      "type": "event"
    },
    {
      "anonymous": false,
      "inputs": [
        {
          "indexed": false,
          "internalType": "address",
          "name": "_newControlState",
          "type": "address"
        }
      ],
      "name": "newControlStateAddress",
      "type": "event"
    },
    {
      "anonymous": false,
      "inputs": [
        {
          "indexed": false,
          "internalType": "address",
          "name": "_oldControlState",
          "type": "address"
        }
      ],
      "name": "removedControlStateAddress",
      "type": "event"
    },
    {
      "constant": true,
      "inputs": [
        {
          "internalType": "address",
          "name": "",
          "type": "address"
        }
      ],
      "name": "ApprovedControlStates",
      "outputs": [
        {
          "internalType": "bool",
          "name": "",
          "type": "bool"
        }
      ],
      "payable": false,
      "stateMutability": "view",
      "type": "function"
    },
    {
      "constant": true,
      "inputs": [
        {
          "internalType": "address",
          "name": "",
          "type": "address"
        }
      ],
      "name": "SiteStateExists",
      "outputs": [
        {
          "internalType": "bool",
          "name": "",
          "type": "bool"
        }
      ],
      "payable": false,
      "stateMutability": "view",
      "type": "function"
    },
    {
      "constant": true,
      "inputs": [
        {
          "internalType": "uint256",
          "name": "",
          "type": "uint256"
        }
      ],
      "name": "SiteStates",
      "outputs": [
        {
          "internalType": "address",
          "name": "",
          "type": "address"
        }
      ],
      "payable": false,
      "stateMutability": "view",
      "type": "function"
    },
    {
      "constant": false,
      "inputs": [
        {
          "internalType": "address",
          "name": "_newControlStateAddress",
          "type": "address"
        }
      ],
      "name": "addApprovedControlState",
      "outputs": [],
      "payable": false,
      "stateMutability": "nonpayable",
      "type": "function"
    },
    {
      "constant": false,
      "inputs": [
        {
          "internalType": "address",
          "name": "_proxyAdmin",
          "type": "address"
        },
        {
          "internalType": "bytes",
          "name": "_encodedData",
          "type": "bytes"
        }
      ],
      "name": "createSiteStateUpgradeable",
      "outputs": [
        {
          "internalType": "address",
          "name": "",
          "type": "address"
        }
      ],
      "payable": false,
      "stateMutability": "nonpayable",
      "type": "function"
    },
    {
      "constant": false,
      "inputs": [
        {
          "internalType": "address",
          "name": "_owner",
          "type": "address"
        },
        {
          "internalType": "contract App",
          "name": "_creolApp",
          "type": "address"
        }
      ],
      "name": "initialize",
      "outputs": [],
      "payable": false,
      "stateMutability": "nonpayable",
      "type": "function"
    },
    {
      "constant": false,
      "inputs": [
        {
          "internalType": "address",
          "name": "sender",
          "type": "address"
        }
      ],
      "name": "initialize",
      "outputs": [],
      "payable": false,
      "stateMutability": "nonpayable",
      "type": "function"
    },
    {
      "constant": true,
      "inputs": [],
      "name": "isOwner",
      "outputs": [
        {
          "internalType": "bool",
          "name": "",
          "type": "bool"
        }
      ],
      "payable": false,
      "stateMutability": "view",
      "type": "function"
    },
    {
      "constant": true,
      "inputs": [],
      "name": "owner",
      "outputs": [
        {
          "internalType": "address",
          "name": "",
          "type": "address"
        }
      ],
      "payable": false,
      "stateMutability": "view",
      "type": "function"
    },
    {
      "constant": false,
      "inputs": [
        {
          "internalType": "address",
          "name": "_oldControlStateAddress",
          "type": "address"
        }
      ],
      "name": "removeApprovedControlState",
      "outputs": [],
      "payable": false,
      "stateMutability": "nonpayable",
      "type": "function"
    },
    {
      "constant": false,
      "inputs": [],
      "name": "renounceOwnership",
      "outputs": [],
      "payable": false,
      "stateMutability": "nonpayable",
      "type": "function"
    },
    {
      "constant": false,
      "inputs": [
        {
          "internalType": "contract App",
          "name": "_appPackage",
          "type": "address"
        }
      ],
      "name": "setAppPackage",
      "outputs": [],
      "payable": false,
      "stateMutability": "nonpayable",
      "type": "function"
    },
    {
      "constant": false,
      "inputs": [
        {
          "internalType": "address",
          "name": "newOwner",
          "type": "address"
        }
      ],
      "name": "transferOwnership",
      "outputs": [],
      "payable": false,
      "stateMutability": "nonpayable",
      "type": "function"
    }
  ],
  "bytecode": "0x6080604052610d84806100136000396000f3fe608060405234801561001057600080fd5b50600436106100df5760003560e01c80638f32d59b1161008c578063a266a6cb11610066578063a266a6cb146102a1578063c4d66de8146102c7578063e73a18c5146102ed578063f2fde38b14610313576100df565b80638f32d59b146101c6578063940cc983146101ce5780639a7c43e0146101eb576100df565b80634aa4d5dc116100bd5780634aa4d5dc14610174578063715018a61461019a5780638da5cb5b146101a2576100df565b806324b45110146100e4578063253b83d51461011e578063485cc95514610146575b600080fd5b61010a600480360360208110156100fa57600080fd5b50356001600160a01b0316610339565b604080519115158252519081900360200190f35b6101446004803603602081101561013457600080fd5b50356001600160a01b031661034e565b005b6101446004803603604081101561015c57600080fd5b506001600160a01b03813581169160200135166103fb565b6101446004803603602081101561018a57600080fd5b50356001600160a01b03166104b1565b610144610590565b6101aa610633565b604080516001600160a01b039092168252519081900360200190f35b61010a610642565b6101aa600480360360208110156101e457600080fd5b5035610668565b6101aa6004803603604081101561020157600080fd5b6001600160a01b03823516919081019060408101602082013564010000000081111561022c57600080fd5b82018360208201111561023e57600080fd5b8035906020019184600183028401116401000000008311171561026057600080fd5b91908080601f01602080910402602001604051908101604052809392919081815260200183838082843760009201919091525092955061068f945050505050565b61010a600480360360208110156102b757600080fd5b50356001600160a01b0316610a02565b610144600480360360208110156102dd57600080fd5b50356001600160a01b0316610a17565b6101446004803603602081101561030357600080fd5b50356001600160a01b0316610b09565b6101446004803603602081101561032957600080fd5b50356001600160a01b0316610beb565b60686020526000908152604090205460ff1681565b610356610642565b6103a7576040805162461bcd60e51b815260206004820181905260248201527f4f776e61626c653a2063616c6c6572206973206e6f7420746865206f776e6572604482015290519081900360640190fd5b606980546001600160a01b0383166001600160a01b0319909116811790915560408051918252517f03a1f005f3a13b7552a492f3eebbe1bc36ab9aebf32184e9b01951443348cb259181900360200190a150565b600054610100900460ff16806104145750610414610c50565b80610422575060005460ff16155b61045d5760405162461bcd60e51b815260040180806020018281038252602e815260200180610d22602e913960400191505060405180910390fd5b600054610100900460ff16158015610488576000805460ff1961ff0019909116610100171660011790555b61049183610a17565b61049a8261034e565b80156104ac576000805461ff00191690555b505050565b3360009081526068602052604090205460ff16806104e757506104d2610633565b6001600160a01b0316336001600160a01b0316145b610538576040805162461bcd60e51b815260206004820152601d60248201527f6e6f7420616e20617070726f76656420636f6e74726f6c207374617465000000604482015290519081900360640190fd5b6001600160a01b038116600081815260686020908152604091829020805460ff19169055815192835290517fb350631a9379f23c334b8b80744d63cc768d22d2d9977683b6038332515acd0f9281900390910190a150565b610598610642565b6105e9576040805162461bcd60e51b815260206004820181905260248201527f4f776e61626c653a2063616c6c6572206973206e6f7420746865206f776e6572604482015290519081900360640190fd5b6033546040516000916001600160a01b0316907f8be0079c531659141344cd1fd0a4f28419497f9722a3daafe3b4186f6b6457e0908390a3603380546001600160a01b0319169055565b6033546001600160a01b031690565b6033546000906001600160a01b0316610659610c56565b6001600160a01b031614905090565b6066818154811061067557fe5b6000918252602090912001546001600160a01b0316905081565b3360009081526068602052604081205460ff16806106c557506106b0610633565b6001600160a01b0316336001600160a01b0316145b610716576040805162461bcd60e51b815260206004820152601d60248201527f6e6f7420616e20617070726f76656420636f6e74726f6c207374617465000000604482015290519081900360640190fd5b60606040518060400160405280600981526020017f6372656f6c2d6574680000000000000000000000000000000000000000000000815250905060606040518060400160405280600981526020017f536974655374617465000000000000000000000000000000000000000000000081525090506000606960009054906101000a90046001600160a01b03166001600160a01b031663cd3e318a848489896040518563ffffffff1660e01b8152600401808060200180602001856001600160a01b03166001600160a01b0316815260200180602001848103845288818151815260200191508051906020019080838360005b83811015610820578181015183820152602001610808565b50505050905090810190601f16801561084d5780820380516001836020036101000a031916815260200191505b50848103835287518152875160209182019189019080838360005b83811015610880578181015183820152602001610868565b50505050905090810190601f1680156108ad5780820380516001836020036101000a031916815260200191505b50848103825285518152855160209182019187019080838360005b838110156108e05781810151838201526020016108c8565b50505050905090810190601f16801561090d5780820380516001836020036101000a031916815260200191505b50975050505050505050602060405180830381600087803b15801561093157600080fd5b505af1158015610945573d6000803e3d6000fd5b505050506040513d602081101561095b57600080fd5b50516066805460018082019092557f46501879b8ca8525e8c2fd519e2fbfcfa2ebea26501294aa02cbfcfb12e943540180546001600160a01b0319166001600160a01b038416908117909155600081815260676020908152604091829020805460ff19169094179093558051918252519293507f7774d61dfe56e92c16209803eb544fd16abddf648cd6cd5acfc797de7958d848929081900390910190a195945050505050565b60676020526000908152604090205460ff1681565b600054610100900460ff1680610a305750610a30610c50565b80610a3e575060005460ff16155b610a795760405162461bcd60e51b815260040180806020018281038252602e815260200180610d22602e913960400191505060405180910390fd5b600054610100900460ff16158015610aa4576000805460ff1961ff0019909116610100171660011790555b603380546001600160a01b0319166001600160a01b0384811691909117918290556040519116906000907f8be0079c531659141344cd1fd0a4f28419497f9722a3daafe3b4186f6b6457e0908290a38015610b05576000805461ff00191690555b5050565b3360009081526068602052604090205460ff1680610b3f5750610b2a610633565b6001600160a01b0316336001600160a01b0316145b610b90576040805162461bcd60e51b815260206004820152601d60248201527f6e6f7420616e20617070726f76656420636f6e74726f6c207374617465000000604482015290519081900360640190fd5b6001600160a01b038116600081815260686020908152604091829020805460ff19166001179055815192835290517f595f0e5e303532f8d131dc613bd2d6d78a3c0db293c3c83871dc8f02ae3515289281900390910190a150565b610bf3610642565b610c44576040805162461bcd60e51b815260206004820181905260248201527f4f776e61626c653a2063616c6c6572206973206e6f7420746865206f776e6572604482015290519081900360640190fd5b610c4d81610c5a565b50565b303b1590565b3390565b6001600160a01b038116610c9f5760405162461bcd60e51b8152600401808060200182810382526026815260200180610cfc6026913960400191505060405180910390fd5b6033546040516001600160a01b038084169216907f8be0079c531659141344cd1fd0a4f28419497f9722a3daafe3b4186f6b6457e090600090a3603380546001600160a01b0319166001600160a01b039290921691909117905556fe4f776e61626c653a206e6577206f776e657220697320746865207a65726f2061646472657373436f6e747261637420696e7374616e63652068617320616c7265616479206265656e20696e697469616c697a6564a265627a7a723158204582645de8c3b213304b16e979aace0b62ba7848a9fe2042fbf6cb5e8968351264736f6c63430005110032",
  "compiler": {
    "name": "solc",
    "version": "0.5.17+commit.d19bba13.Emscripten.clang",
    "optimizer": {
      "enabled": true,
      "runs": 1000
    },
    "evmVersion": "petersburg"
  }
}