{
  "fileName": "SiteState.sol",
  "contractName": "SiteState",
  "source": "pragma solidity ^0.5.17;\r\n\r\nimport \"@openzeppelin/contracts-ethereum-package/contracts/ownership/Ownable.sol\";\r\nimport \"@openzeppelin/upgrades/contracts/Initializable.sol\";\r\nimport \"@openzeppelin/contracts-ethereum-package/contracts/GSN/GSNRecipient.sol\";\r\n\r\nimport \"../RoomState/RoomStateInterface.sol\";\r\nimport \"../RoomState/RoomStateFactoryInterface.sol\";\r\n\r\nimport \"../LEDState/LEDFactoryInterface.sol\";\r\nimport './SiteStateInterface.sol';\r\n\r\n\r\nimport  '../AccessHub/AccessHubInterface.sol';\r\n\r\n\r\n\r\ncontract SiteState is SiteStateInterface, Initializable, Ownable, GSNRecipient {\r\n\r\n    //Events\r\n    event RoomAdded(address RoomAddress, string RoomName);\r\n    event RoomDeleted(address RoomAddress);\r\n    event newProxyAdmin(address _newProxyAdmin);\r\n\r\n    RoomStateInterface private genericRoomStateInterface;\r\n    RoomStateFactoryInterface public genericRoomStateFactoryInterface;\r\n    LEDFactoryInterface public LEDFactoryInterfaceCreol;\r\n\r\n    struct Room {\r\n        bool IsRegistered;\r\n        bool IsActive;\r\n        string RoomName;\r\n    }\r\n\r\n    address ControlAddress;\r\n\r\n    bool public SiteIsRegistered;\r\n    bool public SiteIsActive;\r\n    string public SiteName;\r\n    address[] public RoomAddresses;\r\n\r\n    address public proxyAdmin;\r\n\r\n    address private allowedGSNAddress;\r\n\r\n    AccessHubInterface public credentials;\r\n\r\n    //Room state address\r\n    mapping (address => Room) public RoomIDtoRoomData;\r\n\r\n    modifier onlyAccessHub(){\r\n        require(credentials.checkHasAccess(_msgSender(), AccessHubInterface.ContractTypes.SiteState) || _msgSender() == owner(), \"Caller, not registered in access hub \");\r\n        _;\r\n    }\r\n\r\n    //Functions\r\n    constructor() public {\r\n    }\r\n\r\n    function initialize(address _owner, address _accessHub,address _allowedGSNAddress, string memory _SiteName, address _RoomStateFactory, address _LEDFactory) public initializer {\r\n\r\n        genericRoomStateFactoryInterface = RoomStateFactoryInterface(_RoomStateFactory);\r\n\r\n        LEDFactoryInterfaceCreol = LEDFactoryInterface(_LEDFactory);\r\n\r\n        credentials = AccessHubInterface(_accessHub);\r\n\r\n        ControlAddress = _accessHub;\r\n        SiteIsRegistered = true;\r\n        SiteIsActive  = true;\r\n        SiteName = _SiteName;\r\n        allowedGSNAddress = _allowedGSNAddress;\r\n\r\n        if (_owner == address(0)) {\r\n            Ownable.initialize(_msgSender());\r\n        }\r\n        else {\r\n            Ownable.initialize(_owner);\r\n        }\r\n        GSNRecipient.initialize();\r\n\r\n    }\r\n\r\n    function IsRegistered (address _RoomID) public view returns(bool RoomStatus) {\r\n        return (RoomIDtoRoomData[_RoomID].IsRegistered);\r\n    }\r\n\r\n    function IsActive (address _RoomID) public view returns(bool RoomStatus) {\r\n        return (RoomIDtoRoomData[_RoomID].IsActive);\r\n    }\r\n    function GetRoomName(address _RoomID) public view returns (string memory RoomName){\r\n        return (RoomIDtoRoomData[_RoomID].RoomName);\r\n    }\r\n\r\n    function AddRoom (address _RoomID, string memory _RoomName) onlyAccessHub public {\r\n        if(SiteIsRegistered == true) {\r\n            if (RoomIDtoRoomData[_RoomID].IsActive == false) {\r\n                RoomIDtoRoomData[_RoomID].IsRegistered = true;\r\n                RoomIDtoRoomData[_RoomID].IsActive = true;\r\n                RoomIDtoRoomData[_RoomID].RoomName = _RoomName;\r\n                RoomAddresses.push(_RoomID);\r\n                emit RoomAdded(_RoomID, _RoomName);\r\n            }\r\n            else {\r\n                revert(\"Room is already active\");\r\n            }\r\n        }\r\n        else {\r\n            revert(\"Site is not active\");\r\n        }\r\n    }\r\n\r\n    function RemoveRoom (address _RoomID) onlyAccessHub public {\r\n        if(SiteIsRegistered == true) {\r\n            if (RoomIDtoRoomData[_RoomID].IsActive == true) {\r\n                RoomIDtoRoomData[_RoomID].IsActive = false;\r\n                emit RoomDeleted(_RoomID);\r\n            }\r\n            else {\r\n                revert(\"Room is not active\");\r\n            }\r\n        }\r\n        else {\r\n            revert(\"Site is not active\");\r\n        }\r\n    }\r\n\r\n    function CreateRoom (address _accessHub , address _GSNAddress, string memory _roomName) public onlyAccessHub {\r\n\r\n        bytes memory payLoadData = abi.encodeWithSignature(\"initialize(address,address,address)\",LEDFactoryInterfaceCreol,_accessHub, _GSNAddress);\r\n\r\n        address _newRoom = genericRoomStateFactoryInterface.createRoomStateUpgradeable(proxyAdmin, payLoadData);\r\n\r\n        LEDFactoryInterfaceCreol.addApprovedRoomState(_newRoom);\r\n\r\n        AddRoom(_newRoom,_roomName);\r\n\r\n\r\n    }\r\n    function getRoomCount() public view returns(uint roomCount){\r\n        return RoomAddresses.length;\r\n    }\r\n    /**\r\n * @dev Meant to update the proxyAdmin address, that was added in new version.\r\n * @notice Meant to update the proxyAdmin address, that was added in new version.\r\n * @param _proxyAdmin new address of the proxyAdmin contract for the openzeppelin app entry\r\n */\r\n    function setProxyAdmin( address _proxyAdmin) public onlyOwner {\r\n        proxyAdmin = _proxyAdmin;\r\n        emit newProxyAdmin(_proxyAdmin);\r\n\r\n    }\r\n    function setGSNAllowed(address _newGSNAddress) public onlyOwner {\r\n        allowedGSNAddress = _newGSNAddress;\r\n    }\r\n    function acceptRelayedCall(\r\n        address relay,\r\n        address from,\r\n        bytes calldata encodedFunction,\r\n        uint256 transactionFee,\r\n        uint256 gasPrice,\r\n        uint256 gasLimit,\r\n        uint256 nonce,\r\n        bytes calldata approvalData,\r\n        uint256 maxPossibleCharge\r\n    ) external view returns (uint256, bytes memory)  {\r\n\r\n        //emit emittedMsgSender(_msgSender());\r\n        //emit emittedAllowedAddress(allowedAddress);\r\n        if(from == allowedGSNAddress){\r\n            return _approveRelayedCall();\r\n\r\n        }\r\n        else {\r\n            return _rejectRelayedCall(uint256(0));\r\n        }\r\n    }\r\n\r\n    function _preRelayedCall(bytes memory context) internal returns (bytes32) {\r\n\r\n    }\r\n\r\n    function _postRelayedCall(bytes memory context, bool, uint256 actualCharge, bytes32) internal {\r\n\r\n    }\r\n\r\n    function setRelayHubAddress() public {\r\n        if(getHubAddr() == address(0)) {\r\n            _upgradeRelayHub(0xD216153c06E857cD7f72665E0aF1d7D82172F494);\r\n        }\r\n    }\r\n\r\n    function getRecipientBalance() public view returns (uint) {\r\n        return IRelayHub(getHubAddr()).balanceOf(address(this));\r\n    }\r\n}\r\n",
  "sourcePath": "contracts/SiteState/SiteState.sol",
  "abi": [
    {
      "inputs": [],
      "payable": false,
      "stateMutability": "nonpayable",
      "type": "constructor"
    },
    {
      "anonymous": false,
      "inputs": [
        {
          "indexed": true,
          "internalType": "address",
          "name": "previousOwner",
          "type": "address"
        },
        {
          "indexed": true,
          "internalType": "address",
          "name": "newOwner",
          "type": "address"
        }
      ],
      "name": "OwnershipTransferred",
      "type": "event"
    },
    {
      "anonymous": false,
      "inputs": [
        {
          "indexed": true,
          "internalType": "address",
          "name": "oldRelayHub",
          "type": "address"
        },
        {
          "indexed": true,
          "internalType": "address",
          "name": "newRelayHub",
          "type": "address"
        }
      ],
      "name": "RelayHubChanged",
      "type": "event"
    },
    {
      "anonymous": false,
      "inputs": [
        {
          "indexed": false,
          "internalType": "address",
          "name": "RoomAddress",
          "type": "address"
        },
        {
          "indexed": false,
          "internalType": "string",
          "name": "RoomName",
          "type": "string"
        }
      ],
      "name": "RoomAdded",
      "type": "event"
    },
    {
      "anonymous": false,
      "inputs": [
        {
          "indexed": false,
          "internalType": "address",
          "name": "RoomAddress",
          "type": "address"
        }
      ],
      "name": "RoomDeleted",
      "type": "event"
    },
    {
      "anonymous": false,
      "inputs": [
        {
          "indexed": false,
          "internalType": "address",
          "name": "_newProxyAdmin",
          "type": "address"
        }
      ],
      "name": "newProxyAdmin",
      "type": "event"
    },
    {
      "constant": false,
      "inputs": [
        {
          "internalType": "address",
          "name": "_RoomID",
          "type": "address"
        },
        {
          "internalType": "string",
          "name": "_RoomName",
          "type": "string"
        }
      ],
      "name": "AddRoom",
      "outputs": [],
      "payable": false,
      "stateMutability": "nonpayable",
      "type": "function"
    },
    {
      "constant": false,
      "inputs": [
        {
          "internalType": "address",
          "name": "_accessHub",
          "type": "address"
        },
        {
          "internalType": "address",
          "name": "_GSNAddress",
          "type": "address"
        },
        {
          "internalType": "string",
          "name": "_roomName",
          "type": "string"
        }
      ],
      "name": "CreateRoom",
      "outputs": [],
      "payable": false,
      "stateMutability": "nonpayable",
      "type": "function"
    },
    {
      "constant": true,
      "inputs": [
        {
          "internalType": "address",
          "name": "_RoomID",
          "type": "address"
        }
      ],
      "name": "GetRoomName",
      "outputs": [
        {
          "internalType": "string",
          "name": "RoomName",
          "type": "string"
        }
      ],
      "payable": false,
      "stateMutability": "view",
      "type": "function"
    },
    {
      "constant": true,
      "inputs": [
        {
          "internalType": "address",
          "name": "_RoomID",
          "type": "address"
        }
      ],
      "name": "IsActive",
      "outputs": [
        {
          "internalType": "bool",
          "name": "RoomStatus",
          "type": "bool"
        }
      ],
      "payable": false,
      "stateMutability": "view",
      "type": "function"
    },
    {
      "constant": true,
      "inputs": [
        {
          "internalType": "address",
          "name": "_RoomID",
          "type": "address"
        }
      ],
      "name": "IsRegistered",
      "outputs": [
        {
          "internalType": "bool",
          "name": "RoomStatus",
          "type": "bool"
        }
      ],
      "payable": false,
      "stateMutability": "view",
      "type": "function"
    },
    {
      "constant": true,
      "inputs": [],
      "name": "LEDFactoryInterfaceCreol",
      "outputs": [
        {
          "internalType": "contract LEDFactoryInterface",
          "name": "",
          "type": "address"
        }
      ],
      "payable": false,
      "stateMutability": "view",
      "type": "function"
    },
    {
      "constant": false,
      "inputs": [
        {
          "internalType": "address",
          "name": "_RoomID",
          "type": "address"
        }
      ],
      "name": "RemoveRoom",
      "outputs": [],
      "payable": false,
      "stateMutability": "nonpayable",
      "type": "function"
    },
    {
      "constant": true,
      "inputs": [
        {
          "internalType": "uint256",
          "name": "",
          "type": "uint256"
        }
      ],
      "name": "RoomAddresses",
      "outputs": [
        {
          "internalType": "address",
          "name": "",
          "type": "address"
        }
      ],
      "payable": false,
      "stateMutability": "view",
      "type": "function"
    },
    {
      "constant": true,
      "inputs": [
        {
          "internalType": "address",
          "name": "",
          "type": "address"
        }
      ],
      "name": "RoomIDtoRoomData",
      "outputs": [
        {
          "internalType": "bool",
          "name": "IsRegistered",
          "type": "bool"
        },
        {
          "internalType": "bool",
          "name": "IsActive",
          "type": "bool"
        },
        {
          "internalType": "string",
          "name": "RoomName",
          "type": "string"
        }
      ],
      "payable": false,
      "stateMutability": "view",
      "type": "function"
    },
    {
      "constant": true,
      "inputs": [],
      "name": "SiteIsActive",
      "outputs": [
        {
          "internalType": "bool",
          "name": "",
          "type": "bool"
        }
      ],
      "payable": false,
      "stateMutability": "view",
      "type": "function"
    },
    {
      "constant": true,
      "inputs": [],
      "name": "SiteIsRegistered",
      "outputs": [
        {
          "internalType": "bool",
          "name": "",
          "type": "bool"
        }
      ],
      "payable": false,
      "stateMutability": "view",
      "type": "function"
    },
    {
      "constant": true,
      "inputs": [],
      "name": "SiteName",
      "outputs": [
        {
          "internalType": "string",
          "name": "",
          "type": "string"
        }
      ],
      "payable": false,
      "stateMutability": "view",
      "type": "function"
    },
    {
      "constant": true,
      "inputs": [
        {
          "internalType": "address",
          "name": "relay",
          "type": "address"
        },
        {
          "internalType": "address",
          "name": "from",
          "type": "address"
        },
        {
          "internalType": "bytes",
          "name": "encodedFunction",
          "type": "bytes"
        },
        {
          "internalType": "uint256",
          "name": "transactionFee",
          "type": "uint256"
        },
        {
          "internalType": "uint256",
          "name": "gasPrice",
          "type": "uint256"
        },
        {
          "internalType": "uint256",
          "name": "gasLimit",
          "type": "uint256"
        },
        {
          "internalType": "uint256",
          "name": "nonce",
          "type": "uint256"
        },
        {
          "internalType": "bytes",
          "name": "approvalData",
          "type": "bytes"
        },
        {
          "internalType": "uint256",
          "name": "maxPossibleCharge",
          "type": "uint256"
        }
      ],
      "name": "acceptRelayedCall",
      "outputs": [
        {
          "internalType": "uint256",
          "name": "",
          "type": "uint256"
        },
        {
          "internalType": "bytes",
          "name": "",
          "type": "bytes"
        }
      ],
      "payable": false,
      "stateMutability": "view",
      "type": "function"
    },
    {
      "constant": true,
      "inputs": [],
      "name": "credentials",
      "outputs": [
        {
          "internalType": "contract AccessHubInterface",
          "name": "",
          "type": "address"
        }
      ],
      "payable": false,
      "stateMutability": "view",
      "type": "function"
    },
    {
      "constant": true,
      "inputs": [],
      "name": "genericRoomStateFactoryInterface",
      "outputs": [
        {
          "internalType": "contract RoomStateFactoryInterface",
          "name": "",
          "type": "address"
        }
      ],
      "payable": false,
      "stateMutability": "view",
      "type": "function"
    },
    {
      "constant": true,
      "inputs": [],
      "name": "getHubAddr",
      "outputs": [
        {
          "internalType": "address",
          "name": "",
          "type": "address"
        }
      ],
      "payable": false,
      "stateMutability": "view",
      "type": "function"
    },
    {
      "constant": true,
      "inputs": [],
      "name": "getRecipientBalance",
      "outputs": [
        {
          "internalType": "uint256",
          "name": "",
          "type": "uint256"
        }
      ],
      "payable": false,
      "stateMutability": "view",
      "type": "function"
    },
    {
      "constant": true,
      "inputs": [],
      "name": "getRoomCount",
      "outputs": [
        {
          "internalType": "uint256",
          "name": "roomCount",
          "type": "uint256"
        }
      ],
      "payable": false,
      "stateMutability": "view",
      "type": "function"
    },
    {
      "constant": false,
      "inputs": [],
      "name": "initialize",
      "outputs": [],
      "payable": false,
      "stateMutability": "nonpayable",
      "type": "function"
    },
    {
      "constant": false,
      "inputs": [
        {
          "internalType": "address",
          "name": "sender",
          "type": "address"
        }
      ],
      "name": "initialize",
      "outputs": [],
      "payable": false,
      "stateMutability": "nonpayable",
      "type": "function"
    },
    {
      "constant": false,
      "inputs": [
        {
          "internalType": "address",
          "name": "_owner",
          "type": "address"
        },
        {
          "internalType": "address",
          "name": "_accessHub",
          "type": "address"
        },
        {
          "internalType": "address",
          "name": "_allowedGSNAddress",
          "type": "address"
        },
        {
          "internalType": "string",
          "name": "_SiteName",
          "type": "string"
        },
        {
          "internalType": "address",
          "name": "_RoomStateFactory",
          "type": "address"
        },
        {
          "internalType": "address",
          "name": "_LEDFactory",
          "type": "address"
        }
      ],
      "name": "initialize",
      "outputs": [],
      "payable": false,
      "stateMutability": "nonpayable",
      "type": "function"
    },
    {
      "constant": true,
      "inputs": [],
      "name": "isOwner",
      "outputs": [
        {
          "internalType": "bool",
          "name": "",
          "type": "bool"
        }
      ],
      "payable": false,
      "stateMutability": "view",
      "type": "function"
    },
    {
      "constant": true,
      "inputs": [],
      "name": "owner",
      "outputs": [
        {
          "internalType": "address",
          "name": "",
          "type": "address"
        }
      ],
      "payable": false,
      "stateMutability": "view",
      "type": "function"
    },
    {
      "constant": false,
      "inputs": [
        {
          "internalType": "bytes",
          "name": "context",
          "type": "bytes"
        },
        {
          "internalType": "bool",
          "name": "success",
          "type": "bool"
        },
        {
          "internalType": "uint256",
          "name": "actualCharge",
          "type": "uint256"
        },
        {
          "internalType": "bytes32",
          "name": "preRetVal",
          "type": "bytes32"
        }
      ],
      "name": "postRelayedCall",
      "outputs": [],
      "payable": false,
      "stateMutability": "nonpayable",
      "type": "function"
    },
    {
      "constant": false,
      "inputs": [
        {
          "internalType": "bytes",
          "name": "context",
          "type": "bytes"
        }
      ],
      "name": "preRelayedCall",
      "outputs": [
        {
          "internalType": "bytes32",
          "name": "",
          "type": "bytes32"
        }
      ],
      "payable": false,
      "stateMutability": "nonpayable",
      "type": "function"
    },
    {
      "constant": true,
      "inputs": [],
      "name": "proxyAdmin",
      "outputs": [
        {
          "internalType": "address",
          "name": "",
          "type": "address"
        }
      ],
      "payable": false,
      "stateMutability": "view",
      "type": "function"
    },
    {
      "constant": true,
      "inputs": [],
      "name": "relayHubVersion",
      "outputs": [
        {
          "internalType": "string",
          "name": "",
          "type": "string"
        }
      ],
      "payable": false,
      "stateMutability": "view",
      "type": "function"
    },
    {
      "constant": false,
      "inputs": [],
      "name": "renounceOwnership",
      "outputs": [],
      "payable": false,
      "stateMutability": "nonpayable",
      "type": "function"
    },
    {
      "constant": false,
      "inputs": [],
      "name": "setDefaultRelayHub",
      "outputs": [],
      "payable": false,
      "stateMutability": "nonpayable",
      "type": "function"
    },
    {
      "constant": false,
      "inputs": [
        {
          "internalType": "address",
          "name": "_newGSNAddress",
          "type": "address"
        }
      ],
      "name": "setGSNAllowed",
      "outputs": [],
      "payable": false,
      "stateMutability": "nonpayable",
      "type": "function"
    },
    {
      "constant": false,
      "inputs": [
        {
          "internalType": "address",
          "name": "_proxyAdmin",
          "type": "address"
        }
      ],
      "name": "setProxyAdmin",
      "outputs": [],
      "payable": false,
      "stateMutability": "nonpayable",
      "type": "function"
    },
    {
      "constant": false,
      "inputs": [],
      "name": "setRelayHubAddress",
      "outputs": [],
      "payable": false,
      "stateMutability": "nonpayable",
      "type": "function"
    },
    {
      "constant": false,
      "inputs": [
        {
          "internalType": "address",
          "name": "newOwner",
          "type": "address"
        }
      ],
      "name": "transferOwnership",
      "outputs": [],
      "payable": false,
      "stateMutability": "nonpayable",
      "type": "function"
    }
  ],
  "bytecode": "0x608060405234801561001057600080fd5b506121ac806100206000396000f3fe608060405234801561001057600080fd5b506004361061020b5760003560e01c806383947ea01161012a578063c4d66de8116100bd578063d838ef361161008c578063e06e0e2211610071578063e06e0e2214610957578063eadddb3c146109d5578063f2fde38b146109dd5761020b565b8063d838ef3614610929578063d9af5f66146109315761020b565b8063c4d66de8146107f8578063ceaee8c11461081e578063d3c7fb8414610844578063d5ab8abc1461084c5761020b565b8063927df998116100f9578063927df998146107ba578063ac570411146107c2578063ad61ccd5146107ca578063c224122d146107d25761020b565b806383947ea01461057a57806387dcc90c146106eb5780638da5cb5b146107aa5780638f32d59b146107b25761020b565b806347c02661116101a257806374e861d61161017157806374e861d6146104c257806380274db7146104ca57806380df55fa1461054c5780638129fc1c146105725761020b565b806347c02661146103d65780636869b7d7146103fc5780636e57df5b14610404578063715018a6146104ba5761020b565b8063211959e2116101de578063211959e2146103715780632cfd75771461038d5780632d8dca34146103b15780633e47158c146103ce5761020b565b8063051b7993146102105780630e2207e1146102ab5780631220e2ff146102b35780631287e214146102bd575b600080fd5b6102366004803603602081101561022657600080fd5b50356001600160a01b0316610a03565b6040805160208082528351818301528351919283929083019185019080838360005b83811015610270578181015183820152602001610258565b50505050905090810190601f16801561029d5780820380516001836020036101000a031916815260200191505b509250505060405180910390f35b610236610acd565b6102bb610b5b565b005b6102e3600480360360208110156102d357600080fd5b50356001600160a01b0316610b7a565b60405180841515151581526020018315151515815260200180602001828103825283818151815260200191508051906020019080838360005b8381101561033457818101518382015260200161031c565b50505050905090810190601f1680156103615780820380516001836020036101000a031916815260200191505b5094505050505060405180910390f35b610379610c2c565b604080519115158252519081900360200190f35b610395610c3c565b604080516001600160a01b039092168252519081900360200190f35b610395600480360360208110156103c757600080fd5b5035610c4b565b610395610c72565b6102bb600480360360208110156103ec57600080fd5b50356001600160a01b0316610c81565b610379610d2e565b6102bb6004803603604081101561041a57600080fd5b6001600160a01b03823516919081019060408101602082013564010000000081111561044557600080fd5b82018360208201111561045757600080fd5b8035906020019184600183028401116401000000008311171561047957600080fd5b91908080601f016020809104026020016040519081016040528093929190818152602001838380828437600092019190915250929550610d3e945050505050565b6102bb61106c565b61039561110f565b61053a600480360360208110156104e057600080fd5b8101906020810181356401000000008111156104fb57600080fd5b82018360208201111561050d57600080fd5b8035906020019184600183028401116401000000008311171561052f57600080fd5b50909250905061111f565b60408051918252519081900360200190f35b6102bb6004803603602081101561056257600080fd5b50356001600160a01b03166111be565b6102bb6113bb565b61066c600480360361012081101561059157600080fd5b6001600160a01b0382358116926020810135909116918101906060810160408201356401000000008111156105c557600080fd5b8201836020820111156105d757600080fd5b803590602001918460018302840111640100000000831117156105f957600080fd5b9193909282359260208101359260408201359260608301359260a08101906080013564010000000081111561062d57600080fd5b82018360208201111561063f57600080fd5b8035906020019184600183028401116401000000008311171561066157600080fd5b919350915035611474565b6040518083815260200180602001828103825283818151815260200191508051906020019080838360005b838110156106af578181015183820152602001610697565b50505050905090810190601f1680156106dc5780820380516001836020036101000a031916815260200191505b50935050505060405180910390f35b6102bb6004803603606081101561070157600080fd5b6001600160a01b03823581169260208101359091169181019060608101604082013564010000000081111561073557600080fd5b82018360208201111561074757600080fd5b8035906020019184600183028401116401000000008311171561076957600080fd5b91908080601f0160208091040260200160405190810160405280939291908181526020018383808284376000920191909152509295506114bb945050505050565b6103956117d9565b6103796117e8565b61039561180e565b61053a61181d565b6102366118ad565b610379600480360360208110156107e857600080fd5b50356001600160a01b03166118e4565b6102bb6004803603602081101561080e57600080fd5b50356001600160a01b0316611902565b6102bb6004803603602081101561083457600080fd5b50356001600160a01b03166119f3565b6102bb611a6e565b6102bb600480360360c081101561086257600080fd5b6001600160a01b038235811692602081013582169260408201359092169181019060808101606082013564010000000081111561089e57600080fd5b8201836020820111156108b057600080fd5b803590602001918460018302840111640100000000831117156108d257600080fd5b91908080601f016020809104026020016040519081016040528093929190818152602001838380828437600092019190915250929550506001600160a01b038335811694506020909301359092169150611aa49050565b610395611c46565b6103796004803603602081101561094757600080fd5b50356001600160a01b0316611c55565b6102bb6004803603608081101561096d57600080fd5b81019060208101813564010000000081111561098857600080fd5b82018360208201111561099a57600080fd5b803590602001918460018302840111640100000000831117156109bc57600080fd5b9193509150803515159060208101359060400135611c78565b61053a611d13565b6102bb600480360360208110156109f357600080fd5b50356001600160a01b0316611d19565b606060706000836001600160a01b03166001600160a01b031681526020019081526020016000206001018054600181600116156101000203166002900480601f016020809104026020016040519081016040528092919081815260200182805460018160011615610100020316600290048015610ac15780601f10610a9657610100808354040283529160200191610ac1565b820191906000526020600020905b815481529060010190602001808311610aa457829003601f168201915b50505050509050919050565b606b805460408051602060026001851615610100026000190190941693909304601f81018490048402820184019092528181529291830182828015610b535780601f10610b2857610100808354040283529160200191610b53565b820191906000526020600020905b815481529060010190602001808311610b3657829003601f168201915b505050505081565b610b7873d216153c06e857cd7f72665e0af1d7d82172f494611d7b565b565b607060209081526000918252604091829020805460018083018054865160026101009483161585026000190190921691909104601f810187900487028201870190975286815260ff808516979390940490931694909190830182828015610c225780601f10610bf757610100808354040283529160200191610c22565b820191906000526020600020905b815481529060010190602001808311610c0557829003601f168201915b5050505050905083565b606a54600160a81b900460ff1681565b6068546001600160a01b031681565b606c8181548110610c5857fe5b6000918252602090912001546001600160a01b0316905081565b606d546001600160a01b031681565b610c896117e8565b610cda576040805162461bcd60e51b815260206004820181905260248201527f4f776e61626c653a2063616c6c6572206973206e6f7420746865206f776e6572604482015290519081900360640190fd5b606d80546001600160a01b0383166001600160a01b0319909116811790915560408051918252517f6946d4ce6ea07b42684d639cbf6ac64603390f99027f1e4fc7fb2ad95eb182d69181900360200190a150565b606a54600160a01b900460ff1681565b606f546001600160a01b031663069e0a8a610d57611e7b565b6040805160e084901b7fffffffff000000000000000000000000000000000000000000000000000000001681526001600160a01b0392909216600483015260016024830152516044808301926020929190829003018186803b158015610dbc57600080fd5b505afa158015610dd0573d6000803e3d6000fd5b505050506040513d6020811015610de657600080fd5b505180610e125750610df66117d9565b6001600160a01b0316610e07611e7b565b6001600160a01b0316145b610e4d5760405162461bcd60e51b81526004018080602001828103825260258152602001806120806025913960400191505060405180910390fd5b606a54600160a01b900460ff1615156001141561101b576001600160a01b038216600090815260706020526040902054610100900460ff16610fc9576001600160a01b03821660009081526070602090815260409091208054610100600160ff19909216821761ff0019161782558351610ecf93919092019190840190611fe7565b50606c805460018101825560009182527f2b4a51ab505fc96a0952efda2ba61bcd3078d4c02c39a186ec16f21883fbe0160180546001600160a01b0319166001600160a01b03851690811790915560408051918252602080830182815285519284019290925284517fa1c09098e6fdede41154df4308d2e051cb706b5e5d2e07e75fbac7c077fedcad9487948794909390926060850192918601918190849084905b83811015610f89578181015183820152602001610f71565b50505050905090810190601f168015610fb65780820380516001836020036101000a031916815260200191505b50935050505060405180910390a1611016565b6040805162461bcd60e51b815260206004820152601660248201527f526f6f6d20697320616c72656164792061637469766500000000000000000000604482015290519081900360640190fd5b611068565b6040805162461bcd60e51b815260206004820152601260248201527f53697465206973206e6f74206163746976650000000000000000000000000000604482015290519081900360640190fd5b5050565b6110746117e8565b6110c5576040805162461bcd60e51b815260206004820181905260248201527f4f776e61626c653a2063616c6c6572206973206e6f7420746865206f776e6572604482015290519081900360640190fd5b6033546040516000916001600160a01b0316907f8be0079c531659141344cd1fd0a4f28419497f9722a3daafe3b4186f6b6457e0908390a3603380546001600160a01b0319169055565b6066546001600160a01b03165b90565b600061112961110f565b6001600160a01b0316336001600160a01b0316146111785760405162461bcd60e51b81526004018080602001828103825260248152602001806121546024913960400191505060405180910390fd5b6111b783838080601f016020809104026020016040519081016040528093929190818152602001838380828437600092019190915250611ea692505050565b9392505050565b606f546001600160a01b031663069e0a8a6111d7611e7b565b6040805160e084901b7fffffffff000000000000000000000000000000000000000000000000000000001681526001600160a01b0392909216600483015260016024830152516044808301926020929190829003018186803b15801561123c57600080fd5b505afa158015611250573d6000803e3d6000fd5b505050506040513d602081101561126657600080fd5b50518061129257506112766117d9565b6001600160a01b0316611287611e7b565b6001600160a01b0316145b6112cd5760405162461bcd60e51b81526004018080602001828103825260258152602001806120806025913960400191505060405180910390fd5b606a54600160a01b900460ff1615156001141561101b576001600160a01b03811660009081526070602052604090205460ff6101009091041615156001141561136b576001600160a01b038116600081815260706020908152604091829020805461ff0019169055815192835290517f4cc3889441ff87998b6e41bb31b9e577b98527631b77f4e61f372af31197bf6d9281900390910190a16113b8565b6040805162461bcd60e51b815260206004820152601260248201527f526f6f6d206973206e6f74206163746976650000000000000000000000000000604482015290519081900360640190fd5b50565b600054610100900460ff16806113d457506113d4611eac565b806113e2575060005460ff16155b61141d5760405162461bcd60e51b815260040180806020018281038252602e8152602001806120f9602e913960400191505060405180910390fd5b600054610100900460ff16158015611448576000805460ff1961ff0019909116610100171660011790555b6066546001600160a01b031661146057611460610b5b565b80156113b8576000805461ff001916905550565b606e546000906060906001600160a01b038d8116911614156114a157611498611eb2565b915091506114ab565b6114986000611ed6565b9b509b9950505050505050505050565b606f546001600160a01b031663069e0a8a6114d4611e7b565b6040805160e084901b7fffffffff000000000000000000000000000000000000000000000000000000001681526001600160a01b0392909216600483015260016024830152516044808301926020929190829003018186803b15801561153957600080fd5b505afa15801561154d573d6000803e3d6000fd5b505050506040513d602081101561156357600080fd5b50518061158f57506115736117d9565b6001600160a01b0316611584611e7b565b6001600160a01b0316145b6115ca5760405162461bcd60e51b81526004018080602001828103825260258152602001806120806025913960400191505060405180910390fd5b606954604080516001600160a01b03928316602480830191909152868416604480840191909152868516606480850191909152845180850382018152608490940185526020840180517bffffffffffffffffffffffffffffffffffffffffffffffffffffffff167fc0c53b8b00000000000000000000000000000000000000000000000000000000178152606854606d5487517f5131381a0000000000000000000000000000000000000000000000000000000081529089166004820181815296820198895287519582019590955286519698600098921696635131381a968a959094920191908083838c5b838110156116ce5781810151838201526020016116b6565b50505050905090810190601f1680156116fb5780820380516001836020036101000a031916815260200191505b509350505050602060405180830381600087803b15801561171b57600080fd5b505af115801561172f573d6000803e3d6000fd5b505050506040513d602081101561174557600080fd5b5051606954604080517fe655837c0000000000000000000000000000000000000000000000000000000081526001600160a01b038085166004830152915193945091169163e655837c9160248082019260009290919082900301818387803b1580156117b057600080fd5b505af11580156117c4573d6000803e3d6000fd5b505050506117d28184610d3e565b5050505050565b6033546001600160a01b031690565b6033546000906001600160a01b03166117ff611e7b565b6001600160a01b031614905090565b606f546001600160a01b031681565b600061182761110f565b6001600160a01b03166370a08231306040518263ffffffff1660e01b815260040180826001600160a01b03166001600160a01b0316815260200191505060206040518083038186803b15801561187c57600080fd5b505afa158015611890573d6000803e3d6000fd5b505050506040513d60208110156118a657600080fd5b5051905090565b60408051808201909152600581527f312e302e30000000000000000000000000000000000000000000000000000000602082015290565b6001600160a01b031660009081526070602052604090205460ff1690565b600054610100900460ff168061191b575061191b611eac565b80611929575060005460ff16155b6119645760405162461bcd60e51b815260040180806020018281038252602e8152602001806120f9602e913960400191505060405180910390fd5b600054610100900460ff1615801561198f576000805460ff1961ff0019909116610100171660011790555b603380546001600160a01b0319166001600160a01b0384811691909117918290556040519116906000907f8be0079c531659141344cd1fd0a4f28419497f9722a3daafe3b4186f6b6457e0908290a38015611068576000805461ff00191690555050565b6119fb6117e8565b611a4c576040805162461bcd60e51b815260206004820181905260248201527f4f776e61626c653a2063616c6c6572206973206e6f7420746865206f776e6572604482015290519081900360640190fd5b606e80546001600160a01b0319166001600160a01b0392909216919091179055565b6000611a7861110f565b6001600160a01b03161415610b7857610b7873d216153c06e857cd7f72665e0af1d7d82172f494611d7b565b600054610100900460ff1680611abd5750611abd611eac565b80611acb575060005460ff16155b611b065760405162461bcd60e51b815260040180806020018281038252602e8152602001806120f9602e913960400191505060405180910390fd5b600054610100900460ff16158015611b31576000805460ff1961ff0019909116610100171660011790555b606880546001600160a01b038086166001600160a01b03199283161790925560698054858416908316179055606f805492891692821683179055606a80547fffffffffffffffffffff00ffffffffffffffffffffffffffffffffffffffffff7fffffffffffffffffffffff00ffffffffffffffffffffffffffffffffffffffff9190931690931792909216600160a01b1716600160a81b1790558351611bde90606b906020870190611fe7565b50606e80546001600160a01b0319166001600160a01b03878116919091179091558716611c1a57611c15611c10611e7b565b611902565b611c23565b611c2387611902565b611c2b6113bb565b8015611c3d576000805461ff00191690555b50505050505050565b6069546001600160a01b031681565b6001600160a01b0316600090815260706020526040902054610100900460ff1690565b611c8061110f565b6001600160a01b0316336001600160a01b031614611ccf5760405162461bcd60e51b81526004018080602001828103825260248152602001806121546024913960400191505060405180910390fd5b6117d285858080601f016020809104026020016040519081016040528093929190818152602001838380828437600092019190915250879250869150859050611eee565b606c5490565b611d216117e8565b611d72576040805162461bcd60e51b815260206004820181905260248201527f4f776e61626c653a2063616c6c6572206973206e6f7420746865206f776e6572604482015290519081900360640190fd5b6113b881611ef4565b6066546001600160a01b03908116908216611dc75760405162461bcd60e51b815260040180806020018281038252602e8152602001806120cb602e913960400191505060405180910390fd5b806001600160a01b0316826001600160a01b03161415611e185760405162461bcd60e51b815260040180806020018281038252602d815260200180612127602d913960400191505060405180910390fd5b816001600160a01b0316816001600160a01b03167fb9f84b8e65164b14439ae3620df0a4d8786d896996c0282b683f9d8c08f046e860405160405180910390a350606680546001600160a01b0319166001600160a01b0392909216919091179055565b6066546000906001600160a01b03163314611e9757503361111c565b611e9f611f95565b905061111c565b50600090565b303b1590565b60006060611ece60405180602001604052806000815250611fe2565b915091509091565b604080516020810190915260008152600b9190910191565b50505050565b6001600160a01b038116611f395760405162461bcd60e51b81526004018080602001828103825260268152602001806120a56026913960400191505060405180910390fd5b6033546040516001600160a01b038084169216907f8be0079c531659141344cd1fd0a4f28419497f9722a3daafe3b4186f6b6457e090600090a3603380546001600160a01b0319166001600160a01b0392909216919091179055565b600060606000368080601f0160208091040260200160405190810160405280939291908181526020018383808284376000920191909152505050503601516001600160a01b031692915050565b600091565b828054600181600116156101000203166002900490600052602060002090601f016020900481019282601f1061202857805160ff1916838001178555612055565b82800160010185558215612055579182015b8281111561205557825182559160200191906001019061203a565b50612061929150612065565b5090565b61111c91905b80821115612061576000815560010161206b56fe43616c6c65722c206e6f74207265676973746572656420696e2061636365737320687562204f776e61626c653a206e6577206f776e657220697320746865207a65726f206164647265737347534e526563697069656e743a206e65772052656c617948756220697320746865207a65726f2061646472657373436f6e747261637420696e7374616e63652068617320616c7265616479206265656e20696e697469616c697a656447534e526563697069656e743a206e65772052656c6179487562206973207468652063757272656e74206f6e6547534e526563697069656e743a2063616c6c6572206973206e6f742052656c6179487562a265627a7a72315820badb61d0eed80357447581d1d256d0201880bf2e2397681a971749cc068a6b6264736f6c63430005110032",
  "compiler": {
    "name": "solc",
    "version": "0.5.17+commit.d19bba13.Emscripten.clang",
    "optimizer": {
      "enabled": true,
      "runs": 1000
    },
    "evmVersion": "petersburg"
  }
}