{
  "fileName": "VCUOffset.sol",
  "contractName": "VCUOffset",
  "source": "\r\npragma solidity ^0.5.0;\r\n/*\r\n  @title VCUOFfset v0.0.1\r\n ________  ________  _______   ________  ___          \r\n|\\   ____\\|\\   __  \\|\\  ___ \\ |\\   __  \\|\\  \\         \r\n\\ \\  \\___|\\ \\  \\|\\  \\ \\   __/|\\ \\  \\|\\  \\ \\  \\        \r\n \\ \\  \\    \\ \\   _  _\\ \\  \\_|/_\\ \\  \\\\\\  \\ \\  \\       \r\n  \\ \\  \\____\\ \\  \\\\  \\\\ \\  \\_|\\ \\ \\  \\\\\\  \\ \\  \\____  \r\n   \\ \\_______\\ \\__\\\\ _\\\\ \\_______\\ \\_______\\ \\_______\\\r\n    \\|_______|\\|__|\\|__|\\|_______|\\|_______|\\|_______|\r\n                                             \r\n \r\n\r\n\r\n\r\n __      _______ _    _  ____   __  __          _   \r\n \\ \\    / / ____| |  | |/ __ \\ / _|/ _|        | |  \r\n  \\ \\  / / |    | |  | | |  | | |_| |_ ___  ___| |_ \r\n   \\ \\/ /| |    | |  | | |  | |  _|  _/ __|/ _ \\ __|\r\n    \\  / | |____| |__| | |__| | | | | \\__ \\  __/ |_ \r\n     \\/   \\_____|\\____/ \\____/|_| |_| |___/\\___|\\__|\r\n                                                    \r\n                                                    \r\n                                   \r\n\r\nAuthor:      Joshua Bijak\r\nDate:        February 17, 2020\r\nTitle:       VCUOFfset Contract for offsetting VCUs\r\nDescription: Contract collects and aggregates offsetting information\r\n\r\n \r\n*/\r\n\r\nimport \"@openzeppelin/contracts-ethereum-package/contracts/ownership/Ownable.sol\";\r\nimport \"@openzeppelin/contracts-ethereum-package/contracts/math/SafeMath.sol\";\r\n\r\n\r\nimport \"../GridMix/GridMixInterface.sol\";\r\nimport \"../RoomState/RoomStateInterface.sol\";\r\nimport \"../LEDState/LEDStateInterface.sol\";\r\n\r\nimport \"@openzeppelin/upgrades/contracts/Initializable.sol\";\r\n\r\nimport \"creol-carbon-eth/contracts/CarbonVCU/CarbonVCUInterface.sol\";\r\nimport \"creol-carbon-eth/contracts/VCUSubToken/VCUSubTokenInterface.sol\";\r\n\r\ncontract VCUOffset is Initializable, Ownable {\r\n    \r\n    using SafeMath for uint256;\r\n    \r\n    event VCUOffsetConfirmed(address VCU, uint256 VCUID, uint256 amountC02);\r\n    \r\n    GridMixInterface private genericGridMixInterface;\r\n    RoomStateInterface private genericRoomStateInterface;\r\n    CarbonVCUInterface private genericCarbonVCUInterface;\r\n    \r\n    uint256 private currentWattHoursToOffset;\r\n    uint256 private currentAvailableOffsets;\r\n    uint256 public tokensToBurn;\r\n    \r\n    uint256 public CreolOffsetFactor;\r\n    \r\n    event TokensReady(uint256 tokensToBurn);\r\n    \r\n    constructor() public{\r\n\r\n    }\r\n    \r\n    function initialize (address _GridMixContract, address _RoomStateContract, address _CarbonVCUContract, address _owner, uint256 _offsetFactor) public initializer{\r\n        require(_offsetFactor > 0);      \r\n        genericGridMixInterface = GridMixInterface(_GridMixContract);\r\n        genericRoomStateInterface = RoomStateInterface(_RoomStateContract);\r\n        genericCarbonVCUInterface = CarbonVCUInterface(_CarbonVCUContract);\r\n        CreolOffsetFactor = _offsetFactor;\r\n        super.initialize(_owner);\r\n        \r\n    }\r\n    /**\r\n     * @notice Changes Grid Mix contract\r\n     * @dev  -  Updates Grid Mix Interface\r\n     * @param _newGridMixContract New address of GridMix contract\r\n     * \r\n     */\r\n    function updateGridMixInterface(address _newGridMixContract) public onlyOwner {\r\n         genericGridMixInterface = GridMixInterface(_newGridMixContract);\r\n    }\r\n     /**\r\n     * @notice Changes RoomState contract\r\n     * @dev  -  Updates RoomState Interface\r\n     * @param _newRoomStateContract New address of RoomState contract\r\n     * \r\n     */\r\n     function updateRoomStateInterface(address _newRoomStateContract) public onlyOwner {\r\n         genericRoomStateInterface = RoomStateInterface(_newRoomStateContract);\r\n     }\r\n     \r\n     function updateOffsetFactor(uint256 _newFactor) public onlyOwner {\r\n         CreolOffsetFactor = _newFactor;\r\n     }\r\n    \r\n    function updateCarbonVCU(address _newCarbonVCU) public onlyOwner {\r\n        \r\n        genericCarbonVCUInterface = CarbonVCUInterface(_newCarbonVCU);\r\n    }\r\n    \r\n    function sendOffset(string memory _groupID, uint256[] memory _VCUIDs, string memory countryCode) public payable onlyOwner{\r\n            \r\n            collectWattHours(_groupID);\r\n            collectAvailableOffsets(_VCUIDs);\r\n            collectGridMix(countryCode);\r\n    }\r\n    \r\n    function collectWattHours(string memory _groupID) internal{\r\n        \r\n        currentWattHoursToOffset = 0;\r\n        address[] memory LEDs = genericRoomStateInterface.getGroupAddresses(_groupID);\r\n        LEDStateInterface genericLEDStateInterface;\r\n        for (uint32 i = 0 ; i < LEDs.length; i++){\r\n            genericLEDStateInterface = LEDStateInterface(LEDs[i]);\r\n            uint256 LEDhours = genericLEDStateInterface.getDailyRuntime();\r\n            uint256 watts = genericLEDStateInterface.getWattage();\r\n            \r\n            // Add Wh to offset calculator\r\n            currentWattHoursToOffset = currentWattHoursToOffset+((LEDhours/3600)*watts);\r\n            \r\n        }\r\n\r\n        \r\n        \r\n    }\r\n    \r\n    function collectAvailableOffsets(uint256[] memory _VCUIDs) internal{\r\n        \r\n        currentAvailableOffsets = 0;\r\n        VCUSubTokenInterface genericVCUSubtokenInterface;\r\n        for (uint32 i = 0; i < _VCUIDs.length; i++){\r\n            address subtokenAddress = genericCarbonVCUInterface.gettokenIDtoSubtokenAddress(_VCUIDs[i]);\r\n            genericVCUSubtokenInterface = VCUSubTokenInterface(subtokenAddress);\r\n            \r\n            currentAvailableOffsets = currentAvailableOffsets + genericVCUSubtokenInterface.totalSupply();\r\n        }\r\n        \r\n    }\r\n    \r\n    function collectGridMix(string memory countryCode) public payable onlyOwner{\r\n        genericGridMixInterface.requestCO2Signal.value(msg.value)(countryCode);\r\n    }\r\n    \r\n    function continueOffset(uint256 _gridIntensity) public{\r\n        //TODO: Ensure that only the grid mix contract can call this\r\n        require(msg.sender == address(genericGridMixInterface), \"GridMix Contract doesn't match\");\r\n        tokensToBurn = CreolOffsetFactor * _gridIntensity * (currentWattHoursToOffset/1000);\r\n        //require(currentAvailableOffsets >= tokensToBurn, \"Not Enough Offsets, try again after topping up\");\r\n        emit TokensReady(tokensToBurn);\r\n            \r\n        \r\n    }\r\n    function finishOffset(uint256[] memory _VCUIDs, address _vcuOwner) public onlyOwner{\r\n        require(currentAvailableOffsets >= tokensToBurn, \"Not Enough Offsets, try again after topping up using startOffset()\");\r\n        \r\n        \r\n        VCUSubTokenInterface genericVCUSubtokenInterface;\r\n        uint32 i = 0;\r\n        while (tokensToBurn > 0){\r\n            address subtokenAddress = genericCarbonVCUInterface.gettokenIDtoSubtokenAddress(_VCUIDs[i]);\r\n            genericVCUSubtokenInterface = VCUSubTokenInterface(subtokenAddress);\r\n            \r\n            uint256 curSupply = genericVCUSubtokenInterface.totalSupply();\r\n            \r\n            if (tokensToBurn > curSupply){\r\n                //ASSUMES THAT APPROVAL HAS BEEN GIVEN\r\n                //Otherwise this will fail\r\n                genericVCUSubtokenInterface.burnFrom(_vcuOwner,curSupply);\r\n                tokensToBurn = tokensToBurn - curSupply;\r\n            }\r\n            else if (tokensToBurn < curSupply){\r\n                genericVCUSubtokenInterface.burnFrom(_vcuOwner,tokensToBurn);\r\n                tokensToBurn = 0;\r\n                \r\n                \r\n            }\r\n        }\r\n        \r\n    }\r\n    \r\n}",
  "sourcePath": "contracts/VCUOffset/VCUOffset.sol",
  "abi": [
    {
      "inputs": [],
      "payable": false,
      "stateMutability": "nonpayable",
      "type": "constructor"
    },
    {
      "anonymous": false,
      "inputs": [
        {
          "indexed": true,
          "internalType": "address",
          "name": "previousOwner",
          "type": "address"
        },
        {
          "indexed": true,
          "internalType": "address",
          "name": "newOwner",
          "type": "address"
        }
      ],
      "name": "OwnershipTransferred",
      "type": "event"
    },
    {
      "anonymous": false,
      "inputs": [
        {
          "indexed": false,
          "internalType": "uint256",
          "name": "tokensToBurn",
          "type": "uint256"
        }
      ],
      "name": "TokensReady",
      "type": "event"
    },
    {
      "anonymous": false,
      "inputs": [
        {
          "indexed": false,
          "internalType": "address",
          "name": "VCU",
          "type": "address"
        },
        {
          "indexed": false,
          "internalType": "uint256",
          "name": "VCUID",
          "type": "uint256"
        },
        {
          "indexed": false,
          "internalType": "uint256",
          "name": "amountC02",
          "type": "uint256"
        }
      ],
      "name": "VCUOffsetConfirmed",
      "type": "event"
    },
    {
      "constant": true,
      "inputs": [],
      "name": "CreolOffsetFactor",
      "outputs": [
        {
          "internalType": "uint256",
          "name": "",
          "type": "uint256"
        }
      ],
      "payable": false,
      "stateMutability": "view",
      "type": "function"
    },
    {
      "constant": false,
      "inputs": [
        {
          "internalType": "string",
          "name": "countryCode",
          "type": "string"
        }
      ],
      "name": "collectGridMix",
      "outputs": [],
      "payable": true,
      "stateMutability": "payable",
      "type": "function"
    },
    {
      "constant": false,
      "inputs": [
        {
          "internalType": "uint256",
          "name": "_gridIntensity",
          "type": "uint256"
        }
      ],
      "name": "continueOffset",
      "outputs": [],
      "payable": false,
      "stateMutability": "nonpayable",
      "type": "function"
    },
    {
      "constant": false,
      "inputs": [
        {
          "internalType": "uint256[]",
          "name": "_VCUIDs",
          "type": "uint256[]"
        },
        {
          "internalType": "address",
          "name": "_vcuOwner",
          "type": "address"
        }
      ],
      "name": "finishOffset",
      "outputs": [],
      "payable": false,
      "stateMutability": "nonpayable",
      "type": "function"
    },
    {
      "constant": false,
      "inputs": [
        {
          "internalType": "address",
          "name": "sender",
          "type": "address"
        }
      ],
      "name": "initialize",
      "outputs": [],
      "payable": false,
      "stateMutability": "nonpayable",
      "type": "function"
    },
    {
      "constant": false,
      "inputs": [
        {
          "internalType": "address",
          "name": "_GridMixContract",
          "type": "address"
        },
        {
          "internalType": "address",
          "name": "_RoomStateContract",
          "type": "address"
        },
        {
          "internalType": "address",
          "name": "_CarbonVCUContract",
          "type": "address"
        },
        {
          "internalType": "address",
          "name": "_owner",
          "type": "address"
        },
        {
          "internalType": "uint256",
          "name": "_offsetFactor",
          "type": "uint256"
        }
      ],
      "name": "initialize",
      "outputs": [],
      "payable": false,
      "stateMutability": "nonpayable",
      "type": "function"
    },
    {
      "constant": true,
      "inputs": [],
      "name": "isOwner",
      "outputs": [
        {
          "internalType": "bool",
          "name": "",
          "type": "bool"
        }
      ],
      "payable": false,
      "stateMutability": "view",
      "type": "function"
    },
    {
      "constant": true,
      "inputs": [],
      "name": "owner",
      "outputs": [
        {
          "internalType": "address",
          "name": "",
          "type": "address"
        }
      ],
      "payable": false,
      "stateMutability": "view",
      "type": "function"
    },
    {
      "constant": false,
      "inputs": [],
      "name": "renounceOwnership",
      "outputs": [],
      "payable": false,
      "stateMutability": "nonpayable",
      "type": "function"
    },
    {
      "constant": false,
      "inputs": [
        {
          "internalType": "string",
          "name": "_groupID",
          "type": "string"
        },
        {
          "internalType": "uint256[]",
          "name": "_VCUIDs",
          "type": "uint256[]"
        },
        {
          "internalType": "string",
          "name": "countryCode",
          "type": "string"
        }
      ],
      "name": "sendOffset",
      "outputs": [],
      "payable": true,
      "stateMutability": "payable",
      "type": "function"
    },
    {
      "constant": true,
      "inputs": [],
      "name": "tokensToBurn",
      "outputs": [
        {
          "internalType": "uint256",
          "name": "",
          "type": "uint256"
        }
      ],
      "payable": false,
      "stateMutability": "view",
      "type": "function"
    },
    {
      "constant": false,
      "inputs": [
        {
          "internalType": "address",
          "name": "newOwner",
          "type": "address"
        }
      ],
      "name": "transferOwnership",
      "outputs": [],
      "payable": false,
      "stateMutability": "nonpayable",
      "type": "function"
    },
    {
      "constant": false,
      "inputs": [
        {
          "internalType": "address",
          "name": "_newCarbonVCU",
          "type": "address"
        }
      ],
      "name": "updateCarbonVCU",
      "outputs": [],
      "payable": false,
      "stateMutability": "nonpayable",
      "type": "function"
    },
    {
      "constant": false,
      "inputs": [
        {
          "internalType": "address",
          "name": "_newGridMixContract",
          "type": "address"
        }
      ],
      "name": "updateGridMixInterface",
      "outputs": [],
      "payable": false,
      "stateMutability": "nonpayable",
      "type": "function"
    },
    {
      "constant": false,
      "inputs": [
        {
          "internalType": "uint256",
          "name": "_newFactor",
          "type": "uint256"
        }
      ],
      "name": "updateOffsetFactor",
      "outputs": [],
      "payable": false,
      "stateMutability": "nonpayable",
      "type": "function"
    },
    {
      "constant": false,
      "inputs": [
        {
          "internalType": "address",
          "name": "_newRoomStateContract",
          "type": "address"
        }
      ],
      "name": "updateRoomStateInterface",
      "outputs": [],
      "payable": false,
      "stateMutability": "nonpayable",
      "type": "function"
    }
  ],
  "bytecode": "0x608060405234801561001057600080fd5b50611621806100206000396000f3fe6080604052600436106100f35760003560e01c80638da5cb5b1161008a578063e12d2dd511610059578063e12d2dd514610598578063f2fde38b146105c2578063f574d9c2146105f5578063f7013ef61461060a576100f3565b80638da5cb5b146104d85780638f32d59b14610509578063c4d66de814610532578063dde82c8814610565576100f3565b806349eb6394116100c657806349eb63941461022d578063715018a6146102e857806380fb4102146102fd57806386a57b9414610327576100f3565b806313261f5a146100f857806325eff05b1461012d578063384213d8146101605780633e4b2d4414610187575b600080fd5b34801561010457600080fd5b5061012b6004803603602081101561011b57600080fd5b50356001600160a01b031661065d565b005b34801561013957600080fd5b5061012b6004803603602081101561015057600080fd5b50356001600160a01b03166106d8565b34801561016c57600080fd5b50610175610753565b60408051918252519081900360200190f35b61012b6004803603602081101561019d57600080fd5b8101906020810181356401000000008111156101b857600080fd5b8201836020820111156101ca57600080fd5b803590602001918460018302840111640100000000831117156101ec57600080fd5b91908080601f016020809104026020016040519081016040528093929190818152602001838380828437600092019190915250929550610759945050505050565b34801561023957600080fd5b5061012b6004803603604081101561025057600080fd5b81019060208101813564010000000081111561026b57600080fd5b82018360208201111561027d57600080fd5b8035906020019184602083028401116401000000008311171561029f57600080fd5b919080806020026020016040519081016040528093929190818152602001838360200280828437600092019190915250929550505090356001600160a01b031691506108929050565b3480156102f457600080fd5b5061012b610b6d565b34801561030957600080fd5b5061012b6004803603602081101561032057600080fd5b5035610c10565b61012b6004803603606081101561033d57600080fd5b81019060208101813564010000000081111561035857600080fd5b82018360208201111561036a57600080fd5b8035906020019184600183028401116401000000008311171561038c57600080fd5b91908080601f01602080910402602001604051908101604052809392919081815260200183838082843760009201919091525092959493602081019350359150506401000000008111156103df57600080fd5b8201836020820111156103f157600080fd5b8035906020019184602083028401116401000000008311171561041357600080fd5b919080806020026020016040519081016040528093929190818152602001838360200280828437600092019190915250929594936020810193503591505064010000000081111561046357600080fd5b82018360208201111561047557600080fd5b8035906020019184600183028401116401000000008311171561049757600080fd5b91908080601f016020809104026020016040519081016040528093929190818152602001838380828437600092019190915250929550610c6e945050505050565b3480156104e457600080fd5b506104ed610ce7565b604080516001600160a01b039092168252519081900360200190f35b34801561051557600080fd5b5061051e610cf6565b604080519115158252519081900360200190f35b34801561053e57600080fd5b5061012b6004803603602081101561055557600080fd5b50356001600160a01b0316610d1c565b34801561057157600080fd5b5061012b6004803603602081101561058857600080fd5b50356001600160a01b0316610e0e565b3480156105a457600080fd5b5061012b600480360360208110156105bb57600080fd5b5035610e89565b3480156105ce57600080fd5b5061012b600480360360208110156105e557600080fd5b50356001600160a01b0316610f38565b34801561060157600080fd5b50610175610f9d565b34801561061657600080fd5b5061012b600480360360a081101561062d57600080fd5b506001600160a01b0381358116916020810135821691604082013581169160608101359091169060800135610fa3565b610665610cf6565b6106b6576040805162461bcd60e51b815260206004820181905260248201527f4f776e61626c653a2063616c6c6572206973206e6f7420746865206f776e6572604482015290519081900360640190fd5b606680546001600160a01b0319166001600160a01b0392909216919091179055565b6106e0610cf6565b610731576040805162461bcd60e51b815260206004820181905260248201527f4f776e61626c653a2063616c6c6572206973206e6f7420746865206f776e6572604482015290519081900360640190fd5b606780546001600160a01b0319166001600160a01b0392909216919091179055565b606c5481565b610761610cf6565b6107b2576040805162461bcd60e51b815260206004820181905260248201527f4f776e61626c653a2063616c6c6572206973206e6f7420746865206f776e6572604482015290519081900360640190fd5b6066546040517f3f6a178d0000000000000000000000000000000000000000000000000000000081526020600482018181528451602484015284516001600160a01b0390941693633f6a178d93349387939283926044019185019080838360005b8381101561082b578181015183820152602001610813565b50505050905090810190601f1680156108585780820380516001836020036101000a031916815260200191505b50925050506000604051808303818588803b15801561087657600080fd5b505af115801561088a573d6000803e3d6000fd5b505050505050565b61089a610cf6565b6108eb576040805162461bcd60e51b815260206004820181905260248201527f4f776e61626c653a2063616c6c6572206973206e6f7420746865206f776e6572604482015290519081900360640190fd5b606b54606a54101561092e5760405162461bcd60e51b81526004018080602001828103825260428152602001806115ab6042913960600191505060405180910390fd5b6000805b606b5415610b675760685484516000916001600160a01b031690630302215890879063ffffffff861690811061096457fe5b60200260200101516040518263ffffffff1660e01b81526004018082815260200191505060206040518083038186803b1580156109a057600080fd5b505afa1580156109b4573d6000803e3d6000fd5b505050506040513d60208110156109ca57600080fd5b5051604080516318160ddd60e01b815290519194508492506000916001600160a01b038416916318160ddd916004808301926020929190829003018186803b158015610a1557600080fd5b505afa158015610a29573d6000803e3d6000fd5b505050506040513d6020811015610a3f57600080fd5b5051606b54909150811015610ad657836001600160a01b03166379cc679086836040518363ffffffff1660e01b815260040180836001600160a01b03166001600160a01b0316815260200182815260200192505050600060405180830381600087803b158015610aae57600080fd5b505af1158015610ac2573d6000803e3d6000fd5b5050505080606b5403606b81905550610b60565b80606b541015610b6057836001600160a01b03166379cc679086606b546040518363ffffffff1660e01b815260040180836001600160a01b03166001600160a01b0316815260200182815260200192505050600060405180830381600087803b158015610b4257600080fd5b505af1158015610b56573d6000803e3d6000fd5b50506000606b5550505b5050610932565b50505050565b610b75610cf6565b610bc6576040805162461bcd60e51b815260206004820181905260248201527f4f776e61626c653a2063616c6c6572206973206e6f7420746865206f776e6572604482015290519081900360640190fd5b6033546040516000916001600160a01b0316907f8be0079c531659141344cd1fd0a4f28419497f9722a3daafe3b4186f6b6457e0908390a3603380546001600160a01b0319169055565b610c18610cf6565b610c69576040805162461bcd60e51b815260206004820181905260248201527f4f776e61626c653a2063616c6c6572206973206e6f7420746865206f776e6572604482015290519081900360640190fd5b606c55565b610c76610cf6565b610cc7576040805162461bcd60e51b815260206004820181905260248201527f4f776e61626c653a2063616c6c6572206973206e6f7420746865206f776e6572604482015290519081900360640190fd5b610cd0836110a1565b610cd98261137c565b610ce281610759565b505050565b6033546001600160a01b031690565b6033546000906001600160a01b0316610d0d6114ab565b6001600160a01b031614905090565b600054610100900460ff1680610d355750610d356114af565b80610d43575060005460ff16155b610d7e5760405162461bcd60e51b815260040180806020018281038252602e81526020018061157d602e913960400191505060405180910390fd5b600054610100900460ff16158015610da9576000805460ff1961ff0019909116610100171660011790555b603380546001600160a01b0319166001600160a01b0384811691909117918290556040519116906000907f8be0079c531659141344cd1fd0a4f28419497f9722a3daafe3b4186f6b6457e0908290a38015610e0a576000805461ff00191690555b5050565b610e16610cf6565b610e67576040805162461bcd60e51b815260206004820181905260248201527f4f776e61626c653a2063616c6c6572206973206e6f7420746865206f776e6572604482015290519081900360640190fd5b606880546001600160a01b0319166001600160a01b0392909216919091179055565b6066546001600160a01b03163314610ee8576040805162461bcd60e51b815260206004820152601e60248201527f477269644d697820436f6e747261637420646f65736e2774206d617463680000604482015290519081900360640190fd5b6103e860695481610ef557fe5b606c54830291900402606b81905560408051918252517f90936a608b096661304109588e9f775cfee767f0564ab51d7209ee92b85fca619181900360200190a150565b610f40610cf6565b610f91576040805162461bcd60e51b815260206004820181905260248201527f4f776e61626c653a2063616c6c6572206973206e6f7420746865206f776e6572604482015290519081900360640190fd5b610f9a816114b5565b50565b606b5481565b600054610100900460ff1680610fbc5750610fbc6114af565b80610fca575060005460ff16155b6110055760405162461bcd60e51b815260040180806020018281038252602e81526020018061157d602e913960400191505060405180910390fd5b600054610100900460ff16158015611030576000805460ff1961ff0019909116610100171660011790555b6000821161103d57600080fd5b606680546001600160a01b038089166001600160a01b031992831617909255606780548884169083161790556068805492871692909116919091179055606c82905561108883610d1c565b801561088a576000805461ff0019169055505050505050565b600060698190556067546040517f2aea40b40000000000000000000000000000000000000000000000000000000081526020600482018181528551602484015285516060956001600160a01b0390951694632aea40b4948894849360449092019290860191908190849084905b8381101561112657818101518382015260200161110e565b50505050905090810190601f1680156111535780820380516001836020036101000a031916815260200191505b509250505060006040518083038186803b15801561117057600080fd5b505afa158015611184573d6000803e3d6000fd5b505050506040513d6000823e601f3d908101601f1916820160405260208110156111ad57600080fd5b81019080805160405193929190846401000000008211156111cd57600080fd5b9083019060208201858111156111e257600080fd5b82518660208202830111640100000000821117156111ff57600080fd5b82525081516020918201928201910280838360005b8381101561122c578181015183820152602001611214565b505050509050016040525050509050600080600090505b82518163ffffffff161015610b6757828163ffffffff168151811061126457fe5b602002602001015191506000826001600160a01b03166350e4b76a6040518163ffffffff1660e01b815260040160206040518083038186803b1580156112a957600080fd5b505afa1580156112bd573d6000803e3d6000fd5b505050506040513d60208110156112d357600080fd5b5051604080517f0ab08a7f00000000000000000000000000000000000000000000000000000000815290519192506000916001600160a01b03861691630ab08a7f916004808301926020929190829003018186803b15801561133457600080fd5b505afa158015611348573d6000803e3d6000fd5b505050506040513d602081101561135e57600080fd5b505160698054610e1090940490910290920190915550600101611243565b6000606a819055805b82518163ffffffff161015610ce25760685483516000916001600160a01b031690630302215890869063ffffffff86169081106113be57fe5b60200260200101516040518263ffffffff1660e01b81526004018082815260200191505060206040518083038186803b1580156113fa57600080fd5b505afa15801561140e573d6000803e3d6000fd5b505050506040513d602081101561142457600080fd5b5051604080516318160ddd60e01b815290519194508492506001600160a01b038316916318160ddd91600480820192602092909190829003018186803b15801561146d57600080fd5b505afa158015611481573d6000803e3d6000fd5b505050506040513d602081101561149757600080fd5b5051606a8054909101905550600101611385565b3390565b303b1590565b6001600160a01b0381166114fa5760405162461bcd60e51b81526004018080602001828103825260268152602001806115576026913960400191505060405180910390fd5b6033546040516001600160a01b038084169216907f8be0079c531659141344cd1fd0a4f28419497f9722a3daafe3b4186f6b6457e090600090a3603380546001600160a01b0319166001600160a01b039290921691909117905556fe4f776e61626c653a206e6577206f776e657220697320746865207a65726f2061646472657373436f6e747261637420696e7374616e63652068617320616c7265616479206265656e20696e697469616c697a65644e6f7420456e6f756768204f6666736574732c2074727920616761696e20616674657220746f7070696e67207570207573696e672073746172744f66667365742829a265627a7a7231582064c1b45e80efb81564b11f52c9eaf9d27d24bc480c4ab3ff917051ec1a64f9b764736f6c63430005110032",
  "compiler": {
    "name": "solc",
    "version": "0.5.17+commit.d19bba13.Emscripten.clang",
    "optimizer": {
      "enabled": true,
      "runs": 1000
    },
    "evmVersion": "petersburg"
  }
}